{
  "contractName": "BancorGasPriceLimit",
  "abi": [
    {
      "constant": false,
      "inputs": [],
      "name": "acceptOwnership",
      "outputs": [],
      "payable": false,
      "stateMutability": "nonpayable",
      "type": "function"
    },
    {
      "constant": true,
      "inputs": [],
      "name": "owner",
      "outputs": [
        {
          "name": "",
          "type": "address"
        }
      ],
      "payable": false,
      "stateMutability": "view",
      "type": "function"
    },
    {
      "constant": true,
      "inputs": [],
      "name": "newOwner",
      "outputs": [
        {
          "name": "",
          "type": "address"
        }
      ],
      "payable": false,
      "stateMutability": "view",
      "type": "function"
    },
    {
      "constant": false,
      "inputs": [
        {
          "name": "_newOwner",
          "type": "address"
        }
      ],
      "name": "transferOwnership",
      "outputs": [],
      "payable": false,
      "stateMutability": "nonpayable",
      "type": "function"
    },
    {
      "constant": true,
      "inputs": [],
      "name": "gasPrice",
      "outputs": [
        {
          "name": "",
          "type": "uint256"
        }
      ],
      "payable": false,
      "stateMutability": "view",
      "type": "function"
    },
    {
      "inputs": [
        {
          "name": "_gasPrice",
          "type": "uint256"
        }
      ],
      "payable": false,
      "stateMutability": "nonpayable",
      "type": "constructor"
    },
    {
      "anonymous": false,
      "inputs": [
        {
          "indexed": true,
          "name": "_prevOwner",
          "type": "address"
        },
        {
          "indexed": true,
          "name": "_newOwner",
          "type": "address"
        }
      ],
      "name": "OwnerUpdate",
      "type": "event"
    },
    {
      "constant": false,
      "inputs": [
        {
          "name": "_gasPrice",
          "type": "uint256"
        }
      ],
      "name": "setGasPrice",
      "outputs": [],
      "payable": false,
      "stateMutability": "nonpayable",
      "type": "function"
    }
  ],
  "bytecode": "0x60606040526000600255341561001457600080fd5b6040516020806102ff8339810160405280805160008054600160a060020a03191633600160a060020a0316178155909250829150811161005357600080fd5b50600255610299806100666000396000f3006060604052600436106100775763ffffffff7c010000000000000000000000000000000000000000000000000000000060003504166379ba5097811461007c5780638da5cb5b14610091578063bf1fe420146100c0578063d4ee1d90146100d6578063f2fde38b146100e9578063fe173b9714610108575b600080fd5b341561008757600080fd5b61008f61012d565b005b341561009c57600080fd5b6100a46101bb565b604051600160a060020a03909116815260200160405180910390f35b34156100cb57600080fd5b61008f6004356101ca565b34156100e157600080fd5b6100a46101f6565b34156100f457600080fd5b61008f600160a060020a0360043516610205565b341561011357600080fd5b61011b610267565b60405190815260200160405180910390f35b60015433600160a060020a0390811691161461014857600080fd5b600154600054600160a060020a0391821691167f343765429aea5a34b3ff6a3785a98a5abb2597aca87bfbb58632c173d585373a60405160405180910390a3600180546000805473ffffffffffffffffffffffffffffffffffffffff19908116600160a060020a03841617909155169055565b600054600160a060020a031681565b60005433600160a060020a039081169116146101e257fe5b80600081116101f057600080fd5b50600255565b600154600160a060020a031681565b60005433600160a060020a0390811691161461021d57fe5b600054600160a060020a038281169116141561023857600080fd5b6001805473ffffffffffffffffffffffffffffffffffffffff1916600160a060020a0392909216919091179055565b600254815600a165627a7a723058208e2807f78825021f142c2790da11b6670fbaa5dcd0ff99d3d430a2816eb965800029",
  "source": "pragma solidity ^0.4.18;\nimport './Owned.sol';\nimport './Utils.sol';\nimport './interfaces/IBancorGasPriceLimit.sol';\n\n/*\n    The BancorGasPriceLimit contract serves as an extra front-running attack mitigation mechanism.\n    It sets a maximum gas price on all bancor conversions, which prevents users from \"cutting in line\"\n    in order to front-run other transactions.\n    The gas price limit is universal to all converters and it can be updated by the owner to be in line\n    with the network's current gas price.\n*/\ncontract BancorGasPriceLimit is IBancorGasPriceLimit, Owned, Utils {\n    uint256 public gasPrice = 0 wei;    // maximum gas price for bancor transactions\n\n    /**\n        @dev constructor\n\n        @param _gasPrice    gas price limit\n    */\n    function BancorGasPriceLimit(uint256 _gasPrice)\n        public\n        greaterThanZero(_gasPrice)\n    {\n        gasPrice = _gasPrice;\n    }\n\n    /*\n        @dev allows the owner to update the gas price limit\n\n        @param _gasPrice    new gas price limit\n    */\n    function setGasPrice(uint256 _gasPrice)\n        public\n        ownerOnly\n        greaterThanZero(_gasPrice)\n    {\n        gasPrice = _gasPrice;\n    }\n}\n",
  "sourcePath": "/Users/rudo/Documents/ichiba/submodules/contracts/solidity/contracts/BancorGasPriceLimit.sol",
  "compiler": {
    "name": "solc",
    "version": "0.4.21+commit.dfe3193c.Emscripten.clang"
  },
  "schemaVersion": "2.0.0",
  "updatedAt": "2018-08-03T10:06:33.417Z"
}