{
  "contractName": "BancorConverterFactory",
  "abi": [
    {
      "inputs": [],
      "payable": false,
      "stateMutability": "nonpayable",
      "type": "constructor"
    },
    {
      "anonymous": false,
      "inputs": [
        {
          "indexed": true,
          "name": "_converter",
          "type": "address"
        },
        {
          "indexed": true,
          "name": "_owner",
          "type": "address"
        }
      ],
      "name": "NewConverter",
      "type": "event"
    },
    {
      "constant": false,
      "inputs": [
        {
          "name": "_token",
          "type": "address"
        },
        {
          "name": "_registry",
          "type": "address"
        },
        {
          "name": "_maxConversionFee",
          "type": "uint32"
        },
        {
          "name": "_connectorToken",
          "type": "address"
        },
        {
          "name": "_connectorWeight",
          "type": "uint32"
        }
      ],
      "name": "createConverter",
      "outputs": [
        {
          "name": "converterAddress",
          "type": "address"
        }
      ],
      "payable": false,
      "stateMutability": "nonpayable",
      "type": "function"
    }
  ],
  "bytecode": "0x608060405234801561001057600080fd5b50614a3f806100206000396000f3006080604052600436106100405763ffffffff7c0100000000000000000000000000000000000000000000000000000000600035041663034efaeb8114610045575b600080fd5b34801561005157600080fd5b5061008f73ffffffffffffffffffffffffffffffffffffffff60043581169060243581169063ffffffff6044358116916064351690608435166100b8565b6040805173ffffffffffffffffffffffffffffffffffffffff9092168252519081900360200190f35b600080600087878787876100ca61028c565b73ffffffffffffffffffffffffffffffffffffffff9586168152938516602085015263ffffffff9283166040808601919091529190941660608401529216608082015290519081900360a001906000f08015801561012c573d6000803e3d6000fd5b50604080517ff2fde38b000000000000000000000000000000000000000000000000000000008152336004820152905191935073ffffffffffffffffffffffffffffffffffffffff84169163f2fde38b9160248082019260009290919082900301818387803b15801561019e57600080fd5b505af11580156101b2573d6000803e3d6000fd5b5050604080517fe4edf852000000000000000000000000000000000000000000000000000000008152336004820152905173ffffffffffffffffffffffffffffffffffffffff8616935063e4edf8529250602480830192600092919082900301818387803b15801561022357600080fd5b505af1158015610237573d6000803e3d6000fd5b505060405184935033925073ffffffffffffffffffffffffffffffffffffffff841691507fb54eb8f70476910bea510b4ca1ece1fdb11eeb345b0d46221dd40ba86e64953390600090a3979650505050505050565b6040516147778061029d83390190560060c0604052600460808190527f302e31300000000000000000000000000000000000000000000000000000000060a090815262000040916005919062000579565b506040805180820190915260068082527f62616e636f720000000000000000000000000000000000000000000000000000602090920191825262000085918162000579565b50600c80546001606860020a0319166c01000000000000000000000000179055348015620000b257600080fd5b5060405160a080620047778339810160409081528151602083015191830151606084015160809094015160008054600160a060020a03191633178155929491928580600160a060020a03811615156200010a57600080fd5b5060028054600160a060020a03928316600160a060020a03199182161790915560038054909116331790558590811615156200014557600080fd5b8460008163ffffffff1610158015620001675750620f424063ffffffff821611155b15156200017357600080fd5b60078054600160a060020a031916600160a060020a038981169190911791829055604080517fbb34534c0000000000000000000000000000000000000000000000000000000081527f436f6e747261637446656174757265730000000000000000000000000000000060048201529051929091169163bb34534c916024808201926020929091908290030181600087803b1580156200021157600080fd5b505af115801562000226573d6000803e3d6000fd5b505050506040513d60208110156200023d57600080fd5b50519250600160a060020a03831615620002d457604080517f2c7077c000000000000000000000000000000000000000000000000000000000815260016004820181905260248201529051600160a060020a03851691632c7077c091604480830192600092919082900301818387803b158015620002ba57600080fd5b505af1158015620002cf573d6000803e3d6000fd5b505050505b600c805467ffffffff00000000191664010000000063ffffffff891602179055600160a060020a038516156200031b576200031b8585600064010000000062000329810204565b50505050505050506200061e565b600054600160a060020a031633146200033e57fe5b600254604080517f8da5cb5b00000000000000000000000000000000000000000000000000000000815290513092600160a060020a031691638da5cb5b9160048083019260209291908290030181600087803b1580156200039e57600080fd5b505af1158015620003b3573d6000803e3d6000fd5b505050506040513d6020811015620003ca57600080fd5b5051600160a060020a03161415620003de57fe5b82600160a060020a0381161515620003f557600080fd5b83600160a060020a0381163014156200040d57600080fd5b8360008163ffffffff161180156200042e5750620f424063ffffffff821611155b15156200043a57600080fd5b600254600160a060020a038781169116148015906200047f5750600160a060020a0386166000908152600b60205260409020600101546601000000000000900460ff16155b80156200049e5750600c54620f424063ffffffff918216870190911611155b1515620004aa57600080fd5b505050600160a060020a039092166000818152600b602052604081208181556001908101805466ff0000000000001965ff0000000000199715156401000000000264ff000000001963ffffffff808a1663ffffffff19958616179190911691909117989098166501000000000017166601000000000000179091556009805492830181559092527f6e1540171b6c0c960b71a7020d9f60077f6af931a8bbf590da0223dacf75c7af018054600160a060020a031916909217909155600c80548085169093019093169116179055565b828054600181600116156101000203166002900490600052602060002090601f016020900481019282601f10620005bc57805160ff1916838001178555620005ec565b82800160010185558215620005ec579182015b82811115620005ec578251825591602001919060010190620005cf565b50620005fa929150620005fe565b5090565b6200061b91905b80821115620005fa576000815560010162000605565b90565b614149806200062e6000396000f3006080604052600436106102715763ffffffff7c01000000000000000000000000000000000000000000000000000000006000350416630ca7892381146102e75780630e53aae91461032857806319b640151461038a5780631e1401f8146103cb57806321e6b53d146104145780632274256414610442578063228d2820146104aa5780632a2e2f0c146104c457806338a5e016146104fe5780633aa0145a146105135780633e8ff43f146105315780633f4d2fc2146105bb57806341a5b33d146105f7578063429060291461062e578063481c6a75146106435780634af80f0e146106585780634e2280c414610686578063514385be1461069b57806354fd4d50146106ce578063579cd3ca146106e35780635a46f06c146107115780635e35359e146107265780635e5144eb1461075d5780636d7bd3fc1461079757806371f52bf3146107ac57806372b44b2c146107d857806375892cf11461080957806379ba5097146108435780637b1039991461085857806383315b6e1461086d57806385d5e631146108825780638da5cb5b1461089c5780638e3047e0146108b15780639232494e146108e85780639249993a146108fd57806392d1abb7146109125780639396a7f01461092757806394c275ad1461093c578063a2c4c33614610951578063a91ee0dc14610982578063bf754558146109b0578063c45d3d92146109d9578063c8c2fe6c146109ee578063d395ee0f14610a03578063d4ee1d9014610a58578063d895951214610a6d578063e4edf85214610a9b578063e7ee85a514610ac9578063ecbca55d14610ae1578063f0843ba914610aff578063f2fde38b14610b50578063fc0c546a14610b7e575b6102e4600a8054806020026020016040519081016040528092919081815260200182805480156102d757602002820191906000526020600020905b815473ffffffffffffffffffffffffffffffffffffffff1681526001909101906020018083116102ac575b5050505050346001610b93565b50005b3480156102f357600080fd5b5061032673ffffffffffffffffffffffffffffffffffffffff6004351663ffffffff602435166044351515606435610bde565b005b34801561033457600080fd5b5061035673ffffffffffffffffffffffffffffffffffffffff60043516610d4a565b6040805195865263ffffffff9094166020860152911515848401521515606084015215156080830152519081900360a00190f35b34801561039657600080fd5b506103a2600435610d90565b6040805173ffffffffffffffffffffffffffffffffffffffff9092168252519081900360200190f35b3480156103d757600080fd5b5061040273ffffffffffffffffffffffffffffffffffffffff60043581169060243516604435610dc5565b60408051918252519081900360200190f35b34801561042057600080fd5b5061032673ffffffffffffffffffffffffffffffffffffffff60043516610e63565b6040805160206004803580820135838102808601850190965280855261040295369593946024949385019291829185019084908082843750949750508435955050506020830135926040810135925060ff606082013516915060808101359060a00135610f13565b3480156104b657600080fd5b5061032660043515156113d3565b3480156104d057600080fd5b5061040273ffffffffffffffffffffffffffffffffffffffff6004358116906024351660443560643561145a565b34801561050a57600080fd5b50610326611a94565b34801561051f57600080fd5b5061040260043560ff60243516611b55565b34801561053d57600080fd5b50610546611bb1565b6040805160208082528351818301528351919283929083019185019080838360005b83811015610580578181015183820152602001610568565b50505050905090810190601f1680156105ad5780820380516001836020036101000a031916815260200191505b509250505060405180910390f35b3480156105c757600080fd5b5061032673ffffffffffffffffffffffffffffffffffffffff6004351663ffffffff602435166044351515611c5d565b34801561060357600080fd5b5061032673ffffffffffffffffffffffffffffffffffffffff60043581169060243516604435611f87565b34801561063a57600080fd5b506103a2612048565b34801561064f57600080fd5b506103a2612064565b34801561066457600080fd5b5061032673ffffffffffffffffffffffffffffffffffffffff60043516612080565b34801561069257600080fd5b5061032661210d565b3480156106a757600080fd5b5061032673ffffffffffffffffffffffffffffffffffffffff60043516602435151561213e565b3480156106da57600080fd5b50610546612203565b3480156106ef57600080fd5b506106f861227c565b6040805163ffffffff9092168252519081900360200190f35b34801561071d57600080fd5b50610402612294565b34801561073257600080fd5b5061032673ffffffffffffffffffffffffffffffffffffffff600435811690602435166044356122b8565b34801561076957600080fd5b5061040273ffffffffffffffffffffffffffffffffffffffff60043581169060243516604435606435612422565b3480156107a357600080fd5b50610402612430565b3480156107b857600080fd5b506107c1612454565b6040805161ffff9092168252519081900360200190f35b3480156107e457600080fd5b5061040273ffffffffffffffffffffffffffffffffffffffff6004351660243561245b565b34801561081557600080fd5b5061040273ffffffffffffffffffffffffffffffffffffffff600435811690602435166044356064356127db565b34801561084f57600080fd5b50610326612896565b34801561086457600080fd5b506103a2612950565b34801561087957600080fd5b5061040261296c565b34801561088e57600080fd5b506103266004351515612990565b3480156108a857600080fd5b506103a2612a25565b3480156108bd57600080fd5b5061040273ffffffffffffffffffffffffffffffffffffffff60043581169060243516604435612a41565b3480156108f457600080fd5b50610402612dc6565b34801561090957600080fd5b50610402612dea565b34801561091e57600080fd5b50610402612e0e565b34801561093357600080fd5b50610402612e13565b34801561094857600080fd5b506106f8612e19565b34801561095d57600080fd5b5061040273ffffffffffffffffffffffffffffffffffffffff60043516602435612e2d565b34801561098e57600080fd5b5061032673ffffffffffffffffffffffffffffffffffffffff600435166131b4565b3480156109bc57600080fd5b506109c5613265565b604080519115158252519081900360200190f35b3480156109e557600080fd5b506103a261327e565b3480156109fa57600080fd5b5061032661329a565b348015610a0f57600080fd5b5060408051602060048035808201358381028086018501909652808552610326953695939460249493850192918291850190849080828437509497506133569650505050505050565b348015610a6457600080fd5b506103a26133bf565b348015610a7957600080fd5b5061040273ffffffffffffffffffffffffffffffffffffffff600435166133db565b348015610aa757600080fd5b5061032673ffffffffffffffffffffffffffffffffffffffff60043516613506565b348015610ad557600080fd5b506103a26004356135bd565b348015610aed57600080fd5b5061032663ffffffff600435166135cb565b6040805160206004803580820135838102808601850190965280855261040295369593946024949385019291829185019084908082843750949750508435955050506020909201359150610b939050565b348015610b5c57600080fd5b5061032673ffffffffffffffffffffffffffffffffffffffff600435166136df565b348015610b8a57600080fd5b506103a261376f565b60008360028151118015610ba957506015815111155b8015610bba57508051600290066001145b1515610bc557600080fd5b610bd58585856000808080610f13565b95945050505050565b6000805473ffffffffffffffffffffffffffffffffffffffff163314610c0057fe5b73ffffffffffffffffffffffffffffffffffffffff85166000908152600b602052604090206001015485906601000000000000900460ff161515610c4357600080fd5b8460008163ffffffff16118015610c635750620f424063ffffffff821611155b1515610c6e57600080fd5b73ffffffffffffffffffffffffffffffffffffffff87166000908152600b602052604090206001810154600c54919450620f424063ffffffff918216928216929092038801161115610cbf57600080fd5b5050600181018054600c805463ffffffff92831681841603880183167fffffffffffffffffffffffffffffffffffffffffffffffffffffffff00000000918216179091558254951515640100000000027fffffffffffffffffffffffffffffffffffffffffffffffffffffff00ffffffff929097169516949094179390931693909317909155905550565b600b602052600090815260409020805460019091015463ffffffff81169060ff640100000000820481169165010000000000810482169166010000000000009091041685565b6009805482908110610d9e57fe5b60009182526020909120015473ffffffffffffffffffffffffffffffffffffffff16905081565b600073ffffffffffffffffffffffffffffffffffffffff8481169084161415610ded57600080fd5b60025473ffffffffffffffffffffffffffffffffffffffff84811691161415610e2157610e1a8483612e2d565b9050610e5c565b60025473ffffffffffffffffffffffffffffffffffffffff85811691161415610e4e57610e1a838361245b565b610e59848484612a41565b90505b9392505050565b60005473ffffffffffffffffffffffffffffffffffffffff163314610e8457fe5b600254604080517ff2fde38b00000000000000000000000000000000000000000000000000000000815273ffffffffffffffffffffffffffffffffffffffff84811660048301529151919092169163f2fde38b91602480830192600092919082900301818387803b158015610ef857600080fd5b505af1158015610f0c573d6000803e3d6000fd5b5050505050565b60008060008960028151118015610f2c57506015815111155b8015610f3d57508051600290066001145b1515610f4857600080fd5b8a6000815181101515610f5757fe5b6020908102909101810151600754604080517fbb34534c0000000000000000000000000000000000000000000000000000000081527f42616e636f724e6574776f726b000000000000000000000000000000000000006004820152905192965073ffffffffffffffffffffffffffffffffffffffff9091169263bb34534c926024808401938290030181600087803b158015610ff257600080fd5b505af1158015611006573d6000803e3d6000fd5b505050506040513d602081101561101c57600080fd5b505191503415156112705760025473ffffffffffffffffffffffffffffffffffffffff848116911614156111bd57600254604080517fa24835d1000000000000000000000000000000000000000000000000000000008152336004820152602481018d9052905173ffffffffffffffffffffffffffffffffffffffff9092169163a24835d19160448082019260009290919082900301818387803b1580156110c357600080fd5b505af11580156110d7573d6000803e3d6000fd5b50505050600260009054906101000a900473ffffffffffffffffffffffffffffffffffffffff1673ffffffffffffffffffffffffffffffffffffffff1663867904b4838c6040518363ffffffff167c0100000000000000000000000000000000000000000000000000000000028152600401808373ffffffffffffffffffffffffffffffffffffffff1673ffffffffffffffffffffffffffffffffffffffff16815260200182815260200192505050600060405180830381600087803b1580156111a057600080fd5b505af11580156111b4573d6000803e3d6000fd5b50505050611270565b604080517f23b872dd00000000000000000000000000000000000000000000000000000000815233600482015273ffffffffffffffffffffffffffffffffffffffff8481166024830152604482018d90529151918516916323b872dd916064808201926020929091908290030181600087803b15801561123c57600080fd5b505af1158015611250573d6000803e3d6000fd5b505050506040513d602081101561126657600080fd5b5051151561127057fe5b8173ffffffffffffffffffffffffffffffffffffffff16636b08f2ef348d8d8d338e8e8e8e6040518a63ffffffff167c010000000000000000000000000000000000000000000000000000000002815260040180806020018981526020018881526020018773ffffffffffffffffffffffffffffffffffffffff1673ffffffffffffffffffffffffffffffffffffffff1681526020018681526020018560ff1660ff1681526020018460001916600019168152602001836000191660001916815260200182810382528a818151815260200191508051906020019060200280838360005b8381101561136c578181015183820152602001611354565b5050505090500199505050505050505050506020604051808303818588803b15801561139757600080fd5b505af11580156113ab573d6000803e3d6000fd5b50505050506040513d60208110156113c257600080fd5b50519b9a5050505050505050505050565b60005473ffffffffffffffffffffffffffffffffffffffff16331480611410575060035473ffffffffffffffffffffffffffffffffffffffff1633145b151561141b57600080fd5b600c80547fffffffffffffffffffffffffffffffffffffff00ffffffffffffffffffffffff1691156c0100000000000000000000000002919091179055565b600754604080517fbb34534c0000000000000000000000000000000000000000000000000000000081527f42616e636f724e6574776f726b000000000000000000000000000000000000006004820152905160009283928392839283928392839273ffffffffffffffffffffffffffffffffffffffff169163bb34534c91602480830192602092919082900301818787803b1580156114f857600080fd5b505af115801561150c573d6000803e3d6000fd5b505050506040513d602081101561152257600080fd5b505190503373ffffffffffffffffffffffffffffffffffffffff82161461154857600080fd5b600c546c01000000000000000000000000900460ff16151561156657fe5b876000811161157457600080fd5b73ffffffffffffffffffffffffffffffffffffffff8c8116908c16141561159a57600080fd5b60025473ffffffffffffffffffffffffffffffffffffffff8c8116911614156115cf576115c88c8b8b61378b565b9750611a85565b60025473ffffffffffffffffffffffffffffffffffffffff8d8116911614156115fd576115c88b8b8b613aa2565b6116088c8c8c612a41565b965086158015906116195750888710155b151561162457600080fd5b73ffffffffffffffffffffffffffffffffffffffff8c166000908152600b602052604090206001810154909650640100000000900460ff161561167057855461166d908b613f43565b86555b73ffffffffffffffffffffffffffffffffffffffff8b166000908152600b602052604090206001810154909550640100000000900460ff16156116bc5784546116b99088613f52565b85555b6116c58b6133db565b93508387106116d057fe5b604080517f23b872dd000000000000000000000000000000000000000000000000000000008152336004820152306024820152604481018c9052905173ffffffffffffffffffffffffffffffffffffffff8e16916323b872dd9160648083019260209291908290030181600087803b15801561174b57600080fd5b505af115801561175f573d6000803e3d6000fd5b505050506040513d602081101561177557600080fd5b5051151561177f57fe5b604080517fa9059cbb00000000000000000000000000000000000000000000000000000000815233600482015260248101899052905173ffffffffffffffffffffffffffffffffffffffff8d169163a9059cbb9160448083019260209291908290030181600087803b1580156117f457600080fd5b505af1158015611808573d6000803e3d6000fd5b505050506040513d602081101561181e57600080fd5b5051151561182857fe5b61183c87611837896002611b55565b613f52565b925061184b8c8c8c8a87613f64565b8b73ffffffffffffffffffffffffffffffffffffffff167f8a6a7f53b3c8fa1dc4b83e3f1be668c1b251ff8d44cdcb83eb3acec3fec6a788600260009054906101000a900473ffffffffffffffffffffffffffffffffffffffff1673ffffffffffffffffffffffffffffffffffffffff166318160ddd6040518163ffffffff167c0100000000000000000000000000000000000000000000000000000000028152600401602060405180830381600087803b15801561190957600080fd5b505af115801561191d573d6000803e3d6000fd5b505050506040513d602081101561193357600080fd5b505161193e8f6133db565b60018a015460408051938452602084019290925263ffffffff1682820152519081900360600190a28a73ffffffffffffffffffffffffffffffffffffffff167f8a6a7f53b3c8fa1dc4b83e3f1be668c1b251ff8d44cdcb83eb3acec3fec6a788600260009054906101000a900473ffffffffffffffffffffffffffffffffffffffff1673ffffffffffffffffffffffffffffffffffffffff166318160ddd6040518163ffffffff167c0100000000000000000000000000000000000000000000000000000000028152600401602060405180830381600087803b158015611a2457600080fd5b505af1158015611a38573d6000803e3d6000fd5b505050506040513d6020811015611a4e57600080fd5b5051611a598e6133db565b600189015460408051938452602084019290925263ffffffff1682820152519081900360600190a28697505b50505050505050949350505050565b60005473ffffffffffffffffffffffffffffffffffffffff163314611ab557fe5b600260009054906101000a900473ffffffffffffffffffffffffffffffffffffffff1673ffffffffffffffffffffffffffffffffffffffff166379ba50976040518163ffffffff167c0100000000000000000000000000000000000000000000000000000000028152600401600060405180830381600087803b158015611b3b57600080fd5b505af1158015611b4f573d6000803e3d6000fd5b50505050565b60008160ff16620f42400a67ffffffffffffffff16611ba0848460ff16600c60089054906101000a900463ffffffff1663ffffffff16620f4240030a67ffffffffffffffff16613ff5565b811515611ba957fe5b049392505050565b6006805460408051602060026001851615610100027fffffffffffffffffffffffffffffffffffffffffffffffffffffffffffffffff0190941693909304601f81018490048402820184019092528181529291830182828015611c555780601f10611c2a57610100808354040283529160200191611c55565b820191906000526020600020905b815481529060010190602001808311611c3857829003601f168201915b505050505081565b60005473ffffffffffffffffffffffffffffffffffffffff163314611c7e57fe5b600254604080517f8da5cb5b0000000000000000000000000000000000000000000000000000000081529051309273ffffffffffffffffffffffffffffffffffffffff1691638da5cb5b9160048083019260209291908290030181600087803b158015611cea57600080fd5b505af1158015611cfe573d6000803e3d6000fd5b505050506040513d6020811015611d1457600080fd5b505173ffffffffffffffffffffffffffffffffffffffff161415611d3457fe5b8273ffffffffffffffffffffffffffffffffffffffff81161515611d5757600080fd5b8373ffffffffffffffffffffffffffffffffffffffff8116301415611d7b57600080fd5b8360008163ffffffff16118015611d9b5750620f424063ffffffff821611155b1515611da657600080fd5b60025473ffffffffffffffffffffffffffffffffffffffff878116911614801590611e04575073ffffffffffffffffffffffffffffffffffffffff86166000908152600b60205260409020600101546601000000000000900460ff16155b8015611e225750600c54620f424063ffffffff918216870190911611155b1515611e2d57600080fd5b50505073ffffffffffffffffffffffffffffffffffffffff9092166000818152600b60205260408120818155600190810180547fffffffffffffffffffffffffffffffffffffffffffffffffff00ffffffffffff7fffffffffffffffffffffffffffffffffffffffffffffffffffff00ffffffffff971515640100000000027fffffffffffffffffffffffffffffffffffffffffffffffffffffff00ffffffff63ffffffff808a167fffffffffffffffffffffffffffffffffffffffffffffffffffffffff00000000958616179190911691909117989098166501000000000017166601000000000000179091556009805492830181559092527f6e1540171b6c0c960b71a7020d9f60077f6af931a8bbf590da0223dacf75c7af0180547fffffffffffffffffffffffff000000000000000000000000000000000000000016909217909155600c80548085169093019093169116179055565b60005473ffffffffffffffffffffffffffffffffffffffff163314611fa857fe5b600254604080517f5e35359e00000000000000000000000000000000000000000000000000000000815273ffffffffffffffffffffffffffffffffffffffff868116600483015285811660248301526044820185905291519190921691635e35359e91606480830192600092919082900301818387803b15801561202b57600080fd5b505af115801561203f573d6000803e3d6000fd5b50505050505050565b60045473ffffffffffffffffffffffffffffffffffffffff1681565b60035473ffffffffffffffffffffffffffffffffffffffff1681565b60005473ffffffffffffffffffffffffffffffffffffffff1633146120a157fe5b8073ffffffffffffffffffffffffffffffffffffffff81163014156120c557600080fd5b50600880547fffffffffffffffffffffffff00000000000000000000000000000000000000001673ffffffffffffffffffffffffffffffffffffffff92909216919091179055565b60005473ffffffffffffffffffffffffffffffffffffffff16331461212e57fe5b600061213b600a82614019565b50565b60005473ffffffffffffffffffffffffffffffffffffffff16331461215f57fe5b73ffffffffffffffffffffffffffffffffffffffff82166000908152600b602052604090206001015482906601000000000000900460ff1615156121a257600080fd5b5073ffffffffffffffffffffffffffffffffffffffff919091166000908152600b6020526040902060010180547fffffffffffffffffffffffffffffffffffffffffffffffffffff00ffffffffff1691156501000000000002919091179055565b6005805460408051602060026001851615610100027fffffffffffffffffffffffffffffffffffffffffffffffffffffffffffffffff0190941693909304601f81018490048402820184019092528181529291830182828015611c555780601f10611c2a57610100808354040283529160200191611c55565b600c5468010000000000000000900463ffffffff1681565b7f42616e636f72436f6e766572746572466163746f72790000000000000000000081565b60005473ffffffffffffffffffffffffffffffffffffffff1633146122d957fe5b8273ffffffffffffffffffffffffffffffffffffffff811615156122fc57600080fd5b8273ffffffffffffffffffffffffffffffffffffffff8116151561231f57600080fd5b8373ffffffffffffffffffffffffffffffffffffffff811630141561234357600080fd5b8573ffffffffffffffffffffffffffffffffffffffff1663a9059cbb86866040518363ffffffff167c0100000000000000000000000000000000000000000000000000000000028152600401808373ffffffffffffffffffffffffffffffffffffffff1673ffffffffffffffffffffffffffffffffffffffff16815260200182815260200192505050602060405180830381600087803b1580156123e657600080fd5b505af11580156123fa573d6000803e3d6000fd5b505050506040513d602081101561241057600080fd5b5051151561241a57fe5b505050505050565b6000610bd58585858561145a565b7f42616e636f72466f726d756c610000000000000000000000000000000000000081565b6009545b90565b6000806000806000803073ffffffffffffffffffffffffffffffffffffffff16600260009054906101000a900473ffffffffffffffffffffffffffffffffffffffff1673ffffffffffffffffffffffffffffffffffffffff16638da5cb5b6040518163ffffffff167c0100000000000000000000000000000000000000000000000000000000028152600401602060405180830381600087803b15801561250157600080fd5b505af1158015612515573d6000803e3d6000fd5b505050506040513d602081101561252b57600080fd5b505173ffffffffffffffffffffffffffffffffffffffff161461254a57fe5b73ffffffffffffffffffffffffffffffffffffffff88166000908152600b602052604090206001015488906601000000000000900460ff16151561258d57600080fd5b73ffffffffffffffffffffffffffffffffffffffff808a166000908152600b6020908152604080832060025482517f18160ddd0000000000000000000000000000000000000000000000000000000081529251919b50909416936318160ddd93600480840194938390030190829087803b15801561260a57600080fd5b505af115801561261e573d6000803e3d6000fd5b505050506040513d602081101561263457600080fd5b50519450612641896133db565b600754604080517fbb34534c0000000000000000000000000000000000000000000000000000000081527f42616e636f72466f726d756c61000000000000000000000000000000000000006004820152905192965073ffffffffffffffffffffffffffffffffffffffff9091169163bb34534c916024808201926020929091908290030181600087803b1580156126d757600080fd5b505af11580156126eb573d6000803e3d6000fd5b505050506040513d602081101561270157600080fd5b50516001870154604080517f49f9b0f7000000000000000000000000000000000000000000000000000000008152600481018990526024810188905263ffffffff9092166044830152606482018b90525191945073ffffffffffffffffffffffffffffffffffffffff8516916349f9b0f7916084808201926020929091908290030181600087803b15801561279557600080fd5b505af11580156127a9573d6000803e3d6000fd5b505050506040513d60208110156127bf57600080fd5b505191506127ce826001611b55565b9998505050505050505050565b6040805160608101825273ffffffffffffffffffffffffffffffffffffffff80871682526002548116602083015285169181019190915260009061282390600d90600361403d565b50610bd5600d80548060200260200160405190810160405280929190818152602001828054801561288a57602002820191906000526020600020905b815473ffffffffffffffffffffffffffffffffffffffff16815260019091019060200180831161285f575b50505050508484610b93565b60015473ffffffffffffffffffffffffffffffffffffffff1633146128ba57600080fd5b6001546000805460405173ffffffffffffffffffffffffffffffffffffffff93841693909116917f343765429aea5a34b3ff6a3785a98a5abb2597aca87bfbb58632c173d585373a91a360018054600080547fffffffffffffffffffffffff000000000000000000000000000000000000000090811673ffffffffffffffffffffffffffffffffffffffff841617909155169055565b60075473ffffffffffffffffffffffffffffffffffffffff1681565b7f436f6e747261637446656174757265730000000000000000000000000000000081565b60005473ffffffffffffffffffffffffffffffffffffffff1633146129b157fe5b600254604080517f1608f18f0000000000000000000000000000000000000000000000000000000081528315156004820152905173ffffffffffffffffffffffffffffffffffffffff90921691631608f18f9160248082019260009290919082900301818387803b158015610ef857600080fd5b60005473ffffffffffffffffffffffffffffffffffffffff1681565b60008060008060008060003073ffffffffffffffffffffffffffffffffffffffff16600260009054906101000a900473ffffffffffffffffffffffffffffffffffffffff1673ffffffffffffffffffffffffffffffffffffffff16638da5cb5b6040518163ffffffff167c0100000000000000000000000000000000000000000000000000000000028152600401602060405180830381600087803b158015612ae957600080fd5b505af1158015612afd573d6000803e3d6000fd5b505050506040513d6020811015612b1357600080fd5b505173ffffffffffffffffffffffffffffffffffffffff1614612b3257fe5b73ffffffffffffffffffffffffffffffffffffffff8a166000908152600b60205260409020600101548a906601000000000000900460ff161515612b7557600080fd5b73ffffffffffffffffffffffffffffffffffffffff8a166000908152600b60205260409020600101548a906601000000000000900460ff161515612bb857600080fd5b73ffffffffffffffffffffffffffffffffffffffff8c81166000908152600b6020526040808220928e16825290206001810154919950975065010000000000900460ff161515612c0757600080fd5b612c108c6133db565b9550612c1b8b6133db565b600754604080517fbb34534c0000000000000000000000000000000000000000000000000000000081527f42616e636f72466f726d756c61000000000000000000000000000000000000006004820152905192975073ffffffffffffffffffffffffffffffffffffffff9091169163bb34534c916024808201926020929091908290030181600087803b158015612cb157600080fd5b505af1158015612cc5573d6000803e3d6000fd5b505050506040513d6020811015612cdb57600080fd5b505160018981015490890154604080517f65098bb3000000000000000000000000000000000000000000000000000000008152600481018b905263ffffffff9384166024820152604481018a9052929091166064830152608482018d90525191955073ffffffffffffffffffffffffffffffffffffffff8616916365098bb39160a4808201926020929091908290030181600087803b158015612d7d57600080fd5b505af1158015612d91573d6000803e3d6000fd5b505050506040513d6020811015612da757600080fd5b50519250612db6836002611b55565b9c9b505050505050505050505050565b7f42616e636f724e6574776f726b0000000000000000000000000000000000000081565b7f42616e636f7247617350726963654c696d69740000000000000000000000000081565b600181565b600a5490565b600c54640100000000900463ffffffff1681565b6000806000806000803073ffffffffffffffffffffffffffffffffffffffff16600260009054906101000a900473ffffffffffffffffffffffffffffffffffffffff1673ffffffffffffffffffffffffffffffffffffffff16638da5cb5b6040518163ffffffff167c0100000000000000000000000000000000000000000000000000000000028152600401602060405180830381600087803b158015612ed357600080fd5b505af1158015612ee7573d6000803e3d6000fd5b505050506040513d6020811015612efd57600080fd5b505173ffffffffffffffffffffffffffffffffffffffff1614612f1c57fe5b73ffffffffffffffffffffffffffffffffffffffff88166000908152600b602052604090206001015488906601000000000000900460ff161515612f5f57600080fd5b73ffffffffffffffffffffffffffffffffffffffff89166000908152600b60205260409020600181015490965065010000000000900460ff161515612fa357600080fd5b600260009054906101000a900473ffffffffffffffffffffffffffffffffffffffff1673ffffffffffffffffffffffffffffffffffffffff166318160ddd6040518163ffffffff167c0100000000000000000000000000000000000000000000000000000000028152600401602060405180830381600087803b15801561302957600080fd5b505af115801561303d573d6000803e3d6000fd5b505050506040513d602081101561305357600080fd5b50519450613060896133db565b600754604080517fbb34534c0000000000000000000000000000000000000000000000000000000081527f42616e636f72466f726d756c61000000000000000000000000000000000000006004820152905192965073ffffffffffffffffffffffffffffffffffffffff9091169163bb34534c916024808201926020929091908290030181600087803b1580156130f657600080fd5b505af115801561310a573d6000803e3d6000fd5b505050506040513d602081101561312057600080fd5b50516001870154604080517f29a00e7c000000000000000000000000000000000000000000000000000000008152600481018990526024810188905263ffffffff9092166044830152606482018b90525191945073ffffffffffffffffffffffffffffffffffffffff8516916329a00e7c916084808201926020929091908290030181600087803b15801561279557600080fd5b60005473ffffffffffffffffffffffffffffffffffffffff1633146131d557fe5b8073ffffffffffffffffffffffffffffffffffffffff811615156131f857600080fd5b8173ffffffffffffffffffffffffffffffffffffffff811630141561321c57600080fd5b5050600780547fffffffffffffffffffffffff00000000000000000000000000000000000000001673ffffffffffffffffffffffffffffffffffffffff92909216919091179055565b600c546c01000000000000000000000000900460ff1681565b60085473ffffffffffffffffffffffffffffffffffffffff1681565b60045473ffffffffffffffffffffffffffffffffffffffff1633146132be57600080fd5b60045460035460405173ffffffffffffffffffffffffffffffffffffffff92831692909116907fbe4cc281795971a471c980e842627a7f1ea3892ddfce8c5b6357cd2611c1973290600090a360048054600380547fffffffffffffffffffffffff000000000000000000000000000000000000000090811673ffffffffffffffffffffffffffffffffffffffff841617909155169055565b60005473ffffffffffffffffffffffffffffffffffffffff16331461337757fe5b806002815111801561338b57506015815111155b801561339c57508051600290066001145b15156133a757600080fd5b81516133ba90600a90602085019061403d565b505050565b60015473ffffffffffffffffffffffffffffffffffffffff1681565b73ffffffffffffffffffffffffffffffffffffffff81166000908152600b6020526040812060010154819083906601000000000000900460ff16151561342057600080fd5b73ffffffffffffffffffffffffffffffffffffffff84166000908152600b602052604090206001810154909250640100000000900460ff166134fb57604080517f70a08231000000000000000000000000000000000000000000000000000000008152306004820152905173ffffffffffffffffffffffffffffffffffffffff8616916370a082319160248083019260209291908290030181600087803b1580156134ca57600080fd5b505af11580156134de573d6000803e3d6000fd5b505050506040513d60208110156134f457600080fd5b50516134fe565b81545b949350505050565b60005473ffffffffffffffffffffffffffffffffffffffff16331480613543575060035473ffffffffffffffffffffffffffffffffffffffff1633145b151561354e57600080fd5b60035473ffffffffffffffffffffffffffffffffffffffff8281169116141561357657600080fd5b600480547fffffffffffffffffffffffff00000000000000000000000000000000000000001673ffffffffffffffffffffffffffffffffffffffff92909216919091179055565b600a805482908110610d9e57fe5b60005473ffffffffffffffffffffffffffffffffffffffff16331480613608575060035473ffffffffffffffffffffffffffffffffffffffff1633145b151561361357600080fd5b8060008163ffffffff161015801561363f5750600c5463ffffffff640100000000909104811690821611155b151561364a57600080fd5b600c546040805163ffffffff6801000000000000000090930483168152918416602083015280517f81cd2ffb37dd237c0e4e2a3de5265fcf9deb43d3e7801e80db9f1ccfba7ee6009281900390910190a150600c805463ffffffff90921668010000000000000000027fffffffffffffffffffffffffffffffffffffffff00000000ffffffffffffffff909216919091179055565b60005473ffffffffffffffffffffffffffffffffffffffff16331461370057fe5b60005473ffffffffffffffffffffffffffffffffffffffff8281169116141561372857600080fd5b600180547fffffffffffffffffffffffff00000000000000000000000000000000000000001673ffffffffffffffffffffffffffffffffffffffff92909216919091179055565b60025473ffffffffffffffffffffffffffffffffffffffff1681565b60008060008061379b8787612e2d565b925082158015906137ac5750848310155b15156137b757600080fd5b73ffffffffffffffffffffffffffffffffffffffff87166000908152600b602052604090206001810154909250640100000000900460ff16156138035781546138009087613f43565b82555b604080517f23b872dd00000000000000000000000000000000000000000000000000000000815233600482015230602482015260448101889052905173ffffffffffffffffffffffffffffffffffffffff8916916323b872dd9160648083019260209291908290030181600087803b15801561387e57600080fd5b505af1158015613892573d6000803e3d6000fd5b505050506040513d60208110156138a857600080fd5b505115156138b257fe5b600254604080517f867904b400000000000000000000000000000000000000000000000000000000815233600482015260248101869052905173ffffffffffffffffffffffffffffffffffffffff9092169163867904b49160448082019260009290919082900301818387803b15801561392b57600080fd5b505af115801561393f573d6000803e3d6000fd5b5050505061395283611837856001611b55565b60025490915061397c90889073ffffffffffffffffffffffffffffffffffffffff16888685613f64565b8673ffffffffffffffffffffffffffffffffffffffff167f8a6a7f53b3c8fa1dc4b83e3f1be668c1b251ff8d44cdcb83eb3acec3fec6a788600260009054906101000a900473ffffffffffffffffffffffffffffffffffffffff1673ffffffffffffffffffffffffffffffffffffffff166318160ddd6040518163ffffffff167c0100000000000000000000000000000000000000000000000000000000028152600401602060405180830381600087803b158015613a3a57600080fd5b505af1158015613a4e573d6000803e3d6000fd5b505050506040513d6020811015613a6457600080fd5b5051613a6f8a6133db565b600186015460408051938452602084019290925263ffffffff1682820152519081900360600190a2509095945050505050565b600254604080517f70a0823100000000000000000000000000000000000000000000000000000000815233600482015290516000928392839283928392839273ffffffffffffffffffffffffffffffffffffffff909216916370a082319160248082019260209290919082900301818787803b158015613b2157600080fd5b505af1158015613b35573d6000803e3d6000fd5b505050506040513d6020811015613b4b57600080fd5b5051881115613b5957600080fd5b613b63898961245b565b94508415801590613b745750868510155b1515613b7f57600080fd5b600260009054906101000a900473ffffffffffffffffffffffffffffffffffffffff1673ffffffffffffffffffffffffffffffffffffffff166318160ddd6040518163ffffffff167c0100000000000000000000000000000000000000000000000000000000028152600401602060405180830381600087803b158015613c0557600080fd5b505af1158015613c19573d6000803e3d6000fd5b505050506040513d6020811015613c2f57600080fd5b50519350613c3c896133db565b925082851080613c5557508285148015613c5557508388145b1515613c5d57fe5b73ffffffffffffffffffffffffffffffffffffffff89166000908152600b602052604090206001810154909250640100000000900460ff1615613ca9578154613ca69086613f52565b82555b600254604080517fa24835d1000000000000000000000000000000000000000000000000000000008152336004820152602481018b9052905173ffffffffffffffffffffffffffffffffffffffff9092169163a24835d19160448082019260009290919082900301818387803b158015613d2257600080fd5b505af1158015613d36573d6000803e3d6000fd5b5050604080517fa9059cbb00000000000000000000000000000000000000000000000000000000815233600482015260248101899052905173ffffffffffffffffffffffffffffffffffffffff8d16935063a9059cbb925060448083019260209291908290030181600087803b158015613daf57600080fd5b505af1158015613dc3573d6000803e3d6000fd5b505050506040513d6020811015613dd957600080fd5b50511515613de357fe5b613df285611837876001611b55565b600254909150613e1b9073ffffffffffffffffffffffffffffffffffffffff168a8a8885613f64565b8873ffffffffffffffffffffffffffffffffffffffff167f8a6a7f53b3c8fa1dc4b83e3f1be668c1b251ff8d44cdcb83eb3acec3fec6a788600260009054906101000a900473ffffffffffffffffffffffffffffffffffffffff1673ffffffffffffffffffffffffffffffffffffffff166318160ddd6040518163ffffffff167c0100000000000000000000000000000000000000000000000000000000028152600401602060405180830381600087803b158015613ed957600080fd5b505af1158015613eed573d6000803e3d6000fd5b505050506040513d6020811015613f0357600080fd5b5051613f0e8c6133db565b600186015460408051938452602084019290925263ffffffff1682820152519081900360600190a25092979650505050505050565b600082820183811015610e5c57fe5b600081831015613f5e57fe5b50900390565b7f8000000000000000000000000000000000000000000000000000000000000000811115613f8e57fe5b60408051848152602081018490528082018390529051339173ffffffffffffffffffffffffffffffffffffffff87811692908916917f276856b36cbc45526a0ba64f44611557a2a8b68662c5388e9fe6d72e86e1c8cb919081900360600190a45050505050565b6000828202831580614011575082848281151561400e57fe5b04145b1515610e5c57fe5b8154818355818111156133ba576000838152602090206133ba9181019083016140c7565b8280548282559060005260206000209081019282156140b7579160200282015b828111156140b757825182547fffffffffffffffffffffffff00000000000000000000000000000000000000001673ffffffffffffffffffffffffffffffffffffffff90911617825560209092019160019091019061405d565b506140c39291506140e1565b5090565b61245891905b808211156140c357600081556001016140cd565b61245891905b808211156140c35780547fffffffffffffffffffffffff00000000000000000000000000000000000000001681556001016140e75600a165627a7a723058208287f82735a330921fb91d9e948c85b0b965e79341cd81b5524532a5bc70a3920029a165627a7a72305820438278917364ada6bd01e3db64fc1b1343d91a11bfe5d323ececae56f17c51100029",
  "source": "pragma solidity ^0.4.23;\nimport './BancorConverter.sol';\nimport './interfaces/IBancorConverterFactory.sol';\nimport '../utility/interfaces/IContractRegistry.sol';\n\n/*\n    Bancor Converter Factory\n*/\ncontract BancorConverterFactory is IBancorConverterFactory {\n    // triggered when a new converter is created\n    event NewConverter(address indexed _converter, address indexed _owner);\n\n    /**\n        @dev constructor\n    */\n    constructor() public {\n    }\n\n    /**\n        @dev creates a new converter with the given arguments and transfers\n        the ownership and management to the sender.\n\n        @param  _token              smart token governed by the converter\n        @param  _registry           address of a contract registry contract\n        @param  _maxConversionFee   maximum conversion fee, represented in ppm\n        @param  _connectorToken     optional, initial connector, allows defining the first connector at deployment time\n        @param  _connectorWeight    optional, weight for the initial connector\n\n        @return a new converter\n    */\n    function createConverter(\n        ISmartToken _token,\n        IContractRegistry _registry,\n        uint32 _maxConversionFee,\n        IERC20Token _connectorToken,\n        uint32 _connectorWeight\n    ) public returns(address converterAddress) {\n        BancorConverter converter = new BancorConverter(\n            _token,\n            _registry,\n            _maxConversionFee,\n            _connectorToken,\n            _connectorWeight\n        );\n\n        converter.transferOwnership(msg.sender);\n        converter.transferManagement(msg.sender);\n\n        address _converterAddress = address(converter);\n        emit NewConverter(_converterAddress, msg.sender);\n        return _converterAddress;\n    }\n}\n",
  "sourcePath": "/Users/denny/github.com/evolutionlandorg/bancor-contracts/solidity/contracts/converter/BancorConverterFactory.sol",
  "compiler": {
    "name": "solc",
    "version": "0.4.24+commit.e67f0147.Emscripten.clang"
  },
  "schemaVersion": "2.0.0",
  "updatedAt": "2018-09-06T07:32:58.244Z"
}