{
  "contractName": "BancorPriceFloor",
  "abi": [
    {
      "constant": true,
      "inputs": [],
      "name": "TOKEN_PRICE_D",
      "outputs": [
        {
          "name": "",
          "type": "uint256"
        }
      ],
      "payable": false,
      "stateMutability": "view",
      "type": "function"
    },
    {
      "constant": true,
      "inputs": [],
      "name": "TOKEN_PRICE_N",
      "outputs": [
        {
          "name": "",
          "type": "uint256"
        }
      ],
      "payable": false,
      "stateMutability": "view",
      "type": "function"
    },
    {
      "constant": true,
      "inputs": [],
      "name": "version",
      "outputs": [
        {
          "name": "",
          "type": "string"
        }
      ],
      "payable": false,
      "stateMutability": "view",
      "type": "function"
    },
    {
      "constant": false,
      "inputs": [
        {
          "name": "_token",
          "type": "address"
        },
        {
          "name": "_to",
          "type": "address"
        },
        {
          "name": "_amount",
          "type": "uint256"
        }
      ],
      "name": "withdrawTokens",
      "outputs": [],
      "payable": false,
      "stateMutability": "nonpayable",
      "type": "function"
    },
    {
      "constant": false,
      "inputs": [],
      "name": "acceptOwnership",
      "outputs": [],
      "payable": false,
      "stateMutability": "nonpayable",
      "type": "function"
    },
    {
      "constant": true,
      "inputs": [],
      "name": "owner",
      "outputs": [
        {
          "name": "",
          "type": "address"
        }
      ],
      "payable": false,
      "stateMutability": "view",
      "type": "function"
    },
    {
      "constant": true,
      "inputs": [],
      "name": "newOwner",
      "outputs": [
        {
          "name": "",
          "type": "address"
        }
      ],
      "payable": false,
      "stateMutability": "view",
      "type": "function"
    },
    {
      "constant": false,
      "inputs": [
        {
          "name": "_newOwner",
          "type": "address"
        }
      ],
      "name": "transferOwnership",
      "outputs": [],
      "payable": false,
      "stateMutability": "nonpayable",
      "type": "function"
    },
    {
      "constant": true,
      "inputs": [],
      "name": "token",
      "outputs": [
        {
          "name": "",
          "type": "address"
        }
      ],
      "payable": false,
      "stateMutability": "view",
      "type": "function"
    },
    {
      "inputs": [
        {
          "name": "_token",
          "type": "address"
        }
      ],
      "payable": false,
      "stateMutability": "nonpayable",
      "type": "constructor"
    },
    {
      "payable": true,
      "stateMutability": "payable",
      "type": "fallback"
    },
    {
      "anonymous": false,
      "inputs": [
        {
          "indexed": true,
          "name": "_prevOwner",
          "type": "address"
        },
        {
          "indexed": true,
          "name": "_newOwner",
          "type": "address"
        }
      ],
      "name": "OwnerUpdate",
      "type": "event"
    },
    {
      "constant": false,
      "inputs": [],
      "name": "sell",
      "outputs": [
        {
          "name": "amount",
          "type": "uint256"
        }
      ],
      "payable": false,
      "stateMutability": "nonpayable",
      "type": "function"
    },
    {
      "constant": false,
      "inputs": [
        {
          "name": "_amount",
          "type": "uint256"
        }
      ],
      "name": "withdraw",
      "outputs": [],
      "payable": false,
      "stateMutability": "nonpayable",
      "type": "function"
    }
  ],
  "bytecode": "0x606060405260408051908101604052600381527f302e3100000000000000000000000000000000000000000000000000000000006020820152600290805161004b9291602001906100c4565b50341561005757600080fd5b6040516020806108338339810160405280805160008054600160a060020a03191633600160a060020a03908116919091179091559092508291508116151561009e57600080fd5b5060038054600160a060020a031916600160a060020a039290921691909117905561015f565b828054600181600116156101000203166002900490600052602060002090601f016020900481019282601f1061010557805160ff1916838001178555610132565b82800160010185558215610132579182015b82811115610132578251825591602001919060010190610117565b5061013e929150610142565b5090565b61015c91905b8082111561013e5760008155600101610148565b90565b6106c58061016e6000396000f3006060604052600436106100955763ffffffff60e060020a6000350416630d2806ad81146100975780632e1a7d4d146100bc57806345710074146100d257806345cfad3e146100e557806354fd4d50146100f85780635e35359e1461018257806379ba5097146101aa5780638da5cb5b146101bd578063d4ee1d90146101ec578063f2fde38b146101ff578063fc0c546a1461021e575b005b34156100a257600080fd5b6100aa610231565b60405190815260200160405180910390f35b34156100c757600080fd5b610095600435610236565b34156100dd57600080fd5b6100aa610282565b34156100f057600080fd5b6100aa6103cd565b341561010357600080fd5b61010b6103d2565b60405160208082528190810183818151815260200191508051906020019080838360005b8381101561014757808201518382015260200161012f565b50505050905090810190601f1680156101745780820380516001836020036101000a031916815260200191505b509250505060405180910390f35b341561018d57600080fd5b610095600160a060020a0360043581169060243516604435610470565b34156101b557600080fd5b610095610551565b34156101c857600080fd5b6101d06105df565b604051600160a060020a03909116815260200160405180910390f35b34156101f757600080fd5b6101d06105ee565b341561020a57600080fd5b610095600160a060020a03600435166105fd565b341561022957600080fd5b6101d061065f565b606481565b60005433600160a060020a0390811691161461024e57fe5b600160a060020a03331681156108fc0282604051600060405180830381858888f19350505050151561027f57600080fd5b50565b60035460009081908190600160a060020a031663dd62ed3e333060405160e060020a63ffffffff8516028152600160a060020a03928316600482015291166024820152604401602060405180830381600087803b15156102e157600080fd5b5af115156102ee57600080fd5b5050506040518051600354909350600160a060020a031690506323b872dd33308560405160e060020a63ffffffff8616028152600160a060020a0393841660048201529190921660248201526044810191909152606401602060405180830381600087803b151561035e57600080fd5b5af1151561036b57600080fd5b50505060405180519050151561037d57fe5b606461038a83600161066e565b81151561039357fe5b049050600160a060020a03331681156108fc0282604051600060405180830381858888f1935050505015156103c757600080fd5b92915050565b600181565b60028054600181600116156101000203166002900480601f0160208091040260200160405190810160405280929190818152602001828054600181600116156101000203166002900480156104685780601f1061043d57610100808354040283529160200191610468565b820191906000526020600020905b81548152906001019060200180831161044b57829003601f168201915b505050505081565b60005433600160a060020a0390811691161461048857fe5b82600160a060020a038116151561049e57600080fd5b82600160a060020a03811615156104b457600080fd5b8330600160a060020a031681600160a060020a0316141515156104d657600080fd5b85600160a060020a031663a9059cbb868660405160e060020a63ffffffff8516028152600160a060020a0390921660048301526024820152604401602060405180830381600087803b151561052a57600080fd5b5af1151561053757600080fd5b50505060405180519050151561054957fe5b505050505050565b60015433600160a060020a0390811691161461056c57600080fd5b600154600054600160a060020a0391821691167f343765429aea5a34b3ff6a3785a98a5abb2597aca87bfbb58632c173d585373a60405160405180910390a3600180546000805473ffffffffffffffffffffffffffffffffffffffff19908116600160a060020a03841617909155169055565b600054600160a060020a031681565b600154600160a060020a031681565b60005433600160a060020a0390811691161461061557fe5b600054600160a060020a038281169116141561063057600080fd5b6001805473ffffffffffffffffffffffffffffffffffffffff1916600160a060020a0392909216919091179055565b600354600160a060020a031681565b600082820283158061068a575082848281151561068757fe5b04145b151561069257fe5b93925050505600a165627a7a723058202351359db5a647a116dd880665875b066cc1dfe46734fe7f85dbe36b7254580c0029",
  "source": "pragma solidity ^0.4.18;\nimport './TokenHolder.sol';\nimport './Owned.sol';\nimport './Utils.sol';\nimport './interfaces/ISmartToken.sol';\n\n/*\n    BancorPriceFloor v0.1\n\n    The bancor price floor contract is a simple contract that allows selling smart tokens for a constant ETH price\n\n    'Owned' is specified here for readability reasons\n*/\ncontract BancorPriceFloor is Owned, TokenHolder {\n    uint256 public constant TOKEN_PRICE_N = 1;      // crowdsale price in wei (numerator)\n    uint256 public constant TOKEN_PRICE_D = 100;    // crowdsale price in wei (denominator)\n\n    string public version = '0.1';\n    ISmartToken public token; // smart token the contract allows selling\n\n    /**\n        @dev constructor\n\n        @param _token   smart token the contract allows selling\n    */\n    function BancorPriceFloor(ISmartToken _token)\n        public\n        validAddress(_token)\n    {\n        token = _token;\n    }\n\n    /**\n        @dev sells the smart token for ETH\n        note that the function will sell the full allowance amount\n\n        @return ETH sent in return\n    */\n    function sell() public returns (uint256 amount) {\n        uint256 allowance = token.allowance(msg.sender, this); // get the full allowance amount\n        assert(token.transferFrom(msg.sender, this, allowance)); // transfer all tokens from the sender to the contract\n        uint256 etherValue = safeMul(allowance, TOKEN_PRICE_N) / TOKEN_PRICE_D; // calculate ETH value of the tokens\n        msg.sender.transfer(etherValue); // send the ETH amount to the seller\n        return etherValue;\n    }\n\n    /**\n        @dev withdraws ETH from the contract\n\n        @param _amount  amount of ETH to withdraw\n    */\n    function withdraw(uint256 _amount) public ownerOnly {\n        msg.sender.transfer(_amount); // send the amount\n    }\n\n    /**\n        @dev deposits ETH in the contract\n    */\n    function() public payable {\n    }\n}\n",
  "sourcePath": "/Users/rudo/Documents/ichiba/submodules/contracts/solidity/contracts/BancorPriceFloor.sol",
  "compiler": {
    "name": "solc",
    "version": "0.4.21+commit.dfe3193c.Emscripten.clang"
  },
  "schemaVersion": "2.0.0",
  "updatedAt": "2018-08-01T05:06:54.335Z"
}