{
  "contractName": "BancorExchange",
  "abi": [
    {
      "constant": true,
      "inputs": [
        {
          "name": "",
          "type": "uint256"
        }
      ],
      "name": "quickSellPath",
      "outputs": [
        {
          "name": "",
          "type": "address"
        }
      ],
      "payable": false,
      "stateMutability": "view",
      "type": "function"
    },
    {
      "constant": true,
      "inputs": [],
      "name": "bancorConverter",
      "outputs": [
        {
          "name": "",
          "type": "address"
        }
      ],
      "payable": false,
      "stateMutability": "view",
      "type": "function"
    },
    {
      "constant": false,
      "inputs": [],
      "name": "acceptOwnership",
      "outputs": [],
      "payable": false,
      "stateMutability": "nonpayable",
      "type": "function"
    },
    {
      "constant": true,
      "inputs": [],
      "name": "owner",
      "outputs": [
        {
          "name": "",
          "type": "address"
        }
      ],
      "payable": false,
      "stateMutability": "view",
      "type": "function"
    },
    {
      "constant": true,
      "inputs": [],
      "name": "bancorNetwork",
      "outputs": [
        {
          "name": "",
          "type": "address"
        }
      ],
      "payable": false,
      "stateMutability": "view",
      "type": "function"
    },
    {
      "constant": true,
      "inputs": [],
      "name": "smartToken",
      "outputs": [
        {
          "name": "",
          "type": "address"
        }
      ],
      "payable": false,
      "stateMutability": "view",
      "type": "function"
    },
    {
      "constant": true,
      "inputs": [],
      "name": "newOwner",
      "outputs": [
        {
          "name": "",
          "type": "address"
        }
      ],
      "payable": false,
      "stateMutability": "view",
      "type": "function"
    },
    {
      "constant": true,
      "inputs": [
        {
          "name": "",
          "type": "uint256"
        }
      ],
      "name": "quickBuyPath",
      "outputs": [
        {
          "name": "",
          "type": "address"
        }
      ],
      "payable": false,
      "stateMutability": "view",
      "type": "function"
    },
    {
      "constant": false,
      "inputs": [
        {
          "name": "_newOwner",
          "type": "address"
        }
      ],
      "name": "transferOwnership",
      "outputs": [],
      "payable": false,
      "stateMutability": "nonpayable",
      "type": "function"
    },
    {
      "inputs": [
        {
          "name": "_st",
          "type": "address"
        },
        {
          "name": "_bn",
          "type": "address"
        },
        {
          "name": "_bc",
          "type": "address"
        }
      ],
      "payable": false,
      "stateMutability": "nonpayable",
      "type": "constructor"
    },
    {
      "payable": true,
      "stateMutability": "payable",
      "type": "fallback"
    },
    {
      "anonymous": false,
      "inputs": [
        {
          "indexed": true,
          "name": "_prevOwner",
          "type": "address"
        },
        {
          "indexed": true,
          "name": "_newOwner",
          "type": "address"
        }
      ],
      "name": "OwnerUpdate",
      "type": "event"
    },
    {
      "constant": false,
      "inputs": [
        {
          "name": "_st",
          "type": "address"
        }
      ],
      "name": "setSmartToken",
      "outputs": [],
      "payable": false,
      "stateMutability": "nonpayable",
      "type": "function"
    },
    {
      "constant": false,
      "inputs": [
        {
          "name": "_bn",
          "type": "address"
        }
      ],
      "name": "setBancorNetwork",
      "outputs": [],
      "payable": false,
      "stateMutability": "nonpayable",
      "type": "function"
    },
    {
      "constant": false,
      "inputs": [
        {
          "name": "_bc",
          "type": "address"
        }
      ],
      "name": "setBancorConverter",
      "outputs": [],
      "payable": false,
      "stateMutability": "nonpayable",
      "type": "function"
    },
    {
      "constant": false,
      "inputs": [
        {
          "name": "_path",
          "type": "address[]"
        }
      ],
      "name": "setQuickSellPath",
      "outputs": [],
      "payable": false,
      "stateMutability": "nonpayable",
      "type": "function"
    },
    {
      "constant": false,
      "inputs": [
        {
          "name": "_path",
          "type": "address[]"
        }
      ],
      "name": "setQuickBuyPath",
      "outputs": [],
      "payable": false,
      "stateMutability": "nonpayable",
      "type": "function"
    },
    {
      "constant": false,
      "inputs": [
        {
          "name": "_minReturn",
          "type": "uint256"
        }
      ],
      "name": "buyRING",
      "outputs": [
        {
          "name": "",
          "type": "uint256"
        }
      ],
      "payable": true,
      "stateMutability": "payable",
      "type": "function"
    },
    {
      "constant": false,
      "inputs": [
        {
          "name": "_from",
          "type": "address"
        },
        {
          "name": "_value",
          "type": "uint256"
        },
        {
          "name": "_data",
          "type": "bytes"
        }
      ],
      "name": "tokenFallback",
      "outputs": [],
      "payable": false,
      "stateMutability": "nonpayable",
      "type": "function"
    },
    {
      "constant": true,
      "inputs": [
        {
          "name": "b",
          "type": "bytes"
        }
      ],
      "name": "bytesToUint256",
      "outputs": [
        {
          "name": "",
          "type": "uint256"
        }
      ],
      "payable": false,
      "stateMutability": "pure",
      "type": "function"
    },
    {
      "constant": false,
      "inputs": [
        {
          "name": "_token",
          "type": "address"
        }
      ],
      "name": "claimTokens",
      "outputs": [],
      "payable": false,
      "stateMutability": "nonpayable",
      "type": "function"
    }
  ],
  "bytecode": "0x608060405234801561001057600080fd5b506040516060806110758339810160409081528151602083015191909201516000805433600160a060020a0319918216178255600280548216600160a060020a03968716179055600380548216948616949094179093556004805490931693909116929092179055610fed90819061008890396000f3006080604052600436106100fb5763ffffffff7c01000000000000000000000000000000000000000000000000000000006000350416630584e47081146100fd5780631a4c298f1461012b57806364c176eb1461016c5780637548adf61461019a57806379ba5097146101af5780638da5cb5b146101c4578063a4edb25e146101d9578063af384416146101ee578063c0ee0b8a1461021c578063c3e8fb4014610292578063cc9de25d146102a7578063cda566bd14610312578063d395ee0f14610367578063d4ee1d90146103bc578063d73ccead146103d1578063df8de3e7146103dc578063e7ee85a51461040a578063f2fde38b14610422575b005b34801561010957600080fd5b506100fb73ffffffffffffffffffffffffffffffffffffffff60043516610450565b34801561013757600080fd5b506101436004356104b8565b6040805173ffffffffffffffffffffffffffffffffffffffff9092168252519081900360200190f35b34801561017857600080fd5b506100fb73ffffffffffffffffffffffffffffffffffffffff600435166104ed565b3480156101a657600080fd5b50610143610555565b3480156101bb57600080fd5b506100fb610571565b3480156101d057600080fd5b5061014361062b565b3480156101e557600080fd5b50610143610647565b3480156101fa57600080fd5b506100fb73ffffffffffffffffffffffffffffffffffffffff60043516610663565b34801561022857600080fd5b50604080516020600460443581810135601f81018490048402850184019095528484526100fb94823573ffffffffffffffffffffffffffffffffffffffff169460248035953695946064949201919081908401838280828437509497506106cb9650505050505050565b34801561029e57600080fd5b50610143610935565b3480156102b357600080fd5b506040805160206004803580820135601f81018490048402850184019095528484526103009436949293602493928401919081908401838280828437509497506109519650505050505050565b60408051918252519081900360200190f35b34801561031e57600080fd5b50604080516020600480358082013583810280860185019096528085526100fb953695939460249493850192918291850190849080828437509497506109dc9650505050505050565b34801561037357600080fd5b50604080516020600480358082013583810280860185019096528085526100fb95369593946024949385019291829185019084908082843750949750610a459650505050505050565b3480156103c857600080fd5b50610143610aa9565b610300600435610ac5565b3480156103e857600080fd5b506100fb73ffffffffffffffffffffffffffffffffffffffff60043516610c83565b34801561041657600080fd5b50610143600435610e5a565b34801561042e57600080fd5b506100fb73ffffffffffffffffffffffffffffffffffffffff60043516610e68565b60005473ffffffffffffffffffffffffffffffffffffffff16331461047157fe5b600380547fffffffffffffffffffffffff00000000000000000000000000000000000000001673ffffffffffffffffffffffffffffffffffffffff92909216919091179055565b60058054829081106104c657fe5b60009182526020909120015473ffffffffffffffffffffffffffffffffffffffff16905081565b60005473ffffffffffffffffffffffffffffffffffffffff16331461050e57fe5b600280547fffffffffffffffffffffffff00000000000000000000000000000000000000001673ffffffffffffffffffffffffffffffffffffffff92909216919091179055565b60045473ffffffffffffffffffffffffffffffffffffffff1681565b60015473ffffffffffffffffffffffffffffffffffffffff16331461059557600080fd5b6001546000805460405173ffffffffffffffffffffffffffffffffffffffff93841693909116917f343765429aea5a34b3ff6a3785a98a5abb2597aca87bfbb58632c173d585373a91a360018054600080547fffffffffffffffffffffffff000000000000000000000000000000000000000090811673ffffffffffffffffffffffffffffffffffffffff841617909155169055565b60005473ffffffffffffffffffffffffffffffffffffffff1681565b60035473ffffffffffffffffffffffffffffffffffffffff1681565b60005473ffffffffffffffffffffffffffffffffffffffff16331461068457fe5b600480547fffffffffffffffffffffffff00000000000000000000000000000000000000001673ffffffffffffffffffffffffffffffffffffffff92909216919091179055565b600254600090819073ffffffffffffffffffffffffffffffffffffffff1633141561092e576106f983610951565b600254600354604080517fa9059cbb00000000000000000000000000000000000000000000000000000000815273ffffffffffffffffffffffffffffffffffffffff928316600482015260248101899052905193955091169163a9059cbb916044808201926020929091908290030181600087803b15801561077a57600080fd5b505af115801561078e573d6000803e3d6000fd5b505050506040513d60208110156107a457600080fd5b50506003546040517f6b08f2ef0000000000000000000000000000000000000000000000000000000081526024810186905260448101849052306064820181905260006084830181905260a4830181905260c4830181905260e483018190526101006004840190815260058054610104860181905273ffffffffffffffffffffffffffffffffffffffff90961695636b08f2ef9591948b948a9491939092839283928392829161012401908b90801561089357602002820191906000526020600020905b815473ffffffffffffffffffffffffffffffffffffffff168152600190910190602001808311610868575b50509950505050505050505050602060405180830381600087803b1580156108ba57600080fd5b505af11580156108ce573d6000803e3d6000fd5b505050506040513d60208110156108e457600080fd5b505160405190915073ffffffffffffffffffffffffffffffffffffffff86169082156108fc029083906000818181858888f1935050505015801561092c573d6000803e3d6000fd5b505b5050505050565b60025473ffffffffffffffffffffffffffffffffffffffff1681565b600080805b60208110156109d55780600802848281518110151561097157fe5b60209101015160029190910a7f0100000000000000000000000000000000000000000000000000000000000000918290049091027fff0000000000000000000000000000000000000000000000000000000000000016049190911790600101610956565b5092915050565b60005473ffffffffffffffffffffffffffffffffffffffff1633146109fd57fe5b8060028151118015610a1157506015815111155b8015610a2257508051600290066001145b1515610a2d57600080fd5b8151610a40906005906020850190610ef8565b505050565b60005473ffffffffffffffffffffffffffffffffffffffff163314610a6657fe5b8060028151118015610a7a57506015815111155b8015610a8b57508051600290066001145b1515610a9657600080fd5b8151610a40906006906020850190610ef8565b60015473ffffffffffffffffffffffffffffffffffffffff1681565b600480546040517ff0843ba900000000000000000000000000000000000000000000000000000000815234602482018190526044820185905260609382019384526006805460648401819052600095869573ffffffffffffffffffffffffffffffffffffffff169463f0843ba994939284928a92909182916084019086908015610b8557602002820191906000526020600020905b815473ffffffffffffffffffffffffffffffffffffffff168152600190910190602001808311610b5a575b50509450505050506020604051808303818588803b158015610ba657600080fd5b505af1158015610bba573d6000803e3d6000fd5b50505050506040513d6020811015610bd157600080fd5b5051600254604080517fa9059cbb00000000000000000000000000000000000000000000000000000000815233600482015260248101849052905192935073ffffffffffffffffffffffffffffffffffffffff9091169163a9059cbb916044808201926020929091908290030181600087803b158015610c5057600080fd5b505af1158015610c64573d6000803e3d6000fd5b505050506040513d6020811015610c7a57600080fd5b50909392505050565b60008054819073ffffffffffffffffffffffffffffffffffffffff163314610ca757fe5b73ffffffffffffffffffffffffffffffffffffffff83161515610d12576000805460405173ffffffffffffffffffffffffffffffffffffffff90911691303180156108fc02929091818181858888f19350505050158015610d0c573d6000803e3d6000fd5b50610a40565b604080517f70a08231000000000000000000000000000000000000000000000000000000008152306004820152905184935073ffffffffffffffffffffffffffffffffffffffff8416916370a082319160248083019260209291908290030181600087803b158015610d8357600080fd5b505af1158015610d97573d6000803e3d6000fd5b505050506040513d6020811015610dad57600080fd5b505160008054604080517fa9059cbb00000000000000000000000000000000000000000000000000000000815273ffffffffffffffffffffffffffffffffffffffff92831660048201526024810185905290519394509085169263a9059cbb92604480840193602093929083900390910190829087803b158015610e3057600080fd5b505af1158015610e44573d6000803e3d6000fd5b505050506040513d602081101561092e57600080fd5b60068054829081106104c657fe5b60005473ffffffffffffffffffffffffffffffffffffffff163314610e8957fe5b60005473ffffffffffffffffffffffffffffffffffffffff82811691161415610eb157600080fd5b600180547fffffffffffffffffffffffff00000000000000000000000000000000000000001673ffffffffffffffffffffffffffffffffffffffff92909216919091179055565b828054828255906000526020600020908101928215610f72579160200282015b82811115610f7257825182547fffffffffffffffffffffffff00000000000000000000000000000000000000001673ffffffffffffffffffffffffffffffffffffffff909116178255602090920191600190910190610f18565b50610f7e929150610f82565b5090565b610fbe91905b80821115610f7e5780547fffffffffffffffffffffffff0000000000000000000000000000000000000000168155600101610f88565b905600a165627a7a72305820c98462c0b2e0bfafbb13ef4ee5b6b0e4b8c43e80f42aeee373d0152e381891b60029",
  "source": "pragma solidity ^0.4.23;\n\nimport \"./converter/BancorConverter.sol\";\n\ncontract BancorExchange is Owned {\n\n    ISmartToken public smartToken;\n    IBancorNetwork public bancorNetwork;\n    BancorConverter public bancorConverter;\n\n    IERC20Token[] public quickSellPath;\n    IERC20Token[] public quickBuyPath;\n\n    // validates a conversion path - verifies that the number of elements is odd and that maximum number of 'hops' is 10\n    modifier validConversionPath(IERC20Token[] _path) {\n        require(_path.length > 2 && _path.length <= (1 + 2 * 10) && _path.length % 2 == 1);\n        _;\n    }\n\n    constructor(address _st, address _bn, address _bc) public {\n        smartToken = ISmartToken(_st);\n        bancorNetwork = IBancorNetwork(_bn);\n        bancorConverter = BancorConverter(_bc);\n    }\n\n    function () payable {\n        // this is necessary!\n    }\n\n    function setSmartToken(address _st) public ownerOnly {\n        smartToken = ISmartToken(_st);\n    }\n\n    function setBancorNetwork(address _bn) public ownerOnly {\n        bancorNetwork = IBancorNetwork(_bn);\n    }\n\n    function setBancorConverter(address _bc) public ownerOnly {\n        bancorConverter = BancorConverter(_bc);\n    }\n\n    function setQuickSellPath(IERC20Token[] _path)\n    public\n    ownerOnly\n    validConversionPath(_path)\n    {\n        quickSellPath = _path;\n    }\n\n    function setQuickBuyPath(IERC20Token[] _path)\n    public\n    ownerOnly\n    validConversionPath(_path)\n    {\n        quickBuyPath = _path;\n    }\n\n    function buyRING(uint _minReturn) payable returns (uint){\n        uint amount = bancorConverter.quickConvert.value(msg.value)(quickBuyPath, msg.value, _minReturn);\n        smartToken.transfer(msg.sender, amount);\n        return amount;\n    }\n\n    function tokenFallback(address _from, uint256 _value, bytes _data) public {\n        if (address(smartToken) == msg.sender) {\n            uint minReturn = bytesToUint256(_data);\n            smartToken.transfer(address(bancorNetwork), _value);\n            uint amount = bancorNetwork.convertForPrioritized2(quickSellPath, _value, minReturn, address(this), 0, 0, 0x0, 0x0);\n            _from.transfer(amount);\n        }\n    }\n\n\n\n    function bytesToUint256(bytes b) public pure returns (uint256) {\n        bytes32 out;\n\n        for (uint i = 0; i < 32; i++) {\n            out |= bytes32(b[i] & 0xFF) >> (i * 8);\n        }\n        return uint256(out);\n    }\n\n\n    function claimTokens(address _token) public ownerOnly {\n        if (_token == 0x0) {\n            owner.transfer(address(this).balance);\n            return;\n        }\n        IERC20Token token = IERC20Token(_token);\n        uint balance = token.balanceOf(address(this));\n        token.transfer(owner, balance);\n    }\n\n\n\n\n\n\n}",
  "sourcePath": "/Users/denny/github.com/evolutionlandorg/bancor-contracts/solidity/contracts/BancorExchange.sol",
  "compiler": {
    "name": "solc",
    "version": "0.4.24+commit.e67f0147.Emscripten.clang"
  },
  "schemaVersion": "2.0.0",
  "updatedAt": "2018-09-06T07:32:58.230Z"
}