{
  "contractName": "Distributor",
  "abi": [
    {
      "constant": true,
      "inputs": [],
      "name": "auction",
      "outputs": [
        {
          "name": "",
          "type": "address"
        }
      ],
      "payable": false,
      "stateMutability": "view",
      "type": "function"
    },
    {
      "inputs": [
        {
          "name": "_auction_address",
          "type": "address"
        }
      ],
      "payable": false,
      "stateMutability": "nonpayable",
      "type": "constructor"
    },
    {
      "anonymous": false,
      "inputs": [],
      "name": "Deployed",
      "type": "event"
    },
    {
      "constant": false,
      "inputs": [
        {
          "name": "addresses",
          "type": "address[]"
        }
      ],
      "name": "distribute",
      "outputs": [],
      "payable": false,
      "stateMutability": "nonpayable",
      "type": "function"
    }
  ],
  "bytecode": "0x6060604052341561000f57600080fd5b6040516020806102fb83398101604052808051915050600160a060020a038116151561003a57600080fd5b60008054600160a060020a031916600160a060020a0383161790557f3fad920548ed9f22deb8333b4cc1e4f9bc36666a1c2aa30ad59a0a3bb9dcbb9260405160405180910390a15061026a806100916000396000f3006060604052600436106100325763ffffffff60e060020a6000350416636138889b81146100375780637d9f6db514610088575b600080fd5b341561004257600080fd5b61008660046024813581810190830135806020818102016040519081016040528093929190818152602001838360200280828437509496506100c495505050505050565b005b341561009357600080fd5b61009b610222565b60405173ffffffffffffffffffffffffffffffffffffffff909116815260200160405180910390f35b60005b81518163ffffffff16101561021e576000805473ffffffffffffffffffffffffffffffffffffffff166362ea82db8463ffffffff85168151811061010757fe5b9060200190602002015160405160e060020a63ffffffff841602815273ffffffffffffffffffffffffffffffffffffffff9091166004820152602401602060405180830381600087803b151561015c57600080fd5b5af1151561016957600080fd5b5050506040518051905011156102165760005473ffffffffffffffffffffffffffffffffffffffff1663aeaaaa088363ffffffff8416815181106101a957fe5b9060200190602002015160405160e060020a63ffffffff841602815273ffffffffffffffffffffffffffffffffffffffff9091166004820152602401602060405180830381600087803b15156101fe57600080fd5b5af1151561020b57600080fd5b505050604051805150505b6001016100c7565b5050565b60005473ffffffffffffffffffffffffffffffffffffffff16815600a165627a7a723058204b823df031e647db88cb7028eacafec09d6d94cf3f4dec8ecf7d069a78778d5c0029",
  "source": "pragma solidity ^0.4.17;\n\nimport './DutchAuction.sol';\n\n/// @title Distributor contract - distribution of tokens after an auction has ended.\ncontract Distributor {\n    /*\n     * Storage\n     */\n\n    DutchAuction public auction;\n\n    /*\n     * Events\n     */\n\n    event Deployed();\n\n    /*\n      * Public functions\n      */\n    /// @dev Contract constructor function, sets the auction contract address.\n    /// @param _auction_address Address of auction contract.\n    function Distributor(address _auction_address) public {\n        require(_auction_address != 0x0);\n\n        auction = DutchAuction(_auction_address);\n        Deployed();\n    }\n\n    /// @notice Claim tokens in behalf of the following token owners: `addresses`.\n    /// @dev Function that is called with an array of addresses for claiming tokens in their behalf.\n    /// @param addresses Addresses of auction bidders that will be assigned tokens.\n    function distribute(address[] addresses) public {\n        for (uint32 i = 0; i < addresses.length; i++) {\n            if (auction.bids(addresses[i]) > 0) {\n                auction.proxyClaimTokens(addresses[i]);\n            }\n        }\n    }\n}\n",
  "sourcePath": "/Users/rudo/contracts/solidity/contracts/distributor.sol",
  "compiler": {
    "name": "solc",
    "version": "0.4.21+commit.dfe3193c.Emscripten.clang"
  },
  "schemaVersion": "2.0.0",
  "updatedAt": "2018-07-16T18:08:26.568Z"
}