{
  "contractName": "DutchAuction",
  "abi": [
    {
      "constant": true,
      "inputs": [],
      "name": "num_tokens_auctioned",
      "outputs": [
        {
          "name": "",
          "type": "uint256"
        }
      ],
      "payable": false,
      "stateMutability": "view",
      "type": "function"
    },
    {
      "constant": true,
      "inputs": [],
      "name": "final_price",
      "outputs": [
        {
          "name": "",
          "type": "uint256"
        }
      ],
      "payable": false,
      "stateMutability": "view",
      "type": "function"
    },
    {
      "constant": true,
      "inputs": [],
      "name": "price_exponent",
      "outputs": [
        {
          "name": "",
          "type": "uint32"
        }
      ],
      "payable": false,
      "stateMutability": "view",
      "type": "function"
    },
    {
      "constant": true,
      "inputs": [],
      "name": "end_time",
      "outputs": [
        {
          "name": "",
          "type": "uint256"
        }
      ],
      "payable": false,
      "stateMutability": "view",
      "type": "function"
    },
    {
      "constant": true,
      "inputs": [],
      "name": "token_multiplier",
      "outputs": [
        {
          "name": "",
          "type": "uint256"
        }
      ],
      "payable": false,
      "stateMutability": "view",
      "type": "function"
    },
    {
      "constant": true,
      "inputs": [],
      "name": "price_start",
      "outputs": [
        {
          "name": "",
          "type": "uint256"
        }
      ],
      "payable": false,
      "stateMutability": "view",
      "type": "function"
    },
    {
      "constant": true,
      "inputs": [],
      "name": "bid_threshold",
      "outputs": [
        {
          "name": "",
          "type": "uint256"
        }
      ],
      "payable": false,
      "stateMutability": "view",
      "type": "function"
    },
    {
      "constant": true,
      "inputs": [],
      "name": "funds_claimed",
      "outputs": [
        {
          "name": "",
          "type": "uint256"
        }
      ],
      "payable": false,
      "stateMutability": "view",
      "type": "function"
    },
    {
      "constant": true,
      "inputs": [],
      "name": "token_claim_waiting_period",
      "outputs": [
        {
          "name": "",
          "type": "uint256"
        }
      ],
      "payable": false,
      "stateMutability": "view",
      "type": "function"
    },
    {
      "constant": true,
      "inputs": [],
      "name": "whitelister_address",
      "outputs": [
        {
          "name": "",
          "type": "address"
        }
      ],
      "payable": false,
      "stateMutability": "view",
      "type": "function"
    },
    {
      "constant": true,
      "inputs": [
        {
          "name": "",
          "type": "address"
        }
      ],
      "name": "bids",
      "outputs": [
        {
          "name": "",
          "type": "uint256"
        }
      ],
      "payable": false,
      "stateMutability": "view",
      "type": "function"
    },
    {
      "constant": true,
      "inputs": [],
      "name": "received_wei",
      "outputs": [
        {
          "name": "",
          "type": "uint256"
        }
      ],
      "payable": false,
      "stateMutability": "view",
      "type": "function"
    },
    {
      "constant": true,
      "inputs": [],
      "name": "owner_address",
      "outputs": [
        {
          "name": "",
          "type": "address"
        }
      ],
      "payable": false,
      "stateMutability": "view",
      "type": "function"
    },
    {
      "constant": true,
      "inputs": [],
      "name": "start_time",
      "outputs": [
        {
          "name": "",
          "type": "uint256"
        }
      ],
      "payable": false,
      "stateMutability": "view",
      "type": "function"
    },
    {
      "constant": true,
      "inputs": [
        {
          "name": "",
          "type": "address"
        }
      ],
      "name": "whitelist",
      "outputs": [
        {
          "name": "",
          "type": "bool"
        }
      ],
      "payable": false,
      "stateMutability": "view",
      "type": "function"
    },
    {
      "constant": true,
      "inputs": [],
      "name": "price_constant",
      "outputs": [
        {
          "name": "",
          "type": "uint256"
        }
      ],
      "payable": false,
      "stateMutability": "view",
      "type": "function"
    },
    {
      "constant": true,
      "inputs": [],
      "name": "start_block",
      "outputs": [
        {
          "name": "",
          "type": "uint256"
        }
      ],
      "payable": false,
      "stateMutability": "view",
      "type": "function"
    },
    {
      "constant": true,
      "inputs": [],
      "name": "stage",
      "outputs": [
        {
          "name": "",
          "type": "uint8"
        }
      ],
      "payable": false,
      "stateMutability": "view",
      "type": "function"
    },
    {
      "constant": true,
      "inputs": [],
      "name": "wallet_address",
      "outputs": [
        {
          "name": "",
          "type": "address"
        }
      ],
      "payable": false,
      "stateMutability": "view",
      "type": "function"
    },
    {
      "constant": true,
      "inputs": [],
      "name": "token",
      "outputs": [
        {
          "name": "",
          "type": "address"
        }
      ],
      "payable": false,
      "stateMutability": "view",
      "type": "function"
    },
    {
      "inputs": [
        {
          "name": "_wallet_address",
          "type": "address"
        },
        {
          "name": "_whitelister_address",
          "type": "address"
        },
        {
          "name": "_price_start",
          "type": "uint256"
        },
        {
          "name": "_price_constant",
          "type": "uint256"
        },
        {
          "name": "_price_exponent",
          "type": "uint32"
        }
      ],
      "payable": false,
      "stateMutability": "nonpayable",
      "type": "constructor"
    },
    {
      "payable": true,
      "stateMutability": "payable",
      "type": "fallback"
    },
    {
      "anonymous": false,
      "inputs": [
        {
          "indexed": true,
          "name": "_price_start",
          "type": "uint256"
        },
        {
          "indexed": true,
          "name": "_price_constant",
          "type": "uint256"
        },
        {
          "indexed": true,
          "name": "_price_exponent",
          "type": "uint32"
        }
      ],
      "name": "Deployed",
      "type": "event"
    },
    {
      "anonymous": false,
      "inputs": [],
      "name": "Setup",
      "type": "event"
    },
    {
      "anonymous": false,
      "inputs": [
        {
          "indexed": true,
          "name": "_start_time",
          "type": "uint256"
        },
        {
          "indexed": true,
          "name": "_block_number",
          "type": "uint256"
        }
      ],
      "name": "AuctionStarted",
      "type": "event"
    },
    {
      "anonymous": false,
      "inputs": [
        {
          "indexed": true,
          "name": "_sender",
          "type": "address"
        },
        {
          "indexed": false,
          "name": "_amount",
          "type": "uint256"
        },
        {
          "indexed": false,
          "name": "_missing_funds",
          "type": "uint256"
        }
      ],
      "name": "BidSubmission",
      "type": "event"
    },
    {
      "anonymous": false,
      "inputs": [
        {
          "indexed": true,
          "name": "_recipient",
          "type": "address"
        },
        {
          "indexed": false,
          "name": "_sent_amount",
          "type": "uint256"
        }
      ],
      "name": "ClaimedTokens",
      "type": "event"
    },
    {
      "anonymous": false,
      "inputs": [
        {
          "indexed": false,
          "name": "_final_price",
          "type": "uint256"
        }
      ],
      "name": "AuctionEnded",
      "type": "event"
    },
    {
      "anonymous": false,
      "inputs": [],
      "name": "TokensDistributed",
      "type": "event"
    },
    {
      "constant": false,
      "inputs": [
        {
          "name": "_token_address",
          "type": "address"
        }
      ],
      "name": "setup",
      "outputs": [],
      "payable": false,
      "stateMutability": "nonpayable",
      "type": "function"
    },
    {
      "constant": false,
      "inputs": [
        {
          "name": "_bidder_addresses",
          "type": "address[]"
        }
      ],
      "name": "addToWhitelist",
      "outputs": [],
      "payable": false,
      "stateMutability": "nonpayable",
      "type": "function"
    },
    {
      "constant": false,
      "inputs": [
        {
          "name": "_bidder_addresses",
          "type": "address[]"
        }
      ],
      "name": "removeFromWhitelist",
      "outputs": [],
      "payable": false,
      "stateMutability": "nonpayable",
      "type": "function"
    },
    {
      "constant": false,
      "inputs": [],
      "name": "startAuction",
      "outputs": [],
      "payable": false,
      "stateMutability": "nonpayable",
      "type": "function"
    },
    {
      "constant": false,
      "inputs": [],
      "name": "finalizeAuction",
      "outputs": [],
      "payable": false,
      "stateMutability": "nonpayable",
      "type": "function"
    },
    {
      "constant": false,
      "inputs": [],
      "name": "bid",
      "outputs": [],
      "payable": true,
      "stateMutability": "payable",
      "type": "function"
    },
    {
      "constant": false,
      "inputs": [],
      "name": "claimTokens",
      "outputs": [
        {
          "name": "",
          "type": "bool"
        }
      ],
      "payable": false,
      "stateMutability": "nonpayable",
      "type": "function"
    },
    {
      "constant": false,
      "inputs": [
        {
          "name": "receiver_address",
          "type": "address"
        }
      ],
      "name": "proxyClaimTokens",
      "outputs": [
        {
          "name": "",
          "type": "bool"
        }
      ],
      "payable": false,
      "stateMutability": "nonpayable",
      "type": "function"
    },
    {
      "constant": true,
      "inputs": [],
      "name": "price",
      "outputs": [
        {
          "name": "",
          "type": "uint256"
        }
      ],
      "payable": false,
      "stateMutability": "view",
      "type": "function"
    },
    {
      "constant": true,
      "inputs": [],
      "name": "missingFundsToEndAuction",
      "outputs": [
        {
          "name": "",
          "type": "uint256"
        }
      ],
      "payable": false,
      "stateMutability": "view",
      "type": "function"
    }
  ],
  "bytecode": "0x6060604052341561000f57600080fd5b60405160a0806110d28339810160405280805191906020018051919060200180519190602001805191906020018051915050600160a060020a038516151561005657600080fd5b600160a060020a038416151561006b57600080fd5b60028054600160a060020a03878116600160a060020a031992831617909255600380548784169083161790556001805433909316929091169190911790556011805460ff191690556100cb838383640100000000610e9d61010a82021704565b8063ffffffff1682847f386f36f3306fb418dd13e11a0f5b005c8b23a70fb5da6c18ab5123e5fe68598560405160405180910390a45050505050610182565b600060115460ff16600481111561011d57fe5b14806101395750600160115460ff16600481111561013757fe5b145b151561014457600080fd5b6000831161015157600080fd5b6000821161015e57600080fd5b6004929092556005556006805463ffffffff191663ffffffff909216919091179055565b610f41806101916000396000f3006060604052600436106101665763ffffffff60e060020a60003504166303cc7b85811461018f57806308b309e3146101b45780630c64a739146101c757806316243356146101f35780631998aeef146102065780631e3359621461021057806329b4d111146102235780632a887299146102365780632aefb7c51461024957806348c54b9d1461025c5780634b7829f1146102835780634e01291814610296578063548db174146102c557806362ea82db1461031457806366d38203146103335780636b64c769146103525780637b10e717146103655780637f6497831461037857806380edef8e146103c7578063834ee417146103da5780639b19251a146103ed5780639dbf05431461040c578063a035b1fe1461041f578063aeaaaa0814610432578063b87fb3db14610451578063c040e6b814610464578063c5cd88db1461049b578063e776a5b5146104ae578063f77282ab146104c1578063fc0c546a146104d4575b60028060115460ff16600481111561017a57fe5b1461018457600080fd5b61018c6104e7565b50005b341561019a57600080fd5b6101a2610655565b60405190815260200160405180910390f35b34156101bf57600080fd5b6101a261065b565b34156101d257600080fd5b6101da610661565b60405163ffffffff909116815260200160405180910390f35b34156101fe57600080fd5b6101a261066d565b61020e6104e7565b005b341561021b57600080fd5b6101a2610673565b341561022e57600080fd5b6101a2610679565b341561024157600080fd5b6101a261067f565b341561025457600080fd5b6101a261068c565b341561026757600080fd5b61026f610692565b604051901515815260200160405180910390f35b341561028e57600080fd5b6101a26106c2565b34156102a157600080fd5b6102a96106c7565b604051600160a060020a03909116815260200160405180910390f35b34156102d057600080fd5b61020e60046024813581810190830135806020818102016040519081016040528093929190818152602001838360200280828437509496506106d695505050505050565b341561031f57600080fd5b6101a2600160a060020a0360043516610759565b341561033e57600080fd5b61020e600160a060020a036004351661076b565b341561035d57600080fd5b61020e6108e0565b341561037057600080fd5b6101a2610962565b341561038357600080fd5b61020e600460248135818101908301358060208181020160405190810160405280939291908181526020018383602002808284375094965061096895505050505050565b34156103d257600080fd5b6102a96109eb565b34156103e557600080fd5b6101a26109fa565b34156103f857600080fd5b61026f600160a060020a0360043516610a00565b341561041757600080fd5b6101a2610a15565b341561042a57600080fd5b6101a2610a1b565b341561043d57600080fd5b61026f600160a060020a0360043516610a67565b341561045c57600080fd5b6101a2610d37565b341561046f57600080fd5b610477610d3d565b6040518082600481111561048757fe5b60ff16815260200191505060405180910390f35b34156104a657600080fd5b6101a2610d46565b34156104b957600080fd5b6102a9610d82565b34156104cc57600080fd5b61020e610d91565b34156104df57600080fd5b6102a9610e30565b600060028060115460ff1660048111156104fd57fe5b1461050757600080fd5b6000341161051457600080fd5b33600160a060020a03166000908152600f6020526040902054683635c9adc5dea00000349091011115806105605750600160a060020a03331660009081526010602052604090205460ff165b151561056b57600080fd5b600160a060020a0333166000908152600f602052604090205434908101101561059057fe5b610598610d46565b915034829011156105a857600080fd5b600160a060020a033381166000908152600f602052604090819020805434908101909155600a8054820190556002549092169180156108fc029151600060405180830381858888f19350505050151561060057600080fd5b33600160a060020a03167fc9c6176cbf7c0a8c29655fe8ccbe5e28382ca11459d145223308723bfc697545348460405191825260208201526040908101905180910390a2600a543490101561065157fe5b5050565b600d5481565b600e5481565b60065463ffffffff1681565b60085481565b600c5481565b60045481565b683635c9adc5dea0000081565b600b5481565b600060038060115460ff1660048111156106a857fe5b146106b257600080fd5b6106bb33610a67565b91505b5090565b603c81565b600354600160a060020a031681565b60035460009033600160a060020a039081169116146106f457600080fd5b5060005b81518163ffffffff16101561065157600060106000848463ffffffff168151811061071f57fe5b90602001906020020151600160a060020a031681526020810191909152604001600020805460ff19169115159190911790556001016106f8565b600f6020526000908152604090205481565b60015433600160a060020a0390811691161461078657600080fd5b60008060115460ff16600481111561079a57fe5b146107a457600080fd5b600160a060020a03821615156107b957600080fd5b6000805473ffffffffffffffffffffffffffffffffffffffff1916600160a060020a038481169190911791829055166370a082313060405160e060020a63ffffffff8416028152600160a060020a039091166004820152602401602060405180830381600087803b151561082c57600080fd5b5af1151561083957600080fd5b5050506040518051600d5550600054600160a060020a031663313ce5676040518163ffffffff1660e060020a028152600401602060405180830381600087803b151561088457600080fd5b5af1151561089157600080fd5b505050604051805160ff16600a0a600c55506011805460ff191660011790557f587930504fa5b1062f394d90f9dac9ecadd354ed23a97af9ea4e44dff4870a8460405160405180910390a15050565b60015433600160a060020a039081169116146108fb57600080fd5b60018060115460ff16600481111561090f57fe5b1461091957600080fd5b6011805460ff19166002179055426007819055436009819055907ff8910119ddbef5440c54532457dfe8250a10ed39e583292818f44724b9e1344c60405160405180910390a350565b600a5481565b60035460009033600160a060020a0390811691161461098657600080fd5b5060005b81518163ffffffff16101561065157600160106000848463ffffffff16815181106109b157fe5b90602001906020020151600160a060020a031681526020810191909152604001600020805460ff191691151591909117905560010161098a565b600154600160a060020a031681565b60075481565b60106020526000908152604090205460ff1681565b60055481565b6000600360115460ff166004811115610a3057fe5b1480610a4c5750600460115460ff166004811115610a4a57fe5b145b15610a5957506000610a64565b610a61610e3f565b90505b90565b6000808060038060115460ff166004811115610a7f57fe5b14610a8957600080fd5b600854603c014211610a9a57600080fd5b600160a060020a0385161515610aaf57600080fd5b600160a060020a0385166000908152600f60205260409020541515610ad75760009350610d2f565b600e54600160a060020a0386166000908152600f6020526040902054600c5402811515610b0057fe5b6000549190049350600160a060020a03166370a082313060405160e060020a63ffffffff8416028152600160a060020a039091166004820152602401602060405180830381600087803b1515610b5557600080fd5b5af11515610b6257600080fd5b505050604051805192505081831115610b79578192505b600160a060020a038086166000908152600f60205260408082208054600b8054909101905582905590549091169063a9059cbb90879086905160e060020a63ffffffff8516028152600160a060020a0390921660048301526024820152604401602060405180830381600087803b1515610bf257600080fd5b5af11515610bff57600080fd5b505050604051805190501515610c1457600080fd5b84600160a060020a03167fe9aa550fd75d0d28e07fa9dd67d3ae705678776f6c4a75abd09534f93e7d79078460405190815260200160405180910390a2600a54600b541415610c97576011805460ff191660041790557fcea85459abe456c560868e61c476933dcee35a72aba5f546e93715929a69618660405160405180910390a15b6000548390600160a060020a03166370a082318760405160e060020a63ffffffff8416028152600160a060020a039091166004820152602401602060405180830381600087803b1515610ce957600080fd5b5af11515610cf657600080fd5b5050506040518051905010151515610d0a57fe5b600160a060020a0385166000908152600f602052604090205415610d2a57fe5b600193505b505050919050565b60095481565b60115460ff1681565b600080600c54610d54610a1b565b600d5402811515610d6157fe5b049050600a5481111515610d7857600091506106be565b600a549003919050565b600254600160a060020a031681565b600060028060115460ff166004811115610da757fe5b14610db157600080fd5b610db9610d46565b91508115610dc657600080fd5b600d54600a54600c5402811515610dd957fe5b04600e819055426008556011805460ff191660031790557f45806e512b1f4f10e33e8b3cb64d1d11d998d8c554a95e0841fc1c701278bd5d9060405190815260200160405180910390a1600e546000901161065157fe5b600054600160a060020a031681565b60008080600260115460ff166004811115610e5657fe5b1415610e6457600754420391505b60055460065463ffffffff16830a811515610e7b57fe5b0490508082600101018260010160045402811515610e9557fe5b049250505090565b600060115460ff166004811115610eb057fe5b1480610ecc5750600160115460ff166004811115610eca57fe5b145b1515610ed757600080fd5b60008311610ee457600080fd5b60008211610ef157600080fd5b6004929092556005556006805463ffffffff191663ffffffff9092169190911790555600a165627a7a72305820677e76eb165d1afcd046d5fbcefb16e240d670cb859fbc06e2f5d9d9955477bf0029",
  "source": "pragma solidity ^0.4.17;\n\nimport '../ERC20Token.sol';\n\n/// @title Dutch auction contract - distribution of a fixed number of tokens using an auction.\n/// The contract code is inspired by the Gnosis auction contract. Main difference is that the\n/// auction ends if a fixed number of tokens was sold.\ncontract DutchAuction {\n    /*\n     * Auction for the RDN Token.\n     *\n     * Terminology:\n     * 1 token unit = Rei\n     * 1 token = RDN = Rei * token_multiplier\n     * token_multiplier set from token's number of decimals (i.e. 10 ** decimals)\n     */\n\n    // Wait 7 days after the end of the auction, before anyone can claim tokens\n    uint constant public token_claim_waiting_period = 1 minutes;\n\n    // Bid value over which the address has to be whitelisted\n    // At deployment moment, less than 1k$\n    uint constant public bid_threshold = 1000 ether;\n\n    /*\n     * Storage\n     */\n\n    ERC20Token public token;\n    address public owner_address;\n    address public wallet_address;\n    address public whitelister_address;\n\n    // Price decay function parameters to be changed depending on the desired outcome\n\n    // Starting price in WEI; e.g. 2 * 10 ** 18\n    uint public price_start;\n\n    // Divisor constant; e.g. 524880000\n    uint public price_constant;\n\n    // Divisor exponent; e.g. 3\n    uint32 public price_exponent;\n\n    // For calculating elapsed time for price\n    uint public start_time;\n    uint public end_time;\n    uint public start_block;\n\n    // Keep track of all ETH received in the bids\n    uint public received_wei;\n\n    // Keep track of cumulative ETH funds for which the tokens have been claimed\n    uint public funds_claimed;\n\n    uint public token_multiplier;\n\n    // Total number of Rei (RDN * token_multiplier) that will be auctioned\n    uint public num_tokens_auctioned;\n\n    // Wei per RDN (Rei * token_multiplier)\n    uint public final_price;\n\n    // Bidder address => bid value\n    mapping (address => uint) public bids;\n\n    // Whitelist for addresses that want to bid more than bid_threshold\n    mapping (address => bool) public whitelist;\n\n    Stages public stage;\n\n    /*\n     * Enums\n     */\n    enum Stages {\n        AuctionDeployed,\n        AuctionSetUp,\n        AuctionStarted,\n        AuctionEnded,\n        TokensDistributed\n    }\n\n    /*\n     * Modifiers\n     */\n    modifier atStage(Stages _stage) {\n        require(stage == _stage);\n        _;\n    }\n\n    modifier isOwner() {\n        require(msg.sender == owner_address);\n        _;\n    }\n\n    modifier isWhitelister() {\n        require(msg.sender == whitelister_address);\n        _;\n    }\n\n    /*\n     * Events\n     */\n\n    event Deployed(\n        uint indexed _price_start,\n        uint indexed _price_constant,\n        uint32 indexed _price_exponent\n    );\n    event Setup();\n    event AuctionStarted(uint indexed _start_time, uint indexed _block_number);\n    event BidSubmission(\n        address indexed _sender,\n        uint _amount,\n        uint _missing_funds\n    );\n    event ClaimedTokens(address indexed _recipient, uint _sent_amount);\n    event AuctionEnded(uint _final_price);\n    event TokensDistributed();\n\n    /*\n     * Public functions\n     */\n\n    /// @dev Contract constructor function sets the starting price, divisor constant and\n    /// divisor exponent for calculating the Dutch Auction price.\n    /// @param _wallet_address Wallet address to which all contributed ETH will be forwarded.\n    /// @param _price_start High price in WEI at which the auction starts.\n    /// @param _price_constant Auction price divisor constant.\n    /// @param _price_exponent Auction price divisor exponent.\n    function DutchAuction(\n        address _wallet_address,\n        address _whitelister_address,\n        uint _price_start,\n        uint _price_constant,\n        uint32 _price_exponent)\n        public\n    {\n        require(_wallet_address != 0x0);\n        require(_whitelister_address != 0x0);\n        wallet_address = _wallet_address;\n        whitelister_address = _whitelister_address;\n\n        owner_address = msg.sender;\n        stage = Stages.AuctionDeployed;\n        changeSettings(_price_start, _price_constant, _price_exponent);\n        Deployed(_price_start, _price_constant, _price_exponent);\n    }\n\n    /// @dev Fallback function for the contract, which calls bid() if the auction has started.\n    function () public payable atStage(Stages.AuctionStarted) {\n        bid();\n    }\n\n    /// @notice Set `_token_address` as the token address to be used in the auction.\n    /// @dev Setup function sets external contracts addresses.\n    /// @param _token_address Token address.\n    function setup(address _token_address) public isOwner atStage(Stages.AuctionDeployed) {\n        require(_token_address != 0x0);\n        token = ERC20Token(_token_address);\n\n        // Get number of Rei (RDN * token_multiplier) to be auctioned from token auction balance\n        num_tokens_auctioned = token.balanceOf(address(this));\n\n        // Set the number of the token multiplier for its decimals\n        token_multiplier = 10 ** uint(token.decimals());\n\n        stage = Stages.AuctionSetUp;\n        Setup();\n    }\n\n    /// @notice Set `_price_start`, `_price_constant` and `_price_exponent` as\n    /// the new starting price, price divisor constant and price divisor exponent.\n    /// @dev Changes auction price function parameters before auction is started.\n    /// @param _price_start Updated start price.\n    /// @param _price_constant Updated price divisor constant.\n    /// @param _price_exponent Updated price divisor exponent.\n    function changeSettings(\n        uint _price_start,\n        uint _price_constant,\n        uint32 _price_exponent)\n        internal\n    {\n        require(stage == Stages.AuctionDeployed || stage == Stages.AuctionSetUp);\n        require(_price_start > 0);\n        require(_price_constant > 0);\n\n        price_start = _price_start;\n        price_constant = _price_constant;\n        price_exponent = _price_exponent;\n    }\n\n    /// @notice Adds account addresses to whitelist.\n    /// @dev Adds account addresses to whitelist.\n    /// @param _bidder_addresses Array of addresses.\n    function addToWhitelist(address[] _bidder_addresses) public isWhitelister {\n        for (uint32 i = 0; i < _bidder_addresses.length; i++) {\n            whitelist[_bidder_addresses[i]] = true;\n        }\n    }\n\n    /// @notice Removes account addresses from whitelist.\n    /// @dev Removes account addresses from whitelist.\n    /// @param _bidder_addresses Array of addresses.\n    function removeFromWhitelist(address[] _bidder_addresses) public isWhitelister {\n        for (uint32 i = 0; i < _bidder_addresses.length; i++) {\n            whitelist[_bidder_addresses[i]] = false;\n        }\n    }\n\n    /// @notice Start the auction.\n    /// @dev Starts auction and sets start_time.\n    function startAuction() public isOwner atStage(Stages.AuctionSetUp) {\n        stage = Stages.AuctionStarted;\n        start_time = now;\n        start_block = block.number;\n        AuctionStarted(start_time, start_block);\n    }\n\n    /// @notice Finalize the auction - sets the final RDN token price and changes the auction\n    /// stage after no bids are allowed anymore.\n    /// @dev Finalize auction and set the final RDN token price.\n    function finalizeAuction() public atStage(Stages.AuctionStarted)\n    {\n        // Missing funds should be 0 at this point\n        uint missing_funds = missingFundsToEndAuction();\n        require(missing_funds == 0);\n\n        // Calculate the final price = WEI / RDN = WEI / (Rei / token_multiplier)\n        // Reminder: num_tokens_auctioned is the number of Rei (RDN * token_multiplier) that are auctioned\n        final_price = token_multiplier * received_wei / num_tokens_auctioned;\n\n        end_time = now;\n        stage = Stages.AuctionEnded;\n        AuctionEnded(final_price);\n\n        assert(final_price > 0);\n    }\n\n    /// --------------------------------- Auction Functions ------------------\n\n\n    /// @notice Send `msg.value` WEI to the auction from the `msg.sender` account.\n    /// @dev Allows to send a bid to the auction.\n    function bid()\n        public\n        payable\n        atStage(Stages.AuctionStarted)\n    {\n        require(msg.value > 0);\n        require(bids[msg.sender] + msg.value <= bid_threshold || whitelist[msg.sender]);\n        assert(bids[msg.sender] + msg.value >= msg.value);\n\n        // Missing funds without the current bid value\n        uint missing_funds = missingFundsToEndAuction();\n\n        // We require bid values to be less than the funds missing to end the auction\n        // at the current price.\n        require(msg.value <= missing_funds);\n\n        bids[msg.sender] += msg.value;\n        received_wei += msg.value;\n\n        // Send bid amount to wallet\n        wallet_address.transfer(msg.value);\n\n        BidSubmission(msg.sender, msg.value, missing_funds);\n\n        assert(received_wei >= msg.value);\n    }\n\n    /// @notice Claim auction tokens for `msg.sender` after the auction has ended.\n    /// @dev Claims tokens for `msg.sender` after auction. To be used if tokens can\n    /// be claimed by beneficiaries, individually.\n    function claimTokens() public atStage(Stages.AuctionEnded) returns (bool) {\n        return proxyClaimTokens(msg.sender);\n    }\n\n    /// @notice Claim auction tokens for `receiver_address` after the auction has ended.\n    /// @dev Claims tokens for `receiver_address` after auction has ended.\n    /// @param receiver_address Tokens will be assigned to this address if eligible.\n    function proxyClaimTokens(address receiver_address)\n        public\n        atStage(Stages.AuctionEnded)\n        returns (bool)\n    {\n        // Waiting period after the end of the auction, before anyone can claim tokens\n        // Ensures enough time to check if auction was finalized correctly\n        // before users start transacting tokens\n        require(now > end_time + token_claim_waiting_period);\n        require(receiver_address != 0x0);\n\n        if (bids[receiver_address] == 0) {\n            return false;\n        }\n\n        // Number of Rei = bid_wei / Rei = bid_wei / (wei_per_RDN * token_multiplier)\n        uint num = (token_multiplier * bids[receiver_address]) / final_price;\n\n        // Due to final_price floor rounding, the number of assigned tokens may be higher\n        // than expected. Therefore, the number of remaining unassigned auction tokens\n        // may be smaller than the number of tokens needed for the last claimTokens call\n        uint auction_tokens_balance = token.balanceOf(address(this));\n        if (num > auction_tokens_balance) {\n            num = auction_tokens_balance;\n        }\n\n        // Update the total amount of funds for which tokens have been claimed\n        funds_claimed += bids[receiver_address];\n\n        // Set receiver bid to 0 before assigning tokens\n        bids[receiver_address] = 0;\n\n        require(token.transfer(receiver_address, num));\n\n        ClaimedTokens(receiver_address, num);\n\n        // After the last tokens are claimed, we change the auction stage\n        // Due to the above logic, rounding errors will not be an issue\n        if (funds_claimed == received_wei) {\n            stage = Stages.TokensDistributed;\n            TokensDistributed();\n        }\n\n        assert(token.balanceOf(receiver_address) >= num);\n        assert(bids[receiver_address] == 0);\n        return true;\n    }\n\n    /// @notice Get the RDN price in WEI during the auction, at the time of\n    /// calling this function. Returns `0` if auction has ended.\n    /// Returns `price_start` before auction has started.\n    /// @dev Calculates the current RDN token price in WEI.\n    /// @return Returns WEI per RDN (token_multiplier * Rei).\n    function price() public constant returns (uint) {\n        if (stage == Stages.AuctionEnded ||\n            stage == Stages.TokensDistributed) {\n            return 0;\n        }\n        return calcTokenPrice();\n    }\n\n    /// @notice Get the missing funds needed to end the auction,\n    /// calculated at the current RDN price in WEI.\n    /// @dev The missing funds amount necessary to end the auction at the current RDN price in WEI.\n    /// @return Returns the missing funds amount in WEI.\n    function missingFundsToEndAuction() constant public returns (uint) {\n\n        // num_tokens_auctioned = total number of Rei (RDN * token_multiplier) that is auctioned\n        uint required_wei_at_price = num_tokens_auctioned * price() / token_multiplier;\n        if (required_wei_at_price <= received_wei) {\n            return 0;\n        }\n\n        // assert(required_wei_at_price - received_wei > 0);\n        return required_wei_at_price - received_wei;\n    }\n\n    /*\n     *  Private functions\n     */\n\n    /// @dev Calculates the token price (WEI / RDN) at the current timestamp\n    /// during the auction; elapsed time = 0 before auction starts.\n    /// Based on the provided parameters, the price does not change in the first\n    /// `price_constant^(1/price_exponent)` seconds due to rounding.\n    /// Rounding in `decay_rate` also produces values that increase instead of decrease\n    /// in the beginning; these spikes decrease over time and are noticeable\n    /// only in first hours. This should be calculated before usage.\n    /// @return Returns the token price - Wei per RDN.\n    function calcTokenPrice() constant private returns (uint) {\n        uint elapsed;\n        if (stage == Stages.AuctionStarted) {\n            elapsed = now - start_time;\n        }\n\n        uint decay_rate = elapsed ** price_exponent / price_constant;\n        return price_start * (1 + elapsed) / (1 + elapsed + decay_rate);\n    }\n}\n",
  "sourcePath": "/Users/rudo/Documents/ichiba/submodules/contracts/solidity/contracts/DutchAuction/DutchAuction.sol",
  "compiler": {
    "name": "solc",
    "version": "0.4.21+commit.dfe3193c.Emscripten.clang"
  },
  "schemaVersion": "2.0.0",
  "updatedAt": "2018-07-23T12:54:41.556Z"
}