{
  "contractName": "DutchAuctionPF",
  "abi": [
    {
      "constant": true,
      "inputs": [],
      "name": "num_tokens_auctioned",
      "outputs": [
        {
          "name": "",
          "type": "uint256"
        }
      ],
      "payable": false,
      "stateMutability": "view",
      "type": "function"
    },
    {
      "constant": true,
      "inputs": [],
      "name": "final_price",
      "outputs": [
        {
          "name": "",
          "type": "uint256"
        }
      ],
      "payable": false,
      "stateMutability": "view",
      "type": "function"
    },
    {
      "constant": true,
      "inputs": [],
      "name": "price_exponent",
      "outputs": [
        {
          "name": "",
          "type": "uint32"
        }
      ],
      "payable": false,
      "stateMutability": "view",
      "type": "function"
    },
    {
      "constant": true,
      "inputs": [],
      "name": "end_time",
      "outputs": [
        {
          "name": "",
          "type": "uint256"
        }
      ],
      "payable": false,
      "stateMutability": "view",
      "type": "function"
    },
    {
      "constant": true,
      "inputs": [],
      "name": "token_multiplier",
      "outputs": [
        {
          "name": "",
          "type": "uint256"
        }
      ],
      "payable": false,
      "stateMutability": "view",
      "type": "function"
    },
    {
      "constant": true,
      "inputs": [],
      "name": "price_start",
      "outputs": [
        {
          "name": "",
          "type": "uint256"
        }
      ],
      "payable": false,
      "stateMutability": "view",
      "type": "function"
    },
    {
      "constant": true,
      "inputs": [],
      "name": "bid_threshold",
      "outputs": [
        {
          "name": "",
          "type": "uint256"
        }
      ],
      "payable": false,
      "stateMutability": "view",
      "type": "function"
    },
    {
      "constant": true,
      "inputs": [],
      "name": "funds_claimed",
      "outputs": [
        {
          "name": "",
          "type": "uint256"
        }
      ],
      "payable": false,
      "stateMutability": "view",
      "type": "function"
    },
    {
      "constant": true,
      "inputs": [],
      "name": "token_claim_waiting_period",
      "outputs": [
        {
          "name": "",
          "type": "uint256"
        }
      ],
      "payable": false,
      "stateMutability": "view",
      "type": "function"
    },
    {
      "constant": true,
      "inputs": [],
      "name": "whitelister_address",
      "outputs": [
        {
          "name": "",
          "type": "address"
        }
      ],
      "payable": false,
      "stateMutability": "view",
      "type": "function"
    },
    {
      "constant": true,
      "inputs": [
        {
          "name": "",
          "type": "address"
        }
      ],
      "name": "bids",
      "outputs": [
        {
          "name": "",
          "type": "uint256"
        }
      ],
      "payable": false,
      "stateMutability": "view",
      "type": "function"
    },
    {
      "constant": true,
      "inputs": [],
      "name": "pfToken",
      "outputs": [
        {
          "name": "",
          "type": "address"
        }
      ],
      "payable": false,
      "stateMutability": "view",
      "type": "function"
    },
    {
      "constant": true,
      "inputs": [],
      "name": "received_wei",
      "outputs": [
        {
          "name": "",
          "type": "uint256"
        }
      ],
      "payable": false,
      "stateMutability": "view",
      "type": "function"
    },
    {
      "constant": true,
      "inputs": [],
      "name": "owner_address",
      "outputs": [
        {
          "name": "",
          "type": "address"
        }
      ],
      "payable": false,
      "stateMutability": "view",
      "type": "function"
    },
    {
      "constant": true,
      "inputs": [],
      "name": "start_time",
      "outputs": [
        {
          "name": "",
          "type": "uint256"
        }
      ],
      "payable": false,
      "stateMutability": "view",
      "type": "function"
    },
    {
      "constant": true,
      "inputs": [
        {
          "name": "",
          "type": "address"
        }
      ],
      "name": "whitelist",
      "outputs": [
        {
          "name": "",
          "type": "bool"
        }
      ],
      "payable": false,
      "stateMutability": "view",
      "type": "function"
    },
    {
      "constant": true,
      "inputs": [],
      "name": "price_constant",
      "outputs": [
        {
          "name": "",
          "type": "uint256"
        }
      ],
      "payable": false,
      "stateMutability": "view",
      "type": "function"
    },
    {
      "constant": true,
      "inputs": [],
      "name": "start_block",
      "outputs": [
        {
          "name": "",
          "type": "uint256"
        }
      ],
      "payable": false,
      "stateMutability": "view",
      "type": "function"
    },
    {
      "constant": true,
      "inputs": [],
      "name": "stage",
      "outputs": [
        {
          "name": "",
          "type": "uint8"
        }
      ],
      "payable": false,
      "stateMutability": "view",
      "type": "function"
    },
    {
      "constant": true,
      "inputs": [],
      "name": "wallet_address",
      "outputs": [
        {
          "name": "",
          "type": "address"
        }
      ],
      "payable": false,
      "stateMutability": "view",
      "type": "function"
    },
    {
      "constant": true,
      "inputs": [],
      "name": "token",
      "outputs": [
        {
          "name": "",
          "type": "address"
        }
      ],
      "payable": false,
      "stateMutability": "view",
      "type": "function"
    },
    {
      "inputs": [
        {
          "name": "_wallet_address",
          "type": "address"
        },
        {
          "name": "_whitelister_address",
          "type": "address"
        },
        {
          "name": "_price_start",
          "type": "uint256"
        },
        {
          "name": "_price_constant",
          "type": "uint256"
        },
        {
          "name": "_price_exponent",
          "type": "uint32"
        }
      ],
      "payable": false,
      "stateMutability": "nonpayable",
      "type": "constructor"
    },
    {
      "payable": true,
      "stateMutability": "payable",
      "type": "fallback"
    },
    {
      "anonymous": false,
      "inputs": [
        {
          "indexed": true,
          "name": "_price_start",
          "type": "uint256"
        },
        {
          "indexed": true,
          "name": "_price_constant",
          "type": "uint256"
        },
        {
          "indexed": true,
          "name": "_price_exponent",
          "type": "uint32"
        }
      ],
      "name": "Deployed",
      "type": "event"
    },
    {
      "anonymous": false,
      "inputs": [],
      "name": "Setup",
      "type": "event"
    },
    {
      "anonymous": false,
      "inputs": [
        {
          "indexed": true,
          "name": "_start_time",
          "type": "uint256"
        },
        {
          "indexed": true,
          "name": "_block_number",
          "type": "uint256"
        }
      ],
      "name": "AuctionStarted",
      "type": "event"
    },
    {
      "anonymous": false,
      "inputs": [
        {
          "indexed": true,
          "name": "_sender",
          "type": "address"
        },
        {
          "indexed": false,
          "name": "_amount",
          "type": "uint256"
        },
        {
          "indexed": false,
          "name": "_missing_funds",
          "type": "uint256"
        }
      ],
      "name": "BidSubmission",
      "type": "event"
    },
    {
      "anonymous": false,
      "inputs": [
        {
          "indexed": true,
          "name": "_recipient",
          "type": "address"
        },
        {
          "indexed": false,
          "name": "_sent_amount",
          "type": "uint256"
        }
      ],
      "name": "ClaimedTokens",
      "type": "event"
    },
    {
      "anonymous": false,
      "inputs": [
        {
          "indexed": false,
          "name": "_final_price",
          "type": "uint256"
        }
      ],
      "name": "AuctionEnded",
      "type": "event"
    },
    {
      "anonymous": false,
      "inputs": [],
      "name": "TokensDistributed",
      "type": "event"
    },
    {
      "constant": false,
      "inputs": [
        {
          "name": "_core_address",
          "type": "address"
        },
        {
          "name": "_token_address",
          "type": "address"
        },
        {
          "name": "_pf_token_address",
          "type": "address"
        }
      ],
      "name": "setup",
      "outputs": [],
      "payable": false,
      "stateMutability": "nonpayable",
      "type": "function"
    },
    {
      "constant": false,
      "inputs": [
        {
          "name": "_bidder_addresses",
          "type": "address[]"
        }
      ],
      "name": "addToWhitelist",
      "outputs": [],
      "payable": false,
      "stateMutability": "nonpayable",
      "type": "function"
    },
    {
      "constant": false,
      "inputs": [
        {
          "name": "_bidder_addresses",
          "type": "address[]"
        }
      ],
      "name": "removeFromWhitelist",
      "outputs": [],
      "payable": false,
      "stateMutability": "nonpayable",
      "type": "function"
    },
    {
      "constant": false,
      "inputs": [],
      "name": "startAuction",
      "outputs": [],
      "payable": false,
      "stateMutability": "nonpayable",
      "type": "function"
    },
    {
      "constant": false,
      "inputs": [],
      "name": "finalizeAuction",
      "outputs": [],
      "payable": false,
      "stateMutability": "nonpayable",
      "type": "function"
    },
    {
      "constant": false,
      "inputs": [
        {
          "name": "amount",
          "type": "uint256"
        }
      ],
      "name": "bid",
      "outputs": [],
      "payable": false,
      "stateMutability": "nonpayable",
      "type": "function"
    },
    {
      "constant": false,
      "inputs": [],
      "name": "claimTokens",
      "outputs": [
        {
          "name": "",
          "type": "bool"
        }
      ],
      "payable": false,
      "stateMutability": "nonpayable",
      "type": "function"
    },
    {
      "constant": false,
      "inputs": [
        {
          "name": "receiver_address",
          "type": "address"
        }
      ],
      "name": "proxyClaimTokens",
      "outputs": [
        {
          "name": "",
          "type": "bool"
        }
      ],
      "payable": false,
      "stateMutability": "nonpayable",
      "type": "function"
    },
    {
      "constant": true,
      "inputs": [],
      "name": "price",
      "outputs": [
        {
          "name": "",
          "type": "uint256"
        }
      ],
      "payable": false,
      "stateMutability": "view",
      "type": "function"
    },
    {
      "constant": true,
      "inputs": [],
      "name": "missingFundsToEndAuction",
      "outputs": [
        {
          "name": "",
          "type": "uint256"
        }
      ],
      "payable": false,
      "stateMutability": "view",
      "type": "function"
    }
  ],
  "bytecode": "0x6060604052341561000f57600080fd5b60405160a0806200134c8339810160405280805191906020018051919060200180519190602001805191906020018051915050600160a060020a038516151561005757600080fd5b600160a060020a038416151561006c57600080fd5b60038054600160a060020a03878116600160a060020a031992831617909255600480548784169083161790556002805433909316929091169190911790556012805460ff191690556100cc83838364010000000061111561010b82021704565b8063ffffffff1682847f386f36f3306fb418dd13e11a0f5b005c8b23a70fb5da6c18ab5123e5fe68598560405160405180910390a45050505050610183565b600060125460ff16600481111561011e57fe5b148061013a5750600160125460ff16600481111561013857fe5b145b151561014557600080fd5b6000831161015257600080fd5b6000821161015f57600080fd5b6005929092556006556007805463ffffffff191663ffffffff909216919091179055565b6111b980620001936000396000f3006060604052600436106101715763ffffffff60e060020a60003504166303cc7b85811461019457806308b309e3146101b95780630c64a739146101cc57806316243356146101f85780631e3359621461020b57806329b4d1111461021e5780632a887299146102315780632aefb7c514610244578063454a2ab31461025757806348c54b9d1461026f5780634b7829f1146102965780634e012918146102a9578063548db174146102d857806362ea82db146103275780636b64c7691461034657806377b8b1c71461035957806378149723146103845780637b10e717146103975780637f649783146103aa57806380edef8e146103f9578063834ee4171461040c5780639b19251a1461041f5780639dbf05431461043e578063a035b1fe14610451578063aeaaaa0814610464578063b87fb3db14610483578063c040e6b814610496578063c5cd88db146104cd578063e776a5b5146104e0578063f77282ab146104f3578063fc0c546a14610506575b60028060125460ff16600481111561018557fe5b1461018f57600080fd5b600080fd5b341561019f57600080fd5b6101a7610519565b60405190815260200160405180910390f35b34156101c457600080fd5b6101a761051f565b34156101d757600080fd5b6101df610525565b60405163ffffffff909116815260200160405180910390f35b341561020357600080fd5b6101a7610531565b341561021657600080fd5b6101a7610537565b341561022957600080fd5b6101a761053d565b341561023c57600080fd5b6101a7610543565b341561024f57600080fd5b6101a7610551565b341561026257600080fd5b61026d600435610557565b005b341561027a57600080fd5b610282610810565b604051901515815260200160405180910390f35b34156102a157600080fd5b6101a7610840565b34156102b457600080fd5b6102bc610846565b604051600160a060020a03909116815260200160405180910390f35b34156102e357600080fd5b61026d600460248135818101908301358060208181020160405190810160405280939291908181526020018383602002808284375094965061085595505050505050565b341561033257600080fd5b6101a7600160a060020a03600435166108dc565b341561035157600080fd5b61026d6108ee565b341561036457600080fd5b61026d600160a060020a0360043581169060243581169060443516610970565b341561038f57600080fd5b6102bc610b4a565b34156103a257600080fd5b6101a7610b59565b34156103b557600080fd5b61026d6004602481358181019083013580602081810201604051908101604052809392919081815260200183836020028082843750949650610b5f95505050505050565b341561040457600080fd5b6102bc610be2565b341561041757600080fd5b6101a7610bf1565b341561042a57600080fd5b610282600160a060020a0360043516610bf7565b341561044957600080fd5b6101a7610c0c565b341561045c57600080fd5b6101a7610c12565b341561046f57600080fd5b610282600160a060020a0360043516610c5e565b341561048e57600080fd5b6101a7610faf565b34156104a157600080fd5b6104a9610fb5565b604051808260048111156104b957fe5b60ff16815260200191505060405180910390f35b34156104d857600080fd5b6101a7610fbe565b34156104eb57600080fd5b6102bc610ffa565b34156104fe57600080fd5b61026d611009565b341561051157600080fd5b6102bc6110a8565b600e5481565b600f5481565b60075463ffffffff1681565b60095481565b600d5481565b60055481565b69d3c21bcecceda100000081565b600c5481565b600060028060125460ff16600481111561056d57fe5b1461057757600080fd5b6000831161058457600080fd5b600160a060020a03331660009081526010602052604090205469d3c21bcecceda10000009084011115806105d05750600160a060020a03331660009081526011602052604090205460ff165b15156105db57600080fd5b600160a060020a03331660009081526010602052604090205483018390101561060057fe5b610608610fbe565b91508183111561061757600080fd5b33600160a060020a0381811660009081526010602052604090819020805487019055600b805487019055600154909116916323b872dd91309087905160e060020a63ffffffff8616028152600160a060020a0393841660048201529190921660248201526044810191909152606401602060405180830381600087803b151561069f57600080fd5b5af115156106ac57600080fd5b5050506040518051905015156106be57fe5b600154600354600160a060020a039182169163a9059cbb91168560405160e060020a63ffffffff8516028152600160a060020a0390921660048301526024820152604401602060405180830381600087803b151561071b57600080fd5b5af1151561072857600080fd5b50505060405180519050151561073a57fe5b33600160a060020a03167fc9c6176cbf7c0a8c29655fe8ccbe5e28382ca11459d145223308723bfc697545848460405191825260208201526040908101905180910390a2600b548390101561078b57fe5b601254600054600160a060020a036101009092048216916383505556913391168660405160e060020a63ffffffff8616028152600160a060020a0393841660048201529190921660248201526044810191909152606401600060405180830381600087803b15156107fb57600080fd5b5af1151561080857600080fd5b505050505050565b600060038060125460ff16600481111561082657fe5b1461083057600080fd5b61083933610c5e565b91505b5090565b6101a481565b600454600160a060020a031681565b60045460009033600160a060020a0390811691161461087357600080fd5b5060005b81518163ffffffff1610156108d857600060116000848463ffffffff168151811061089e57fe5b90602001906020020151600160a060020a031681526020810191909152604001600020805460ff1916911515919091179055600101610877565b5050565b60106020526000908152604090205481565b60025433600160a060020a0390811691161461090957600080fd5b60018060125460ff16600481111561091d57fe5b1461092757600080fd5b6012805460ff1916600217905542600881905543600a819055907ff8910119ddbef5440c54532457dfe8250a10ed39e583292818f44724b9e1344c60405160405180910390a350565b60025433600160a060020a0390811691161461098b57600080fd5b60008060125460ff16600481111561099f57fe5b146109a957600080fd5b600160a060020a03841615156109be57600080fd5b600160a060020a03831615156109d357600080fd5b600160a060020a03821615156109e857600080fd5b6012805474ffffffffffffffffffffffffffffffffffffffff001916610100600160a060020a0387811691909102919091179091556000805473ffffffffffffffffffffffffffffffffffffffff19908116868416179182905560018054909116858416179055166370a082313060405160e060020a63ffffffff8416028152600160a060020a039091166004820152602401602060405180830381600087803b1515610a9457600080fd5b5af11515610aa157600080fd5b5050506040518051600e5550600054600160a060020a031663313ce5676040518163ffffffff1660e060020a028152600401602060405180830381600087803b1515610aec57600080fd5b5af11515610af957600080fd5b505050604051805160ff16600a0a600d55506012805460ff191660011790557f587930504fa5b1062f394d90f9dac9ecadd354ed23a97af9ea4e44dff4870a8460405160405180910390a150505050565b600154600160a060020a031681565b600b5481565b60045460009033600160a060020a03908116911614610b7d57600080fd5b5060005b81518163ffffffff1610156108d857600160116000848463ffffffff1681518110610ba857fe5b90602001906020020151600160a060020a031681526020810191909152604001600020805460ff1916911515919091179055600101610b81565b600254600160a060020a031681565b60085481565b60116020526000908152604090205460ff1681565b60065481565b6000600360125460ff166004811115610c2757fe5b1480610c435750600460125460ff166004811115610c4157fe5b145b15610c5057506000610c5b565b610c586110b7565b90505b90565b6000808060038060125460ff166004811115610c7657fe5b14610c8057600080fd5b6009546101a4014211610c9257600080fd5b600160a060020a0385161515610ca757600080fd5b600160a060020a0385166000908152601060205260409020541515610ccf5760009350610fa7565b600f54600160a060020a038616600090815260106020526040902054600d5402811515610cf857fe5b6000549190049350600160a060020a03166370a082313060405160e060020a63ffffffff8416028152600160a060020a039091166004820152602401602060405180830381600087803b1515610d4d57600080fd5b5af11515610d5a57600080fd5b505050604051805192505081831115610d71578192505b600160a060020a038086166000908152601060205260408082208054600c8054909101905582905590549091169063a9059cbb90879086905160e060020a63ffffffff8516028152600160a060020a0390921660048301526024820152604401602060405180830381600087803b1515610dea57600080fd5b5af11515610df757600080fd5b505050604051805190501515610e0c57600080fd5b84600160a060020a03167fe9aa550fd75d0d28e07fa9dd67d3ae705678776f6c4a75abd09534f93e7d79078460405190815260200160405180910390a2600b54600c541415610e8f576012805460ff191660041790557fcea85459abe456c560868e61c476933dcee35a72aba5f546e93715929a69618660405160405180910390a15b6000548390600160a060020a03166370a082318760405160e060020a63ffffffff8416028152600160a060020a039091166004820152602401602060405180830381600087803b1515610ee157600080fd5b5af11515610eee57600080fd5b5050506040518051905010151515610f0257fe5b600160a060020a03851660009081526010602052604090205415610f2257fe5b601254600054600160a060020a03610100909204821691635856406f913391168660405160e060020a63ffffffff8616028152600160a060020a0393841660048201529190921660248201526044810191909152606401600060405180830381600087803b1515610f9257600080fd5b5af11515610f9f57600080fd5b505050600193505b505050919050565b600a5481565b60125460ff1681565b600080600d54610fcc610c12565b600e5402811515610fd957fe5b049050600b5481111515610ff0576000915061083c565b600b549003919050565b600354600160a060020a031681565b600060028060125460ff16600481111561101f57fe5b1461102957600080fd5b611031610fbe565b9150811561103e57600080fd5b600e54600b54600d540281151561105157fe5b04600f819055426009556012805460ff191660031790557f45806e512b1f4f10e33e8b3cb64d1d11d998d8c554a95e0841fc1c701278bd5d9060405190815260200160405180910390a1600f54600090116108d857fe5b600054600160a060020a031681565b60008080600260125460ff1660048111156110ce57fe5b14156110dc57600854420391505b60065460075463ffffffff16830a8115156110f357fe5b049050808260010101826001016005540281151561110d57fe5b049250505090565b600060125460ff16600481111561112857fe5b14806111445750600160125460ff16600481111561114257fe5b145b151561114f57600080fd5b6000831161115c57600080fd5b6000821161116957600080fd5b6005929092556006556007805463ffffffff191663ffffffff9092169190911790555600a165627a7a72305820b64117c382d613051ee0741ff72dd2951e831fdd6fa8a240ca891df3aa7728d00029",
  "source": "pragma solidity ^0.4.17;\n\nimport '../ERC20Token.sol';\nimport '../interfaces/IFinancieCore.sol';\n\n/// @title Dutch auction contract - distribution of a fixed number of tokens using an auction.\n/// The contract code is inspired by the Gnosis auction contract. Main difference is that the\n/// auction ends if a fixed number of tokens was sold.\ncontract DutchAuctionPF {\n    /*\n     * Auction for the RDN Token.\n     *\n     * Terminology:\n     * 1 token unit = Rei\n     * 1 token = RDN = Rei * token_multiplier\n     * token_multiplier set from token's number of decimals (i.e. 10 ** decimals)\n     */\n\n    // Wait 7 days after the end of the auction, before anyone can claim tokens\n    uint constant public token_claim_waiting_period = 7 minutes;\n\n    // Bid value over which the address has to be whitelisted\n    // At deployment moment, less than 1k$\n    uint constant public bid_threshold = 1000000 ether;\n\n    /*\n     * Storage\n     */\n\n    ERC20Token public token;\n    ERC20Token public pfToken;\n    address public owner_address;\n    address public wallet_address;\n    address public whitelister_address;\n\n    // Price decay function parameters to be changed depending on the desired outcome\n\n    // Starting price in WEI; e.g. 2 * 10 ** 18\n    uint public price_start;\n\n    // Divisor constant; e.g. 524880000\n    uint public price_constant;\n\n    // Divisor exponent; e.g. 3\n    uint32 public price_exponent;\n\n    // For calculating elapsed time for price\n    uint public start_time;\n    uint public end_time;\n    uint public start_block;\n\n    // Keep track of all ETH received in the bids\n    uint public received_wei;\n\n    // Keep track of cumulative ETH funds for which the tokens have been claimed\n    uint public funds_claimed;\n\n    uint public token_multiplier;\n\n    // Total number of Rei (RDN * token_multiplier) that will be auctioned\n    uint public num_tokens_auctioned;\n\n    // Wei per RDN (Rei * token_multiplier)\n    uint public final_price;\n\n    // Bidder address => bid value\n    mapping (address => uint) public bids;\n\n    // Whitelist for addresses that want to bid more than bid_threshold\n    mapping (address => bool) public whitelist;\n\n    Stages public stage;\n\n    IFinancieCore core;\n\n    /*\n     * Enums\n     */\n    enum Stages {\n        AuctionDeployed,\n        AuctionSetUp,\n        AuctionStarted,\n        AuctionEnded,\n        TokensDistributed\n    }\n\n    /*\n     * Modifiers\n     */\n    modifier atStage(Stages _stage) {\n        require(stage == _stage);\n        _;\n    }\n\n    modifier isOwner() {\n        require(msg.sender == owner_address);\n        _;\n    }\n\n    modifier isWhitelister() {\n        require(msg.sender == whitelister_address);\n        _;\n    }\n\n    /*\n     * Events\n     */\n\n    event Deployed(\n        uint indexed _price_start,\n        uint indexed _price_constant,\n        uint32 indexed _price_exponent\n    );\n    event Setup();\n    event AuctionStarted(uint indexed _start_time, uint indexed _block_number);\n    event BidSubmission(\n        address indexed _sender,\n        uint _amount,\n        uint _missing_funds\n    );\n    event ClaimedTokens(address indexed _recipient, uint _sent_amount);\n    event AuctionEnded(uint _final_price);\n    event TokensDistributed();\n\n    /*\n     * Public functions\n     */\n\n    /// @dev Contract constructor function sets the starting price, divisor constant and\n    /// divisor exponent for calculating the Dutch Auction price.\n    /// @param _wallet_address Wallet address to which all contributed ETH will be forwarded.\n    /// @param _price_start High price in WEI at which the auction starts.\n    /// @param _price_constant Auction price divisor constant.\n    /// @param _price_exponent Auction price divisor exponent.\n    function DutchAuctionPF(\n        address _wallet_address,\n        address _whitelister_address,\n        uint _price_start,\n        uint _price_constant,\n        uint32 _price_exponent)\n        public\n    {\n        require(_wallet_address != 0x0);\n        require(_whitelister_address != 0x0);\n        wallet_address = _wallet_address;\n        whitelister_address = _whitelister_address;\n\n        owner_address = msg.sender;\n        stage = Stages.AuctionDeployed;\n        changeSettings(_price_start, _price_constant, _price_exponent);\n        Deployed(_price_start, _price_constant, _price_exponent);\n    }\n\n    /// @dev Fallback function for the contract, which calls bid() if the auction has started.\n    function () public payable atStage(Stages.AuctionStarted) {\n        require(false);\n    }\n\n    /// @notice Set `_token_address` as the token address to be used in the auction.\n    /// @dev Setup function sets external contracts addresses.\n    /// @param _token_address Token address.\n    function setup(address _core_address, address _token_address, address _pf_token_address) public isOwner atStage(Stages.AuctionDeployed) {\n        require(_core_address != 0x0);\n        require(_token_address != 0x0);\n        require(_pf_token_address != 0x0);\n        core = IFinancieCore(_core_address);\n        token = ERC20Token(_token_address);\n        pfToken = ERC20Token(_pf_token_address);\n\n        // Get number of Rei (RDN * token_multiplier) to be auctioned from token auction balance\n        num_tokens_auctioned = token.balanceOf(address(this));\n\n        // Set the number of the token multiplier for its decimals\n        token_multiplier = 10 ** uint(token.decimals());\n\n        stage = Stages.AuctionSetUp;\n        Setup();\n    }\n\n    /// @notice Set `_price_start`, `_price_constant` and `_price_exponent` as\n    /// the new starting price, price divisor constant and price divisor exponent.\n    /// @dev Changes auction price function parameters before auction is started.\n    /// @param _price_start Updated start price.\n    /// @param _price_constant Updated price divisor constant.\n    /// @param _price_exponent Updated price divisor exponent.\n    function changeSettings(\n        uint _price_start,\n        uint _price_constant,\n        uint32 _price_exponent)\n        internal\n    {\n        require(stage == Stages.AuctionDeployed || stage == Stages.AuctionSetUp);\n        require(_price_start > 0);\n        require(_price_constant > 0);\n\n        price_start = _price_start;\n        price_constant = _price_constant;\n        price_exponent = _price_exponent;\n    }\n\n    /// @notice Adds account addresses to whitelist.\n    /// @dev Adds account addresses to whitelist.\n    /// @param _bidder_addresses Array of addresses.\n    function addToWhitelist(address[] _bidder_addresses) public isWhitelister {\n        for (uint32 i = 0; i < _bidder_addresses.length; i++) {\n            whitelist[_bidder_addresses[i]] = true;\n        }\n    }\n\n    /// @notice Removes account addresses from whitelist.\n    /// @dev Removes account addresses from whitelist.\n    /// @param _bidder_addresses Array of addresses.\n    function removeFromWhitelist(address[] _bidder_addresses) public isWhitelister {\n        for (uint32 i = 0; i < _bidder_addresses.length; i++) {\n            whitelist[_bidder_addresses[i]] = false;\n        }\n    }\n\n    /// @notice Start the auction.\n    /// @dev Starts auction and sets start_time.\n    function startAuction() public isOwner atStage(Stages.AuctionSetUp) {\n        stage = Stages.AuctionStarted;\n        start_time = now;\n        start_block = block.number;\n        AuctionStarted(start_time, start_block);\n    }\n\n    /// @notice Finalize the auction - sets the final RDN token price and changes the auction\n    /// stage after no bids are allowed anymore.\n    /// @dev Finalize auction and set the final RDN token price.\n    function finalizeAuction() public atStage(Stages.AuctionStarted)\n    {\n        // Missing funds should be 0 at this point\n        uint missing_funds = missingFundsToEndAuction();\n        require(missing_funds == 0);\n\n        // Calculate the final price = WEI / RDN = WEI / (Rei / token_multiplier)\n        // Reminder: num_tokens_auctioned is the number of Rei (RDN * token_multiplier) that are auctioned\n        final_price = token_multiplier * received_wei / num_tokens_auctioned;\n\n        end_time = now;\n        stage = Stages.AuctionEnded;\n        AuctionEnded(final_price);\n\n        assert(final_price > 0);\n    }\n\n    /// --------------------------------- Auction Functions ------------------\n\n\n    /// @notice Send `msg.value` WEI to the auction from the `msg.sender` account.\n    /// @dev Allows to send a bid to the auction.\n    function bid(uint256 amount)\n        public\n        atStage(Stages.AuctionStarted)\n    {\n        require(amount > 0);\n        require(bids[msg.sender] + amount <= bid_threshold || whitelist[msg.sender]);\n        assert(bids[msg.sender] + amount >= amount);\n\n        // Missing funds without the current bid value\n        uint missing_funds = missingFundsToEndAuction();\n\n        // We require bid values to be less than the funds missing to end the auction\n        // at the current price.\n        require(amount <= missing_funds);\n\n        bids[msg.sender] += amount;\n        received_wei += amount;\n\n        // Send bid amount to wallet\n        assert(pfToken.transferFrom(msg.sender, this, amount));\n        assert(pfToken.transfer(wallet_address, amount));\n\n        BidSubmission(msg.sender, amount, missing_funds);\n\n        assert(received_wei >= amount);\n\n        core.notifyBidCards(msg.sender, address(token), amount);\n    }\n\n    /// @notice Claim auction tokens for `msg.sender` after the auction has ended.\n    /// @dev Claims tokens for `msg.sender` after auction. To be used if tokens can\n    /// be claimed by beneficiaries, individually.\n    function claimTokens() public atStage(Stages.AuctionEnded) returns (bool) {\n        return proxyClaimTokens(msg.sender);\n    }\n\n    /// @notice Claim auction tokens for `receiver_address` after the auction has ended.\n    /// @dev Claims tokens for `receiver_address` after auction has ended.\n    /// @param receiver_address Tokens will be assigned to this address if eligible.\n    function proxyClaimTokens(address receiver_address)\n        public\n        atStage(Stages.AuctionEnded)\n        returns (bool)\n    {\n        // Waiting period after the end of the auction, before anyone can claim tokens\n        // Ensures enough time to check if auction was finalized correctly\n        // before users start transacting tokens\n        require(now > end_time + token_claim_waiting_period);\n        require(receiver_address != 0x0);\n\n        if (bids[receiver_address] == 0) {\n            return false;\n        }\n\n        // Number of Rei = bid_wei / Rei = bid_wei / (wei_per_RDN * token_multiplier)\n        uint num = (token_multiplier * bids[receiver_address]) / final_price;\n\n        // Due to final_price floor rounding, the number of assigned tokens may be higher\n        // than expected. Therefore, the number of remaining unassigned auction tokens\n        // may be smaller than the number of tokens needed for the last claimTokens call\n        uint auction_tokens_balance = token.balanceOf(address(this));\n        if (num > auction_tokens_balance) {\n            num = auction_tokens_balance;\n        }\n\n        // Update the total amount of funds for which tokens have been claimed\n        funds_claimed += bids[receiver_address];\n\n        // Set receiver bid to 0 before assigning tokens\n        bids[receiver_address] = 0;\n\n        require(token.transfer(receiver_address, num));\n\n        ClaimedTokens(receiver_address, num);\n\n        // After the last tokens are claimed, we change the auction stage\n        // Due to the above logic, rounding errors will not be an issue\n        if (funds_claimed == received_wei) {\n            stage = Stages.TokensDistributed;\n            TokensDistributed();\n        }\n\n        assert(token.balanceOf(receiver_address) >= num);\n        assert(bids[receiver_address] == 0);\n\n        core.notifyWithdrawalCards(msg.sender, address(token), num);\n\n        return true;\n    }\n\n    /// @notice Get the RDN price in WEI during the auction, at the time of\n    /// calling this function. Returns `0` if auction has ended.\n    /// Returns `price_start` before auction has started.\n    /// @dev Calculates the current RDN token price in WEI.\n    /// @return Returns WEI per RDN (token_multiplier * Rei).\n    function price() public constant returns (uint) {\n        if (stage == Stages.AuctionEnded ||\n            stage == Stages.TokensDistributed) {\n            return 0;\n        }\n        return calcTokenPrice();\n    }\n\n    /// @notice Get the missing funds needed to end the auction,\n    /// calculated at the current RDN price in WEI.\n    /// @dev The missing funds amount necessary to end the auction at the current RDN price in WEI.\n    /// @return Returns the missing funds amount in WEI.\n    function missingFundsToEndAuction() constant public returns (uint) {\n\n        // num_tokens_auctioned = total number of Rei (RDN * token_multiplier) that is auctioned\n        uint required_wei_at_price = num_tokens_auctioned * price() / token_multiplier;\n        if (required_wei_at_price <= received_wei) {\n            return 0;\n        }\n\n        // assert(required_wei_at_price - received_wei > 0);\n        return required_wei_at_price - received_wei;\n    }\n\n    /*\n     *  Private functions\n     */\n\n    /// @dev Calculates the token price (WEI / RDN) at the current timestamp\n    /// during the auction; elapsed time = 0 before auction starts.\n    /// Based on the provided parameters, the price does not change in the first\n    /// `price_constant^(1/price_exponent)` seconds due to rounding.\n    /// Rounding in `decay_rate` also produces values that increase instead of decrease\n    /// in the beginning; these spikes decrease over time and are noticeable\n    /// only in first hours. This should be calculated before usage.\n    /// @return Returns the token price - Wei per RDN.\n    function calcTokenPrice() constant private returns (uint) {\n        uint elapsed;\n        if (stage == Stages.AuctionStarted) {\n            elapsed = now - start_time;\n        }\n\n        uint decay_rate = elapsed ** price_exponent / price_constant;\n        return price_start * (1 + elapsed) / (1 + elapsed + decay_rate);\n    }\n}\n",
  "sourcePath": "/Users/rudo/contracts/solidity/contracts/DutchAuction/DutchAuctionPF.sol",
  "compiler": {
    "name": "solc",
    "version": "0.4.21+commit.dfe3193c.Emscripten.clang"
  },
  "schemaVersion": "2.0.0",
  "updatedAt": "2018-07-17T04:57:19.942Z"
}