{
  "contractName": "ERC20Token",
  "abi": [
    {
      "constant": true,
      "inputs": [],
      "name": "name",
      "outputs": [
        {
          "name": "",
          "type": "string"
        }
      ],
      "payable": false,
      "stateMutability": "view",
      "type": "function"
    },
    {
      "constant": true,
      "inputs": [],
      "name": "totalSupply",
      "outputs": [
        {
          "name": "",
          "type": "uint256"
        }
      ],
      "payable": false,
      "stateMutability": "view",
      "type": "function"
    },
    {
      "constant": true,
      "inputs": [],
      "name": "decimals",
      "outputs": [
        {
          "name": "",
          "type": "uint8"
        }
      ],
      "payable": false,
      "stateMutability": "view",
      "type": "function"
    },
    {
      "constant": true,
      "inputs": [],
      "name": "standard",
      "outputs": [
        {
          "name": "",
          "type": "string"
        }
      ],
      "payable": false,
      "stateMutability": "view",
      "type": "function"
    },
    {
      "constant": true,
      "inputs": [
        {
          "name": "",
          "type": "address"
        }
      ],
      "name": "balanceOf",
      "outputs": [
        {
          "name": "",
          "type": "uint256"
        }
      ],
      "payable": false,
      "stateMutability": "view",
      "type": "function"
    },
    {
      "constant": true,
      "inputs": [],
      "name": "symbol",
      "outputs": [
        {
          "name": "",
          "type": "string"
        }
      ],
      "payable": false,
      "stateMutability": "view",
      "type": "function"
    },
    {
      "constant": true,
      "inputs": [
        {
          "name": "",
          "type": "address"
        },
        {
          "name": "",
          "type": "address"
        }
      ],
      "name": "allowance",
      "outputs": [
        {
          "name": "",
          "type": "uint256"
        }
      ],
      "payable": false,
      "stateMutability": "view",
      "type": "function"
    },
    {
      "inputs": [
        {
          "name": "_name",
          "type": "string"
        },
        {
          "name": "_symbol",
          "type": "string"
        },
        {
          "name": "_decimals",
          "type": "uint8"
        }
      ],
      "payable": false,
      "stateMutability": "nonpayable",
      "type": "constructor"
    },
    {
      "anonymous": false,
      "inputs": [
        {
          "indexed": true,
          "name": "_from",
          "type": "address"
        },
        {
          "indexed": true,
          "name": "_to",
          "type": "address"
        },
        {
          "indexed": false,
          "name": "_value",
          "type": "uint256"
        }
      ],
      "name": "Transfer",
      "type": "event"
    },
    {
      "anonymous": false,
      "inputs": [
        {
          "indexed": true,
          "name": "_owner",
          "type": "address"
        },
        {
          "indexed": true,
          "name": "_spender",
          "type": "address"
        },
        {
          "indexed": false,
          "name": "_value",
          "type": "uint256"
        }
      ],
      "name": "Approval",
      "type": "event"
    },
    {
      "constant": false,
      "inputs": [
        {
          "name": "_to",
          "type": "address"
        },
        {
          "name": "_value",
          "type": "uint256"
        }
      ],
      "name": "transfer",
      "outputs": [
        {
          "name": "success",
          "type": "bool"
        }
      ],
      "payable": false,
      "stateMutability": "nonpayable",
      "type": "function"
    },
    {
      "constant": false,
      "inputs": [
        {
          "name": "_from",
          "type": "address"
        },
        {
          "name": "_to",
          "type": "address"
        },
        {
          "name": "_value",
          "type": "uint256"
        }
      ],
      "name": "transferFrom",
      "outputs": [
        {
          "name": "success",
          "type": "bool"
        }
      ],
      "payable": false,
      "stateMutability": "nonpayable",
      "type": "function"
    },
    {
      "constant": false,
      "inputs": [
        {
          "name": "_spender",
          "type": "address"
        },
        {
          "name": "_value",
          "type": "uint256"
        }
      ],
      "name": "approve",
      "outputs": [
        {
          "name": "success",
          "type": "bool"
        }
      ],
      "payable": false,
      "stateMutability": "nonpayable",
      "type": "function"
    }
  ],
  "bytecode": "0x60c0604052600960808190527f546f6b656e20302e31000000000000000000000000000000000000000000000060a090815261003e9160009190610124565b5060408051602081019182905260009081905261005d91600191610124565b5060408051602081019182905260009081905261007c91600291610124565b506003805460ff19169055600060045534801561009857600080fd5b506040516109f23803806109f2833981016040908152815160208301519183015190830180519093929092019160001080156100d5575060008251115b15156100e057600080fd5b82516100f3906001906020860190610124565b508151610107906002906020850190610124565b506003805460ff191660ff92909216919091179055506101bf9050565b828054600181600116156101000203166002900490600052602060002090601f016020900481019282601f1061016557805160ff1916838001178555610192565b82800160010185558215610192579182015b82811115610192578251825591602001919060010190610177565b5061019e9291506101a2565b5090565b6101bc91905b8082111561019e57600081556001016101a8565b90565b610824806101ce6000396000f3006080604052600436106100a35763ffffffff7c010000000000000000000000000000000000000000000000000000000060003504166306fdde0381146100a8578063095ea7b31461013257806318160ddd1461017757806323b872dd1461019e578063313ce567146101d55780635a3b7e421461020057806370a082311461021557806395d89b4114610243578063a9059cbb14610258578063dd62ed3e14610289575b600080fd5b3480156100b457600080fd5b506100bd6102bd565b6040805160208082528351818301528351919283929083019185019080838360005b838110156100f75781810151838201526020016100df565b50505050905090810190601f1680156101245780820380516001836020036101000a031916815260200191505b509250505060405180910390f35b34801561013e57600080fd5b5061016373ffffffffffffffffffffffffffffffffffffffff60043516602435610368565b604080519115158252519081900360200190f35b34801561018357600080fd5b5061018c610448565b60408051918252519081900360200190f35b3480156101aa57600080fd5b5061016373ffffffffffffffffffffffffffffffffffffffff6004358116906024351660443561044e565b3480156101e157600080fd5b506101ea6105c5565b6040805160ff9092168252519081900360200190f35b34801561020c57600080fd5b506100bd6105ce565b34801561022157600080fd5b5061018c73ffffffffffffffffffffffffffffffffffffffff60043516610647565b34801561024f57600080fd5b506100bd610659565b34801561026457600080fd5b5061016373ffffffffffffffffffffffffffffffffffffffff600435166024356106cf565b34801561029557600080fd5b5061018c73ffffffffffffffffffffffffffffffffffffffff600435811690602435166107b3565b60018054604080516020600284861615610100027fffffffffffffffffffffffffffffffffffffffffffffffffffffffffffffffff0190941693909304601f810184900484028201840190925281815292918301828280156103605780601f1061033557610100808354040283529160200191610360565b820191906000526020600020905b81548152906001019060200180831161034357829003601f168201915b505050505081565b60008273ffffffffffffffffffffffffffffffffffffffff8116151561038d57600080fd5b8215806103c8575033600090815260066020908152604080832073ffffffffffffffffffffffffffffffffffffffff88168452909152902054155b15156103d357600080fd5b33600081815260066020908152604080832073ffffffffffffffffffffffffffffffffffffffff891680855290835292819020879055805187815290519293927f8c5be1e5ebec7d5bd14f71427d1e84f3dd0314c0f7b2291e5b200ac8c7c3b925929181900390910190a35060019392505050565b60045481565b60008373ffffffffffffffffffffffffffffffffffffffff8116151561047357600080fd5b8373ffffffffffffffffffffffffffffffffffffffff8116151561049657600080fd5b73ffffffffffffffffffffffffffffffffffffffff861660009081526006602090815260408083203384529091529020546104d190856107d0565b73ffffffffffffffffffffffffffffffffffffffff871660008181526006602090815260408083203384528252808320949094559181526005909152205461051990856107d0565b73ffffffffffffffffffffffffffffffffffffffff808816600090815260056020526040808220939093559087168152205461055590856107e2565b73ffffffffffffffffffffffffffffffffffffffff80871660008181526005602090815260409182902094909455805188815290519193928a16927fddf252ad1be2c89b69c2b068fc378daa952ba7f163c4a11628f55a4df523b3ef92918290030190a350600195945050505050565b60035460ff1681565b6000805460408051602060026001851615610100027fffffffffffffffffffffffffffffffffffffffffffffffffffffffffffffffff0190941693909304601f810184900484028201840190925281815292918301828280156103605780601f1061033557610100808354040283529160200191610360565b60056020526000908152604090205481565b600280546040805160206001841615610100027fffffffffffffffffffffffffffffffffffffffffffffffffffffffffffffffff01909316849004601f810184900484028201840190925281815292918301828280156103605780601f1061033557610100808354040283529160200191610360565b60008273ffffffffffffffffffffffffffffffffffffffff811615156106f457600080fd5b3360009081526005602052604090205461070e90846107d0565b336000908152600560205260408082209290925573ffffffffffffffffffffffffffffffffffffffff86168152205461074790846107e2565b73ffffffffffffffffffffffffffffffffffffffff85166000818152600560209081526040918290209390935580518681529051919233927fddf252ad1be2c89b69c2b068fc378daa952ba7f163c4a11628f55a4df523b3ef9281900390910190a35060019392505050565b600660209081526000928352604080842090915290825290205481565b6000818310156107dc57fe5b50900390565b6000828201838110156107f157fe5b93925050505600a165627a7a7230582034547c18c7b72eaa0b9337014ce5994a7a410900be9260a62c5283b09b9ed7060029",
  "source": "pragma solidity ^0.4.23;\nimport './interfaces/IERC20Token.sol';\nimport '../utility/Utils.sol';\n\n/**\n    ERC20 Standard Token implementation\n*/\ncontract ERC20Token is IERC20Token, Utils {\n    string public standard = 'Token 0.1';\n    string public name = '';\n    string public symbol = '';\n    uint8 public decimals = 0;\n    uint256 public totalSupply = 0;\n    mapping (address => uint256) public balanceOf;\n    mapping (address => mapping (address => uint256)) public allowance;\n\n    event Transfer(address indexed _from, address indexed _to, uint256 _value);\n    event Approval(address indexed _owner, address indexed _spender, uint256 _value);\n\n    /**\n        @dev constructor\n\n        @param _name        token name\n        @param _symbol      token symbol\n        @param _decimals    decimal points, for display purposes\n    */\n    constructor(string _name, string _symbol, uint8 _decimals) public {\n        require(bytes(_name).length > 0 && bytes(_symbol).length > 0); // validate input\n\n        name = _name;\n        symbol = _symbol;\n        decimals = _decimals;\n    }\n\n    /**\n        @dev send coins\n        throws on any error rather then return a false flag to minimize user errors\n\n        @param _to      target address\n        @param _value   transfer amount\n\n        @return true if the transfer was successful, false if it wasn't\n    */\n    function transfer(address _to, uint256 _value)\n        public\n        validAddress(_to)\n        returns (bool success)\n    {\n        balanceOf[msg.sender] = safeSub(balanceOf[msg.sender], _value);\n        balanceOf[_to] = safeAdd(balanceOf[_to], _value);\n        emit Transfer(msg.sender, _to, _value);\n        return true;\n    }\n\n    /**\n        @dev an account/contract attempts to get the coins\n        throws on any error rather then return a false flag to minimize user errors\n\n        @param _from    source address\n        @param _to      target address\n        @param _value   transfer amount\n\n        @return true if the transfer was successful, false if it wasn't\n    */\n    function transferFrom(address _from, address _to, uint256 _value)\n        public\n        validAddress(_from)\n        validAddress(_to)\n        returns (bool success)\n    {\n        allowance[_from][msg.sender] = safeSub(allowance[_from][msg.sender], _value);\n        balanceOf[_from] = safeSub(balanceOf[_from], _value);\n        balanceOf[_to] = safeAdd(balanceOf[_to], _value);\n        emit Transfer(_from, _to, _value);\n        return true;\n    }\n\n    /**\n        @dev allow another account/contract to spend some tokens on your behalf\n        throws on any error rather then return a false flag to minimize user errors\n\n        also, to minimize the risk of the approve/transferFrom attack vector\n        (see https://docs.google.com/document/d/1YLPtQxZu1UAvO9cZ1O2RPXBbT0mooh4DYKjA_jp-RLM/), approve has to be called twice\n        in 2 separate transactions - once to change the allowance to 0 and secondly to change it to the new allowance value\n\n        @param _spender approved address\n        @param _value   allowance amount\n\n        @return true if the approval was successful, false if it wasn't\n    */\n    function approve(address _spender, uint256 _value)\n        public\n        validAddress(_spender)\n        returns (bool success)\n    {\n        // if the allowance isn't 0, it can only be updated to 0 to prevent an allowance change immediately after withdrawal\n        require(_value == 0 || allowance[msg.sender][_spender] == 0);\n\n        allowance[msg.sender][_spender] = _value;\n        emit Approval(msg.sender, _spender, _value);\n        return true;\n    }\n}\n",
  "sourcePath": "/Users/denny/github.com/evolutionlandorg/bancor-contracts/solidity/contracts/token/ERC20Token.sol",
  "compiler": {
    "name": "solc",
    "version": "0.4.24+commit.e67f0147.Emscripten.clang"
  },
  "schemaVersion": "2.0.0",
  "updatedAt": "2018-09-06T07:32:58.265Z"
}