{
  "contractName": "EtherToken",
  "abi": [
    {
      "constant": true,
      "inputs": [],
      "name": "name",
      "outputs": [
        {
          "name": "",
          "type": "string"
        }
      ],
      "payable": false,
      "stateMutability": "view",
      "type": "function"
    },
    {
      "constant": false,
      "inputs": [
        {
          "name": "_spender",
          "type": "address"
        },
        {
          "name": "_value",
          "type": "uint256"
        }
      ],
      "name": "approve",
      "outputs": [
        {
          "name": "success",
          "type": "bool"
        }
      ],
      "payable": false,
      "stateMutability": "nonpayable",
      "type": "function"
    },
    {
      "constant": true,
      "inputs": [],
      "name": "totalSupply",
      "outputs": [
        {
          "name": "",
          "type": "uint256"
        }
      ],
      "payable": false,
      "stateMutability": "view",
      "type": "function"
    },
    {
      "constant": true,
      "inputs": [],
      "name": "decimals",
      "outputs": [
        {
          "name": "",
          "type": "uint8"
        }
      ],
      "payable": false,
      "stateMutability": "view",
      "type": "function"
    },
    {
      "constant": true,
      "inputs": [],
      "name": "standard",
      "outputs": [
        {
          "name": "",
          "type": "string"
        }
      ],
      "payable": false,
      "stateMutability": "view",
      "type": "function"
    },
    {
      "constant": false,
      "inputs": [
        {
          "name": "_token",
          "type": "address"
        },
        {
          "name": "_to",
          "type": "address"
        },
        {
          "name": "_amount",
          "type": "uint256"
        }
      ],
      "name": "withdrawTokens",
      "outputs": [],
      "payable": false,
      "stateMutability": "nonpayable",
      "type": "function"
    },
    {
      "constant": true,
      "inputs": [
        {
          "name": "",
          "type": "address"
        }
      ],
      "name": "balanceOf",
      "outputs": [
        {
          "name": "",
          "type": "uint256"
        }
      ],
      "payable": false,
      "stateMutability": "view",
      "type": "function"
    },
    {
      "constant": false,
      "inputs": [],
      "name": "acceptOwnership",
      "outputs": [],
      "payable": false,
      "stateMutability": "nonpayable",
      "type": "function"
    },
    {
      "constant": true,
      "inputs": [],
      "name": "owner",
      "outputs": [
        {
          "name": "",
          "type": "address"
        }
      ],
      "payable": false,
      "stateMutability": "view",
      "type": "function"
    },
    {
      "constant": true,
      "inputs": [],
      "name": "symbol",
      "outputs": [
        {
          "name": "",
          "type": "string"
        }
      ],
      "payable": false,
      "stateMutability": "view",
      "type": "function"
    },
    {
      "constant": true,
      "inputs": [],
      "name": "newOwner",
      "outputs": [
        {
          "name": "",
          "type": "address"
        }
      ],
      "payable": false,
      "stateMutability": "view",
      "type": "function"
    },
    {
      "constant": true,
      "inputs": [
        {
          "name": "",
          "type": "address"
        },
        {
          "name": "",
          "type": "address"
        }
      ],
      "name": "allowance",
      "outputs": [
        {
          "name": "",
          "type": "uint256"
        }
      ],
      "payable": false,
      "stateMutability": "view",
      "type": "function"
    },
    {
      "constant": false,
      "inputs": [
        {
          "name": "_newOwner",
          "type": "address"
        }
      ],
      "name": "transferOwnership",
      "outputs": [],
      "payable": false,
      "stateMutability": "nonpayable",
      "type": "function"
    },
    {
      "inputs": [],
      "payable": false,
      "stateMutability": "nonpayable",
      "type": "constructor"
    },
    {
      "payable": true,
      "stateMutability": "payable",
      "type": "fallback"
    },
    {
      "anonymous": false,
      "inputs": [
        {
          "indexed": false,
          "name": "_amount",
          "type": "uint256"
        }
      ],
      "name": "Issuance",
      "type": "event"
    },
    {
      "anonymous": false,
      "inputs": [
        {
          "indexed": false,
          "name": "_amount",
          "type": "uint256"
        }
      ],
      "name": "Destruction",
      "type": "event"
    },
    {
      "anonymous": false,
      "inputs": [
        {
          "indexed": true,
          "name": "_from",
          "type": "address"
        },
        {
          "indexed": true,
          "name": "_to",
          "type": "address"
        },
        {
          "indexed": false,
          "name": "_value",
          "type": "uint256"
        }
      ],
      "name": "Transfer",
      "type": "event"
    },
    {
      "anonymous": false,
      "inputs": [
        {
          "indexed": true,
          "name": "_owner",
          "type": "address"
        },
        {
          "indexed": true,
          "name": "_spender",
          "type": "address"
        },
        {
          "indexed": false,
          "name": "_value",
          "type": "uint256"
        }
      ],
      "name": "Approval",
      "type": "event"
    },
    {
      "anonymous": false,
      "inputs": [
        {
          "indexed": true,
          "name": "_prevOwner",
          "type": "address"
        },
        {
          "indexed": true,
          "name": "_newOwner",
          "type": "address"
        }
      ],
      "name": "OwnerUpdate",
      "type": "event"
    },
    {
      "constant": false,
      "inputs": [],
      "name": "deposit",
      "outputs": [],
      "payable": true,
      "stateMutability": "payable",
      "type": "function"
    },
    {
      "constant": false,
      "inputs": [
        {
          "name": "_amount",
          "type": "uint256"
        }
      ],
      "name": "withdraw",
      "outputs": [],
      "payable": false,
      "stateMutability": "nonpayable",
      "type": "function"
    },
    {
      "constant": false,
      "inputs": [
        {
          "name": "_to",
          "type": "address"
        },
        {
          "name": "_amount",
          "type": "uint256"
        }
      ],
      "name": "withdrawTo",
      "outputs": [],
      "payable": false,
      "stateMutability": "nonpayable",
      "type": "function"
    },
    {
      "constant": false,
      "inputs": [
        {
          "name": "_to",
          "type": "address"
        },
        {
          "name": "_value",
          "type": "uint256"
        }
      ],
      "name": "transfer",
      "outputs": [
        {
          "name": "success",
          "type": "bool"
        }
      ],
      "payable": false,
      "stateMutability": "nonpayable",
      "type": "function"
    },
    {
      "constant": false,
      "inputs": [
        {
          "name": "_from",
          "type": "address"
        },
        {
          "name": "_to",
          "type": "address"
        },
        {
          "name": "_value",
          "type": "uint256"
        }
      ],
      "name": "transferFrom",
      "outputs": [
        {
          "name": "success",
          "type": "bool"
        }
      ],
      "payable": false,
      "stateMutability": "nonpayable",
      "type": "function"
    }
  ],
  "bytecode": "0x606060405260408051908101604052600981527f546f6b656e20302e310000000000000000000000000000000000000000000000602082015260029080516200004d9291602001906200019f565b506020604051908101604052600081526003908051620000729291602001906200019f565b506020604051908101604052600081526004908051620000979291602001906200019f565b506005805460ff1916905560006006553415620000b357600080fd5b604080519081016040908152600b82527f457468657220546f6b656e00000000000000000000000000000000000000000060208301528051908101604052600381527f4554480000000000000000000000000000000000000000000000000000000000602082015260008054600160a060020a03191633600160a060020a031617815560129083511180156200014a575060008251115b15156200015657600080fd5b60038380516200016b9291602001906200019f565b506004828051620001819291602001906200019f565b506005805460ff191660ff9290921691909117905550620002449050565b828054600181600116156101000203166002900490600052602060002090601f016020900481019282601f10620001e257805160ff191683800117855562000212565b8280016001018555821562000212579182015b8281111562000212578251825591602001919060010190620001f5565b506200022092915062000224565b5090565b6200024191905b808211156200022057600081556001016200022b565b90565b610cb180620002546000396000f3006060604052600436106100fb5763ffffffff7c010000000000000000000000000000000000000000000000000000000060003504166306fdde038114610105578063095ea7b31461018f57806318160ddd146101c5578063205c2878146101ea57806323b872dd1461020c5780632e1a7d4d14610234578063313ce5671461024a5780635a3b7e42146102735780635e35359e1461028657806370a08231146102ae57806379ba5097146102cd5780638da5cb5b146102e057806395d89b411461030f578063a9059cbb14610322578063d0e30db0146100fb578063d4ee1d9014610344578063dd62ed3e14610357578063f2fde38b1461037c575b61010361039b565b005b341561011057600080fd5b610118610451565b60405160208082528190810183818151815260200191508051906020019080838360005b8381101561015457808201518382015260200161013c565b50505050905090810190601f1680156101815780820380516001836020036101000a031916815260200191505b509250505060405180910390f35b341561019a57600080fd5b6101b1600160a060020a03600435166024356104ef565b604051901515815260200160405180910390f35b34156101d057600080fd5b6101d86105ac565b60405190815260200160405180910390f35b34156101f557600080fd5b610103600160a060020a03600435166024356105b2565b341561021757600080fd5b6101b1600160a060020a03600435811690602435166044356106be565b341561023f57600080fd5b610103600435610700565b341561025557600080fd5b61025d61070d565b60405160ff909116815260200160405180910390f35b341561027e57600080fd5b610118610716565b341561029157600080fd5b610103600160a060020a0360043581169060243516604435610781565b34156102b957600080fd5b6101d8600160a060020a036004351661087b565b34156102d857600080fd5b61010361088d565b34156102eb57600080fd5b6102f361091b565b604051600160a060020a03909116815260200160405180910390f35b341561031a57600080fd5b61011861092a565b341561032d57600080fd5b6101b1600160a060020a0360043516602435610995565b341561034f57600080fd5b6102f36109d5565b341561036257600080fd5b6101d8600160a060020a03600435811690602435166109e4565b341561038757600080fd5b610103600160a060020a0360043516610a01565b600160a060020a0333166000908152600760205260409020546103be9034610a63565b600160a060020a0333166000908152600760205260409020556006546103e49034610a63565b6006557f9386c90217c323f58030f9dadcbc938f807a940f4ff41cd4cead9562f5da7dc33460405190815260200160405180910390a133600160a060020a031630600160a060020a0316600080516020610c668339815191523460405190815260200160405180910390a3565b60038054600181600116156101000203166002900480601f0160208091040260200160405190810160405280929190818152602001828054600181600116156101000203166002900480156104e75780601f106104bc576101008083540402835291602001916104e7565b820191906000526020600020905b8154815290600101906020018083116104ca57829003601f168201915b505050505081565b600082600160a060020a038116151561050757600080fd5b8215806105375750600160a060020a03338116600090815260086020908152604080832093881683529290522054155b151561054257600080fd5b600160a060020a03338116600081815260086020908152604080832094891680845294909152908190208690557f8c5be1e5ebec7d5bd14f71427d1e84f3dd0314c0f7b2291e5b200ac8c7c3b9259086905190815260200160405180910390a35060019392505050565b60065481565b8130600160a060020a031681600160a060020a0316141515156105d457600080fd5b600160a060020a0333166000908152600760205260409020546105f79083610a79565b600160a060020a03331660009081526007602052604090205560065461061d9083610a79565b600655600160a060020a03831682156108fc0283604051600060405180830381858888f19350505050151561065157600080fd5b30600160a060020a031633600160a060020a0316600080516020610c668339815191528460405190815260200160405180910390a37f9a1b418bc061a5d80270261562e6986a35d995f8051145f277be16103abd34538260405190815260200160405180910390a1505050565b60008230600160a060020a031681600160a060020a0316141515156106e257600080fd5b6106ed858585610a8b565b15156106f557fe5b506001949350505050565b61070a33826105b2565b50565b60055460ff1681565b60028054600181600116156101000203166002900480601f0160208091040260200160405190810160405280929190818152602001828054600181600116156101000203166002900480156104e75780601f106104bc576101008083540402835291602001916104e7565b60005433600160a060020a0390811691161461079957fe5b82600160a060020a03811615156107af57600080fd5b82600160a060020a03811615156107c557600080fd5b8330600160a060020a031681600160a060020a0316141515156107e757600080fd5b85600160a060020a031663a9059cbb86866040517c010000000000000000000000000000000000000000000000000000000063ffffffff8516028152600160a060020a0390921660048301526024820152604401602060405180830381600087803b151561085457600080fd5b5af1151561086157600080fd5b50505060405180519050151561087357fe5b505050505050565b60076020526000908152604090205481565b60015433600160a060020a039081169116146108a857600080fd5b600154600054600160a060020a0391821691167f343765429aea5a34b3ff6a3785a98a5abb2597aca87bfbb58632c173d585373a60405160405180910390a3600180546000805473ffffffffffffffffffffffffffffffffffffffff19908116600160a060020a03841617909155169055565b600054600160a060020a031681565b60048054600181600116156101000203166002900480601f0160208091040260200160405190810160405280929190818152602001828054600181600116156101000203166002900480156104e75780601f106104bc576101008083540402835291602001916104e7565b60008230600160a060020a031681600160a060020a0316141515156109b957600080fd5b6109c38484610bab565b15156109cb57fe5b5060019392505050565b600154600160a060020a031681565b600860209081526000928352604080842090915290825290205481565b60005433600160a060020a03908116911614610a1957fe5b600054600160a060020a0382811691161415610a3457600080fd5b6001805473ffffffffffffffffffffffffffffffffffffffff1916600160a060020a0392909216919091179055565b600082820183811015610a7257fe5b9392505050565b600081831015610a8557fe5b50900390565b600083600160a060020a0381161515610aa357600080fd5b83600160a060020a0381161515610ab957600080fd5b600160a060020a0380871660009081526008602090815260408083203390941683529290522054610aea9085610a79565b600160a060020a038088166000818152600860209081526040808320339095168352938152838220949094559081526007909252902054610b2b9085610a79565b600160a060020a038088166000908152600760205260408082209390935590871681522054610b5a9085610a63565b600160a060020a0380871660008181526007602052604090819020939093559190881690600080516020610c668339815191529087905190815260200160405180910390a350600195945050505050565b600082600160a060020a0381161515610bc357600080fd5b600160a060020a033316600090815260076020526040902054610be69084610a79565b600160a060020a033381166000908152600760205260408082209390935590861681522054610c159084610a63565b600160a060020a038086166000818152600760205260409081902093909355913390911690600080516020610c668339815191529086905190815260200160405180910390a350600193925050505600ddf252ad1be2c89b69c2b068fc378daa952ba7f163c4a11628f55a4df523b3efa165627a7a72305820c13e4ea3d542a8fbc595dfba399fdacb9316ceefd53073e3351a56c0b66a69200029",
  "source": "pragma solidity ^0.4.18;\nimport './ERC20Token.sol';\nimport './TokenHolder.sol';\nimport './Owned.sol';\nimport './interfaces/IEtherToken.sol';\n\n/**\n    Ether tokenization contract\n\n    'Owned' is specified here for readability reasons\n*/\ncontract EtherToken is IEtherToken, Owned, ERC20Token, TokenHolder {\n    // triggered when the total supply is increased\n    event Issuance(uint256 _amount);\n    // triggered when the total supply is decreased\n    event Destruction(uint256 _amount);\n\n    /**\n        @dev constructor\n    */\n    function EtherToken()\n        public\n        ERC20Token('Ether Token', 'ETH', 18) {\n    }\n\n    /**\n        @dev deposit ether in the account\n    */\n    function deposit() public payable {\n        balanceOf[msg.sender] = safeAdd(balanceOf[msg.sender], msg.value); // add the value to the account balance\n        totalSupply = safeAdd(totalSupply, msg.value); // increase the total supply\n\n        Issuance(msg.value);\n        Transfer(this, msg.sender, msg.value);\n    }\n\n    /**\n        @dev withdraw ether from the account\n\n        @param _amount  amount of ether to withdraw\n    */\n    function withdraw(uint256 _amount) public {\n        withdrawTo(msg.sender, _amount);\n    }\n\n    /**\n        @dev withdraw ether from the account to a target account\n\n        @param _to      account to receive the ether\n        @param _amount  amount of ether to withdraw\n    */\n    function withdrawTo(address _to, uint256 _amount)\n        public\n        notThis(_to)\n    {\n        balanceOf[msg.sender] = safeSub(balanceOf[msg.sender], _amount); // deduct the amount from the account balance\n        totalSupply = safeSub(totalSupply, _amount); // decrease the total supply\n        _to.transfer(_amount); // send the amount to the target account\n\n        Transfer(msg.sender, this, _amount);\n        Destruction(_amount);\n    }\n\n    // ERC20 standard method overrides with some extra protection\n\n    /**\n        @dev send coins\n        throws on any error rather then return a false flag to minimize user errors\n\n        @param _to      target address\n        @param _value   transfer amount\n\n        @return true if the transfer was successful, false if it wasn't\n    */\n    function transfer(address _to, uint256 _value)\n        public\n        notThis(_to)\n        returns (bool success)\n    {\n        assert(super.transfer(_to, _value));\n        return true;\n    }\n\n    /**\n        @dev an account/contract attempts to get the coins\n        throws on any error rather then return a false flag to minimize user errors\n\n        @param _from    source address\n        @param _to      target address\n        @param _value   transfer amount\n\n        @return true if the transfer was successful, false if it wasn't\n    */\n    function transferFrom(address _from, address _to, uint256 _value)\n        public\n        notThis(_to)\n        returns (bool success)\n    {\n        assert(super.transferFrom(_from, _to, _value));\n        return true;\n    }\n\n    /**\n        @dev deposit ether in the account\n    */\n    function() public payable {\n        deposit();\n    }\n}\n",
  "sourcePath": "/Users/rudo/Documents/ichiba/submodules/contracts/solidity/contracts/EtherToken.sol",
  "compiler": {
    "name": "solc",
    "version": "0.4.21+commit.dfe3193c.Emscripten.clang"
  },
  "schemaVersion": "2.0.0",
  "updatedAt": "2018-08-10T06:28:23.549Z"
}