{
  "contractName": "FinancieLog",
  "abi": [
    {
      "constant": false,
      "inputs": [],
      "name": "acceptOwnership",
      "outputs": [],
      "payable": false,
      "stateMutability": "nonpayable",
      "type": "function"
    },
    {
      "constant": true,
      "inputs": [],
      "name": "owner",
      "outputs": [
        {
          "name": "",
          "type": "address"
        }
      ],
      "payable": false,
      "stateMutability": "view",
      "type": "function"
    },
    {
      "constant": true,
      "inputs": [],
      "name": "newOwner",
      "outputs": [
        {
          "name": "",
          "type": "address"
        }
      ],
      "payable": false,
      "stateMutability": "view",
      "type": "function"
    },
    {
      "constant": false,
      "inputs": [
        {
          "name": "_newOwner",
          "type": "address"
        }
      ],
      "name": "transferOwnership",
      "outputs": [],
      "payable": false,
      "stateMutability": "nonpayable",
      "type": "function"
    },
    {
      "inputs": [],
      "payable": false,
      "stateMutability": "nonpayable",
      "type": "constructor"
    },
    {
      "payable": true,
      "stateMutability": "payable",
      "type": "fallback"
    },
    {
      "anonymous": false,
      "inputs": [
        {
          "indexed": true,
          "name": "_prevOwner",
          "type": "address"
        },
        {
          "indexed": true,
          "name": "_newOwner",
          "type": "address"
        }
      ],
      "name": "OwnerUpdate",
      "type": "event"
    },
    {
      "constant": false,
      "inputs": [
        {
          "name": "_sender",
          "type": "address"
        },
        {
          "name": "_target",
          "type": "address"
        },
        {
          "name": "_eventType",
          "type": "uint8"
        },
        {
          "name": "_from",
          "type": "address"
        },
        {
          "name": "_to",
          "type": "address"
        },
        {
          "name": "_paidAmount",
          "type": "uint256"
        },
        {
          "name": "_receivedAmount",
          "type": "uint256"
        }
      ],
      "name": "recordLog",
      "outputs": [],
      "payable": false,
      "stateMutability": "nonpayable",
      "type": "function"
    },
    {
      "constant": true,
      "inputs": [
        {
          "name": "_target",
          "type": "address"
        }
      ],
      "name": "getTargetLogs",
      "outputs": [
        {
          "name": "",
          "type": "uint256[]"
        },
        {
          "name": "",
          "type": "address[]"
        },
        {
          "name": "",
          "type": "uint8[]"
        },
        {
          "name": "",
          "type": "address[]"
        },
        {
          "name": "",
          "type": "address[]"
        },
        {
          "name": "",
          "type": "uint256[]"
        },
        {
          "name": "",
          "type": "uint256[]"
        }
      ],
      "payable": false,
      "stateMutability": "view",
      "type": "function"
    },
    {
      "constant": true,
      "inputs": [
        {
          "name": "_sender",
          "type": "address"
        }
      ],
      "name": "getSenderLogs",
      "outputs": [
        {
          "name": "",
          "type": "uint256[]"
        },
        {
          "name": "",
          "type": "address[]"
        },
        {
          "name": "",
          "type": "uint8[]"
        },
        {
          "name": "",
          "type": "address[]"
        },
        {
          "name": "",
          "type": "address[]"
        },
        {
          "name": "",
          "type": "uint256[]"
        },
        {
          "name": "",
          "type": "uint256[]"
        }
      ],
      "payable": false,
      "stateMutability": "view",
      "type": "function"
    },
    {
      "constant": true,
      "inputs": [
        {
          "name": "_from",
          "type": "address"
        }
      ],
      "name": "getFromLogs",
      "outputs": [
        {
          "name": "",
          "type": "uint256[]"
        },
        {
          "name": "",
          "type": "address[]"
        },
        {
          "name": "",
          "type": "address[]"
        },
        {
          "name": "",
          "type": "uint8[]"
        },
        {
          "name": "",
          "type": "address[]"
        },
        {
          "name": "",
          "type": "uint256[]"
        },
        {
          "name": "",
          "type": "uint256[]"
        }
      ],
      "payable": false,
      "stateMutability": "view",
      "type": "function"
    },
    {
      "constant": true,
      "inputs": [
        {
          "name": "_to",
          "type": "address"
        }
      ],
      "name": "getToLogs",
      "outputs": [
        {
          "name": "",
          "type": "uint256[]"
        },
        {
          "name": "",
          "type": "address[]"
        },
        {
          "name": "",
          "type": "address[]"
        },
        {
          "name": "",
          "type": "uint8[]"
        },
        {
          "name": "",
          "type": "address[]"
        },
        {
          "name": "",
          "type": "uint256[]"
        },
        {
          "name": "",
          "type": "uint256[]"
        }
      ],
      "payable": false,
      "stateMutability": "view",
      "type": "function"
    }
  ],
  "bytecode": "0x6060604052341561000f57600080fd5b60008054600160a060020a033316600160a060020a03199091161790556124b18061003b6000396000f3006060604052600436106100985763ffffffff7c01000000000000000000000000000000000000000000000000000000006000350416633562ebec811461009d57806379ba5097146102ae57806385d5ad7c146102c35780638da5cb5b146102e257806390d7ded314610311578063c122478f1461034f578063d2a796dd1461036e578063d4ee1d901461038d578063f2fde38b146103a0575b600080fd5b34156100a857600080fd5b6100bc600160a060020a03600435166103bf565b604051808060200180602001806020018060200180602001806020018060200188810388528f818151815260200191508051906020019060200280838360005b838110156101145780820151838201526020016100fc565b5050505090500188810387528e818151815260200191508051906020019060200280838360005b8381101561015357808201518382015260200161013b565b5050505090500188810386528d818151815260200191508051906020019060200280838360005b8381101561019257808201518382015260200161017a565b5050505090500188810385528c818151815260200191508051906020019060200280838360005b838110156101d15780820151838201526020016101b9565b5050505090500188810384528b818151815260200191508051906020019060200280838360005b838110156102105780820151838201526020016101f8565b5050505090500188810383528a818151815260200191508051906020019060200280838360005b8381101561024f578082015183820152602001610237565b50505050905001888103825289818151815260200191508051906020019060200280838360005b8381101561028e578082015183820152602001610276565b505050509050019e50505050505050505050505050505060405180910390f35b34156102b957600080fd5b6102c16106d5565b005b34156102ce57600080fd5b6100bc600160a060020a0360043516610756565b34156102ed57600080fd5b6102f5610a67565b604051600160a060020a03909116815260200160405180910390f35b341561031c57600080fd5b6102c1600160a060020a0360043581169060243581169060ff60443516906064358116906084351660a43560c435610a76565b341561035a57600080fd5b6100bc600160a060020a0360043516611be3565b341561037957600080fd5b6100bc600160a060020a0360043516611ef0565b341561039857600080fd5b6102f56121ff565b34156103ab57600080fd5b6102c1600160a060020a036004351661220e565b6103c7612263565b6103cf612263565b6103d7612263565b6103df612263565b6103e7612263565b6103ef612263565b6103f7612263565b600160a060020a03881660009081526004602081815260409283902060018101805490946002830194600384019490840193600681019360078201936008909201928992828202909101905190810160405280929190818152602001828054801561048157602002820191906000526020600020905b81548152602001906001019080831161046d575b50505050509650858054806020026020016040519081016040528092919081815260200182805480156104dd57602002820191906000526020600020905b8154600160a060020a031681526001909101906020018083116104bf575b505050505095508480548060200260200160405190810160405280929190818152602001828054801561053957602002820191906000526020600020905b8154600160a060020a0316815260019091019060200180831161051b575b50505050509450838054806020026020016040519081016040528092919081815260200182805480156105b557602002820191906000526020600020906000905b82829054906101000a900460ff16600681111561059357fe5b81526020600192830181810494850194909303909202910180841161057a5790505b505050505093508280548060200260200160405190810160405280929190818152602001828054801561061157602002820191906000526020600020905b8154600160a060020a031681526001909101906020018083116105f3575b505050505092508180548060200260200160405190810160405280929190818152602001828054801561066357602002820191906000526020600020905b81548152602001906001019080831161064f575b50505050509150808054806020026020016040519081016040528092919081815260200182805480156106b557602002820191906000526020600020905b8154815260200190600101908083116106a1575b505050505090509650965096509650965096509650919395979092949650565b60015433600160a060020a039081169116146106f057600080fd5b600154600054600160a060020a0391821691167f343765429aea5a34b3ff6a3785a98a5abb2597aca87bfbb58632c173d585373a60405160405180910390a36001805460008054600160a060020a0319908116600160a060020a03841617909155169055565b61075e612263565b610766612263565b61076e612263565b610776612263565b61077e612263565b610786612263565b61078e612263565b600160a060020a038816600090815260026020908152604091829020600181018054909360038301936004840193600581019360068201936007830193600890930192899291828202909101905190810160405280929190818152602001828054801561081a57602002820191906000526020600020905b815481526020019060010190808311610806575b505050505096508580548060200260200160405190810160405280929190818152602001828054801561087657602002820191906000526020600020905b8154600160a060020a03168152600190910190602001808311610858575b50505050509550848054806020026020016040519081016040528092919081815260200182805480156108f257602002820191906000526020600020906000905b82829054906101000a900460ff1660068111156108d057fe5b8152602060019283018181049485019490930390920291018084116108b75790505b50505050509450838054806020026020016040519081016040528092919081815260200182805480156105b557602002820191906000526020600020905b8154600160a060020a0316815260019091019060200180831161093057505050505093508280548060200260200160405190810160405280929190818152602001828054801561061157602002820191906000526020600020908154600160a060020a031681526001909101906020018083116105f3575050505050925081805480602002602001604051908101604052809291908181526020018280548015610663576020028201919060005260206000209081548152602001906001019080831161064f5750505050509150808054806020026020016040519081016040528092919081815260200182805480156106b557602002820191906000526020600020908154815260200190600101908083116106a157505050505090509650965096509650965096509650919395979092949650565b600054600160a060020a031681565b60005433600160a060020a03908116911614610a8e57fe5b600160a060020a03871660009081526002602052604090205460ff161515610ced57610120604051908101604052806001151581526020016000604051805910610ad55750595b908082528060200260200182016040525081526020016000604051805910610afa5750595b908082528060200260200182016040525081526020016000604051805910610b1f5750595b908082528060200260200182016040525081526020016000604051805910610b445750595b908082528060200260200182016040525081526020016000604051805910610b695750595b908082528060200260200182016040525081526020016000604051805910610b8e5750595b908082528060200260200182016040525081526020016000604051805910610bb35750595b908082528060200260200182016040525081526020016000604051805910610bd85750595b90808252806020026020018201604052509052600160a060020a03881660009081526002602052604090208151815460ff1916901515178155602082015181600101908051610c2b929160200190612275565b50604082015181600201908051610c469291602001906122c0565b50606082015181600301908051610c619291602001906122c0565b50608082015181600401908051610c7c929160200190612323565b5060a082015181600501908051610c979291602001906122c0565b5060c082015181600601908051610cb29291602001906122c0565b5060e082015181600701908051610ccd929160200190612275565b5061010082015181600801908051610ce9929160200190612275565b5050505b600160a060020a03861660009081526003602052604090205460ff161515610f4c57610120604051908101604052806001151581526020016000604051805910610d345750595b908082528060200260200182016040525081526020016000604051805910610d595750595b908082528060200260200182016040525081526020016000604051805910610d7e5750595b908082528060200260200182016040525081526020016000604051805910610da35750595b908082528060200260200182016040525081526020016000604051805910610dc85750595b908082528060200260200182016040525081526020016000604051805910610ded5750595b908082528060200260200182016040525081526020016000604051805910610e125750595b908082528060200260200182016040525081526020016000604051805910610e375750595b90808252806020026020018201604052509052600160a060020a03871660009081526003602052604090208151815460ff1916901515178155602082015181600101908051610e8a929160200190612275565b50604082015181600201908051610ea59291602001906122c0565b50606082015181600301908051610ec09291602001906122c0565b50608082015181600401908051610edb929160200190612323565b5060a082015181600501908051610ef69291602001906122c0565b5060c082015181600601908051610f119291602001906122c0565b5060e082015181600701908051610f2c929160200190612275565b5061010082015181600801908051610f48929160200190612275565b5050505b600160a060020a03841660009081526004602052604090205460ff1615156111ab57610120604051908101604052806001151581526020016000604051805910610f935750595b908082528060200260200182016040525081526020016000604051805910610fb85750595b908082528060200260200182016040525081526020016000604051805910610fdd5750595b9080825280602002602001820160405250815260200160006040518059106110025750595b9080825280602002602001820160405250815260200160006040518059106110275750595b90808252806020026020018201604052508152602001600060405180591061104c5750595b9080825280602002602001820160405250815260200160006040518059106110715750595b9080825280602002602001820160405250815260200160006040518059106110965750595b90808252806020026020018201604052509052600160a060020a03851660009081526004602052604090208151815460ff19169015151781556020820151816001019080516110e9929160200190612275565b506040820151816002019080516111049291602001906122c0565b5060608201518160030190805161111f9291602001906122c0565b5060808201518160040190805161113a929160200190612323565b5060a0820151816005019080516111559291602001906122c0565b5060c0820151816006019080516111709291602001906122c0565b5060e08201518160070190805161118b929160200190612275565b50610100820151816008019080516111a7929160200190612275565b5050505b600160a060020a03831660009081526005602052604090205460ff16151561140a576101206040519081016040528060011515815260200160006040518059106111f25750595b9080825280602002602001820160405250815260200160006040518059106112175750595b90808252806020026020018201604052508152602001600060405180591061123c5750595b9080825280602002602001820160405250815260200160006040518059106112615750595b9080825280602002602001820160405250815260200160006040518059106112865750595b9080825280602002602001820160405250815260200160006040518059106112ab5750595b9080825280602002602001820160405250815260200160006040518059106112d05750595b9080825280602002602001820160405250815260200160006040518059106112f55750595b90808252806020026020018201604052509052600160a060020a03841660009081526005602052604090208151815460ff1916901515178155602082015181600101908051611348929160200190612275565b506040820151816002019080516113639291602001906122c0565b5060608201518160030190805161137e9291602001906122c0565b50608082015181600401908051611399929160200190612323565b5060a0820151816005019080516113b49291602001906122c0565b5060c0820151816006019080516113cf9291602001906122c0565b5060e0820151816007019080516113ea929160200190612275565b5061010082015181600801908051611406929160200190612275565b5050505b600160a060020a0387166000908152600260205260409020600190810180549091810161143783826123cd565b506000918252602080832042920191909155600160a060020a0389168252600290526040902060030180546001810161147083826123cd565b5060009182526020808320919091018054600160a060020a031916600160a060020a038a8116919091179091558916825260029052604090206004018054600181016114bc83826123f6565b916000526020600020906020918282040191900687909190916101000a81548160ff021916908360068111156114ee57fe5b021790555050600160a060020a038716600090815260026020526040902060050180546001810161151f83826123cd565b5060009182526020808320919091018054600160a060020a031916600160a060020a038881169190911790915589168252600290526040902060060180546001810161156b83826123cd565b5060009182526020808320919091018054600160a060020a031916600160a060020a03878116919091179091558916825260029052604090206007018054600181016115b783826123cd565b506000918252602080832091909101849055600160a060020a038916825260029052604090206008018054600181016115f083826123cd565b506000918252602080832091909101839055600160a060020a03881682526003905260409020600190810180549091810161162b83826123cd565b506000918252602080832042920191909155600160a060020a0388168252600390526040902060020180546001810161166483826123cd565b5060009182526020808320919091018054600160a060020a031916600160a060020a038b8116919091179091558816825260039052604090206004018054600181016116b083826123f6565b916000526020600020906020918282040191900687909190916101000a81548160ff021916908360068111156116e257fe5b021790555050600160a060020a038616600090815260036020526040902060050180546001810161171383826123cd565b5060009182526020808320919091018054600160a060020a031916600160a060020a038881169190911790915588168252600390526040902060060180546001810161175f83826123cd565b5060009182526020808320919091018054600160a060020a031916600160a060020a03878116919091179091558816825260039052604090206007018054600181016117ab83826123cd565b506000918252602080832091909101849055600160a060020a038816825260039052604090206008018054600181016117e483826123cd565b506000918252602080832091909101839055600160a060020a03861682526004905260409020600190810180549091810161181f83826123cd565b506000918252602080832042920191909155600160a060020a0386168252600490526040902060020180546001810161185883826123cd565b5060009182526020808320919091018054600160a060020a031916600160a060020a038b8116919091179091558616825260049052604090206003018054600181016118a483826123cd565b5060009182526020808320919091018054600160a060020a031916600160a060020a038a811691909117909155861682526004908190526040909120018054600181016118f183826123f6565b916000526020600020906020918282040191900687909190916101000a81548160ff0219169083600681111561192357fe5b021790555050600160a060020a038416600090815260046020526040902060060180546001810161195483826123cd565b5060009182526020808320919091018054600160a060020a031916600160a060020a03878116919091179091558616825260049052604090206007018054600181016119a083826123cd565b506000918252602080832091909101849055600160a060020a038616825260049052604090206008018054600181016119d983826123cd565b506000918252602080832091909101839055600160a060020a038516825260059052604090206001908101805490918101611a1483826123cd565b506000918252602080832042920191909155600160a060020a03851682526005905260409020600201805460018101611a4d83826123cd565b5060009182526020808320919091018054600160a060020a031916600160a060020a038b811691909117909155851682526005905260409020600301805460018101611a9983826123cd565b5060009182526020808320919091018054600160a060020a031916600160a060020a038a811691909117909155851682526005905260409020600401805460018101611ae583826123f6565b916000526020600020906020918282040191900687909190916101000a81548160ff02191690836006811115611b1757fe5b021790555050600160a060020a038316600090815260056020819052604090912001805460018101611b4983826123cd565b5060009182526020808320919091018054600160a060020a031916600160a060020a0388811691909117909155851682526005905260409020600701805460018101611b9583826123cd565b506000918252602080832091909101849055600160a060020a03851682526005905260409020600801805460018101611bce83826123cd565b50600091825260209091200155505050505050565b611beb612263565b611bf3612263565b611bfb612263565b611c03612263565b611c0b612263565b611c13612263565b611c1b612263565b600160a060020a03881660009081526005602081815260409283902060018101805490946002830194600384019460048501949182019360078301936008909301928992828102019051908101604052809291908181526020018280548015611ca357602002820191906000526020600020905b815481526020019060010190808311611c8f575b5050505050965085805480602002602001604051908101604052809291908181526020018280548015611cff57602002820191906000526020600020905b8154600160a060020a03168152600190910190602001808311611ce1575b5050505050955084805480602002602001604051908101604052809291908181526020018280548015611d5b57602002820191906000526020600020905b8154600160a060020a03168152600190910190602001808311611d3d575b50505050509450838054806020026020016040519081016040528092919081815260200182805480156105b557602002820191906000526020600020906000905b82829054906101000a900460ff166006811115611db557fe5b815260206001928301818104948501949093039092029101808411611d9c579050505050505093508280548060200260200160405190810160405280929190818152602001828054801561061157602002820191906000526020600020908154600160a060020a031681526001909101906020018083116105f3575050505050925081805480602002602001604051908101604052809291908181526020018280548015610663576020028201919060005260206000209081548152602001906001019080831161064f5750505050509150808054806020026020016040519081016040528092919081815260200182805480156106b557602002820191906000526020600020908154815260200190600101908083116106a157505050505090509650965096509650965096509650919395979092949650565b611ef8612263565b611f00612263565b611f08612263565b611f10612263565b611f18612263565b611f20612263565b611f28612263565b600160a060020a0388166000908152600360209081526040918290206001810180549093600283019360048401936005810193600682019360078301936008909301928992918282029091019051908101604052809291908181526020018280548015611fb457602002820191906000526020600020905b815481526020019060010190808311611fa0575b505050505096508580548060200260200160405190810160405280929190818152602001828054801561201057602002820191906000526020600020905b8154600160a060020a03168152600190910190602001808311611ff2575b50505050509550848054806020026020016040519081016040528092919081815260200182805480156108f257602002820191906000526020600020906000905b82829054906101000a900460ff16600681111561206a57fe5b81526020600192830181810494850194909303909202910180841161205157905050505050509450838054806020026020016040519081016040528092919081815260200182805480156105b557602002820191906000526020600020908154600160a060020a0316815260019091019060200180831161093057505050505093508280548060200260200160405190810160405280929190818152602001828054801561061157602002820191906000526020600020908154600160a060020a031681526001909101906020018083116105f3575050505050925081805480602002602001604051908101604052809291908181526020018280548015610663576020028201919060005260206000209081548152602001906001019080831161064f5750505050509150808054806020026020016040519081016040528092919081815260200182805480156106b557602002820191906000526020600020908154815260200190600101908083116106a157505050505090509650965096509650965096509650919395979092949650565b600154600160a060020a031681565b60005433600160a060020a0390811691161461222657fe5b600054600160a060020a038281169116141561224157600080fd5b60018054600160a060020a031916600160a060020a0392909216919091179055565b60206040519081016040526000815290565b8280548282559060005260206000209081019282156122b0579160200282015b828111156122b0578251825591602001919060010190612295565b506122bc929150612426565b5090565b828054828255906000526020600020908101928215612317579160200282015b828111156123175782518254600160a060020a031916600160a060020a0391909116178255602092909201916001909101906122e0565b506122bc929150612443565b82805482825590600052602060002090601f016020900481019282156123c15791602002820160005b8382111561239257835183826101000a81548160ff0219169083600681111561237157fe5b0217905550926020019260010160208160000104928301926001030261234c565b80156123bf5782816101000a81549060ff0219169055600101602081600001049283019260010302612392565b505b506122bc929150612467565b8154818355818115116123f1576000838152602090206123f1918101908301612426565b505050565b8154818355818115116123f157601f016020900481601f016020900483600052602060002091820191016123f191905b61244091905b808211156122bc576000815560010161242c565b90565b61244091905b808211156122bc578054600160a060020a0319168155600101612449565b61244091905b808211156122bc57805460ff1916815560010161246d5600a165627a7a7230582022f9020d16215ba97172fd2c0d360ee60db5681f4d2fc19fc093413b51f7f8df0029",
  "source": "pragma solidity ^0.4.18;\nimport '../interfaces/IFinancieLog.sol';\nimport '../Owned.sol';\n\ncontract FinancieLog is Owned, IFinancieLog {\n\n    struct Log {\n        bool isSet;\n        uint[] timestamp;\n        address[] sender;\n        address[] target;\n        EventType[] eventType;\n        address[] from;\n        address[] to;\n        uint256[] amountFrom;\n        uint256[] amountTo;\n    }\n\n    mapping (address => Log) senderLogs;\n    mapping (address => Log) targetLogs;\n    mapping (address => Log) fromLogs;\n    mapping (address => Log) toLogs;\n\n    function FinancieLog() public {\n\n    }\n\n    function() payable public {\n        revert();\n    }\n\n    function recordLog(\n        address _sender,\n        address _target,\n        EventType _eventType,\n        address _from,\n        address _to,\n        uint256 _paidAmount,\n        uint256 _receivedAmount)\n        public\n        ownerOnly\n    {\n        if ( !senderLogs[_sender].isSet ) {\n            senderLogs[_sender] = Log(\n                true,\n                new uint[](0),\n                new address[](0),\n                new address[](0),\n                new EventType[](0),\n                new address[](0),\n                new address[](0),\n                new uint256[](0),\n                new uint256[](0)\n            );\n        }\n        if ( !targetLogs[_target].isSet ) {\n            targetLogs[_target] = Log(\n                true,\n                new uint[](0),\n                new address[](0),\n                new address[](0),\n                new EventType[](0),\n                new address[](0),\n                new address[](0),\n                new uint256[](0),\n                new uint256[](0)\n            );\n        }\n        if ( !fromLogs[_from].isSet ) {\n            fromLogs[_from] = Log(\n                true,\n                new uint[](0),\n                new address[](0),\n                new address[](0),\n                new EventType[](0),\n                new address[](0),\n                new address[](0),\n                new uint256[](0),\n                new uint256[](0)\n            );\n        }\n        if ( !toLogs[_to].isSet ) {\n            toLogs[_to] = Log(\n                true,\n                new uint[](0),\n                new address[](0),\n                new address[](0),\n                new EventType[](0),\n                new address[](0),\n                new address[](0),\n                new uint256[](0),\n                new uint256[](0)\n            );\n        }\n\n        // Record sender log\n        senderLogs[_sender].timestamp.push(now);\n        //senderLogs[_sender].sender.push(_sender);\n        senderLogs[_sender].target.push(_target);\n        senderLogs[_sender].eventType.push(_eventType);\n        senderLogs[_sender].from.push(_from);\n        senderLogs[_sender].to.push(_to);\n        senderLogs[_sender].amountFrom.push(_paidAmount);\n        senderLogs[_sender].amountTo.push(_receivedAmount);\n\n        // Record target log\n        targetLogs[_target].timestamp.push(now);\n        targetLogs[_target].sender.push(_sender);\n        //targetLogs[_target].target.push(_target);\n        targetLogs[_target].eventType.push(_eventType);\n        targetLogs[_target].from.push(_from);\n        targetLogs[_target].to.push(_to);\n        targetLogs[_target].amountFrom.push(_paidAmount);\n        targetLogs[_target].amountTo.push(_receivedAmount);\n\n        // Record from log\n        fromLogs[_from].timestamp.push(now);\n        fromLogs[_from].sender.push(_sender);\n        fromLogs[_from].target.push(_target);\n        fromLogs[_from].eventType.push(_eventType);\n        //fromLogs[_from].from.push(_from);\n        fromLogs[_from].to.push(_to);\n        fromLogs[_from].amountFrom.push(_paidAmount);\n        fromLogs[_from].amountTo.push(_receivedAmount);\n\n        // Record to log\n        toLogs[_to].timestamp.push(now);\n        toLogs[_to].sender.push(_sender);\n        toLogs[_to].target.push(_target);\n        toLogs[_to].eventType.push(_eventType);\n        toLogs[_to].from.push(_from);\n        //toLogs[_to].to.push(_to);\n        toLogs[_to].amountFrom.push(_paidAmount);\n        toLogs[_to].amountTo.push(_receivedAmount);\n    }\n\n    function getTargetLogs(address _target)\n        public view returns(uint[], address[], EventType[], address[], address[], uint256[], uint256[])\n    {\n        return (\n            targetLogs[_target].timestamp,\n            targetLogs[_target].sender,\n            targetLogs[_target].eventType,\n            targetLogs[_target].from,\n            targetLogs[_target].to,\n            targetLogs[_target].amountFrom,\n            targetLogs[_target].amountTo\n        );\n    }\n\n    function getSenderLogs(address _sender)\n        public view returns(uint[], address[], EventType[], address[], address[], uint256[], uint256[])\n    {\n        return (\n            senderLogs[_sender].timestamp,\n            senderLogs[_sender].target,\n            senderLogs[_sender].eventType,\n            senderLogs[_sender].from,\n            senderLogs[_sender].to,\n            senderLogs[_sender].amountFrom,\n            senderLogs[_sender].amountTo\n        );\n    }\n\n    function getFromLogs(address _from)\n        public view returns(uint[], address[], address[], EventType[], address[], uint256[], uint256[])\n    {\n        return (\n            fromLogs[_from].timestamp,\n            fromLogs[_from].sender,\n            fromLogs[_from].target,\n            fromLogs[_from].eventType,\n            fromLogs[_from].to,\n            fromLogs[_from].amountFrom,\n            fromLogs[_from].amountTo\n        );\n    }\n\n    function getToLogs(address _to)\n        public view returns(uint[], address[], address[], EventType[], address[], uint256[], uint256[])\n    {\n        return (\n            toLogs[_to].timestamp,\n            toLogs[_to].sender,\n            toLogs[_to].target,\n            toLogs[_to].eventType,\n            toLogs[_to].from,\n            toLogs[_to].amountFrom,\n            toLogs[_to].amountTo\n        );\n    }\n\n\n}\n",
  "sourcePath": "/Users/rudo/Documents/ichiba/submodules/contracts/solidity/contracts/Financie/FinancieLog.sol",
  "compiler": {
    "name": "solc",
    "version": "0.4.21+commit.dfe3193c.Emscripten.clang"
  },
  "schemaVersion": "2.0.0",
  "updatedAt": "2018-08-07T05:25:05.866Z"
}