{
  "contractName": "FinancieHeroesDutchAuction",
  "abi": [
    {
      "constant": true,
      "inputs": [],
      "name": "num_tokens_auctioned",
      "outputs": [
        {
          "name": "",
          "type": "uint256"
        }
      ],
      "payable": false,
      "stateMutability": "view",
      "type": "function"
    },
    {
      "constant": true,
      "inputs": [],
      "name": "final_price",
      "outputs": [
        {
          "name": "",
          "type": "uint256"
        }
      ],
      "payable": false,
      "stateMutability": "view",
      "type": "function"
    },
    {
      "constant": true,
      "inputs": [],
      "name": "price_exponent",
      "outputs": [
        {
          "name": "",
          "type": "uint32"
        }
      ],
      "payable": false,
      "stateMutability": "view",
      "type": "function"
    },
    {
      "constant": true,
      "inputs": [],
      "name": "end_time",
      "outputs": [
        {
          "name": "",
          "type": "uint256"
        }
      ],
      "payable": false,
      "stateMutability": "view",
      "type": "function"
    },
    {
      "constant": true,
      "inputs": [],
      "name": "token_multiplier",
      "outputs": [
        {
          "name": "",
          "type": "uint256"
        }
      ],
      "payable": false,
      "stateMutability": "view",
      "type": "function"
    },
    {
      "constant": true,
      "inputs": [],
      "name": "price_start",
      "outputs": [
        {
          "name": "",
          "type": "uint256"
        }
      ],
      "payable": false,
      "stateMutability": "view",
      "type": "function"
    },
    {
      "constant": true,
      "inputs": [],
      "name": "bid_threshold",
      "outputs": [
        {
          "name": "",
          "type": "uint256"
        }
      ],
      "payable": false,
      "stateMutability": "view",
      "type": "function"
    },
    {
      "constant": true,
      "inputs": [],
      "name": "funds_claimed",
      "outputs": [
        {
          "name": "",
          "type": "uint256"
        }
      ],
      "payable": false,
      "stateMutability": "view",
      "type": "function"
    },
    {
      "constant": false,
      "inputs": [],
      "name": "claimTokens",
      "outputs": [
        {
          "name": "",
          "type": "bool"
        }
      ],
      "payable": false,
      "stateMutability": "nonpayable",
      "type": "function"
    },
    {
      "constant": true,
      "inputs": [],
      "name": "token_claim_waiting_period",
      "outputs": [
        {
          "name": "",
          "type": "uint256"
        }
      ],
      "payable": false,
      "stateMutability": "view",
      "type": "function"
    },
    {
      "constant": true,
      "inputs": [],
      "name": "whitelister_address",
      "outputs": [
        {
          "name": "",
          "type": "address"
        }
      ],
      "payable": false,
      "stateMutability": "view",
      "type": "function"
    },
    {
      "constant": false,
      "inputs": [
        {
          "name": "_bidder_addresses",
          "type": "address[]"
        }
      ],
      "name": "removeFromWhitelist",
      "outputs": [],
      "payable": false,
      "stateMutability": "nonpayable",
      "type": "function"
    },
    {
      "constant": true,
      "inputs": [
        {
          "name": "",
          "type": "address"
        }
      ],
      "name": "bids",
      "outputs": [
        {
          "name": "",
          "type": "uint256"
        }
      ],
      "payable": false,
      "stateMutability": "view",
      "type": "function"
    },
    {
      "constant": false,
      "inputs": [],
      "name": "startAuction",
      "outputs": [],
      "payable": false,
      "stateMutability": "nonpayable",
      "type": "function"
    },
    {
      "constant": true,
      "inputs": [],
      "name": "received_wei",
      "outputs": [
        {
          "name": "",
          "type": "uint256"
        }
      ],
      "payable": false,
      "stateMutability": "view",
      "type": "function"
    },
    {
      "constant": false,
      "inputs": [
        {
          "name": "_bidder_addresses",
          "type": "address[]"
        }
      ],
      "name": "addToWhitelist",
      "outputs": [],
      "payable": false,
      "stateMutability": "nonpayable",
      "type": "function"
    },
    {
      "constant": true,
      "inputs": [],
      "name": "owner_address",
      "outputs": [
        {
          "name": "",
          "type": "address"
        }
      ],
      "payable": false,
      "stateMutability": "view",
      "type": "function"
    },
    {
      "constant": true,
      "inputs": [],
      "name": "start_time",
      "outputs": [
        {
          "name": "",
          "type": "uint256"
        }
      ],
      "payable": false,
      "stateMutability": "view",
      "type": "function"
    },
    {
      "constant": true,
      "inputs": [
        {
          "name": "",
          "type": "address"
        }
      ],
      "name": "whitelist",
      "outputs": [
        {
          "name": "",
          "type": "bool"
        }
      ],
      "payable": false,
      "stateMutability": "view",
      "type": "function"
    },
    {
      "constant": true,
      "inputs": [],
      "name": "price_constant",
      "outputs": [
        {
          "name": "",
          "type": "uint256"
        }
      ],
      "payable": false,
      "stateMutability": "view",
      "type": "function"
    },
    {
      "constant": true,
      "inputs": [],
      "name": "price",
      "outputs": [
        {
          "name": "",
          "type": "uint256"
        }
      ],
      "payable": false,
      "stateMutability": "view",
      "type": "function"
    },
    {
      "constant": true,
      "inputs": [],
      "name": "start_block",
      "outputs": [
        {
          "name": "",
          "type": "uint256"
        }
      ],
      "payable": false,
      "stateMutability": "view",
      "type": "function"
    },
    {
      "constant": true,
      "inputs": [],
      "name": "stage",
      "outputs": [
        {
          "name": "",
          "type": "uint8"
        }
      ],
      "payable": false,
      "stateMutability": "view",
      "type": "function"
    },
    {
      "constant": true,
      "inputs": [],
      "name": "missingFundsToEndAuction",
      "outputs": [
        {
          "name": "",
          "type": "uint256"
        }
      ],
      "payable": false,
      "stateMutability": "view",
      "type": "function"
    },
    {
      "constant": true,
      "inputs": [],
      "name": "wallet_address",
      "outputs": [
        {
          "name": "",
          "type": "address"
        }
      ],
      "payable": false,
      "stateMutability": "view",
      "type": "function"
    },
    {
      "constant": false,
      "inputs": [],
      "name": "finalizeAuction",
      "outputs": [],
      "payable": false,
      "stateMutability": "nonpayable",
      "type": "function"
    },
    {
      "constant": true,
      "inputs": [],
      "name": "token",
      "outputs": [
        {
          "name": "",
          "type": "address"
        }
      ],
      "payable": false,
      "stateMutability": "view",
      "type": "function"
    },
    {
      "inputs": [
        {
          "name": "_wallet_address",
          "type": "address"
        },
        {
          "name": "_team_wallet",
          "type": "address"
        },
        {
          "name": "_whitelister_address",
          "type": "address"
        },
        {
          "name": "_teamFee",
          "type": "uint32"
        },
        {
          "name": "_price_start",
          "type": "uint256"
        },
        {
          "name": "_price_constant",
          "type": "uint256"
        },
        {
          "name": "_price_exponent",
          "type": "uint32"
        }
      ],
      "payable": false,
      "stateMutability": "nonpayable",
      "type": "constructor"
    },
    {
      "payable": true,
      "stateMutability": "payable",
      "type": "fallback"
    },
    {
      "anonymous": false,
      "inputs": [
        {
          "indexed": true,
          "name": "_price_start",
          "type": "uint256"
        },
        {
          "indexed": true,
          "name": "_price_constant",
          "type": "uint256"
        },
        {
          "indexed": true,
          "name": "_price_exponent",
          "type": "uint32"
        }
      ],
      "name": "Deployed",
      "type": "event"
    },
    {
      "anonymous": false,
      "inputs": [],
      "name": "Setup",
      "type": "event"
    },
    {
      "anonymous": false,
      "inputs": [
        {
          "indexed": true,
          "name": "_start_time",
          "type": "uint256"
        },
        {
          "indexed": true,
          "name": "_block_number",
          "type": "uint256"
        }
      ],
      "name": "AuctionStarted",
      "type": "event"
    },
    {
      "anonymous": false,
      "inputs": [
        {
          "indexed": true,
          "name": "_sender",
          "type": "address"
        },
        {
          "indexed": false,
          "name": "_amount",
          "type": "uint256"
        },
        {
          "indexed": false,
          "name": "_missing_funds",
          "type": "uint256"
        }
      ],
      "name": "BidSubmission",
      "type": "event"
    },
    {
      "anonymous": false,
      "inputs": [
        {
          "indexed": true,
          "name": "_recipient",
          "type": "address"
        },
        {
          "indexed": false,
          "name": "_sent_amount",
          "type": "uint256"
        }
      ],
      "name": "ClaimedTokens",
      "type": "event"
    },
    {
      "anonymous": false,
      "inputs": [
        {
          "indexed": false,
          "name": "_final_price",
          "type": "uint256"
        }
      ],
      "name": "AuctionEnded",
      "type": "event"
    },
    {
      "anonymous": false,
      "inputs": [],
      "name": "TokensDistributed",
      "type": "event"
    },
    {
      "constant": false,
      "inputs": [
        {
          "name": "_core_address",
          "type": "address"
        },
        {
          "name": "_token_address",
          "type": "address"
        }
      ],
      "name": "setup",
      "outputs": [],
      "payable": false,
      "stateMutability": "nonpayable",
      "type": "function"
    },
    {
      "constant": false,
      "inputs": [
        {
          "name": "_token_address",
          "type": "address"
        }
      ],
      "name": "setup",
      "outputs": [],
      "payable": false,
      "stateMutability": "nonpayable",
      "type": "function"
    },
    {
      "constant": false,
      "inputs": [],
      "name": "bid",
      "outputs": [],
      "payable": true,
      "stateMutability": "payable",
      "type": "function"
    },
    {
      "constant": false,
      "inputs": [
        {
          "name": "receiver_address",
          "type": "address"
        }
      ],
      "name": "proxyClaimTokens",
      "outputs": [
        {
          "name": "",
          "type": "bool"
        }
      ],
      "payable": false,
      "stateMutability": "nonpayable",
      "type": "function"
    },
    {
      "constant": false,
      "inputs": [
        {
          "name": "receiver_address",
          "type": "address"
        }
      ],
      "name": "estimateClaimTokens",
      "outputs": [
        {
          "name": "",
          "type": "uint256"
        }
      ],
      "payable": false,
      "stateMutability": "nonpayable",
      "type": "function"
    },
    {
      "constant": false,
      "inputs": [
        {
          "name": "receiver_address",
          "type": "address"
        }
      ],
      "name": "canClaimTokens",
      "outputs": [
        {
          "name": "",
          "type": "bool"
        }
      ],
      "payable": false,
      "stateMutability": "nonpayable",
      "type": "function"
    }
  ],
  "bytecode": "0x606060405234156200001057600080fd5b60405160e0806200171b833981016040528080519190602001805191906020018051919060200180519190602001805191906020018051919060200180519150600090508488888189888888600160a060020a03851615156200007257600080fd5b600160a060020a03841615156200008857600080fd5b60028054600160a060020a03878116600160a060020a031992831617909255600380548784169083161790556001805433909316929091169190911790556011805460ff19169055620000eb8383836401000000006200142c620001bd82021704565b8063ffffffff1682847f386f36f3306fb418dd13e11a0f5b005c8b23a70fb5da6c18ab5123e5fe68598560405160405180910390a450506011805464ffffffff00191661010063ffffffff998a16021768ffffffff00000000001916650100000000009790981696909602969096177fffffff0000000000000000000000000000000000000000ffffffffffffffffff166901000000000000000000600160a060020a0395861602179094555060128054600160a060020a03191691909216179055506200023b975050505050505050565b600060115460ff166004811115620001d157fe5b1480620001ef5750600160115460ff166004811115620001ed57fe5b145b1515620001fb57600080fd5b600083116200020957600080fd5b600082116200021757600080fd5b6004929092556005556006805463ffffffff191663ffffffff909216919091179055565b6114d0806200024b6000396000f3006060604052600436106101875763ffffffff60e060020a60003504166303cc7b8581146101b057806308b309e3146101d55780630c64a739146101e857806316243356146102145780631998aeef146102275780631e3359621461023157806329b4d111146102445780632a887299146102575780632aefb7c51461026a5780632d34ba791461027d57806348c54b9d146102a25780634b7829f1146102c95780634e012918146102dc578063548db1741461030b57806362ea82db1461035a57806366d38203146103795780636b64c769146103985780636f764c53146103ab5780637b10e717146103ca5780637f649783146103dd57806380edef8e1461042c578063834ee4171461043f57806384d504bc146104525780639b19251a146104715780639dbf054314610490578063a035b1fe146104a3578063aeaaaa08146104b6578063b87fb3db146104d5578063c040e6b8146104e8578063c5cd88db1461051f578063e776a5b514610532578063f77282ab14610545578063fc0c546a14610558575b60028060115460ff16600481111561019b57fe5b146101a557600080fd5b6101ad61056b565b50005b34156101bb57600080fd5b6101c36107ae565b60405190815260200160405180910390f35b34156101e057600080fd5b6101c36107b4565b34156101f357600080fd5b6101fb6107ba565b60405163ffffffff909116815260200160405180910390f35b341561021f57600080fd5b6101c36107c6565b61022f61056b565b005b341561023c57600080fd5b6101c36107cc565b341561024f57600080fd5b6101c36107d2565b341561026257600080fd5b6101c36107d8565b341561027557600080fd5b6101c36107e5565b341561028857600080fd5b61022f600160a060020a03600435811690602435166107eb565b34156102ad57600080fd5b6102b561085e565b604051901515815260200160405180910390f35b34156102d457600080fd5b6101c361088e565b34156102e757600080fd5b6102ef610893565b604051600160a060020a03909116815260200160405180910390f35b341561031657600080fd5b61022f60046024813581810190830135806020818102016040519081016040528093929190818152602001838360200280828437509496506108a295505050505050565b341561036557600080fd5b6101c3600160a060020a0360043516610929565b341561038457600080fd5b61022f600160a060020a036004351661093b565b34156103a357600080fd5b61022f610ab0565b34156103b657600080fd5b6101c3600160a060020a0360043516610b32565b34156103d557600080fd5b6101c3610ba9565b34156103e857600080fd5b61022f6004602481358181019083013580602081810201604051908101604052809392919081815260200183836020028082843750949650610baf95505050505050565b341561043757600080fd5b6102ef610c32565b341561044a57600080fd5b6101c3610c41565b341561045d57600080fd5b6102b5600160a060020a0360043516610c47565b341561047c57600080fd5b6102b5600160a060020a0360043516610c98565b341561049b57600080fd5b6101c3610cad565b34156104ae57600080fd5b6101c3610cb3565b34156104c157600080fd5b6102b5600160a060020a0360043516610cff565b34156104e057600080fd5b6101c3610eb3565b34156104f357600080fd5b6104fb610eb9565b6040518082600481111561050b57fe5b60ff16815260200191505060405180910390f35b341561052a57600080fd5b6101c3610ec2565b341561053d57600080fd5b6102ef610efe565b341561055057600080fd5b61022f610f0d565b341561056357600080fd5b6102ef610fac565b600080808060028060115460ff16600481111561058457fe5b1461058e57600080fd5b610596610ec2565b9450349350843411156105e25784935033600160a060020a03166108fc6105bd3487610fbb565b9081150290604051600060405180830381858888f1935050505015156105e257600080fd5b600084116105ef57600080fd5b600160a060020a0333166000908152600f6020526040902054683635c9adc5dea0000090850111158061063a5750600160a060020a03331660009081526010602052604090205460ff165b151561064557600080fd5b600160a060020a0333166000908152600f602052604090205484018490101561066a57fe5b600160a060020a0333166000908152600f60205260409020805485019055600a80548501905561069984610fcd565b92506106a58484610fbb565b600254909250600160a060020a031682156108fc0283604051600060405180830381858888f1935050505015156106db57600080fd5b33600160a060020a03167fc9c6176cbf7c0a8c29655fe8ccbe5e28382ca11459d145223308723bfc697545858760405191825260208201526040908101905180910390a2600a548490101561072c57fe5b601354600054600160a060020a03918216916383505556913391168760405160e060020a63ffffffff8616028152600160a060020a0393841660048201529190921660248201526044810191909152606401600060405180830381600087803b151561079757600080fd5b5af115156107a457600080fd5b5050505050505050565b600d5481565b600e5481565b60065463ffffffff1681565b60085481565b600c5481565b60045481565b683635c9adc5dea0000081565b600b5481565b60015433600160a060020a0390811691161461080657600080fd5b60008060115460ff16600481111561081a57fe5b1461082457600080fd5b61082d8261093b565b50506013805473ffffffffffffffffffffffffffffffffffffffff1916600160a060020a0392909216919091179055565b600060038060115460ff16600481111561087457fe5b1461087e57600080fd5b61088733610cff565b91505b5090565b603c81565b600354600160a060020a031681565b60035460009033600160a060020a039081169116146108c057600080fd5b5060005b81518163ffffffff16101561092557600060106000848463ffffffff16815181106108eb57fe5b90602001906020020151600160a060020a031681526020810191909152604001600020805460ff19169115159190911790556001016108c4565b5050565b600f6020526000908152604090205481565b60015433600160a060020a0390811691161461095657600080fd5b60008060115460ff16600481111561096a57fe5b1461097457600080fd5b600160a060020a038216151561098957600080fd5b6000805473ffffffffffffffffffffffffffffffffffffffff1916600160a060020a038481169190911791829055166370a082313060405160e060020a63ffffffff8416028152600160a060020a039091166004820152602401602060405180830381600087803b15156109fc57600080fd5b5af11515610a0957600080fd5b5050506040518051600d5550600054600160a060020a031663313ce5676040518163ffffffff1660e060020a028152600401602060405180830381600087803b1515610a5457600080fd5b5af11515610a6157600080fd5b505050604051805160ff16600a0a600c55506011805460ff191660011790557f587930504fa5b1062f394d90f9dac9ecadd354ed23a97af9ea4e44dff4870a8460405160405180910390a15050565b60015433600160a060020a03908116911614610acb57600080fd5b60018060115460ff166004811115610adf57fe5b14610ae957600080fd5b6011805460ff19166002179055426007819055436009819055907ff8910119ddbef5440c54532457dfe8250a10ed39e583292818f44724b9e1344c60405160405180910390a350565b600160a060020a0381166000908152600f6020526040812054819081901115610b9e57600d54600a54600c5402811515610b6857fe5b600160a060020a0385166000908152600f6020526040902054600c54929091049250829102811515610b9657fe5b049150610ba3565b600091505b50919050565b600a5481565b60035460009033600160a060020a03908116911614610bcd57600080fd5b5060005b81518163ffffffff16101561092557600160106000848463ffffffff1681518110610bf857fe5b90602001906020020151600160a060020a031681526020810191909152604001600020805460ff1916911515919091179055600101610bd1565b600154600160a060020a031681565b60075481565b6000600360115460ff166004811115610c5c57fe5b1415610c8f57600160a060020a0382166000908152600f60205260408120541115610c8f5750600854603c014211610c93565b5060005b919050565b60106020526000908152604090205460ff1681565b60055481565b6000600360115460ff166004811115610cc857fe5b1480610ce45750600460115460ff166004811115610ce257fe5b145b15610cf157506000610cfc565b610cf961106e565b90505b90565b600080808060038060115460ff166004811115610d1857fe5b14610d2257600080fd5b600160a060020a038087166000908152600f60205260408082205491549196509116906370a082319088905160e060020a63ffffffff8416028152600160a060020a039091166004820152602401602060405180830381600087803b1515610d8957600080fd5b5af11515610d9657600080fd5b505050604051805190509250610dab866110cc565b15610ea557600054600160a060020a03166370a082318760405160e060020a63ffffffff8416028152600160a060020a039091166004820152602401602060405180830381600087803b1515610e0057600080fd5b5af11515610e0d57600080fd5b5050506040518051601354600054919450600160a060020a0390811692506349747f2f918991168787870360405160e060020a63ffffffff8716028152600160a060020a03948516600482015292909316602483015260448201526064810191909152608401600060405180830381600087803b1515610e8c57600080fd5b5af11515610e9957600080fd5b50505060019450610eaa565b600094505b50505050919050565b60095481565b60115460ff1681565b600080600c54610ed0610cb3565b600d5402811515610edd57fe5b049050600a5481111515610ef4576000915061088a565b600a549003919050565b600254600160a060020a031681565b600060028060115460ff166004811115610f2357fe5b14610f2d57600080fd5b610f35610ec2565b91508115610f4257600080fd5b600d54600a54600c5402811515610f5557fe5b04600e819055426008556011805460ff191660031790557f45806e512b1f4f10e33e8b3cb64d1d11d998d8c554a95e0841fc1c701278bd5d9060405190815260200160405180910390a1600e546000901161092557fe5b600054600160a060020a031681565b600081831015610fc757fe5b50900390565b6000806000610fdb8461139c565b9150610fe6846113cd565b60115490915069010000000000000000009004600160a060020a03166108fc83150283604051600060405180830381858888f19350505050151561102957600080fd5b601254600160a060020a031681156108fc0282604051600060405180830381858888f19350505050151561105c57600080fd5b61106682826113f2565b949350505050565b60008080600260115460ff16600481111561108557fe5b141561109357600754420391505b60055460065463ffffffff16830a8115156110aa57fe5b04905080826001010182600101600454028115156110c457fe5b049250505090565b6000808060038060115460ff1660048111156110e457fe5b146110ee57600080fd5b600854603c0142116110ff57600080fd5b600160a060020a038516151561111457600080fd5b600160a060020a0385166000908152600f6020526040902054151561113c5760009350611394565b600e54600160a060020a0386166000908152600f6020526040902054600c540281151561116557fe5b6000549190049350600160a060020a03166370a082313060405160e060020a63ffffffff8416028152600160a060020a039091166004820152602401602060405180830381600087803b15156111ba57600080fd5b5af115156111c757600080fd5b5050506040518051925050818311156111de578192505b600160a060020a038086166000908152600f60205260408082208054600b8054909101905582905590549091169063a9059cbb90879086905160e060020a63ffffffff8516028152600160a060020a0390921660048301526024820152604401602060405180830381600087803b151561125757600080fd5b5af1151561126457600080fd5b50505060405180519050151561127957600080fd5b84600160a060020a03167fe9aa550fd75d0d28e07fa9dd67d3ae705678776f6c4a75abd09534f93e7d79078460405190815260200160405180910390a2600a54600b5414156112fc576011805460ff191660041790557fcea85459abe456c560868e61c476933dcee35a72aba5f546e93715929a69618660405160405180910390a15b6000548390600160a060020a03166370a082318760405160e060020a63ffffffff8416028152600160a060020a039091166004820152602401602060405180830381600087803b151561134e57600080fd5b5af1151561135b57600080fd5b505050604051805190501015151561136f57fe5b600160a060020a0385166000908152600f60205260409020541561138f57fe5b600193505b505050919050565b601154600090620f4240906113bd908490610100900463ffffffff16611408565b8115156113c657fe5b0492915050565b601154600090620f4240906113bd90849065010000000000900463ffffffff16611408565b60008282018381101561140157fe5b9392505050565b6000828202831580611424575082848281151561142157fe5b04145b151561140157fe5b600060115460ff16600481111561143f57fe5b148061145b5750600160115460ff16600481111561145957fe5b145b151561146657600080fd5b6000831161147357600080fd5b6000821161148057600080fd5b6004929092556005556006805463ffffffff191663ffffffff9092169190911790555600a165627a7a72305820c7d9a7c18bbf30a9b6f9f058626c3d496aac45f7b31fa0c366e2939a5dc189380029",
  "source": "pragma solidity ^0.4.17;\n\nimport './DutchAuction.sol';\nimport '../Financie/FinancieFee.sol';\nimport '../interfaces/IFinancieCore.sol';\n\n/// @title overrided from DutchAuction.\ncontract FinancieHeroesDutchAuction is DutchAuction, FinancieFee {\n\n    IFinancieCore core;\n\n    /*\n     * Public functions\n     */\n\n    /// @dev Contract constructor function sets the starting price, divisor constant and\n    /// divisor exponent for calculating the Dutch Auction price.\n    /// @param _wallet_address Wallet address to which all contributed ETH will be forwarded.\n    /// @param _price_start High price in WEI at which the auction starts.\n    /// @param _price_constant Auction price divisor constant.\n    /// @param _price_exponent Auction price divisor exponent.\n    function FinancieHeroesDutchAuction(\n        address _wallet_address,\n        address _team_wallet,\n        address _whitelister_address,\n        uint32 _teamFee,\n        uint _price_start,\n        uint _price_constant,\n        uint32 _price_exponent)\n        public\n        DutchAuction(\n          _wallet_address,\n          _whitelister_address,\n          _price_start,\n          _price_constant,\n          _price_exponent\n        )\n        FinancieFee(0, _teamFee, _wallet_address, _team_wallet)\n    {\n    }\n\n    /// @notice overrided from DutchAuction.\n    /// @param _core_address Financie Core address.\n    function setup(address _core_address, address _token_address) public isOwner atStage(Stages.AuctionDeployed) {\n        super.setup(_token_address);\n        core = IFinancieCore(_core_address);\n    }\n\n    /// --------------------------------- Auction Functions ------------------\n\n    /// @notice overrided from DutchAuction.\n    function bid()\n        public\n        payable\n        atStage(Stages.AuctionStarted)\n    {\n        // Missing funds without the current bid value\n        uint missing_funds = missingFundsToEndAuction();\n\n        uint256 amount = msg.value;\n        if ( msg.value > missing_funds ) {\n            amount = missing_funds;\n            msg.sender.transfer(safeSub(msg.value, amount));\n        }\n\n        require(amount > 0);\n        require(bids[msg.sender] + amount <= bid_threshold || whitelist[msg.sender]);\n        assert(bids[msg.sender] + amount >= amount);\n\n        bids[msg.sender] += amount;\n        received_wei += amount;\n\n        // Send bid amount to wallet\n        uint256 feeAmount = distributeFees(amount);\n        uint256 net = safeSub(amount, feeAmount);\n        wallet_address.transfer(net);\n\n        BidSubmission(msg.sender, amount, missing_funds);\n\n        assert(received_wei >= amount);\n\n        core.notifyBidCards(msg.sender, address(token), amount);\n    }\n\n    /// @notice overrided from DutchAuction.\n    function proxyClaimTokens(address receiver_address)\n        public\n        atStage(Stages.AuctionEnded)\n        returns (bool)\n    {\n        uint256 myBids = bids[receiver_address];\n        uint256 balanceBefore = token.balanceOf(receiver_address);\n        if ( super.proxyClaimTokens(receiver_address) ) {\n            uint256 balanceAfter = token.balanceOf(receiver_address);\n            core.notifyWithdrawalCards(receiver_address, address(token), myBids, balanceAfter - balanceBefore);\n            return true;\n        }\n        return false;\n    }\n\n    function estimateClaimTokens(address receiver_address)\n        public\n        returns (uint256)\n    {\n        if ( bids[receiver_address] > 0 ) {\n          uint current_price = token_multiplier * received_wei / num_tokens_auctioned;\n          return (token_multiplier * bids[receiver_address]) / current_price;\n        }\n        return 0;\n    }\n\n    function canClaimTokens(address receiver_address)\n        public\n        returns (bool)\n    {\n        if ( stage == Stages.AuctionEnded ) {\n          if ( bids[receiver_address] > 0 ) {\n            return (now > end_time + token_claim_waiting_period);\n          }\n        }\n        return false;\n    }\n\n}\n",
  "sourcePath": "/Users/rudo/Documents/ichiba/submodules/contracts/solidity/contracts/DutchAuction/FinancieHeroesDutchAuction.sol",
  "compiler": {
    "name": "solc",
    "version": "0.4.21+commit.dfe3193c.Emscripten.clang"
  },
  "schemaVersion": "2.0.0",
  "updatedAt": "2018-08-06T11:00:36.452Z"
}