{
  "contractName": "FinancieBancorConverter",
  "abi": [
    {
      "constant": false,
      "inputs": [
        {
          "name": "_connectorToken",
          "type": "address"
        },
        {
          "name": "_weight",
          "type": "uint32"
        },
        {
          "name": "_enableVirtualBalance",
          "type": "bool"
        },
        {
          "name": "_virtualBalance",
          "type": "uint256"
        }
      ],
      "name": "updateConnector",
      "outputs": [],
      "payable": false,
      "stateMutability": "nonpayable",
      "type": "function"
    },
    {
      "constant": true,
      "inputs": [
        {
          "name": "",
          "type": "address"
        }
      ],
      "name": "connectors",
      "outputs": [
        {
          "name": "virtualBalance",
          "type": "uint256"
        },
        {
          "name": "weight",
          "type": "uint32"
        },
        {
          "name": "isVirtualBalanceEnabled",
          "type": "bool"
        },
        {
          "name": "isPurchaseEnabled",
          "type": "bool"
        },
        {
          "name": "isSet",
          "type": "bool"
        }
      ],
      "payable": false,
      "stateMutability": "view",
      "type": "function"
    },
    {
      "constant": true,
      "inputs": [
        {
          "name": "",
          "type": "uint256"
        }
      ],
      "name": "connectorTokens",
      "outputs": [
        {
          "name": "",
          "type": "address"
        }
      ],
      "payable": false,
      "stateMutability": "view",
      "type": "function"
    },
    {
      "constant": true,
      "inputs": [
        {
          "name": "_fromToken",
          "type": "address"
        },
        {
          "name": "_toToken",
          "type": "address"
        },
        {
          "name": "_amount",
          "type": "uint256"
        }
      ],
      "name": "getReturn",
      "outputs": [
        {
          "name": "",
          "type": "uint256"
        }
      ],
      "payable": false,
      "stateMutability": "view",
      "type": "function"
    },
    {
      "constant": false,
      "inputs": [
        {
          "name": "_newOwner",
          "type": "address"
        }
      ],
      "name": "transferTokenOwnership",
      "outputs": [],
      "payable": false,
      "stateMutability": "nonpayable",
      "type": "function"
    },
    {
      "constant": false,
      "inputs": [
        {
          "name": "_disable",
          "type": "bool"
        }
      ],
      "name": "disableConversions",
      "outputs": [],
      "payable": false,
      "stateMutability": "nonpayable",
      "type": "function"
    },
    {
      "constant": false,
      "inputs": [
        {
          "name": "_extensions",
          "type": "address"
        }
      ],
      "name": "setExtensions",
      "outputs": [],
      "payable": false,
      "stateMutability": "nonpayable",
      "type": "function"
    },
    {
      "constant": true,
      "inputs": [],
      "name": "extensions",
      "outputs": [
        {
          "name": "",
          "type": "address"
        }
      ],
      "payable": false,
      "stateMutability": "view",
      "type": "function"
    },
    {
      "constant": true,
      "inputs": [
        {
          "name": "_amount",
          "type": "uint256"
        }
      ],
      "name": "getConversionFeeAmount",
      "outputs": [
        {
          "name": "",
          "type": "uint256"
        }
      ],
      "payable": false,
      "stateMutability": "view",
      "type": "function"
    },
    {
      "constant": false,
      "inputs": [],
      "name": "acceptTokenOwnership",
      "outputs": [],
      "payable": false,
      "stateMutability": "nonpayable",
      "type": "function"
    },
    {
      "constant": true,
      "inputs": [],
      "name": "converterType",
      "outputs": [
        {
          "name": "",
          "type": "string"
        }
      ],
      "payable": false,
      "stateMutability": "view",
      "type": "function"
    },
    {
      "constant": false,
      "inputs": [
        {
          "name": "_token",
          "type": "address"
        },
        {
          "name": "_weight",
          "type": "uint32"
        },
        {
          "name": "_enableVirtualBalance",
          "type": "bool"
        }
      ],
      "name": "addConnector",
      "outputs": [],
      "payable": false,
      "stateMutability": "nonpayable",
      "type": "function"
    },
    {
      "constant": false,
      "inputs": [
        {
          "name": "_token",
          "type": "address"
        },
        {
          "name": "_to",
          "type": "address"
        },
        {
          "name": "_amount",
          "type": "uint256"
        }
      ],
      "name": "withdrawFromToken",
      "outputs": [],
      "payable": false,
      "stateMutability": "nonpayable",
      "type": "function"
    },
    {
      "constant": true,
      "inputs": [],
      "name": "newManager",
      "outputs": [
        {
          "name": "",
          "type": "address"
        }
      ],
      "payable": false,
      "stateMutability": "view",
      "type": "function"
    },
    {
      "constant": true,
      "inputs": [],
      "name": "manager",
      "outputs": [
        {
          "name": "",
          "type": "address"
        }
      ],
      "payable": false,
      "stateMutability": "view",
      "type": "function"
    },
    {
      "constant": false,
      "inputs": [],
      "name": "clearQuickBuyPath",
      "outputs": [],
      "payable": false,
      "stateMutability": "nonpayable",
      "type": "function"
    },
    {
      "constant": false,
      "inputs": [
        {
          "name": "_connectorToken",
          "type": "address"
        },
        {
          "name": "_disable",
          "type": "bool"
        }
      ],
      "name": "disableConnectorPurchases",
      "outputs": [],
      "payable": false,
      "stateMutability": "nonpayable",
      "type": "function"
    },
    {
      "constant": true,
      "inputs": [],
      "name": "version",
      "outputs": [
        {
          "name": "",
          "type": "string"
        }
      ],
      "payable": false,
      "stateMutability": "view",
      "type": "function"
    },
    {
      "constant": true,
      "inputs": [],
      "name": "conversionFee",
      "outputs": [
        {
          "name": "",
          "type": "uint32"
        }
      ],
      "payable": false,
      "stateMutability": "view",
      "type": "function"
    },
    {
      "constant": false,
      "inputs": [
        {
          "name": "_token",
          "type": "address"
        },
        {
          "name": "_to",
          "type": "address"
        },
        {
          "name": "_amount",
          "type": "uint256"
        }
      ],
      "name": "withdrawTokens",
      "outputs": [],
      "payable": false,
      "stateMutability": "nonpayable",
      "type": "function"
    },
    {
      "constant": false,
      "inputs": [
        {
          "name": "_fromToken",
          "type": "address"
        },
        {
          "name": "_toToken",
          "type": "address"
        },
        {
          "name": "_amount",
          "type": "uint256"
        },
        {
          "name": "_minReturn",
          "type": "uint256"
        }
      ],
      "name": "change",
      "outputs": [
        {
          "name": "",
          "type": "uint256"
        }
      ],
      "payable": false,
      "stateMutability": "nonpayable",
      "type": "function"
    },
    {
      "constant": true,
      "inputs": [],
      "name": "connectorTokenCount",
      "outputs": [
        {
          "name": "",
          "type": "uint16"
        }
      ],
      "payable": false,
      "stateMutability": "view",
      "type": "function"
    },
    {
      "constant": true,
      "inputs": [
        {
          "name": "_connectorToken",
          "type": "address"
        },
        {
          "name": "_sellAmount",
          "type": "uint256"
        }
      ],
      "name": "getSaleReturn",
      "outputs": [
        {
          "name": "",
          "type": "uint256"
        }
      ],
      "payable": false,
      "stateMutability": "view",
      "type": "function"
    },
    {
      "constant": false,
      "inputs": [
        {
          "name": "_fromToken",
          "type": "address"
        },
        {
          "name": "_toToken",
          "type": "address"
        },
        {
          "name": "_amount",
          "type": "uint256"
        },
        {
          "name": "_minReturn",
          "type": "uint256"
        }
      ],
      "name": "convert",
      "outputs": [
        {
          "name": "",
          "type": "uint256"
        }
      ],
      "payable": false,
      "stateMutability": "nonpayable",
      "type": "function"
    },
    {
      "constant": false,
      "inputs": [],
      "name": "acceptOwnership",
      "outputs": [],
      "payable": false,
      "stateMutability": "nonpayable",
      "type": "function"
    },
    {
      "constant": false,
      "inputs": [
        {
          "name": "_disable",
          "type": "bool"
        }
      ],
      "name": "disableTokenTransfers",
      "outputs": [],
      "payable": false,
      "stateMutability": "nonpayable",
      "type": "function"
    },
    {
      "constant": true,
      "inputs": [],
      "name": "owner",
      "outputs": [
        {
          "name": "",
          "type": "address"
        }
      ],
      "payable": false,
      "stateMutability": "view",
      "type": "function"
    },
    {
      "constant": true,
      "inputs": [],
      "name": "getQuickBuyPathLength",
      "outputs": [
        {
          "name": "",
          "type": "uint256"
        }
      ],
      "payable": false,
      "stateMutability": "view",
      "type": "function"
    },
    {
      "constant": true,
      "inputs": [],
      "name": "maxConversionFee",
      "outputs": [
        {
          "name": "",
          "type": "uint32"
        }
      ],
      "payable": false,
      "stateMutability": "view",
      "type": "function"
    },
    {
      "constant": true,
      "inputs": [
        {
          "name": "_connectorToken",
          "type": "address"
        },
        {
          "name": "_depositAmount",
          "type": "uint256"
        }
      ],
      "name": "getPurchaseReturn",
      "outputs": [
        {
          "name": "",
          "type": "uint256"
        }
      ],
      "payable": false,
      "stateMutability": "view",
      "type": "function"
    },
    {
      "constant": true,
      "inputs": [],
      "name": "convertibleTokenCount",
      "outputs": [
        {
          "name": "",
          "type": "uint16"
        }
      ],
      "payable": false,
      "stateMutability": "view",
      "type": "function"
    },
    {
      "constant": true,
      "inputs": [],
      "name": "conversionsEnabled",
      "outputs": [
        {
          "name": "",
          "type": "bool"
        }
      ],
      "payable": false,
      "stateMutability": "view",
      "type": "function"
    },
    {
      "constant": false,
      "inputs": [],
      "name": "acceptManagement",
      "outputs": [],
      "payable": false,
      "stateMutability": "nonpayable",
      "type": "function"
    },
    {
      "constant": false,
      "inputs": [
        {
          "name": "_path",
          "type": "address[]"
        }
      ],
      "name": "setQuickBuyPath",
      "outputs": [],
      "payable": false,
      "stateMutability": "nonpayable",
      "type": "function"
    },
    {
      "constant": true,
      "inputs": [],
      "name": "newOwner",
      "outputs": [
        {
          "name": "",
          "type": "address"
        }
      ],
      "payable": false,
      "stateMutability": "view",
      "type": "function"
    },
    {
      "constant": true,
      "inputs": [
        {
          "name": "_connectorToken",
          "type": "address"
        }
      ],
      "name": "getConnectorBalance",
      "outputs": [
        {
          "name": "",
          "type": "uint256"
        }
      ],
      "payable": false,
      "stateMutability": "view",
      "type": "function"
    },
    {
      "constant": false,
      "inputs": [
        {
          "name": "_newManager",
          "type": "address"
        }
      ],
      "name": "transferManagement",
      "outputs": [],
      "payable": false,
      "stateMutability": "nonpayable",
      "type": "function"
    },
    {
      "constant": true,
      "inputs": [
        {
          "name": "",
          "type": "uint256"
        }
      ],
      "name": "quickBuyPath",
      "outputs": [
        {
          "name": "",
          "type": "address"
        }
      ],
      "payable": false,
      "stateMutability": "view",
      "type": "function"
    },
    {
      "constant": false,
      "inputs": [
        {
          "name": "_conversionFee",
          "type": "uint32"
        }
      ],
      "name": "setConversionFee",
      "outputs": [],
      "payable": false,
      "stateMutability": "nonpayable",
      "type": "function"
    },
    {
      "constant": false,
      "inputs": [
        {
          "name": "_path",
          "type": "address[]"
        },
        {
          "name": "_amount",
          "type": "uint256"
        },
        {
          "name": "_minReturn",
          "type": "uint256"
        }
      ],
      "name": "quickConvert",
      "outputs": [
        {
          "name": "",
          "type": "uint256"
        }
      ],
      "payable": true,
      "stateMutability": "payable",
      "type": "function"
    },
    {
      "constant": true,
      "inputs": [
        {
          "name": "_tokenIndex",
          "type": "uint16"
        }
      ],
      "name": "convertibleToken",
      "outputs": [
        {
          "name": "",
          "type": "address"
        }
      ],
      "payable": false,
      "stateMutability": "view",
      "type": "function"
    },
    {
      "constant": false,
      "inputs": [
        {
          "name": "_newOwner",
          "type": "address"
        }
      ],
      "name": "transferOwnership",
      "outputs": [],
      "payable": false,
      "stateMutability": "nonpayable",
      "type": "function"
    },
    {
      "constant": true,
      "inputs": [],
      "name": "token",
      "outputs": [
        {
          "name": "",
          "type": "address"
        }
      ],
      "payable": false,
      "stateMutability": "view",
      "type": "function"
    },
    {
      "inputs": [
        {
          "name": "_token",
          "type": "address"
        },
        {
          "name": "_extensions",
          "type": "address"
        },
        {
          "name": "_core_address",
          "type": "address"
        },
        {
          "name": "_maxConversionFee",
          "type": "uint32"
        },
        {
          "name": "_connectorToken",
          "type": "address"
        },
        {
          "name": "_connectorWeight",
          "type": "uint32"
        }
      ],
      "payable": false,
      "stateMutability": "nonpayable",
      "type": "constructor"
    },
    {
      "payable": true,
      "stateMutability": "payable",
      "type": "fallback"
    },
    {
      "anonymous": false,
      "inputs": [
        {
          "indexed": true,
          "name": "_fromToken",
          "type": "address"
        },
        {
          "indexed": true,
          "name": "_toToken",
          "type": "address"
        },
        {
          "indexed": true,
          "name": "_trader",
          "type": "address"
        },
        {
          "indexed": false,
          "name": "_amount",
          "type": "uint256"
        },
        {
          "indexed": false,
          "name": "_return",
          "type": "uint256"
        },
        {
          "indexed": false,
          "name": "_conversionFee",
          "type": "int256"
        },
        {
          "indexed": false,
          "name": "_currentPriceN",
          "type": "uint256"
        },
        {
          "indexed": false,
          "name": "_currentPriceD",
          "type": "uint256"
        }
      ],
      "name": "Conversion",
      "type": "event"
    },
    {
      "anonymous": false,
      "inputs": [
        {
          "indexed": false,
          "name": "_prevFee",
          "type": "uint32"
        },
        {
          "indexed": false,
          "name": "_newFee",
          "type": "uint32"
        }
      ],
      "name": "ConversionFeeUpdate",
      "type": "event"
    },
    {
      "anonymous": false,
      "inputs": [
        {
          "indexed": true,
          "name": "_prevManager",
          "type": "address"
        },
        {
          "indexed": true,
          "name": "_newManager",
          "type": "address"
        }
      ],
      "name": "ManagerUpdate",
      "type": "event"
    },
    {
      "anonymous": false,
      "inputs": [
        {
          "indexed": true,
          "name": "_prevOwner",
          "type": "address"
        },
        {
          "indexed": true,
          "name": "_newOwner",
          "type": "address"
        }
      ],
      "name": "OwnerUpdate",
      "type": "event"
    }
  ],
  "bytecode": "0x606060405260408051908101604052600381527f302e370000000000000000000000000000000000000000000000000000000000602082015260059080516200004d9291602001906200048a565b506040805190810160405260068082527f62616e636f7200000000000000000000000000000000000000000000000000006020830152908051620000969291602001906200048a565b50600b80546001606860020a0319166c010000000000000000000000001790553415620000c257600080fd5b60405160c08062002e7c83398101604052808051919060200180519190602001805191906020018051919060200180519190602001805160008054600160a060020a03191633600160a060020a0390811691909117909155909250879150869085908590859085908190811615156200013a57600080fd5b5060028054600160a060020a0319908116600160a060020a0393841617909155600380549091163383161790558490811615156200017757600080fd5b8360008163ffffffff1610158015620001995750620f424063ffffffff821611155b1515620001a557600080fd5b60078054600160a060020a031916600160a060020a0388811691909117909155600b805467ffffffff00000000191664010000000063ffffffff89160217905584161562000209576200020984846000640100000000620010656200023d82021704565b5050600c8054600160a060020a031916600160a060020a039a909a1699909917909855506200055b98505050505050505050565b60005433600160a060020a039081169116146200025657fe5b600254600160a060020a033081169116638da5cb5b6040518163ffffffff167c0100000000000000000000000000000000000000000000000000000000028152600401602060405180830381600087803b1515620002b357600080fd5b5af11515620002c157600080fd5b50505060405180519050600160a060020a031614151515620002df57fe5b82600160a060020a0381161515620002f657600080fd5b8330600160a060020a031681600160a060020a0316141515156200031957600080fd5b8360008163ffffffff161180156200033a5750620f424063ffffffff821611155b15156200034657600080fd5b600254600160a060020a038781169116148015906200038b5750600160a060020a0386166000908152600a60205260409020600101546601000000000000900460ff16155b8015620003aa5750600b54620f424063ffffffff918216870190911611155b1515620003b657600080fd5b600160a060020a0386166000908152600a602052604081209081556001908101805466010000000000006501000000000063ffffffff1990921663ffffffff8a161764ff000000001916640100000000891515021765ff000000000019169190911766ff000000000000191617905560088054909181016200043983826200050f565b5060009182526020909120018054600160a060020a031916600160a060020a0397909716969096179095555050600b805463ffffffff19811663ffffffff9182169490940116929092179091555050565b828054600181600116156101000203166002900490600052602060002090601f016020900481019282601f10620004cd57805160ff1916838001178555620004fd565b82800160010185558215620004fd579182015b82811115620004fd578251825591602001919060010190620004e0565b506200050b9291506200053b565b5090565b8154818355818115116200053657600083815260209020620005369181019083016200053b565b505050565b6200055891905b808211156200050b576000815560010162000542565b90565b612911806200056b6000396000f3006060604052600436106101f55763ffffffff60e060020a6000350416630ca78923811461025e5780630e53aae91461029057806319b64015146102eb5780631e1401f81461031d57806321e6b53d14610357578063228d2820146103765780632314aad61461038e57806324f159c2146103ad5780632a3c2c56146103c057806338a5e016146103d65780633e8ff43f146103e95780633f4d2fc21461047357806341a5b33d146104a057806342906029146104c8578063481c6a75146104db5780634e2280c4146104ee578063514385be1461050157806354fd4d5014610525578063579cd3ca146105385780635e35359e146105645780635e5144eb1461058c57806371f52bf3146105b757806372b44b2c146105e157806375892cf11461060357806379ba50971461062e57806385d5e631146106415780638da5cb5b146106595780639396a7f01461066c57806394c275ad1461067f578063a2c4c33614610692578063ba9a8b37146106b4578063bf754558146106c7578063c8c2fe6c146106ee578063d395ee0f14610701578063d4ee1d9014610750578063d895951214610763578063e4edf85214610782578063e7ee85a5146107a1578063ecbca55d146107b7578063f0843ba9146107d3578063f2c8d2471461081e578063f2fde38b14610838578063fc0c546a14610857575b61025b600980548060200260200160405190810160405280929190818152602001828054801561024e57602002820191906000526020600020905b8154600160a060020a03168152600190910190602001808311610230575b505050505034600161086a565b50005b341561026957600080fd5b61028e600160a060020a036004351663ffffffff602435166044351515606435610b59565b005b341561029b57600080fd5b6102af600160a060020a0360043516610c6d565b60405194855263ffffffff90931660208501529015156040808501919091529015156060840152901515608083015260a0909101905180910390f35b34156102f657600080fd5b610301600435610cb3565b604051600160a060020a03909116815260200160405180910390f35b341561032857600080fd5b610345600160a060020a0360043581169060243516604435610cdb565b60405190815260200160405180910390f35b341561036257600080fd5b61028e600160a060020a0360043516610dc3565b341561038157600080fd5b61028e6004351515610e3e565b341561039957600080fd5b61028e600160a060020a0360043516610ea1565b34156103b857600080fd5b610301610f15565b34156103cb57600080fd5b610345600435610f24565b34156103e157600080fd5b61028e610f5e565b34156103f457600080fd5b6103fc610fc7565b60405160208082528190810183818151815260200191508051906020019080838360005b83811015610438578082015183820152602001610420565b50505050905090810190601f1680156104655780820380516001836020036101000a031916815260200191505b509250505060405180910390f35b341561047e57600080fd5b61028e600160a060020a036004351663ffffffff602435166044351515611065565b34156104ab57600080fd5b61028e600160a060020a036004358116906024351660443561128c565b34156104d357600080fd5b61030161131c565b34156104e657600080fd5b61030161132b565b34156104f957600080fd5b61028e61133a565b341561050c57600080fd5b61028e600160a060020a03600435166024351515611362565b341561053057600080fd5b6103fc6113eb565b341561054357600080fd5b61054b611456565b60405163ffffffff909116815260200160405180910390f35b341561056f57600080fd5b61028e600160a060020a036004358116906024351660443561146e565b341561059757600080fd5b610345600160a060020a0360043581169060243516604435606435611547565b34156105c257600080fd5b6105ca61155e565b60405161ffff909116815260200160405180910390f35b34156105ec57600080fd5b610345600160a060020a0360043516602435611565565b341561060e57600080fd5b610345600160a060020a03600435811690602435166044356064356115d2565b341561063957600080fd5b61028e61165c565b341561064c57600080fd5b61028e60043515156116dd565b341561066457600080fd5b61030161173d565b341561067757600080fd5b61034561174c565b341561068a57600080fd5b61054b611752565b341561069d57600080fd5b610345600160a060020a0360043516602435611766565b34156106bf57600080fd5b6105ca6119bb565b34156106d257600080fd5b6106da6119cd565b604051901515815260200160405180910390f35b34156106f957600080fd5b61028e6119e6565b341561070c57600080fd5b61028e6004602481358181019083013580602081810201604051908101604052809392919081815260200183836020028082843750949650611a6795505050505050565b341561075b57600080fd5b610301611aca565b341561076e57600080fd5b610345600160a060020a0360043516611ad9565b341561078d57600080fd5b61028e600160a060020a0360043516611bb5565b34156107ac57600080fd5b610301600435611c0a565b34156107c257600080fd5b61028e63ffffffff60043516611c18565b61034560046024813581810190830135806020818102016040519081016040528093929190818152602001838360200280828437509496505084359460200135935061086a92505050565b341561082957600080fd5b61030161ffff60043516611d0e565b341561084357600080fd5b61028e600160a060020a0360043516611d5e565b341561086257600080fd5b610301611db3565b6000806000856002815111801561088357506015815111155b801561089c57506002815181151561089757fe5b066001145b15156108a757600080fd5b866000815181106108b457fe5b90602001906020020151600754909350600160a060020a031663c31e05476040518163ffffffff1660e060020a028152600401602060405180830381600087803b151561090057600080fd5b5af1151561090d57600080fd5b5050506040518051925050341515610a8757600254600160a060020a0384811691161415610a0757600254600160a060020a031663a24835d1338860405160e060020a63ffffffff8516028152600160a060020a0390921660048301526024820152604401600060405180830381600087803b151561098b57600080fd5b5af1151561099857600080fd5b5050600254600160a060020a0316905063867904b4838860405160e060020a63ffffffff8516028152600160a060020a0390921660048301526024820152604401600060405180830381600087803b15156109f257600080fd5b5af115156109ff57600080fd5b505050610a87565b82600160a060020a03166323b872dd33848960405160e060020a63ffffffff8616028152600160a060020a0393841660048201529190921660248201526044810191909152606401602060405180830381600087803b1515610a6857600080fd5b5af11515610a7557600080fd5b505050604051805190501515610a8757fe5b81600160a060020a031663c98fefed34898989336040518663ffffffff1660e060020a028152600401808060200185815260200184815260200183600160a060020a0316600160a060020a03168152602001828103825286818151815260200191508051906020019060200280838360005b83811015610b11578082015183820152602001610af9565b50505050905001955050505050506020604051808303818588803b1515610b3757600080fd5b5af11515610b4457600080fd5b50505050604051805198975050505050505050565b6000805433600160a060020a03908116911614610b7257fe5b600160a060020a0385166000908152600a602052604090206001015485906601000000000000900460ff161515610ba857600080fd5b8460008163ffffffff16118015610bc85750620f424063ffffffff821611155b1515610bd357600080fd5b600160a060020a0387166000908152600a602052604090206001810154600b54919450620f424063ffffffff918216928216929092038801161115610c1757600080fd5b5050600181018054600b805463ffffffff928316818416038801831663ffffffff199182161790915582549515156401000000000264ff0000000019929097169516949094179390931693909317909155905550565b600a602052600090815260409020805460019091015463ffffffff81169060ff640100000000820481169165010000000000810482169166010000000000009091041685565b6008805482908110610cc157fe5b600091825260209091200154600160a060020a0316905081565b600080600160a060020a038581169085161415610cf757600080fd5b600254600160a060020a0385811691161415610d1e57610d178584611766565b9150610dbb565b600254600160a060020a0386811691161415610d3e57610d178484611565565b610d488584611766565b600254909150610db89085908390610db390600160a060020a03166318160ddd6040518163ffffffff1660e060020a028152600401602060405180830381600087803b1515610d9657600080fd5b5af11515610da357600080fd5b5050506040518051905085611dc2565b611dd1565b91505b509392505050565b60005433600160a060020a03908116911614610ddb57fe5b600254600160a060020a031663f2fde38b8260405160e060020a63ffffffff8416028152600160a060020a039091166004820152602401600060405180830381600087803b1515610e2b57600080fd5b5af11515610e3857600080fd5b50505050565b60005433600160a060020a0390811691161480610e69575060035433600160a060020a039081169116145b1515610e7457600080fd5b600b80546cff000000000000000000000000191691156c0100000000000000000000000002919091179055565b60005433600160a060020a03908116911614610eb957fe5b80600160a060020a0381161515610ecf57600080fd5b8130600160a060020a031681600160a060020a031614151515610ef157600080fd5b505060078054600160a060020a031916600160a060020a0392909216919091179055565b600754600160a060020a031681565b600b54600090620f424090610f4c90849068010000000000000000900463ffffffff16611fbe565b811515610f5557fe5b0490505b919050565b60005433600160a060020a03908116911614610f7657fe5b600254600160a060020a03166379ba50976040518163ffffffff1660e060020a028152600401600060405180830381600087803b1515610fb557600080fd5b5af11515610fc257600080fd5b505050565b60068054600181600116156101000203166002900480601f01602080910402602001604051908101604052809291908181526020018280546001816001161561010002031660029004801561105d5780601f106110325761010080835404028352916020019161105d565b820191906000526020600020905b81548152906001019060200180831161104057829003601f168201915b505050505081565b60005433600160a060020a0390811691161461107d57fe5b600254600160a060020a033081169116638da5cb5b6040518163ffffffff1660e060020a028152600401602060405180830381600087803b15156110c057600080fd5b5af115156110cd57600080fd5b50505060405180519050600160a060020a0316141515156110ea57fe5b82600160a060020a038116151561110057600080fd5b8330600160a060020a031681600160a060020a03161415151561112257600080fd5b8360008163ffffffff161180156111425750620f424063ffffffff821611155b151561114d57600080fd5b600254600160a060020a038781169116148015906111915750600160a060020a0386166000908152600a60205260409020600101546601000000000000900460ff16155b80156111af5750600b54620f424063ffffffff918216870190911611155b15156111ba57600080fd5b600160a060020a0386166000908152600a602052604081209081556001908101805466010000000000006501000000000063ffffffff1990921663ffffffff8a161764ff000000001916640100000000891515021765ff000000000019169190911766ff0000000000001916179055600880549091810161123b838261281c565b5060009182526020909120018054600160a060020a031916600160a060020a0397909716969096179095555050600b805463ffffffff19811663ffffffff9182169490940116929092179091555050565b60005433600160a060020a039081169116146112a457fe5b600254600160a060020a0316635e35359e84848460405160e060020a63ffffffff8616028152600160a060020a0393841660048201529190921660248201526044810191909152606401600060405180830381600087803b151561130757600080fd5b5af1151561131457600080fd5b505050505050565b600454600160a060020a031681565b600354600160a060020a031681565b60005433600160a060020a0390811691161461135257fe5b600061135f60098261281c565b50565b60005433600160a060020a0390811691161461137a57fe5b600160a060020a0382166000908152600a602052604090206001015482906601000000000000900460ff1615156113b057600080fd5b50600160a060020a03919091166000908152600a60205260409020600101805465ff0000000000191691156501000000000002919091179055565b60058054600181600116156101000203166002900480601f01602080910402602001604051908101604052809291908181526020018280546001816001161561010002031660029004801561105d5780601f106110325761010080835404028352916020019161105d565b600b5468010000000000000000900463ffffffff1681565b60005433600160a060020a0390811691161461148657fe5b82600160a060020a038116151561149c57600080fd5b82600160a060020a03811615156114b257600080fd5b8330600160a060020a031681600160a060020a0316141515156114d457600080fd5b85600160a060020a031663a9059cbb868660405160e060020a63ffffffff8516028152600160a060020a0390921660048301526024820152604401602060405180830381600087803b151561152857600080fd5b5af1151561153557600080fd5b50505060405180519050151561131457fe5b6000611555858585856115d2565b95945050505050565b6008545b90565b6002546000906115cb9084908490600160a060020a03166318160ddd6040518163ffffffff1660e060020a028152600401602060405180830381600087803b15156115af57600080fd5b5af115156115bc57600080fd5b50505060405180519050611dd1565b9392505050565b600080600160a060020a0386811690861614156115ee57600080fd5b600254600160a060020a03868116911614156116165761160f868585611fe2565b9150611653565b600254600160a060020a03878116911614156116375761160f858585612222565b61164386856001611fe2565b9050611650858285612222565b91505b50949350505050565b60015433600160a060020a0390811691161461167757600080fd5b600154600054600160a060020a0391821691167f343765429aea5a34b3ff6a3785a98a5abb2597aca87bfbb58632c173d585373a60405160405180910390a36001805460008054600160a060020a0319908116600160a060020a03841617909155169055565b60005433600160a060020a039081169116146116f557fe5b600254600160a060020a0316631608f18f8260405160e060020a63ffffffff84160281529015156004820152602401600060405180830381600087803b1515610e2b57600080fd5b600054600160a060020a031681565b60095490565b600b54640100000000900463ffffffff1681565b60025460009081908190819081908190600160a060020a033081169116638da5cb5b6040518163ffffffff1660e060020a028152600401602060405180830381600087803b15156117b657600080fd5b5af115156117c357600080fd5b50505060405180519050600160a060020a03161415156117df57fe5b600160a060020a0388166000908152600a602052604090206001015488906601000000000000900460ff16151561181557600080fd5b600160a060020a0389166000908152600a60205260409020600181015490965065010000000000900460ff16151561184c57600080fd5b600254600160a060020a03166318160ddd6040518163ffffffff1660e060020a028152600401602060405180830381600087803b151561188b57600080fd5b5af1151561189857600080fd5b5050506040518051905094506118ad89611ad9565b600754909450600160a060020a0316634b75f54f6040518163ffffffff1660e060020a028152600401602060405180830381600087803b15156118ef57600080fd5b5af115156118fc57600080fd5b50505060405180516001880154600160a060020a0390911691506329a00e7c908790879063ffffffff168c6040518563ffffffff1660e060020a028152600401808581526020018481526020018363ffffffff1663ffffffff168152602001828152602001945050505050602060405180830381600087803b151561198057600080fd5b5af1151561198d57600080fd5b5050506040518051905092506119a283610f24565b91506119ae838361254f565b9998505050505050505050565b60006119c561155e565b600101905090565b600b546c01000000000000000000000000900460ff1681565b60045433600160a060020a03908116911614611a0157600080fd5b600454600354600160a060020a0391821691167fbe4cc281795971a471c980e842627a7f1ea3892ddfce8c5b6357cd2611c1973260405160405180910390a36004805460038054600160a060020a0319908116600160a060020a03841617909155169055565b60005433600160a060020a03908116911614611a7f57fe5b8060028151118015611a9357506015815111155b8015611aac575060028151811515611aa757fe5b066001145b1515611ab757600080fd5b6009828051610fc2929160200190612840565b600154600160a060020a031681565b600160a060020a0381166000908152600a6020526040812060010154819083906601000000000000900460ff161515611b1157600080fd5b600160a060020a0384166000908152600a602052604090206001810154909250640100000000900460ff16611baa5783600160a060020a03166370a082313060405160e060020a63ffffffff8416028152600160a060020a039091166004820152602401602060405180830381600087803b1515611b8e57600080fd5b5af11515611b9b57600080fd5b50505060405180519050611bad565b81545b949350505050565b60035433600160a060020a03908116911614611bcd57fe5b600354600160a060020a0382811691161415611be857600080fd5b60048054600160a060020a031916600160a060020a0392909216919091179055565b6009805482908110610cc157fe5b60005433600160a060020a0390811691161480611c43575060035433600160a060020a039081169116145b1515611c4e57600080fd5b8060008163ffffffff1610158015611c7a5750600b5463ffffffff640100000000909104811690821611155b1515611c8557600080fd5b600b547f81cd2ffb37dd237c0e4e2a3de5265fcf9deb43d3e7801e80db9f1ccfba7ee6009068010000000000000000900463ffffffff168360405163ffffffff9283168152911660208201526040908101905180910390a150600b805463ffffffff90921668010000000000000000026bffffffff000000000000000019909216919091179055565b600061ffff82161515611d2d5750600254600160a060020a0316610f59565b6008805461ffff600019850116908110611d4357fe5b600091825260209091200154600160a060020a031692915050565b60005433600160a060020a03908116911614611d7657fe5b600054600160a060020a0382811691161415611d9157600080fd5b60018054600160a060020a031916600160a060020a0392909216919091179055565b600254600160a060020a031681565b6000828201838110156115cb57fe5b6002546000908190819081908190600160a060020a033081169116638da5cb5b6040518163ffffffff1660e060020a028152600401602060405180830381600087803b1515611e1f57600080fd5b5af11515611e2c57600080fd5b50505060405180519050600160a060020a0316141515611e4857fe5b600160a060020a0388166000908152600a602052604090206001015488906601000000000000900460ff161515611e7e57600080fd5b8660008111611e8c57600080fd5b600160a060020a038a166000908152600a602052604090209550611eaf8a611ad9565b600754909550600160a060020a0316634b75f54f6040518163ffffffff1660e060020a028152600401602060405180830381600087803b1515611ef157600080fd5b5af11515611efe57600080fd5b50505060405180516001880154600160a060020a0390911691506349f9b0f7908a90889063ffffffff168d6040518563ffffffff1660e060020a028152600401808581526020018481526020018363ffffffff1663ffffffff168152602001828152602001945050505050602060405180830381600087803b1515611f8257600080fd5b5af11515611f8f57600080fd5b505050604051805190509350611fa484610f24565b9250611fb0848461254f565b9a9950505050505050505050565b6000828202831580611fda5750828482811515611fd757fe5b04145b15156115cb57fe5b6000806000600b600c9054906101000a900460ff161515611fff57fe5b600754600160a060020a031663961a929c6040518163ffffffff1660e060020a028152600401602060405180830381600087803b151561203e57600080fd5b5af1151561204b57600080fd5b50505060405180519050600160a060020a031663fe173b976040518163ffffffff1660e060020a028152600401602060405180830381600087803b151561209157600080fd5b5af1151561209e57600080fd5b50505060405180513a111590506120b157fe5b83600081116120bf57600080fd5b6120c98787611766565b925082158015906120da5750848310155b15156120e557600080fd5b600160a060020a0387166000908152600a602052604090206001810154909250640100000000900460ff16156121245781546121219087611dc2565b82555b86600160a060020a03166323b872dd33308960405160e060020a63ffffffff8616028152600160a060020a0393841660048201529190921660248201526044810191909152606401602060405180830381600087803b151561218557600080fd5b5af1151561219257600080fd5b5050506040518051905015156121a457fe5b600254600160a060020a031663867904b4338560405160e060020a63ffffffff8516028152600160a060020a0390921660048301526024820152604401600060405180830381600087803b15156121fa57600080fd5b5af1151561220757600080fd5b5050506122178787856001612561565b509095945050505050565b6000806000806000600b600c9054906101000a900460ff16151561224257fe5b600754600160a060020a031663961a929c6040518163ffffffff1660e060020a028152600401602060405180830381600087803b151561228157600080fd5b5af1151561228e57600080fd5b50505060405180519050600160a060020a031663fe173b976040518163ffffffff1660e060020a028152600401602060405180830381600087803b15156122d457600080fd5b5af115156122e157600080fd5b50505060405180513a111590506122f457fe5b856000811161230257600080fd5b600254600160a060020a03166370a082313360405160e060020a63ffffffff8416028152600160a060020a039091166004820152602401602060405180830381600087803b151561235257600080fd5b5af1151561235f57600080fd5b5050506040518051891115905061237557600080fd5b61237f8989611565565b945084158015906123905750868510155b151561239b57600080fd5b600254600160a060020a03166318160ddd6040518163ffffffff1660e060020a028152600401602060405180830381600087803b15156123da57600080fd5b5af115156123e757600080fd5b5050506040518051905093506123fc89611ad9565b9250828510806124155750828514801561241557508388145b151561241d57fe5b600160a060020a0389166000908152600a602052604090206001810154909250640100000000900460ff161561245c578154612459908661254f565b82555b600254600160a060020a031663a24835d1338a60405160e060020a63ffffffff8516028152600160a060020a0390921660048301526024820152604401600060405180830381600087803b15156124b257600080fd5b5af115156124bf57600080fd5b50505088600160a060020a031663a9059cbb338760405160e060020a63ffffffff8516028152600160a060020a0390921660048301526024820152604401602060405180830381600087803b151561251657600080fd5b5af1151561252357600080fd5b50505060405180519050151561253557fe5b6125428989876000612561565b5092979650505050505050565b60008183101561255b57fe5b50900390565b600160a060020a0384166000908152600a60205260408120908080808061259361258a8b611ad9565b620f4240611fbe565b60025490955061260190600160a060020a03166318160ddd6040518163ffffffff1660e060020a028152600401602060405180830381600087803b15156125d957600080fd5b5af115156125e657600080fd5b5050506040518051600189015490915063ffffffff16611fbe565b600254909450600160a060020a031663313ce5676040518163ffffffff1660e060020a028152600401602060405180830381600087803b151561264357600080fd5b5af1151561265057600080fd5b5050506040518051935050600160a060020a038a1663313ce5676040518163ffffffff1660e060020a028152600401602060405180830381600087803b151561269857600080fd5b5af115156126a557600080fd5b505050604051805192505060ff838116908316146126f9578160ff168360ff1611156126e4576126dd8583850360ff16600a0a611fbe565b94506126f9565b6126f68484840360ff16600a0a611fbe565b93505b61270288610f24565b90507f800000000000000000000000000000000000000000000000000000000000000081111561272e57fe5b86156127a457600254600160a060020a03338116918116908c167fcee13e282037fd063de72c4cf7955988112510b046cda38c12c47862c1785e7b8c8c868b8b604051808681526020018581526020018481526020018381526020018281526020019550505050505060405180910390a4612810565b600254600160a060020a03338116918c821691167fcee13e282037fd063de72c4cf7955988112510b046cda38c12c47862c1785e7b8c8c868a8c604051808681526020018581526020018481526020018381526020018281526020019550505050505060405180910390a45b50505050505050505050565b815481835581811511610fc257600083815260209020610fc29181019083016128a7565b828054828255906000526020600020908101928215612897579160200282015b828111156128975782518254600160a060020a031916600160a060020a039190911617825560209290920191600190910190612860565b506128a39291506128c1565b5090565b61156291905b808211156128a357600081556001016128ad565b61156291905b808211156128a3578054600160a060020a03191681556001016128c75600a165627a7a723058206354ca05b4ec4f02904b8eb37a1f389fbb977389c9caca42adc193d6389c8bdc0029",
  "source": "pragma solidity ^0.4.18;\nimport './BancorConverter.sol';\nimport './interfaces/IFinancieCore.sol';\n\ncontract FinancieBancorConverter is BancorConverter {\n\n    IFinancieCore core;\n\n    /**\n        @dev constructor\n\n        @param  _token              smart token governed by the converter\n        @param  _extensions         address of a bancor converter extensions contract\n        @param  _maxConversionFee   maximum conversion fee, represented in ppm\n        @param  _connectorToken     optional, initial connector, allows defining the first connector at deployment time\n        @param  _connectorWeight    optional, weight for the initial connector\n    */\n    function FinancieBancorConverter(ISmartToken _token, IBancorConverterExtensions _extensions, address _core_address, uint32 _maxConversionFee, IERC20Token _connectorToken, uint32 _connectorWeight)\n        public\n        BancorConverter(_token, _extensions, _maxConversionFee, _connectorToken, _connectorWeight)\n    {\n        core = IFinancieCore(_core_address);\n    }\n\n}\n",
  "sourcePath": "/Users/rudo/contracts/solidity/contracts/FinancieBancorConverter.sol",
  "compiler": {
    "name": "solc",
    "version": "0.4.21+commit.dfe3193c.Emscripten.clang"
  },
  "schemaVersion": "2.0.0",
  "updatedAt": "2018-06-27T09:04:30.141Z"
}