{
  "contractName": "FinancieCore",
  "abi": [
    {
      "constant": false,
      "inputs": [],
      "name": "acceptOwnership",
      "outputs": [],
      "payable": false,
      "stateMutability": "nonpayable",
      "type": "function"
    },
    {
      "constant": true,
      "inputs": [],
      "name": "owner",
      "outputs": [
        {
          "name": "",
          "type": "address"
        }
      ],
      "payable": false,
      "stateMutability": "view",
      "type": "function"
    },
    {
      "constant": true,
      "inputs": [],
      "name": "newOwner",
      "outputs": [
        {
          "name": "",
          "type": "address"
        }
      ],
      "payable": false,
      "stateMutability": "view",
      "type": "function"
    },
    {
      "constant": false,
      "inputs": [
        {
          "name": "_newOwner",
          "type": "address"
        }
      ],
      "name": "transferOwnership",
      "outputs": [],
      "payable": false,
      "stateMutability": "nonpayable",
      "type": "function"
    },
    {
      "inputs": [
        {
          "name": "_pf_token",
          "type": "address"
        },
        {
          "name": "_ether_token",
          "type": "address"
        }
      ],
      "payable": false,
      "stateMutability": "nonpayable",
      "type": "constructor"
    },
    {
      "payable": true,
      "stateMutability": "payable",
      "type": "fallback"
    },
    {
      "anonymous": false,
      "inputs": [
        {
          "indexed": false,
          "name": "_sender",
          "type": "address"
        },
        {
          "indexed": false,
          "name": "_userId",
          "type": "uint32"
        }
      ],
      "name": "ActivateUser",
      "type": "event"
    },
    {
      "anonymous": false,
      "inputs": [
        {
          "indexed": false,
          "name": "_sender",
          "type": "address"
        },
        {
          "indexed": false,
          "name": "_from",
          "type": "address"
        },
        {
          "indexed": false,
          "name": "_to",
          "type": "address"
        },
        {
          "indexed": false,
          "name": "_amountFrom",
          "type": "uint256"
        },
        {
          "indexed": false,
          "name": "_amountTo",
          "type": "uint256"
        }
      ],
      "name": "ConvertCards",
      "type": "event"
    },
    {
      "anonymous": false,
      "inputs": [
        {
          "indexed": false,
          "name": "_sender",
          "type": "address"
        },
        {
          "indexed": false,
          "name": "_to",
          "type": "address"
        },
        {
          "indexed": false,
          "name": "_amount",
          "type": "uint256"
        }
      ],
      "name": "BidCards",
      "type": "event"
    },
    {
      "anonymous": false,
      "inputs": [
        {
          "indexed": false,
          "name": "_sender",
          "type": "address"
        },
        {
          "indexed": false,
          "name": "_to",
          "type": "address"
        },
        {
          "indexed": false,
          "name": "_amount",
          "type": "uint256"
        }
      ],
      "name": "WithdrawalCards",
      "type": "event"
    },
    {
      "anonymous": false,
      "inputs": [
        {
          "indexed": false,
          "name": "_sender",
          "type": "address"
        },
        {
          "indexed": false,
          "name": "_card",
          "type": "address"
        },
        {
          "indexed": false,
          "name": "_amount",
          "type": "uint256"
        }
      ],
      "name": "BurnCards",
      "type": "event"
    },
    {
      "anonymous": false,
      "inputs": [
        {
          "indexed": false,
          "name": "_sender",
          "type": "address"
        },
        {
          "indexed": false,
          "name": "_ticket",
          "type": "address"
        },
        {
          "indexed": false,
          "name": "_amount",
          "type": "uint256"
        }
      ],
      "name": "BurnTickets",
      "type": "event"
    },
    {
      "anonymous": false,
      "inputs": [
        {
          "indexed": false,
          "name": "_sender",
          "type": "address"
        },
        {
          "indexed": false,
          "name": "_issuer",
          "type": "address"
        },
        {
          "indexed": false,
          "name": "_ticket",
          "type": "address"
        },
        {
          "indexed": false,
          "name": "_card",
          "type": "address"
        },
        {
          "indexed": false,
          "name": "_amount",
          "type": "uint256"
        },
        {
          "indexed": false,
          "name": "_price",
          "type": "uint256"
        }
      ],
      "name": "DepositTickets",
      "type": "event"
    },
    {
      "anonymous": false,
      "inputs": [
        {
          "indexed": false,
          "name": "_sender",
          "type": "address"
        },
        {
          "indexed": false,
          "name": "_issuer",
          "type": "address"
        },
        {
          "indexed": false,
          "name": "_ticket",
          "type": "address"
        }
      ],
      "name": "BuyTicket",
      "type": "event"
    },
    {
      "anonymous": false,
      "inputs": [
        {
          "indexed": true,
          "name": "_prevOwner",
          "type": "address"
        },
        {
          "indexed": true,
          "name": "_newOwner",
          "type": "address"
        }
      ],
      "name": "OwnerUpdate",
      "type": "event"
    },
    {
      "constant": false,
      "inputs": [
        {
          "name": "_log",
          "type": "address"
        }
      ],
      "name": "setFinancieLog",
      "outputs": [],
      "payable": false,
      "stateMutability": "nonpayable",
      "type": "function"
    },
    {
      "constant": false,
      "inputs": [
        {
          "name": "_userId",
          "type": "uint32"
        }
      ],
      "name": "activateUser",
      "outputs": [],
      "payable": false,
      "stateMutability": "nonpayable",
      "type": "function"
    },
    {
      "constant": false,
      "inputs": [
        {
          "name": "_contract",
          "type": "address"
        },
        {
          "name": "_enabled",
          "type": "bool"
        }
      ],
      "name": "activateTargetContract",
      "outputs": [],
      "payable": false,
      "stateMutability": "nonpayable",
      "type": "function"
    },
    {
      "constant": false,
      "inputs": [
        {
          "name": "_sender",
          "type": "address"
        },
        {
          "name": "_from",
          "type": "address"
        },
        {
          "name": "_to",
          "type": "address"
        },
        {
          "name": "_amountFrom",
          "type": "uint256"
        },
        {
          "name": "_amountTo",
          "type": "uint256"
        }
      ],
      "name": "notifyConvertCards",
      "outputs": [],
      "payable": false,
      "stateMutability": "nonpayable",
      "type": "function"
    },
    {
      "constant": false,
      "inputs": [
        {
          "name": "_sender",
          "type": "address"
        },
        {
          "name": "_to",
          "type": "address"
        },
        {
          "name": "_amount",
          "type": "uint256"
        }
      ],
      "name": "notifyBidCards",
      "outputs": [],
      "payable": false,
      "stateMutability": "nonpayable",
      "type": "function"
    },
    {
      "constant": false,
      "inputs": [
        {
          "name": "_sender",
          "type": "address"
        },
        {
          "name": "_to",
          "type": "address"
        },
        {
          "name": "_amount",
          "type": "uint256"
        }
      ],
      "name": "notifyWithdrawalCards",
      "outputs": [],
      "payable": false,
      "stateMutability": "nonpayable",
      "type": "function"
    },
    {
      "constant": false,
      "inputs": [
        {
          "name": "_sender",
          "type": "address"
        },
        {
          "name": "_card",
          "type": "address"
        },
        {
          "name": "_amount",
          "type": "uint256"
        }
      ],
      "name": "notifyBurnCards",
      "outputs": [],
      "payable": false,
      "stateMutability": "nonpayable",
      "type": "function"
    },
    {
      "constant": false,
      "inputs": [
        {
          "name": "_sender",
          "type": "address"
        },
        {
          "name": "_ticket",
          "type": "address"
        },
        {
          "name": "_amount",
          "type": "uint256"
        }
      ],
      "name": "notifyBurnTickets",
      "outputs": [],
      "payable": false,
      "stateMutability": "nonpayable",
      "type": "function"
    },
    {
      "constant": false,
      "inputs": [
        {
          "name": "_ticket",
          "type": "address"
        },
        {
          "name": "_card",
          "type": "address"
        },
        {
          "name": "_amount",
          "type": "uint256"
        },
        {
          "name": "_price",
          "type": "uint256"
        }
      ],
      "name": "depositTickets",
      "outputs": [],
      "payable": false,
      "stateMutability": "nonpayable",
      "type": "function"
    },
    {
      "constant": false,
      "inputs": [
        {
          "name": "_ticket",
          "type": "address"
        }
      ],
      "name": "getTicketPrice",
      "outputs": [
        {
          "name": "",
          "type": "uint256"
        }
      ],
      "payable": false,
      "stateMutability": "nonpayable",
      "type": "function"
    },
    {
      "constant": false,
      "inputs": [
        {
          "name": "_ticket",
          "type": "address"
        }
      ],
      "name": "getTicketStock",
      "outputs": [
        {
          "name": "",
          "type": "uint256"
        }
      ],
      "payable": false,
      "stateMutability": "nonpayable",
      "type": "function"
    },
    {
      "constant": false,
      "inputs": [
        {
          "name": "_ticket",
          "type": "address"
        }
      ],
      "name": "getTicketCurrency",
      "outputs": [
        {
          "name": "",
          "type": "address"
        }
      ],
      "payable": false,
      "stateMutability": "nonpayable",
      "type": "function"
    },
    {
      "constant": false,
      "inputs": [
        {
          "name": "_ticket",
          "type": "address"
        }
      ],
      "name": "buyTicket",
      "outputs": [],
      "payable": false,
      "stateMutability": "nonpayable",
      "type": "function"
    },
    {
      "constant": false,
      "inputs": [
        {
          "name": "_sender",
          "type": "address"
        },
        {
          "name": "_userId",
          "type": "uint32"
        }
      ],
      "name": "checkUserActivation",
      "outputs": [
        {
          "name": "",
          "type": "bool"
        }
      ],
      "payable": false,
      "stateMutability": "nonpayable",
      "type": "function"
    },
    {
      "constant": false,
      "inputs": [
        {
          "name": "_sender",
          "type": "address"
        }
      ],
      "name": "getCardList",
      "outputs": [
        {
          "name": "",
          "type": "address[]"
        }
      ],
      "payable": false,
      "stateMutability": "nonpayable",
      "type": "function"
    },
    {
      "constant": false,
      "inputs": [
        {
          "name": "_sender",
          "type": "address"
        }
      ],
      "name": "getTicketList",
      "outputs": [
        {
          "name": "",
          "type": "address[]"
        }
      ],
      "payable": false,
      "stateMutability": "nonpayable",
      "type": "function"
    },
    {
      "constant": false,
      "inputs": [
        {
          "name": "_sender",
          "type": "address"
        },
        {
          "name": "_ticket",
          "type": "address"
        }
      ],
      "name": "getPaidTicketCounts",
      "outputs": [
        {
          "name": "",
          "type": "uint256"
        }
      ],
      "payable": false,
      "stateMutability": "nonpayable",
      "type": "function"
    }
  ],
  "bytecode": "0x6060604052341561000f57600080fd5b604051604080611758833981016040528080519190602001805160008054600160a060020a03338116600160a060020a0319928316179092556009805496831696821696909617909555600a80549190921694169390931790925550506116dd8061007b6000396000f3006060604052600436106101035763ffffffff60e060020a600035041663104ce37081146101d45780631bed7233146102465780631c1b603214610267578063217498411461029e578063419fad31146102bd57806346c88185146102e55780635856406f146103215780635fb2b2d6146103495780636b6e11eb1461037157806379ba50971461038d57806381b92e5d146103a057806381de1be4146103bf5780638322ada6146103ea578063835055561461040e5780638da5cb5b14610436578063a5f8cdbb14610465578063c2999e1c14610484578063cc71e05f146104b5578063d4ee1d90146104d4578063f2fde38b146104e7578063fdbafc6d14610506575b600061012d61011d620186a0670de0b6b3a7640000610525565b670de0b6b3a76400003404610525565b600954909150600160a060020a031663a9059cbb338360405160e060020a63ffffffff8516028152600160a060020a0390921660048301526024820152604401602060405180830381600087803b151561018657600080fd5b5af1151561019357600080fd5b50505060405180515050600054600160a060020a03163480156108fc0290604051600060405180830381858888f1935050505015156101d157600080fd5b50005b34156101df57600080fd5b6101f3600160a060020a0360043516610550565b60405160208082528190810183818151815260200191508051906020019060200280838360005b8381101561023257808201518382015260200161021a565b505050509050019250505060405180910390f35b341561025157600080fd5b610265600160a060020a03600435166105dd565b005b341561027257600080fd5b61028c600160a060020a036004358116906024351661065d565b60405190815260200160405180910390f35b34156102a957600080fd5b61028c600160a060020a0360043516610688565b34156102c857600080fd5b610265600160a060020a03600435811690602435166044356106f6565b34156102f057600080fd5b61030d600160a060020a036004351663ffffffff602435166107fb565b604051901515815260200160405180910390f35b341561032c57600080fd5b610265600160a060020a0360043581169060243516604435610824565b341561035457600080fd5b610265600160a060020a0360043581169060243516604435610970565b341561037c57600080fd5b61026563ffffffff60043516610adc565b341561039857600080fd5b610265610b6c565b34156103ab57600080fd5b61028c600160a060020a0360043516610bed565b34156103ca57600080fd5b610265600160a060020a0360043581169060243516604435606435610c0b565b34156103f557600080fd5b610265600160a060020a03600435166024351515610f4c565b341561041957600080fd5b610265600160a060020a0360043581169060243516604435610f8e565b341561044157600080fd5b6104496110fa565b604051600160a060020a03909116815260200160405180910390f35b341561047057600080fd5b610265600160a060020a0360043516611109565b341561048f57600080fd5b610265600160a060020a03600435811690602435811690604435166064356084356113ec565b34156104c057600080fd5b6101f3600160a060020a0360043516611455565b34156104df57600080fd5b6104496114e0565b34156104f257600080fd5b610265600160a060020a03600435166114ef565b341561051157600080fd5b610449600160a060020a0360043516611544565b6000828202831580610541575082848281151561053e57fe5b04145b151561054957fe5b9392505050565b610558611655565b6004600083600160a060020a0316600160a060020a031681526020019081526020016000208054806020026020016040519081016040528092919081815260200182805480156105d157602002820191906000526020600020905b8154600160a060020a031681526001909101906020018083116105b3575b50505050509050919050565b60005433600160a060020a039081169116146105f557fe5b60088054600160a060020a031916600160a060020a038381169190911791829055166379ba50976040518163ffffffff1660e060020a028152600401600060405180830381600087803b151561064a57600080fd5b5af1151561065757600080fd5b50505050565b600160a060020a03918216600090815260066020908152604080832093909416825291909152205490565b600081600160a060020a0381166370a082313060405160e060020a63ffffffff8416028152600160a060020a039091166004820152602401602060405180830381600087803b15156106d957600080fd5b5af115156106e657600080fd5b5050506040518051949350505050565b33600160a060020a03811660009081526003602052604090205460ff16151561071e57600080fd5b600160a060020a038316600090815260036020526040902054839060ff16151561074757600080fd5b600160a060020a038085166000908152600660209081526040808320938916835292905220546107779084611565565b600160a060020a038086166000908152600660209081526040808320938a168352929052819020919091557fd22f30fd6177f48e98aaacc43c0c6cdbc2d60e111f649402a61ef93ca70e8c809086908690869051600160a060020a039384168152919092166020820152604080820192909252606001905180910390a15050505050565b600160a060020a039190911660009081526002602052604090205463ffffffff91821691161490565b33600160a060020a03811660009081526003602052604090205460ff16151561084c57600080fd5b6108568484611574565b600854600160a060020a031663e1f32e4b85600160008781886040518763ffffffff1660e060020a0281526004018087600160a060020a0316600160a060020a031681526020018660048111156108a957fe5b60ff1681526020018560028111156108bd57fe5b60ff16815260200184600160a060020a0316600160a060020a031681526020018381526020018281526020019650505050505050600060405180830381600087803b151561090a57600080fd5b5af1151561091757600080fd5b5050507f951f62fdb2b2c1034a86704ee841425b61d668745c89b08bd55614b98256ebd9848484604051600160a060020a039384168152919092166020820152604080820192909252606001905180910390a150505050565b33600160a060020a03811660009081526003602052604090205460ff16151561099857600080fd5b600160a060020a038316600090815260036020526040902054839060ff1615156109c157600080fd5b600854600160a060020a031663e1f32e4b86600460008888826040518763ffffffff1660e060020a0281526004018087600160a060020a0316600160a060020a03168152602001866004811115610a1457fe5b60ff168152602001856002811115610a2857fe5b60ff16815260200184600160a060020a0316600160a060020a031681526020018381526020018281526020019650505050505050600060405180830381600087803b1515610a7557600080fd5b5af11515610a8257600080fd5b5050507f7b2723af1ee619ec1b72fa392eed7e1f57f77f8502af17ef025d8812c8968a28338585604051600160a060020a039384168152919092166020820152604080820192909252606001905180910390a15050505050565b63ffffffff811660008111610af057600080fd5b33600160a060020a03811660009081526002602052604090819020805463ffffffff191663ffffffff86161790557f521af0a0249f35bba732c43f3da0a51cac168a51b339f7db9d24ddcab5082aa59190849051600160a060020a03909216825263ffffffff1660208201526040908101905180910390a15050565b60015433600160a060020a03908116911614610b8757600080fd5b600154600054600160a060020a0391821691167f343765429aea5a34b3ff6a3785a98a5abb2597aca87bfbb58632c173d585373a60405160405180910390a36001805460008054600160a060020a0319908116600160a060020a03841617909155169055565b600160a060020a031660009081526007602052604090206002015490565b600160a060020a0384166000908152600360205260408120548190869060ff161515610c3657600080fd5b600160a060020a038616600090815260036020526040902054869060ff161515610c5f57600080fd5b60008611610c6c57600080fd5b60008511610c7957600080fd5b87935083600160a060020a031663525564216040518163ffffffff1660e060020a028152600401602060405180830381600087803b1515610cb957600080fd5b5af11515610cc657600080fd5b50505060405180519050600160a060020a031633600160a060020a03161480610cfd575060005433600160a060020a039081169116145b1515610d0857600080fd5b87925082600160a060020a03166323b872dd33308960405160e060020a63ffffffff8616028152600160a060020a0393841660048201529190921660248201526044810191909152606401602060405180830381600087803b1515610d6c57600080fd5b5af11515610d7957600080fd5b505050604051805190501515610d8b57fe5b60606040519081016040528085600160a060020a031663525564216040518163ffffffff1660e060020a028152600401602060405180830381600087803b1515610dd457600080fd5b5af11515610de157600080fd5b50505060405180519050600160a060020a0316815260200188600160a060020a0316815260200186815250600760008a600160a060020a0316600160a060020a0316815260200190815260200160002060008201518154600160a060020a031916600160a060020a03919091161781556020820151600182018054600160a060020a031916600160a060020a03929092169190911790556040820151600290910155507f3d66a0e1ad04a8bb3d5889531834ed5f9ffec357833e1606da8335f55262ca2f33600160a060020a03861663525564216040518163ffffffff1660e060020a028152600401602060405180830381600087803b1515610ee357600080fd5b5af11515610ef057600080fd5b505050604051805190508a8a8a8a604051600160a060020a0396871681529486166020860152928516604080860191909152919094166060840152608083019390935260a082015260c001905180910390a15050505050505050565b81600160a060020a0381161515610f6257600080fd5b50600160a060020a03919091166000908152600360205260409020805460ff1916911515919091179055565b33600160a060020a03811660009081526003602052604090205460ff161515610fb657600080fd5b600160a060020a038316600090815260036020526040902054839060ff161515610fdf57600080fd5b600854600160a060020a031663e1f32e4b86600060028888836040518763ffffffff1660e060020a0281526004018087600160a060020a0316600160a060020a0316815260200186600481111561103257fe5b60ff16815260200185600281111561104657fe5b60ff16815260200184600160a060020a0316600160a060020a031681526020018381526020018281526020019650505050505050600060405180830381600087803b151561109357600080fd5b5af115156110a057600080fd5b5050507fc886a3a2d2ea072b87ccf7950a659fed5abbf41d8da895c6019581c7212a2082858585604051600160a060020a039384168152919092166020820152604080820192909252606001905180910390a15050505050565b600054600160a060020a031681565b600160a060020a0380821660009081526007602052604080822060018101546002820154919416929182919084906370a082319033905160e060020a63ffffffff8416028152600160a060020a039091166004820152602401602060405180830381600087803b151561117b57600080fd5b5af1151561118857600080fd5b505050604051805190501015151561119f57600080fd5b60018401546002850154600160a060020a03909116925082906379cc679090339060405160e060020a63ffffffff8516028152600160a060020a0390921660048301526024820152604401600060405180830381600087803b151561120357600080fd5b5af1151561121057600080fd5b505050600160a060020a033316600090815260056020526040902080546001810161123b8382611667565b5060009182526020909120018054600160a060020a031916600160a060020a0387169081179091558591506001906370a082313060405160e060020a63ffffffff8416028152600160a060020a039091166004820152602401602060405180830381600087803b15156112ad57600080fd5b5af115156112ba57600080fd5b50505060405180519050101515156112d157600080fd5b80600160a060020a031663a9059cbb33600160405160e060020a63ffffffff8516028152600160a060020a0390921660048301526024820152604401602060405180830381600087803b151561132657600080fd5b5af1151561133357600080fd5b50505060405180519050507fdf4e36eae137238a5fda886d6d383f8783871527b187035edd403eea814089873383600160a060020a031663525564216040518163ffffffff1660e060020a028152600401602060405180830381600087803b151561139d57600080fd5b5af115156113aa57600080fd5b5050506040518051905087604051600160a060020a03938416815291831660208301529091166040808301919091526060909101905180910390a15050505050565b7f1c83535ec90fbbbbe403ebcda51015819d82e4a98c41ebaa001c6f1b9a8be12f8585858585604051600160a060020a0395861681529385166020850152919093166040808401919091526060830193909352608082015260a001905180910390a15050505050565b61145d611655565b6005600083600160a060020a0316600160a060020a031681526020019081526020016000208054806020026020016040519081016040528092919081815260200182805480156105d157602002820191906000526020600020908154600160a060020a031681526001909101906020018083116105b35750505050509050919050565b600154600160a060020a031681565b60005433600160a060020a0390811691161461150757fe5b600054600160a060020a038281169116141561152257600080fd5b60018054600160a060020a031916600160a060020a0392909216919091179055565b600160a060020a039081166000908152600760205260409020600101541690565b60008282018381101561054957fe5b6000805b600160a060020a03841660009081526004602052604090205463ffffffff821610156115f957600160a060020a03848116600090815260046020526040902080549185169163ffffffff84169081106115cd57fe5b600091825260209091200154600160a060020a031614156115f157600191506115f9565b600101611578565b81151561065757600160a060020a03841660009081526004602052604090208054600181016116288382611667565b5060009182526020909120018054600160a060020a038516600160a060020a031990911617905550505050565b60206040519081016040526000815290565b81548183558181151161168b5760008381526020902061168b918101908301611690565b505050565b6116ae91905b808211156116aa5760008155600101611696565b5090565b905600a165627a7a723058209f2d82e8a321493a5deec57f69173856e2d8902adcb97d2854d4493c8715210d0029",
  "source": "pragma solidity ^0.4.18;\nimport './interfaces/IFinancieCore.sol';\nimport './interfaces/IFinancieIssuerToken.sol';\nimport './interfaces/IERC20Token.sol';\nimport './interfaces/IFinancieLog.sol';\nimport './Utils.sol';\nimport './Owned.sol';\n\ncontract FinancieCore is IFinancieCore, Owned, Utils {\n\n    mapping (address => uint32) userIds;\n    mapping (address => bool) targetContracts;\n    mapping (address => address[]) ownedCardList;\n    mapping (address => address[]) ownedTicketList;\n    mapping (address => mapping (address => uint256)) paidTicketList;\n\n    struct TicketSale {\n        address issuer;\n        address card;\n        uint256 price;\n    }\n\n    mapping (address => TicketSale) ticketSales;\n    IFinancieLog log;\n\n    IERC20Token platformToken;\n    IERC20Token etherToken;\n\n    event ActivateUser(address _sender, uint32 _userId);\n    event ConvertCards(address _sender, address _from, address _to, uint256 _amountFrom, uint256 _amountTo);\n    event BidCards(address _sender, address _to, uint256 _amount);\n    event WithdrawalCards(address _sender, address _to, uint256 _amount);\n    event BurnCards(address _sender, address _card, uint256 _amount);\n    event BurnTickets(address _sender, address _ticket, uint256 _amount);\n    event DepositTickets(address _sender, address _issuer, address _ticket, address _card, uint256 _amount, uint256 _price);\n    event BuyTicket(address _sender, address _issuer, address _ticket);\n\n    function FinancieCore(address _pf_token, address _ether_token) public {\n        platformToken = IERC20Token(_pf_token);\n        etherToken = IERC20Token(_ether_token);\n    }\n\n    function setFinancieLog(address _log) public ownerOnly {\n        log = IFinancieLog(_log);\n        log.acceptOwnership();\n    }\n\n    modifier validTargetContract(address _contract) {\n        require(targetContracts[_contract]);\n        _;\n    }\n\n    function() payable public {\n        uint256 value = safeMul(safeMul(100000, 10 ** 18), msg.value / 1 ether);\n        platformToken.transfer(msg.sender, value);\n        owner.transfer(msg.value);\n    }\n\n    function activateUser(uint32 _userId)\n        public\n        greaterThanZero(_userId)\n    {\n        // set new account\n        userIds[msg.sender] = _userId;\n\n        ActivateUser(msg.sender, _userId);\n    }\n\n    function activateTargetContract(address _contract, bool _enabled)\n        public\n        validAddress(_contract)\n    {\n        targetContracts[_contract] = _enabled;\n    }\n\n    function notifyConvertCards(\n        address _sender,\n        address _from,\n        address _to,\n        uint256 _amountFrom,\n        uint256 _amountTo)\n        public\n    {\n        ConvertCards(_sender, _from, _to, _amountFrom, _amountTo);\n    }\n\n    /**\n    *\n    */\n    function addOwnedCardList(address _sender, address _address) private {\n        bool exist = false;\n        for (uint32 i = 0; i < ownedCardList[_sender].length; i++) {\n            if ( ownedCardList[_sender][i] == _address ) {\n                exist = true;\n                break;\n            }\n        }\n        if ( !exist ) {\n            ownedCardList[_sender].push(_address);\n        }\n    }\n\n    /**\n    * log the bid of cards for sales contract\n    */\n    function notifyBidCards(address _sender, address _to, uint256 _amount)\n        public\n        validTargetContract(msg.sender)\n        validTargetContract(_to)\n    {\n        log.recordLog(\n          _sender,\n          IFinancieLog.EventType.BidCards,\n          IFinancieLog.CurrencyType.Ethereum,\n          _to,\n          _amount,\n          0);\n\n        BidCards(_sender, _to, _amount);\n    }\n\n    /**\n    * log the withdrawal of cards from sales contract\n    */\n    function notifyWithdrawalCards(address _sender, address _to, uint256 _amount)\n        public\n        validTargetContract(msg.sender)\n    {\n        addOwnedCardList(_sender, _to);\n        log.recordLog(\n          _sender,\n          IFinancieLog.EventType.WithdrawCards,\n          IFinancieLog.CurrencyType.None,\n          _to,\n          0,\n          _amount);\n\n        WithdrawalCards(_sender, _to, _amount);\n    }\n\n    /**\n    * log the burn of cards\n    */\n    function notifyBurnCards(address _sender, address _card, uint256 _amount)\n        public\n        validTargetContract(msg.sender)\n        validTargetContract(_card)\n    {\n        log.recordLog(\n          _sender,\n          IFinancieLog.EventType.BurnCards,\n          IFinancieLog.CurrencyType.None,\n          _card,\n          _amount,\n          0);\n\n        BurnCards(msg.sender, _card, _amount);\n    }\n\n    /**\n    * log the burn of tickets\n    */\n    function notifyBurnTickets(address _sender, address _ticket, uint256 _amount)\n        public\n        validTargetContract(msg.sender)\n        validTargetContract(_ticket)\n    {\n        paidTicketList[_ticket][_sender] = safeAdd(paidTicketList[_ticket][_sender], _amount);\n\n        BurnTickets(_sender, _ticket, _amount);\n    }\n\n    /**\n    * issuer deposits tickets into this contract and register it as a sales item\n    */\n    function depositTickets(address _ticket, address _card, uint256 _amount, uint256 _price)\n        public\n        validTargetContract(_ticket)\n        validTargetContract(_card)\n    {\n        require(_amount > 0);\n        require(_price > 0);\n\n        /**\n        * check ticket issuer and deposit tickets into this contract\n        */\n        IFinancieIssuerToken ticket = IFinancieIssuerToken(_ticket);\n        require(msg.sender == ticket.getIssuer() || msg.sender == owner );\n\n        IERC20Token tokenTicket = IERC20Token(_ticket);\n        assert(tokenTicket.transferFrom(msg.sender, this, _amount));\n\n        /**\n        * register it as a sales item\n        */\n        ticketSales[_ticket] = TicketSale(ticket.getIssuer(), _card, _price);\n\n        DepositTickets(msg.sender, ticket.getIssuer(), _ticket, _card, _amount, _price);\n    }\n\n    function getTicketPrice(address _ticket) public returns(uint256) {\n        return ticketSales[_ticket].price;\n    }\n\n    function getTicketStock(address _ticket) public returns(uint256) {\n        IERC20Token tokenTicket = IERC20Token(_ticket);\n        return tokenTicket.balanceOf(this);\n    }\n\n    function getTicketCurrency(address _ticket) public returns(address) {\n        return ticketSales[_ticket].card;\n    }\n\n    function buyTicket(address _ticket) public {\n        TicketSale ticketSale = ticketSales[_ticket];\n\n        /**\n        * check currency balance and burn the number of price from the buyer\n        */\n        IERC20Token cardToken = IERC20Token(ticketSale.card);\n        require(cardToken.balanceOf(msg.sender) >= ticketSale.price);\n\n        IFinancieIssuerToken card = IFinancieIssuerToken(ticketSale.card);\n        card.burnFrom(msg.sender, ticketSale.price);\n\n        ownedTicketList[msg.sender].push(_ticket);\n\n        /**\n        * check tickets in stock and transfer a ticket to the buyer\n        */\n        IERC20Token ticket = IERC20Token(_ticket);\n        require(ticket.balanceOf(address(this)) >= 1);\n        ticket.transfer(msg.sender, 1);\n\n        BuyTicket(msg.sender, card.getIssuer(), _ticket);\n    }\n\n    function checkUserActivation(address _sender, uint32 _userId) public returns(bool) {\n        return userIds[_sender] == _userId;\n    }\n\n    function getCardList(address _sender) public returns(address[]) {\n        return ownedCardList[_sender];\n    }\n\n    function getTicketList(address _sender) public returns(address[]) {\n        return ownedTicketList[_sender];\n    }\n\n    function getPaidTicketCounts(address _sender, address _ticket) public returns(uint256) {\n        return paidTicketList[_sender][_ticket];\n    }\n}\n",
  "sourcePath": "/Users/rudo/contracts/solidity/contracts/FinancieCore.sol",
  "compiler": {
    "name": "solc",
    "version": "0.4.21+commit.dfe3193c.Emscripten.clang"
  },
  "schemaVersion": "2.0.0",
  "updatedAt": "2018-07-11T15:51:03.775Z"
}