{
  "contractName": "FinancieBancorConverter",
  "abi": [
    {
      "constant": true,
      "inputs": [
        {
          "name": "",
          "type": "address"
        }
      ],
      "name": "connectors",
      "outputs": [
        {
          "name": "virtualBalance",
          "type": "uint256"
        },
        {
          "name": "weight",
          "type": "uint32"
        },
        {
          "name": "isVirtualBalanceEnabled",
          "type": "bool"
        },
        {
          "name": "isPurchaseEnabled",
          "type": "bool"
        },
        {
          "name": "isSet",
          "type": "bool"
        }
      ],
      "payable": false,
      "stateMutability": "view",
      "type": "function"
    },
    {
      "constant": true,
      "inputs": [
        {
          "name": "",
          "type": "uint256"
        }
      ],
      "name": "connectorTokens",
      "outputs": [
        {
          "name": "",
          "type": "address"
        }
      ],
      "payable": false,
      "stateMutability": "view",
      "type": "function"
    },
    {
      "constant": true,
      "inputs": [
        {
          "name": "",
          "type": "uint256"
        }
      ],
      "name": "quickSellPath",
      "outputs": [
        {
          "name": "",
          "type": "address"
        }
      ],
      "payable": false,
      "stateMutability": "view",
      "type": "function"
    },
    {
      "constant": false,
      "inputs": [
        {
          "name": "_newOwner",
          "type": "address"
        }
      ],
      "name": "transferTokenOwnership",
      "outputs": [],
      "payable": false,
      "stateMutability": "nonpayable",
      "type": "function"
    },
    {
      "constant": true,
      "inputs": [],
      "name": "extensions",
      "outputs": [
        {
          "name": "",
          "type": "address"
        }
      ],
      "payable": false,
      "stateMutability": "view",
      "type": "function"
    },
    {
      "constant": true,
      "inputs": [
        {
          "name": "_amount",
          "type": "uint256"
        }
      ],
      "name": "getConversionFeeAmount",
      "outputs": [
        {
          "name": "",
          "type": "uint256"
        }
      ],
      "payable": false,
      "stateMutability": "view",
      "type": "function"
    },
    {
      "constant": false,
      "inputs": [],
      "name": "acceptTokenOwnership",
      "outputs": [],
      "payable": false,
      "stateMutability": "nonpayable",
      "type": "function"
    },
    {
      "constant": true,
      "inputs": [],
      "name": "converterType",
      "outputs": [
        {
          "name": "",
          "type": "string"
        }
      ],
      "payable": false,
      "stateMutability": "view",
      "type": "function"
    },
    {
      "constant": false,
      "inputs": [
        {
          "name": "_token",
          "type": "address"
        },
        {
          "name": "_weight",
          "type": "uint32"
        },
        {
          "name": "_enableVirtualBalance",
          "type": "bool"
        }
      ],
      "name": "addConnector",
      "outputs": [],
      "payable": false,
      "stateMutability": "nonpayable",
      "type": "function"
    },
    {
      "constant": false,
      "inputs": [
        {
          "name": "_token",
          "type": "address"
        },
        {
          "name": "_to",
          "type": "address"
        },
        {
          "name": "_amount",
          "type": "uint256"
        }
      ],
      "name": "withdrawFromToken",
      "outputs": [],
      "payable": false,
      "stateMutability": "nonpayable",
      "type": "function"
    },
    {
      "constant": true,
      "inputs": [],
      "name": "newManager",
      "outputs": [
        {
          "name": "",
          "type": "address"
        }
      ],
      "payable": false,
      "stateMutability": "view",
      "type": "function"
    },
    {
      "constant": true,
      "inputs": [],
      "name": "manager",
      "outputs": [
        {
          "name": "",
          "type": "address"
        }
      ],
      "payable": false,
      "stateMutability": "view",
      "type": "function"
    },
    {
      "constant": true,
      "inputs": [],
      "name": "version",
      "outputs": [
        {
          "name": "",
          "type": "string"
        }
      ],
      "payable": false,
      "stateMutability": "view",
      "type": "function"
    },
    {
      "constant": true,
      "inputs": [],
      "name": "conversionFee",
      "outputs": [
        {
          "name": "",
          "type": "uint32"
        }
      ],
      "payable": false,
      "stateMutability": "view",
      "type": "function"
    },
    {
      "constant": false,
      "inputs": [
        {
          "name": "_token",
          "type": "address"
        },
        {
          "name": "_to",
          "type": "address"
        },
        {
          "name": "_amount",
          "type": "uint256"
        }
      ],
      "name": "withdrawTokens",
      "outputs": [],
      "payable": false,
      "stateMutability": "nonpayable",
      "type": "function"
    },
    {
      "constant": false,
      "inputs": [
        {
          "name": "_fromToken",
          "type": "address"
        },
        {
          "name": "_toToken",
          "type": "address"
        },
        {
          "name": "_amount",
          "type": "uint256"
        },
        {
          "name": "_minReturn",
          "type": "uint256"
        }
      ],
      "name": "change",
      "outputs": [
        {
          "name": "",
          "type": "uint256"
        }
      ],
      "payable": false,
      "stateMutability": "nonpayable",
      "type": "function"
    },
    {
      "constant": false,
      "inputs": [
        {
          "name": "_connectorToken",
          "type": "address"
        },
        {
          "name": "_sellAmount",
          "type": "uint256"
        },
        {
          "name": "_minReturn",
          "type": "uint256"
        }
      ],
      "name": "sell",
      "outputs": [
        {
          "name": "",
          "type": "uint256"
        }
      ],
      "payable": false,
      "stateMutability": "nonpayable",
      "type": "function"
    },
    {
      "constant": true,
      "inputs": [],
      "name": "connectorTokenCount",
      "outputs": [
        {
          "name": "",
          "type": "uint16"
        }
      ],
      "payable": false,
      "stateMutability": "view",
      "type": "function"
    },
    {
      "constant": true,
      "inputs": [
        {
          "name": "_connectorToken",
          "type": "address"
        },
        {
          "name": "_sellAmount",
          "type": "uint256"
        }
      ],
      "name": "getSaleReturn",
      "outputs": [
        {
          "name": "",
          "type": "uint256"
        }
      ],
      "payable": false,
      "stateMutability": "view",
      "type": "function"
    },
    {
      "constant": false,
      "inputs": [
        {
          "name": "_fromToken",
          "type": "address"
        },
        {
          "name": "_toToken",
          "type": "address"
        },
        {
          "name": "_amount",
          "type": "uint256"
        },
        {
          "name": "_minReturn",
          "type": "uint256"
        }
      ],
      "name": "convert",
      "outputs": [
        {
          "name": "",
          "type": "uint256"
        }
      ],
      "payable": false,
      "stateMutability": "nonpayable",
      "type": "function"
    },
    {
      "constant": false,
      "inputs": [],
      "name": "acceptOwnership",
      "outputs": [],
      "payable": false,
      "stateMutability": "nonpayable",
      "type": "function"
    },
    {
      "constant": false,
      "inputs": [
        {
          "name": "_disable",
          "type": "bool"
        }
      ],
      "name": "disableTokenTransfers",
      "outputs": [],
      "payable": false,
      "stateMutability": "nonpayable",
      "type": "function"
    },
    {
      "constant": true,
      "inputs": [],
      "name": "owner",
      "outputs": [
        {
          "name": "",
          "type": "address"
        }
      ],
      "payable": false,
      "stateMutability": "view",
      "type": "function"
    },
    {
      "constant": true,
      "inputs": [],
      "name": "maxConversionFee",
      "outputs": [
        {
          "name": "",
          "type": "uint32"
        }
      ],
      "payable": false,
      "stateMutability": "view",
      "type": "function"
    },
    {
      "constant": true,
      "inputs": [
        {
          "name": "_connectorToken",
          "type": "address"
        },
        {
          "name": "_depositAmount",
          "type": "uint256"
        }
      ],
      "name": "getPurchaseReturn",
      "outputs": [
        {
          "name": "",
          "type": "uint256"
        }
      ],
      "payable": false,
      "stateMutability": "view",
      "type": "function"
    },
    {
      "constant": false,
      "inputs": [
        {
          "name": "_connectorToken",
          "type": "address"
        },
        {
          "name": "_depositAmount",
          "type": "uint256"
        },
        {
          "name": "_minReturn",
          "type": "uint256"
        }
      ],
      "name": "buy",
      "outputs": [
        {
          "name": "",
          "type": "uint256"
        }
      ],
      "payable": false,
      "stateMutability": "nonpayable",
      "type": "function"
    },
    {
      "constant": true,
      "inputs": [],
      "name": "convertibleTokenCount",
      "outputs": [
        {
          "name": "",
          "type": "uint16"
        }
      ],
      "payable": false,
      "stateMutability": "view",
      "type": "function"
    },
    {
      "constant": true,
      "inputs": [],
      "name": "conversionsEnabled",
      "outputs": [
        {
          "name": "",
          "type": "bool"
        }
      ],
      "payable": false,
      "stateMutability": "view",
      "type": "function"
    },
    {
      "constant": false,
      "inputs": [],
      "name": "acceptManagement",
      "outputs": [],
      "payable": false,
      "stateMutability": "nonpayable",
      "type": "function"
    },
    {
      "constant": true,
      "inputs": [],
      "name": "newOwner",
      "outputs": [
        {
          "name": "",
          "type": "address"
        }
      ],
      "payable": false,
      "stateMutability": "view",
      "type": "function"
    },
    {
      "constant": true,
      "inputs": [
        {
          "name": "_connectorToken",
          "type": "address"
        }
      ],
      "name": "getConnectorBalance",
      "outputs": [
        {
          "name": "",
          "type": "uint256"
        }
      ],
      "payable": false,
      "stateMutability": "view",
      "type": "function"
    },
    {
      "constant": false,
      "inputs": [
        {
          "name": "_newManager",
          "type": "address"
        }
      ],
      "name": "transferManagement",
      "outputs": [],
      "payable": false,
      "stateMutability": "nonpayable",
      "type": "function"
    },
    {
      "constant": true,
      "inputs": [
        {
          "name": "",
          "type": "uint256"
        }
      ],
      "name": "quickBuyPath",
      "outputs": [
        {
          "name": "",
          "type": "address"
        }
      ],
      "payable": false,
      "stateMutability": "view",
      "type": "function"
    },
    {
      "constant": true,
      "inputs": [
        {
          "name": "_tokenIndex",
          "type": "uint16"
        }
      ],
      "name": "convertibleToken",
      "outputs": [
        {
          "name": "",
          "type": "address"
        }
      ],
      "payable": false,
      "stateMutability": "view",
      "type": "function"
    },
    {
      "constant": false,
      "inputs": [
        {
          "name": "_newOwner",
          "type": "address"
        }
      ],
      "name": "transferOwnership",
      "outputs": [],
      "payable": false,
      "stateMutability": "nonpayable",
      "type": "function"
    },
    {
      "constant": true,
      "inputs": [],
      "name": "token",
      "outputs": [
        {
          "name": "",
          "type": "address"
        }
      ],
      "payable": false,
      "stateMutability": "view",
      "type": "function"
    },
    {
      "inputs": [
        {
          "name": "_token",
          "type": "address"
        },
        {
          "name": "_etherToken",
          "type": "address"
        },
        {
          "name": "_connectorToken",
          "type": "address"
        },
        {
          "name": "_hero_wallet",
          "type": "address"
        },
        {
          "name": "_team_wallet",
          "type": "address"
        },
        {
          "name": "_extensions",
          "type": "address"
        },
        {
          "name": "_core_address",
          "type": "address"
        },
        {
          "name": "_heroFee",
          "type": "uint32"
        },
        {
          "name": "_teamFee",
          "type": "uint32"
        },
        {
          "name": "_connectorWeight",
          "type": "uint32"
        }
      ],
      "payable": false,
      "stateMutability": "nonpayable",
      "type": "constructor"
    },
    {
      "payable": true,
      "stateMutability": "payable",
      "type": "fallback"
    },
    {
      "anonymous": false,
      "inputs": [
        {
          "indexed": true,
          "name": "_fromToken",
          "type": "address"
        },
        {
          "indexed": true,
          "name": "_toToken",
          "type": "address"
        },
        {
          "indexed": true,
          "name": "_trader",
          "type": "address"
        },
        {
          "indexed": false,
          "name": "_amount",
          "type": "uint256"
        },
        {
          "indexed": false,
          "name": "_return",
          "type": "uint256"
        },
        {
          "indexed": false,
          "name": "_conversionFee",
          "type": "int256"
        },
        {
          "indexed": false,
          "name": "_currentPriceN",
          "type": "uint256"
        },
        {
          "indexed": false,
          "name": "_currentPriceD",
          "type": "uint256"
        }
      ],
      "name": "Conversion",
      "type": "event"
    },
    {
      "anonymous": false,
      "inputs": [
        {
          "indexed": false,
          "name": "_prevFee",
          "type": "uint32"
        },
        {
          "indexed": false,
          "name": "_newFee",
          "type": "uint32"
        }
      ],
      "name": "ConversionFeeUpdate",
      "type": "event"
    },
    {
      "anonymous": false,
      "inputs": [
        {
          "indexed": true,
          "name": "_prevManager",
          "type": "address"
        },
        {
          "indexed": true,
          "name": "_newManager",
          "type": "address"
        }
      ],
      "name": "ManagerUpdate",
      "type": "event"
    },
    {
      "anonymous": false,
      "inputs": [
        {
          "indexed": true,
          "name": "_prevOwner",
          "type": "address"
        },
        {
          "indexed": true,
          "name": "_newOwner",
          "type": "address"
        }
      ],
      "name": "OwnerUpdate",
      "type": "event"
    },
    {
      "constant": true,
      "inputs": [],
      "name": "getVersion",
      "outputs": [
        {
          "name": "",
          "type": "uint256"
        }
      ],
      "payable": false,
      "stateMutability": "view",
      "type": "function"
    },
    {
      "constant": false,
      "inputs": [
        {
          "name": "_amount",
          "type": "uint256"
        },
        {
          "name": "_minReturn",
          "type": "uint256"
        }
      ],
      "name": "sellCards",
      "outputs": [
        {
          "name": "",
          "type": "uint256"
        }
      ],
      "payable": false,
      "stateMutability": "nonpayable",
      "type": "function"
    },
    {
      "constant": false,
      "inputs": [
        {
          "name": "_amount",
          "type": "uint256"
        },
        {
          "name": "_minReturn",
          "type": "uint256"
        }
      ],
      "name": "buyCards",
      "outputs": [
        {
          "name": "",
          "type": "uint256"
        }
      ],
      "payable": true,
      "stateMutability": "payable",
      "type": "function"
    },
    {
      "constant": true,
      "inputs": [
        {
          "name": "_fromToken",
          "type": "address"
        },
        {
          "name": "_toToken",
          "type": "address"
        },
        {
          "name": "_amount",
          "type": "uint256"
        }
      ],
      "name": "getReturn",
      "outputs": [
        {
          "name": "",
          "type": "uint256"
        }
      ],
      "payable": false,
      "stateMutability": "view",
      "type": "function"
    }
  ],
  "bytecode": "0x606060405260408051908101604052600381527f302e370000000000000000000000000000000000000000000000000000000000602082015260059080516200004d92916020019062000683565b506040805190810160405260068082527f62616e636f72000000000000000000000000000000000000000000000000000060208301529080516200009692916020019062000683565b50600b80546001606860020a0319166c010000000000000000000000001790553415620000c257600080fd5b6040516101408062002fcc8339810160405280805191906020018051919060200180519190602001805191906020018051919060200180519190602001805191906020018051919060200180519190602001805160008054600160a060020a03191633600160a060020a0390811691909117825591935085925084918a918a918f918b918f90899085908190811615156200015c57600080fd5b5060028054600160a060020a0319908116600160a060020a0393841617909155600380549091163383161790558490811615156200019957600080fd5b8360008163ffffffff1610158015620001bb5750620f424063ffffffff821611155b1515620001c757600080fd5b60078054600160a060020a031916600160a060020a0388811691909117909155600b805467ffffffff00000000191664010000000063ffffffff8916021790558416156200022b576200022b8484600064010000000062000a9f6200043682021704565b5050600b8054606860020a63ffffffff0219166d010000000000000000000000000063ffffffff9b8c160217608860020a63ffffffff0219167101000000000000000000000000000000000099909a1698909802989098179096555050600c8054600160a060020a0319908116600160a060020a0395861617909155600d805482169385169390931790925550600e805490911691881691909117905550506009805460018101620002de838262000708565b5060009182526020909120018054600160a060020a031916600160a060020a038b16179055600980546001810162000317838262000708565b5060009182526020909120018054600160a060020a031916600160a060020a038c16179055600980546001810162000350838262000708565b5060009182526020909120018054600160a060020a031916600160a060020a038a16179055600f80546001810162000389838262000708565b5060009182526020909120018054600160a060020a031916600160a060020a038a16179055600f805460018101620003c2838262000708565b5060009182526020909120018054600160a060020a031916600160a060020a038c16179055600f805460018101620003fb838262000708565b5060009182526020909120018054600160a060020a031916600160a060020a039a909a16999099179098555062000754975050505050505050565b60005433600160a060020a039081169116146200044f57fe5b600254600160a060020a033081169116638da5cb5b6040518163ffffffff167c0100000000000000000000000000000000000000000000000000000000028152600401602060405180830381600087803b1515620004ac57600080fd5b5af11515620004ba57600080fd5b50505060405180519050600160a060020a031614151515620004d857fe5b82600160a060020a0381161515620004ef57600080fd5b8330600160a060020a031681600160a060020a0316141515156200051257600080fd5b8360008163ffffffff16118015620005335750620f424063ffffffff821611155b15156200053f57600080fd5b600254600160a060020a03878116911614801590620005845750600160a060020a0386166000908152600a60205260409020600101546601000000000000900460ff16155b8015620005a35750600b54620f424063ffffffff918216870190911611155b1515620005af57600080fd5b600160a060020a0386166000908152600a602052604081209081556001908101805466010000000000006501000000000063ffffffff1990921663ffffffff8a161764ff000000001916640100000000891515021765ff000000000019169190911766ff0000000000001916179055600880549091810162000632838262000708565b5060009182526020909120018054600160a060020a031916600160a060020a0397909716969096179095555050600b805463ffffffff19811663ffffffff9182169490940116929092179091555050565b828054600181600116156101000203166002900490600052602060002090601f016020900481019282601f10620006c657805160ff1916838001178555620006f6565b82800160010185558215620006f6579182015b82811115620006f6578251825591602001919060010190620006d9565b506200070492915062000734565b5090565b8154818355818115116200072f576000838152602090206200072f91810190830162000734565b505050565b6200075191905b808211156200070457600081556001016200073b565b90565b61286880620007646000396000f3006060604052600436106101d45763ffffffff60e060020a6000350416630d8e6e2c81146101d65780630e53aae9146101fb57806319b64015146102565780631a4c298f146102885780631e1401f81461029e57806321e6b53d146102c657806324f159c2146102e55780632a3c2c56146102f857806338a5e0161461030e5780633e8ff43f146103215780633f4d2fc2146103ab57806341a5b33d146103d85780634290602914610400578063481c6a751461041357806354fd4d5014610426578063579cd3ca146104395780635e35359e146104655780635e5144eb1461048d5780636a272462146104b857806371f52bf3146104dd57806372b44b2c1461050757806375892cf11461052957806379ba50971461055457806385d5e631146105675780638da5cb5b1461057f57806394c275ad146105925780639a5c0abc146105a5578063a2c4c336146105be578063a59ac6dd146105e0578063ae5fe1f214610605578063ba9a8b3714610613578063bf75455814610626578063c8c2fe6c1461064d578063d4ee1d9014610660578063d895951214610673578063e4edf85214610692578063e7ee85a5146106b1578063f2c8d247146106c7578063f2fde38b146106e1578063fc0c546a14610700575b005b34156101e157600080fd5b6101e9610713565b60405190815260200160405180910390f35b341561020657600080fd5b61021a600160a060020a0360043516610719565b60405194855263ffffffff90931660208501529015156040808501919091529015156060840152901515608083015260a0909101905180910390f35b341561026157600080fd5b61026c60043561075f565b604051600160a060020a03909116815260200160405180910390f35b341561029357600080fd5b61026c600435610787565b34156102a957600080fd5b6101e9600160a060020a0360043581169060243516604435610795565b34156102d157600080fd5b6101d4600160a060020a03600435166108d4565b34156102f057600080fd5b61026c61094f565b341561030357600080fd5b6101e960043561095e565b341561031957600080fd5b6101d4610998565b341561032c57600080fd5b610334610a01565b60405160208082528190810183818151815260200191508051906020019080838360005b83811015610370578082015183820152602001610358565b50505050905090810190601f16801561039d5780820380516001836020036101000a031916815260200191505b509250505060405180910390f35b34156103b657600080fd5b6101d4600160a060020a036004351663ffffffff602435166044351515610a9f565b34156103e357600080fd5b6101d4600160a060020a0360043581169060243516604435610cd3565b341561040b57600080fd5b61026c610d63565b341561041e57600080fd5b61026c610d72565b341561043157600080fd5b610334610d81565b341561044457600080fd5b61044c610dec565b60405163ffffffff909116815260200160405180910390f35b341561047057600080fd5b6101d4600160a060020a0360043581169060243516604435610e04565b341561049857600080fd5b6101e9600160a060020a0360043581169060243516604435606435610edd565b34156104c357600080fd5b6101e9600160a060020a0360043516602435604435610ef4565b34156104e857600080fd5b6104f0611221565b60405161ffff909116815260200160405180910390f35b341561051257600080fd5b6101e9600160a060020a0360043516602435611227565b341561053457600080fd5b6101e9600160a060020a0360043581169060243516604435606435611294565b341561055f57600080fd5b6101d461131e565b341561057257600080fd5b6101d460043515156113ac565b341561058a57600080fd5b61026c61140c565b341561059d57600080fd5b61044c61141b565b34156105b057600080fd5b6101e960043560243561142f565b34156105c957600080fd5b6101e9600160a060020a03600435166024356115cd565b34156105eb57600080fd5b6101e9600160a060020a0360043516602435604435611822565b6101e9600435602435611a62565b341561061e57600080fd5b6104f0611bc6565b341561063157600080fd5b610639611bd8565b604051901515815260200160405180910390f35b341561065857600080fd5b6101d4611bf1565b341561066b57600080fd5b61026c611c7f565b341561067e57600080fd5b6101e9600160a060020a0360043516611c8e565b341561069d57600080fd5b6101d4600160a060020a0360043516611d6a565b34156106bc57600080fd5b61026c600435611dcc565b34156106d257600080fd5b61026c61ffff60043516611dda565b34156106ec57600080fd5b6101d4600160a060020a0360043516611e2a565b341561070b57600080fd5b61026c611e8c565b60055b90565b600a602052600090815260409020805460019091015463ffffffff81169060ff640100000000820481169165010000000000810482169166010000000000009091041685565b600880548290811061076d57fe5b600091825260209091200154600160a060020a0316905081565b600f80548290811061076d57fe5b600080600f60008154811015156107a857fe5b600091825260209091200154600160a060020a03868116911614806107f257506009805460009081106107d757fe5b600091825260209091200154600160a060020a038681169116145b15156107fd57600080fd5b600f8054600290811061080c57fe5b600091825260209091200154600160a060020a0385811691161480610856575060098054600290811061083b57fe5b600091825260209091200154600160a060020a038581169116145b151561086157600080fd5b600f8054600090811061087057fe5b600091825260209091200154600160a060020a03868116911614156108b55761089a858585611e9b565b90506108ae816108a983611f71565b611f93565b91506108cc565b6108ae85856108c7866108a988611f71565b611e9b565b509392505050565b60005433600160a060020a039081169116146108ec57fe5b600254600160a060020a031663f2fde38b8260405160e060020a63ffffffff8416028152600160a060020a039091166004820152602401600060405180830381600087803b151561093c57600080fd5b5af1151561094957600080fd5b50505050565b600754600160a060020a031681565b600b54600090620f42409061098690849068010000000000000000900463ffffffff16611fa5565b81151561098f57fe5b0490505b919050565b60005433600160a060020a039081169116146109b057fe5b600254600160a060020a03166379ba50976040518163ffffffff1660e060020a028152600401600060405180830381600087803b15156109ef57600080fd5b5af115156109fc57600080fd5b505050565b60068054600181600116156101000203166002900480601f016020809104026020016040519081016040528092919081815260200182805460018160011615610100020316600290048015610a975780601f10610a6c57610100808354040283529160200191610a97565b820191906000526020600020905b815481529060010190602001808311610a7a57829003601f168201915b505050505081565b60005433600160a060020a03908116911614610ab757fe5b600254600160a060020a033081169116638da5cb5b6040518163ffffffff1660e060020a028152600401602060405180830381600087803b1515610afa57600080fd5b5af11515610b0757600080fd5b50505060405180519050600160a060020a031614151515610b2457fe5b82600160a060020a0381161515610b3a57600080fd5b8330600160a060020a031681600160a060020a031614151515610b5c57600080fd5b8360008163ffffffff16118015610b7c5750620f424063ffffffff821611155b1515610b8757600080fd5b600254600160a060020a03878116911614801590610bcb5750600160a060020a0386166000908152600a60205260409020600101546601000000000000900460ff16155b8015610be95750600b54620f424063ffffffff918216870190911611155b1515610bf457600080fd5b600160a060020a0386166000908152600a602052604081209081556001908101805466010000000000006501000000000063ffffffff1990921663ffffffff8a161764ff000000001916640100000000891515021765ff000000000019169190911766ff00000000000019161790556008805490918101610c7583826127ff565b506000918252602090912001805473ffffffffffffffffffffffffffffffffffffffff1916600160a060020a0397909716969096179095555050600b805463ffffffff19811663ffffffff9182169490940116929092179091555050565b60005433600160a060020a03908116911614610ceb57fe5b600254600160a060020a0316635e35359e84848460405160e060020a63ffffffff8616028152600160a060020a0393841660048201529190921660248201526044810191909152606401600060405180830381600087803b1515610d4e57600080fd5b5af11515610d5b57600080fd5b505050505050565b600454600160a060020a031681565b600354600160a060020a031681565b60058054600181600116156101000203166002900480601f016020809104026020016040519081016040528092919081815260200182805460018160011615610100020316600290048015610a975780601f10610a6c57610100808354040283529160200191610a97565b600b5468010000000000000000900463ffffffff1681565b60005433600160a060020a03908116911614610e1c57fe5b82600160a060020a0381161515610e3257600080fd5b82600160a060020a0381161515610e4857600080fd5b8330600160a060020a031681600160a060020a031614151515610e6a57600080fd5b85600160a060020a031663a9059cbb868660405160e060020a63ffffffff8516028152600160a060020a0390921660048301526024820152604401602060405180830381600087803b1515610ebe57600080fd5b5af11515610ecb57600080fd5b505050604051805190501515610d5b57fe5b6000610eeb85858585611294565b95945050505050565b6000806000806000600b600c9054906101000a900460ff161515610f1457fe5b600754600160a060020a031663961a929c6040518163ffffffff1660e060020a028152600401602060405180830381600087803b1515610f5357600080fd5b5af11515610f6057600080fd5b50505060405180519050600160a060020a031663fe173b976040518163ffffffff1660e060020a028152600401602060405180830381600087803b1515610fa657600080fd5b5af11515610fb357600080fd5b50505060405180513a11159050610fc657fe5b8560008111610fd457600080fd5b600254600160a060020a03166370a082313360405160e060020a63ffffffff8416028152600160a060020a039091166004820152602401602060405180830381600087803b151561102457600080fd5b5af1151561103157600080fd5b5050506040518051891115905061104757600080fd5b6110518989611227565b945084158015906110625750868510155b151561106d57600080fd5b600254600160a060020a03166318160ddd6040518163ffffffff1660e060020a028152600401602060405180830381600087803b15156110ac57600080fd5b5af115156110b957600080fd5b5050506040518051905093506110ce89611c8e565b9250828510806110e7575082851480156110e757508388145b15156110ef57fe5b600160a060020a0389166000908152600a602052604090206001810154909250640100000000900460ff161561112e57815461112b9086611f93565b82555b600254600160a060020a031663a24835d1338a60405160e060020a63ffffffff8516028152600160a060020a0390921660048301526024820152604401600060405180830381600087803b151561118457600080fd5b5af1151561119157600080fd5b50505088600160a060020a031663a9059cbb338760405160e060020a63ffffffff8516028152600160a060020a0390921660048301526024820152604401602060405180830381600087803b15156111e857600080fd5b5af115156111f557600080fd5b50505060405180519050151561120757fe5b6112148989876000611fc9565b5092979650505050505050565b60085490565b60025460009061128d9084908490600160a060020a03166318160ddd6040518163ffffffff1660e060020a028152600401602060405180830381600087803b151561127157600080fd5b5af1151561127e57600080fd5b50505060405180519050612284565b9392505050565b600080600160a060020a0386811690861614156112b057600080fd5b600254600160a060020a03868116911614156112d8576112d1868585611822565b9150611315565b600254600160a060020a03878116911614156112f9576112d1858585610ef4565b61130586856001611822565b9050611312858285610ef4565b91505b50949350505050565b60015433600160a060020a0390811691161461133957600080fd5b600154600054600160a060020a0391821691167f343765429aea5a34b3ff6a3785a98a5abb2597aca87bfbb58632c173d585373a60405160405180910390a3600180546000805473ffffffffffffffffffffffffffffffffffffffff19908116600160a060020a03841617909155169055565b60005433600160a060020a039081169116146113c457fe5b600254600160a060020a0316631608f18f8260405160e060020a63ffffffff84160281529015156004820152602401600060405180830381600087803b151561093c57600080fd5b600054600160a060020a031681565b600b54640100000000900463ffffffff1681565b60008060008061149c600f80548060200260200160405190810160405280929190818152602001828054801561148e57602002820191906000526020600020905b8154600160a060020a03168152600190910190602001808311611470575b505050505087600130612471565b92506114a78361270a565b91506114b38383611f93565b9050600160a060020a03331681156108fc0282604051600060405180830381858888f1935050505015156114e657600080fd5b600e54600f8054600160a060020a039092169163c2999e1c913391600090811061150c57fe5b600091825260209091200154600f8054600160a060020a0390921691600290811061153357fe5b600091825260209091200154600160a060020a03168a8660405160e060020a63ffffffff8816028152600160a060020a03958616600482015293851660248501529190931660448301526064820192909252608481019190915260a401600060405180830381600087803b15156115a957600080fd5b5af115156115b657600080fd5b505050848310156115c357fe5b5090949350505050565b60025460009081908190819081908190600160a060020a033081169116638da5cb5b6040518163ffffffff1660e060020a028152600401602060405180830381600087803b151561161d57600080fd5b5af1151561162a57600080fd5b50505060405180519050600160a060020a031614151561164657fe5b600160a060020a0388166000908152600a602052604090206001015488906601000000000000900460ff16151561167c57600080fd5b600160a060020a0389166000908152600a60205260409020600181015490965065010000000000900460ff1615156116b357600080fd5b600254600160a060020a03166318160ddd6040518163ffffffff1660e060020a028152600401602060405180830381600087803b15156116f257600080fd5b5af115156116ff57600080fd5b50505060405180519050945061171489611c8e565b600754909450600160a060020a0316634b75f54f6040518163ffffffff1660e060020a028152600401602060405180830381600087803b151561175657600080fd5b5af1151561176357600080fd5b50505060405180516001880154600160a060020a0390911691506329a00e7c908790879063ffffffff168c6040518563ffffffff1660e060020a028152600401808581526020018481526020018363ffffffff1663ffffffff168152602001828152602001945050505050602060405180830381600087803b15156117e757600080fd5b5af115156117f457600080fd5b5050506040518051905092506118098361095e565b91506118158383611f93565b9998505050505050505050565b6000806000600b600c9054906101000a900460ff16151561183f57fe5b600754600160a060020a031663961a929c6040518163ffffffff1660e060020a028152600401602060405180830381600087803b151561187e57600080fd5b5af1151561188b57600080fd5b50505060405180519050600160a060020a031663fe173b976040518163ffffffff1660e060020a028152600401602060405180830381600087803b15156118d157600080fd5b5af115156118de57600080fd5b50505060405180513a111590506118f157fe5b83600081116118ff57600080fd5b61190987876115cd565b9250821580159061191a5750848310155b151561192557600080fd5b600160a060020a0387166000908152600a602052604090206001810154909250640100000000900460ff16156119645781546119619087612792565b82555b86600160a060020a03166323b872dd33308960405160e060020a63ffffffff8616028152600160a060020a0393841660048201529190921660248201526044810191909152606401602060405180830381600087803b15156119c557600080fd5b5af115156119d257600080fd5b5050506040518051905015156119e457fe5b600254600160a060020a031663867904b4338560405160e060020a63ffffffff8516028152600160a060020a0390921660048301526024820152604401600060405180830381600087803b1515611a3a57600080fd5b5af11515611a4757600080fd5b505050611a578787856001611fc9565b509095945050505050565b600080600080611a718661270a565b9250611a7d8684611f93565b9150611ae66009805480602002602001604051908101604052809291908181526020018280548015611ad857602002820191906000526020600020905b8154600160a060020a03168152600190910190602001808311611aba575b505050505083600133612471565b600e5460098054929350600160a060020a039091169163c2999e1c9133916000908110611b0f57fe5b60009182526020909120015460098054600160a060020a03909216916002908110611b3657fe5b600091825260209091200154600160a060020a03168a8660405160e060020a63ffffffff8816028152600160a060020a03958616600482015293851660248501529190931660448301526064820192909252608481019190915260a401600060405180830381600087803b1515611bac57600080fd5b5af11515611bb957600080fd5b50505084811015610eeb57fe5b6000611bd0611221565b600101905090565b600b546c01000000000000000000000000900460ff1681565b60045433600160a060020a03908116911614611c0c57600080fd5b600454600354600160a060020a0391821691167fbe4cc281795971a471c980e842627a7f1ea3892ddfce8c5b6357cd2611c1973260405160405180910390a3600480546003805473ffffffffffffffffffffffffffffffffffffffff19908116600160a060020a03841617909155169055565b600154600160a060020a031681565b600160a060020a0381166000908152600a6020526040812060010154819083906601000000000000900460ff161515611cc657600080fd5b600160a060020a0384166000908152600a602052604090206001810154909250640100000000900460ff16611d5f5783600160a060020a03166370a082313060405160e060020a63ffffffff8416028152600160a060020a039091166004820152602401602060405180830381600087803b1515611d4357600080fd5b5af11515611d5057600080fd5b50505060405180519050611d62565b81545b949350505050565b60035433600160a060020a03908116911614611d8257fe5b600354600160a060020a0382811691161415611d9d57600080fd5b6004805473ffffffffffffffffffffffffffffffffffffffff1916600160a060020a0392909216919091179055565b600980548290811061076d57fe5b600061ffff82161515611df95750600254600160a060020a0316610993565b6008805461ffff600019850116908110611e0f57fe5b600091825260209091200154600160a060020a031692915050565b60005433600160a060020a03908116911614611e4257fe5b600054600160a060020a0382811691161415611e5d57600080fd5b6001805473ffffffffffffffffffffffffffffffffffffffff1916600160a060020a0392909216919091179055565b600254600160a060020a031681565b600080600160a060020a038581169085161415611eb757600080fd5b600254600160a060020a0385811691161415611ed7576108ae85846115cd565b600254600160a060020a0386811691161415611ef7576108ae8484611227565b611f0185846115cd565b600254909150610eeb9085908390611f6c90600160a060020a03166318160ddd6040518163ffffffff1660e060020a028152600401602060405180830381600087803b1515611f4f57600080fd5b5af11515611f5c57600080fd5b5050506040518051905085612792565b612284565b6000611f8d611f7f836127a1565b611f88846127ce565b612792565b92915050565b600081831015611f9f57fe5b50900390565b6000828202831580611fc15750828482811515611fbe57fe5b04145b151561128d57fe5b600160a060020a0384166000908152600a602052604081209080808080611ffb611ff28b611c8e565b620f4240611fa5565b60025490955061206990600160a060020a03166318160ddd6040518163ffffffff1660e060020a028152600401602060405180830381600087803b151561204157600080fd5b5af1151561204e57600080fd5b5050506040518051600189015490915063ffffffff16611fa5565b600254909450600160a060020a031663313ce5676040518163ffffffff1660e060020a028152600401602060405180830381600087803b15156120ab57600080fd5b5af115156120b857600080fd5b5050506040518051935050600160a060020a038a1663313ce5676040518163ffffffff1660e060020a028152600401602060405180830381600087803b151561210057600080fd5b5af1151561210d57600080fd5b505050604051805192505060ff83811690831614612161578160ff168360ff16111561214c576121458583850360ff16600a0a611fa5565b9450612161565b61215e8484840360ff16600a0a611fa5565b93505b61216a8861095e565b90507f800000000000000000000000000000000000000000000000000000000000000081111561219657fe5b861561220c57600254600160a060020a03338116918116908c167fcee13e282037fd063de72c4cf7955988112510b046cda38c12c47862c1785e7b8c8c868b8b604051808681526020018581526020018481526020018381526020018281526020019550505050505060405180910390a4612278565b600254600160a060020a03338116918c821691167fcee13e282037fd063de72c4cf7955988112510b046cda38c12c47862c1785e7b8c8c868a8c604051808681526020018581526020018481526020018381526020018281526020019550505050505060405180910390a45b50505050505050505050565b6002546000908190819081908190600160a060020a033081169116638da5cb5b6040518163ffffffff1660e060020a028152600401602060405180830381600087803b15156122d257600080fd5b5af115156122df57600080fd5b50505060405180519050600160a060020a03161415156122fb57fe5b600160a060020a0388166000908152600a602052604090206001015488906601000000000000900460ff16151561233157600080fd5b866000811161233f57600080fd5b600160a060020a038a166000908152600a6020526040902095506123628a611c8e565b600754909550600160a060020a0316634b75f54f6040518163ffffffff1660e060020a028152600401602060405180830381600087803b15156123a457600080fd5b5af115156123b157600080fd5b50505060405180516001880154600160a060020a0390911691506349f9b0f7908a90889063ffffffff168d6040518563ffffffff1660e060020a028152600401808581526020018481526020018363ffffffff1663ffffffff168152602001828152602001945050505050602060405180830381600087803b151561243557600080fd5b5af1151561244257600080fd5b5050506040518051905093506124578461095e565b92506124638484611f93565b9a9950505050505050505050565b6000806000866002815111801561248a57506015815111155b80156124a357506002815181151561249e57fe5b066001145b15156124ae57600080fd5b876000815181106124bb57fe5b90602001906020020151600754909350600160a060020a031663c31e05476040518163ffffffff1660e060020a028152600401602060405180830381600087803b151561250757600080fd5b5af1151561251457600080fd5b50505060405180519250503415156126765782600160a060020a03166323b872dd33848a60405160e060020a63ffffffff8616028152600160a060020a0393841660048201529190921660248201526044810191909152606401602060405180830381600087803b151561258757600080fd5b5af1151561259457600080fd5b5050506040518051905015156125a657fe5b81600160a060020a031663c98fefed60008a8a8a8a6040518663ffffffff1660e060020a028152600401808060200185815260200184815260200183600160a060020a0316600160a060020a03168152602001828103825286818151815260200191508051906020019060200280838360005b83811015612631578082015183820152602001612619565b50505050905001955050505050506020604051808303818588803b151561265757600080fd5b5af1151561266457600080fd5b505050506040518051905093506126ff565b81600160a060020a031663c98fefed888a8a8a8a6040518663ffffffff1660e060020a028152600401808060200185815260200184815260200183600160a060020a0316600160a060020a031681526020018281038252868181518152602001915080519060200190602002808383600083811015612631578082015183820152602001612619565b505050949350505050565b6000806000612718846127a1565b9150612723846127ce565b600c54909150600160a060020a031682156108fc0283604051600060405180830381858888f19350505050151561275957600080fd5b600d54600160a060020a031681156108fc0282604051600060405180830381858888f19350505050151561278c57600080fd5b611d6282825b60008282018381101561128d57fe5b600b54600090620f4240906109869084906d0100000000000000000000000000900463ffffffff16611fa5565b600b54600090620f42409061098690849071010000000000000000000000000000000000900463ffffffff16611fa5565b8154818355818115116109fc576000838152602090206109fc91810190830161071691905b808211156128385760008155600101612824565b50905600a165627a7a72305820efd9b8abcb5a58f3bd2bf9be6b9524db594558e679f9ebc9204c28aab6f6c32b0029",
  "source": "pragma solidity ^0.4.18;\nimport '../BancorConverter.sol';\nimport './FinancieFee.sol';\nimport '../interfaces/IFinancieCore.sol';\nimport '../interfaces/IEtherToken.sol';\n\ncontract FinancieBancorConverter is BancorConverter, FinancieFee {\n\n    IFinancieCore core;\n    IERC20Token[] public quickSellPath;\n\n    /**\n        @dev constructor\n\n        @param  _token              smart token governed by the converter\n        @param  _connectorToken     optional, initial connector, allows defining the first connector at deployment time\n        @param  _extensions         address of a bancor converter extensions contract\n        @param  _heroFee            fee for financie hero, represented in ppm\n        @param  _teamFee            fee for financie team, represented in ppm\n        @param  _connectorWeight    optional, weight for the initial connector\n    */\n    function FinancieBancorConverter(\n        ISmartToken _token,\n        IEtherToken _etherToken,\n        IERC20Token _connectorToken,\n        address _hero_wallet,\n        address _team_wallet,\n        IBancorConverterExtensions _extensions,\n        address _core_address,\n        uint32 _heroFee,\n        uint32 _teamFee,\n        uint32 _connectorWeight)\n        public\n        BancorConverter(_token, _extensions, 0, _connectorToken, _connectorWeight)\n        FinancieFee(_heroFee, _teamFee, _hero_wallet, _team_wallet)\n    {\n        core = IFinancieCore(_core_address);\n\n        // when receiving ether, then deposit to ether token -> change to smart token -> change to connector token\n        quickBuyPath.push(_etherToken);\n        quickBuyPath.push(_token);\n        quickBuyPath.push(_connectorToken);\n\n        quickSellPath.push(_connectorToken);\n        quickSellPath.push(_token);\n        quickSellPath.push(_etherToken);\n    }\n\n    function getVersion() public view returns (uint256) {\n        return 5;\n    }\n\n    /**\n\n    */\n    function sellCards(uint256 _amount, uint256 _minReturn) public returns (uint256) {\n        uint256 result = quickConvertInternal(quickSellPath, _amount, 1, this);\n\n        uint256 feeAmount = distributeFees(result);\n        uint256 net = safeSub(result, feeAmount);\n\n        msg.sender.transfer(net);\n\n        core.notifyConvertCards(msg.sender, address(quickSellPath[0]), address(quickSellPath[2]), _amount, net);\n        assert(result >= _minReturn);\n\n        return result;\n    }\n\n    /**\n\n    */\n    function buyCards(uint256 _amount, uint256 _minReturn) payable public returns (uint256) {\n        uint256 feeAmount = distributeFees(_amount);\n        uint256 net = safeSub(_amount, feeAmount);\n\n        uint256 result = quickConvertInternal(quickBuyPath, net, 1, msg.sender);\n\n        core.notifyConvertCards(msg.sender, address(quickBuyPath[0]), address(quickBuyPath[2]), _amount, result);\n        assert(result >= _minReturn);\n\n        return result;\n    }\n\n    function quickConvertInternal(IERC20Token[] _path, uint256 _amount, uint256 _minReturn, address _spender)\n        internal\n        validConversionPath(_path)\n        returns (uint256)\n    {\n        IERC20Token fromToken = _path[0];\n        IBancorQuickConverter quickConverter = extensions.quickConverter();\n        if ( msg.value == 0 ) {\n            assert(fromToken.transferFrom(msg.sender, quickConverter, _amount));\n            return quickConverter.convertFor.value(0)(_path, _amount, _minReturn, _spender);\n        } else {\n            return quickConverter.convertFor.value(_amount)(_path, _amount, _minReturn, _spender);\n        }\n    }\n\n    /**\n        @dev overridden\n    */\n    function() payable public {\n    }\n\n    /**\n        @dev overridden\n    */\n    function getReturn(IERC20Token _fromToken, IERC20Token _toToken, uint256 _amount) public view returns (uint256) {\n        require(_fromToken == quickSellPath[0] || _fromToken == quickBuyPath[0]);\n        require(_toToken == quickSellPath[2] || _toToken == quickBuyPath[2]);\n\n        if ( _fromToken == quickSellPath[0] ) {\n            uint256 grossSell = super.getReturn(_fromToken, _toToken, _amount);\n            return safeSub(grossSell, getFinancieFee(grossSell));\n        } else {\n            return super.getReturn(_fromToken, _toToken, safeSub(_amount, getFinancieFee(_amount)));\n        }\n\n    }\n\n}\n",
  "sourcePath": "/Users/rudo/Documents/ichiba/submodules/contracts/solidity/contracts/Financie/FinancieBancorConverter.sol",
  "compiler": {
    "name": "solc",
    "version": "0.4.21+commit.dfe3193c.Emscripten.clang"
  },
  "schemaVersion": "2.0.0",
  "updatedAt": "2018-08-10T06:28:23.550Z"
}