{
  "contractName": "FinancieLog",
  "abi": [
    {
      "constant": false,
      "inputs": [],
      "name": "acceptOwnership",
      "outputs": [],
      "payable": false,
      "stateMutability": "nonpayable",
      "type": "function"
    },
    {
      "constant": true,
      "inputs": [],
      "name": "owner",
      "outputs": [
        {
          "name": "",
          "type": "address"
        }
      ],
      "payable": false,
      "stateMutability": "view",
      "type": "function"
    },
    {
      "constant": true,
      "inputs": [],
      "name": "newOwner",
      "outputs": [
        {
          "name": "",
          "type": "address"
        }
      ],
      "payable": false,
      "stateMutability": "view",
      "type": "function"
    },
    {
      "constant": false,
      "inputs": [
        {
          "name": "_newOwner",
          "type": "address"
        }
      ],
      "name": "transferOwnership",
      "outputs": [],
      "payable": false,
      "stateMutability": "nonpayable",
      "type": "function"
    },
    {
      "inputs": [],
      "payable": false,
      "stateMutability": "nonpayable",
      "type": "constructor"
    },
    {
      "payable": true,
      "stateMutability": "payable",
      "type": "fallback"
    },
    {
      "anonymous": false,
      "inputs": [
        {
          "indexed": true,
          "name": "_prevOwner",
          "type": "address"
        },
        {
          "indexed": true,
          "name": "_newOwner",
          "type": "address"
        }
      ],
      "name": "OwnerUpdate",
      "type": "event"
    },
    {
      "constant": false,
      "inputs": [
        {
          "name": "_sender",
          "type": "address"
        },
        {
          "name": "_eventType",
          "type": "uint8"
        },
        {
          "name": "_currencyType",
          "type": "uint8"
        },
        {
          "name": "_target",
          "type": "address"
        },
        {
          "name": "_paidAmount",
          "type": "uint256"
        },
        {
          "name": "_receivedAmount",
          "type": "uint256"
        }
      ],
      "name": "recordLog",
      "outputs": [],
      "payable": false,
      "stateMutability": "nonpayable",
      "type": "function"
    },
    {
      "constant": false,
      "inputs": [
        {
          "name": "_sender",
          "type": "address"
        }
      ],
      "name": "getLogs",
      "outputs": [
        {
          "name": "",
          "type": "uint8[]"
        },
        {
          "name": "",
          "type": "uint8[]"
        },
        {
          "name": "",
          "type": "address[]"
        },
        {
          "name": "",
          "type": "uint256[]"
        },
        {
          "name": "",
          "type": "uint256[]"
        }
      ],
      "payable": false,
      "stateMutability": "nonpayable",
      "type": "function"
    }
  ],
  "bytecode": "0x6060604052341561000f57600080fd5b60008054600160a060020a033316600160a060020a031990911617905561067f8061003b6000396000f3006060604052600436106100775763ffffffff7c010000000000000000000000000000000000000000000000000000000060003504166379ba5097811461007c5780638da5cb5b14610091578063d4ee1d90146100c0578063e1f32e4b146100d3578063f2fde38b1461010d578063f42b53cf1461012c575b600080fd5b341561008757600080fd5b61008f6102b3565b005b341561009c57600080fd5b6100a4610341565b604051600160a060020a03909116815260200160405180910390f35b34156100cb57600080fd5b6100a4610350565b34156100de57600080fd5b61008f600160a060020a0360043581169060ff602435811691604435909116906064351660843560a43561035f565b341561011857600080fd5b61008f600160a060020a036004351661037f565b341561013757600080fd5b61014b600160a060020a03600435166103e1565b60405180806020018060200180602001806020018060200186810386528b818151815260200191508051906020019060200280838360005b8381101561019b578082015183820152602001610183565b5050505090500186810385528a818151815260200191508051906020019060200280838360005b838110156101da5780820151838201526020016101c2565b50505050905001868103845289818151815260200191508051906020019060200280838360005b83811015610219578082015183820152602001610201565b50505050905001868103835288818151815260200191508051906020019060200280838360005b83811015610258578082015183820152602001610240565b50505050905001868103825287818151815260200191508051906020019060200280838360005b8381101561029757808201518382015260200161027f565b505050509050019a505050505050505050505060405180910390f35b60015433600160a060020a039081169116146102ce57600080fd5b600154600054600160a060020a0391821691167f343765429aea5a34b3ff6a3785a98a5abb2597aca87bfbb58632c173d585373a60405160405180910390a3600180546000805473ffffffffffffffffffffffffffffffffffffffff19908116600160a060020a03841617909155169055565b600054600160a060020a031681565b600154600160a060020a031681565b60005433600160a060020a0390811691161461037757fe5b505050505050565b60005433600160a060020a0390811691161461039757fe5b600054600160a060020a03828116911614156103b257600080fd5b6001805473ffffffffffffffffffffffffffffffffffffffff1916600160a060020a0392909216919091179055565b6103e9610641565b6103f1610641565b6103f9610641565b610401610641565b610409610641565b600160a060020a0386166000908152600260208181526040928390208054909360018501938501926003860192600487019287928281020190519081016040528092919081815260200182805480156104ab57602002820191906000526020600020906000905b82829054906101000a900460ff16600481111561048957fe5b8152602060019283018181049485019490930390920291018084116104705790505b505050505094508380548060200260200160405190810160405280929190818152602001828054801561052757602002820191906000526020600020906000905b82829054906101000a900460ff16600281111561050557fe5b8152602060019283018181049485019490930390920291018084116104ec5790505b505050505093508280548060200260200160405190810160405280929190818152602001828054801561058357602002820191906000526020600020905b8154600160a060020a03168152600190910190602001808311610565575b50505050509250818054806020026020016040519081016040528092919081815260200182805480156105d557602002820191906000526020600020905b8154815260200190600101908083116105c1575b505050505091508080548060200260200160405190810160405280929190818152602001828054801561062757602002820191906000526020600020905b815481526020019060010190808311610613575b505050505090509450945094509450945091939590929450565b602060405190810160405260008152905600a165627a7a72305820a70997d30efdb3661f329aff0b3acfdc5de2870eda609870f8aca690d5390c650029",
  "source": "pragma solidity ^0.4.18;\nimport '../interfaces/IFinancieLog.sol';\nimport '../Owned.sol';\n\ncontract FinancieLog is Owned, IFinancieLog {\n\n    struct Logs {\n        EventType[] eventType;\n        CurrencyType[] currencyType;\n        address[] target;\n        uint256[] amountFrom;\n        uint256[] amountTo;\n    }\n\n    mapping (address => Logs) allLogs;\n\n    function FinancieLog() public {\n\n    }\n\n    function() payable public {\n        revert();\n    }\n\n    function recordLog(address _sender,\n        EventType _eventType,\n        CurrencyType _currencyType,\n        address _target,\n        uint256 _paidAmount,\n        uint256 _receivedAmount)\n        public\n        ownerOnly\n    {\n\n    }\n\n    function getLogs(address _sender)\n        public returns(EventType[], CurrencyType[], address[], uint256[], uint256[])\n    {\n        return (allLogs[_sender].eventType,\n          allLogs[_sender].currencyType,\n          allLogs[_sender].target,\n          allLogs[_sender].amountFrom,\n          allLogs[_sender].amountTo);\n    }\n\n}\n",
  "sourcePath": "/Users/rudo/Documents/ichiba/submodules/contracts/solidity/contracts/Financie/FinancieLog.sol",
  "compiler": {
    "name": "solc",
    "version": "0.4.21+commit.dfe3193c.Emscripten.clang"
  },
  "schemaVersion": "2.0.0",
  "updatedAt": "2018-07-23T12:38:44.295Z"
}