{
  "contractName": "FinancieCore",
  "abi": [
    {
      "constant": false,
      "inputs": [],
      "name": "acceptOwnership",
      "outputs": [],
      "payable": false,
      "stateMutability": "nonpayable",
      "type": "function"
    },
    {
      "constant": true,
      "inputs": [],
      "name": "owner",
      "outputs": [
        {
          "name": "",
          "type": "address"
        }
      ],
      "payable": false,
      "stateMutability": "view",
      "type": "function"
    },
    {
      "constant": true,
      "inputs": [],
      "name": "newOwner",
      "outputs": [
        {
          "name": "",
          "type": "address"
        }
      ],
      "payable": false,
      "stateMutability": "view",
      "type": "function"
    },
    {
      "constant": false,
      "inputs": [
        {
          "name": "_newOwner",
          "type": "address"
        }
      ],
      "name": "transferOwnership",
      "outputs": [],
      "payable": false,
      "stateMutability": "nonpayable",
      "type": "function"
    },
    {
      "inputs": [
        {
          "name": "_pf_token",
          "type": "address"
        },
        {
          "name": "_ether_token",
          "type": "address"
        }
      ],
      "payable": false,
      "stateMutability": "nonpayable",
      "type": "constructor"
    },
    {
      "payable": true,
      "stateMutability": "payable",
      "type": "fallback"
    },
    {
      "anonymous": false,
      "inputs": [
        {
          "indexed": false,
          "name": "_sender",
          "type": "address"
        },
        {
          "indexed": false,
          "name": "_userId",
          "type": "uint32"
        }
      ],
      "name": "ActivateUser",
      "type": "event"
    },
    {
      "anonymous": false,
      "inputs": [
        {
          "indexed": false,
          "name": "_sender",
          "type": "address"
        },
        {
          "indexed": false,
          "name": "_from",
          "type": "address"
        },
        {
          "indexed": false,
          "name": "_to",
          "type": "address"
        },
        {
          "indexed": false,
          "name": "_amountFrom",
          "type": "uint256"
        },
        {
          "indexed": false,
          "name": "_amountTo",
          "type": "uint256"
        }
      ],
      "name": "ConvertCards",
      "type": "event"
    },
    {
      "anonymous": false,
      "inputs": [
        {
          "indexed": false,
          "name": "_sender",
          "type": "address"
        },
        {
          "indexed": false,
          "name": "_to",
          "type": "address"
        },
        {
          "indexed": false,
          "name": "_amount",
          "type": "uint256"
        }
      ],
      "name": "BidCards",
      "type": "event"
    },
    {
      "anonymous": false,
      "inputs": [
        {
          "indexed": false,
          "name": "_sender",
          "type": "address"
        },
        {
          "indexed": false,
          "name": "_to",
          "type": "address"
        },
        {
          "indexed": false,
          "name": "_bids",
          "type": "uint256"
        },
        {
          "indexed": false,
          "name": "_amount",
          "type": "uint256"
        }
      ],
      "name": "WithdrawalCards",
      "type": "event"
    },
    {
      "anonymous": false,
      "inputs": [
        {
          "indexed": false,
          "name": "_sender",
          "type": "address"
        },
        {
          "indexed": false,
          "name": "_card",
          "type": "address"
        },
        {
          "indexed": false,
          "name": "_amount",
          "type": "uint256"
        }
      ],
      "name": "BurnCards",
      "type": "event"
    },
    {
      "anonymous": false,
      "inputs": [
        {
          "indexed": false,
          "name": "_sender",
          "type": "address"
        },
        {
          "indexed": false,
          "name": "_ticket",
          "type": "address"
        },
        {
          "indexed": false,
          "name": "_amount",
          "type": "uint256"
        }
      ],
      "name": "BurnTickets",
      "type": "event"
    },
    {
      "anonymous": false,
      "inputs": [
        {
          "indexed": false,
          "name": "_sender",
          "type": "address"
        },
        {
          "indexed": false,
          "name": "_issuer",
          "type": "address"
        },
        {
          "indexed": false,
          "name": "_ticket",
          "type": "address"
        },
        {
          "indexed": false,
          "name": "_card",
          "type": "address"
        },
        {
          "indexed": false,
          "name": "_amount",
          "type": "uint256"
        },
        {
          "indexed": false,
          "name": "_price",
          "type": "uint256"
        }
      ],
      "name": "DepositTickets",
      "type": "event"
    },
    {
      "anonymous": false,
      "inputs": [
        {
          "indexed": false,
          "name": "_sender",
          "type": "address"
        },
        {
          "indexed": false,
          "name": "_issuer",
          "type": "address"
        },
        {
          "indexed": false,
          "name": "_ticket",
          "type": "address"
        },
        {
          "indexed": false,
          "name": "_amount",
          "type": "uint256"
        },
        {
          "indexed": false,
          "name": "_price",
          "type": "uint256"
        }
      ],
      "name": "BuyTicket",
      "type": "event"
    },
    {
      "anonymous": false,
      "inputs": [
        {
          "indexed": true,
          "name": "_prevOwner",
          "type": "address"
        },
        {
          "indexed": true,
          "name": "_newOwner",
          "type": "address"
        }
      ],
      "name": "OwnerUpdate",
      "type": "event"
    },
    {
      "constant": false,
      "inputs": [
        {
          "name": "_log",
          "type": "address"
        }
      ],
      "name": "setFinancieLog",
      "outputs": [],
      "payable": false,
      "stateMutability": "nonpayable",
      "type": "function"
    },
    {
      "constant": false,
      "inputs": [
        {
          "name": "_userId",
          "type": "uint32"
        }
      ],
      "name": "activateUser",
      "outputs": [],
      "payable": false,
      "stateMutability": "nonpayable",
      "type": "function"
    },
    {
      "constant": false,
      "inputs": [
        {
          "name": "_contract",
          "type": "address"
        },
        {
          "name": "_enabled",
          "type": "bool"
        }
      ],
      "name": "activateTargetContract",
      "outputs": [],
      "payable": false,
      "stateMutability": "nonpayable",
      "type": "function"
    },
    {
      "constant": false,
      "inputs": [
        {
          "name": "_sender",
          "type": "address"
        },
        {
          "name": "_from",
          "type": "address"
        },
        {
          "name": "_to",
          "type": "address"
        },
        {
          "name": "_amountFrom",
          "type": "uint256"
        },
        {
          "name": "_amountTo",
          "type": "uint256"
        }
      ],
      "name": "notifyConvertCards",
      "outputs": [],
      "payable": false,
      "stateMutability": "nonpayable",
      "type": "function"
    },
    {
      "constant": false,
      "inputs": [
        {
          "name": "_sender",
          "type": "address"
        },
        {
          "name": "_to",
          "type": "address"
        },
        {
          "name": "_amount",
          "type": "uint256"
        }
      ],
      "name": "notifyBidCards",
      "outputs": [],
      "payable": false,
      "stateMutability": "nonpayable",
      "type": "function"
    },
    {
      "constant": false,
      "inputs": [
        {
          "name": "_sender",
          "type": "address"
        },
        {
          "name": "_to",
          "type": "address"
        },
        {
          "name": "_bids",
          "type": "uint256"
        },
        {
          "name": "_amount",
          "type": "uint256"
        }
      ],
      "name": "notifyWithdrawalCards",
      "outputs": [],
      "payable": false,
      "stateMutability": "nonpayable",
      "type": "function"
    },
    {
      "constant": false,
      "inputs": [
        {
          "name": "_sender",
          "type": "address"
        },
        {
          "name": "_amount",
          "type": "uint256"
        }
      ],
      "name": "notifyBurnCards",
      "outputs": [],
      "payable": false,
      "stateMutability": "nonpayable",
      "type": "function"
    },
    {
      "constant": false,
      "inputs": [
        {
          "name": "_sender",
          "type": "address"
        },
        {
          "name": "_amount",
          "type": "uint256"
        }
      ],
      "name": "notifyBurnTickets",
      "outputs": [],
      "payable": false,
      "stateMutability": "nonpayable",
      "type": "function"
    },
    {
      "constant": false,
      "inputs": [
        {
          "name": "_ticket",
          "type": "address"
        },
        {
          "name": "_card",
          "type": "address"
        },
        {
          "name": "_amount",
          "type": "uint256"
        },
        {
          "name": "_price",
          "type": "uint256"
        }
      ],
      "name": "depositTickets",
      "outputs": [],
      "payable": false,
      "stateMutability": "nonpayable",
      "type": "function"
    },
    {
      "constant": false,
      "inputs": [
        {
          "name": "_ticket",
          "type": "address"
        }
      ],
      "name": "getTicketPrice",
      "outputs": [
        {
          "name": "",
          "type": "uint256"
        }
      ],
      "payable": false,
      "stateMutability": "nonpayable",
      "type": "function"
    },
    {
      "constant": false,
      "inputs": [
        {
          "name": "_ticket",
          "type": "address"
        }
      ],
      "name": "getTicketStock",
      "outputs": [
        {
          "name": "",
          "type": "uint256"
        }
      ],
      "payable": false,
      "stateMutability": "nonpayable",
      "type": "function"
    },
    {
      "constant": false,
      "inputs": [
        {
          "name": "_ticket",
          "type": "address"
        }
      ],
      "name": "getTicketCurrency",
      "outputs": [
        {
          "name": "",
          "type": "address"
        }
      ],
      "payable": false,
      "stateMutability": "nonpayable",
      "type": "function"
    },
    {
      "constant": false,
      "inputs": [
        {
          "name": "_ticket",
          "type": "address"
        }
      ],
      "name": "buyTicket",
      "outputs": [],
      "payable": false,
      "stateMutability": "nonpayable",
      "type": "function"
    },
    {
      "constant": false,
      "inputs": [
        {
          "name": "_sender",
          "type": "address"
        },
        {
          "name": "_userId",
          "type": "uint32"
        }
      ],
      "name": "checkUserActivation",
      "outputs": [
        {
          "name": "",
          "type": "bool"
        }
      ],
      "payable": false,
      "stateMutability": "nonpayable",
      "type": "function"
    },
    {
      "constant": false,
      "inputs": [
        {
          "name": "_sender",
          "type": "address"
        }
      ],
      "name": "getCardList",
      "outputs": [
        {
          "name": "",
          "type": "address[]"
        }
      ],
      "payable": false,
      "stateMutability": "nonpayable",
      "type": "function"
    },
    {
      "constant": false,
      "inputs": [
        {
          "name": "_sender",
          "type": "address"
        }
      ],
      "name": "getTicketList",
      "outputs": [
        {
          "name": "",
          "type": "address[]"
        }
      ],
      "payable": false,
      "stateMutability": "nonpayable",
      "type": "function"
    },
    {
      "constant": false,
      "inputs": [
        {
          "name": "_sender",
          "type": "address"
        },
        {
          "name": "_ticket",
          "type": "address"
        }
      ],
      "name": "getPaidTicketCounts",
      "outputs": [
        {
          "name": "",
          "type": "uint256"
        }
      ],
      "payable": false,
      "stateMutability": "nonpayable",
      "type": "function"
    }
  ],
  "bytecode": "0x6060604052341561000f57600080fd5b6040516040806118b8833981016040528080519190602001805160008054600160a060020a03338116600160a060020a0319928316179092556009805496831696821696909617909555600a805491909216941693909317909255505061183d8061007b6000396000f3006060604052600436106101035763ffffffff60e060020a60003504166304d92e8c81146101d4578063104ce370146101f85780631bed72331461026a5780631c1b60321461028957806321749841146102c05780632d00e244146102df57806346c881851461030157806349747f2f1461033d5780636b6e11eb1461036857806379ba50971461038457806381b92e5d1461039757806381de1be4146103b65780638322ada6146103e157806383505556146104055780638da5cb5b1461042d578063a5f8cdbb1461045c578063c2999e1c1461047b578063cc71e05f146104ac578063d4ee1d90146104cb578063f2fde38b146104de578063fdbafc6d146104fd575b600061012d61011d620186a0670de0b6b3a764000061051c565b670de0b6b3a7640000340461051c565b600954909150600160a060020a031663a9059cbb338360405160e060020a63ffffffff8516028152600160a060020a0390921660048301526024820152604401602060405180830381600087803b151561018657600080fd5b5af1151561019357600080fd5b50505060405180515050600054600160a060020a03163480156108fc0290604051600060405180830381858888f1935050505015156101d157600080fd5b50005b34156101df57600080fd5b6101f6600160a060020a0360043516602435610547565b005b341561020357600080fd5b610217600160a060020a0360043516610620565b60405160208082528190810183818151815260200191508051906020019060200280838360005b8381101561025657808201518382015260200161023e565b505050509050019250505060405180910390f35b341561027557600080fd5b6101f6600160a060020a03600435166106ad565b341561029457600080fd5b6102ae600160a060020a036004358116906024351661072d565b60405190815260200160405180910390f35b34156102cb57600080fd5b6102ae600160a060020a0360043516610758565b34156102ea57600080fd5b6101f6600160a060020a03600435166024356107c6565b341561030c57600080fd5b610329600160a060020a036004351663ffffffff60243516610907565b604051901515815260200160405180910390f35b341561034857600080fd5b6101f6600160a060020a0360043581169060243516604435606435610930565b341561037357600080fd5b6101f663ffffffff60043516610a86565b341561038f57600080fd5b6101f6610b16565b34156103a257600080fd5b6102ae600160a060020a0360043516610b97565b34156103c157600080fd5b6101f6600160a060020a0360043581169060243516604435606435610bb5565b34156103ec57600080fd5b6101f6600160a060020a03600435166024351515610ef6565b341561041057600080fd5b6101f6600160a060020a0360043581169060243516604435610f38565b341561043857600080fd5b6104406110a4565b604051600160a060020a03909116815260200160405180910390f35b341561046757600080fd5b6101f6600160a060020a03600435166110b3565b341561048657600080fd5b6101f6600160a060020a03600435811690602435811690604435166064356084356113a9565b34156104b757600080fd5b610217600160a060020a03600435166115b5565b34156104d657600080fd5b610440611640565b34156104e957600080fd5b6101f6600160a060020a036004351661164f565b341561050857600080fd5b610440600160a060020a03600435166116a4565b6000828202831580610538575082848281151561053557fe5b04145b151561054057fe5b9392505050565b33600160a060020a03811660009081526003602052604090205460ff16151561056f57600080fd5b600160a060020a0333811660009081526006602090815260408083209387168352929052205461059f90836116c5565b600160a060020a033381811660009081526006602090815260408083209489168352939052829020929092557fd22f30fd6177f48e98aaacc43c0c6cdbc2d60e111f649402a61ef93ca70e8c80918591859051600160a060020a039384168152919092166020820152604080820192909252606001905180910390a1505050565b6106286117b5565b6004600083600160a060020a0316600160a060020a031681526020019081526020016000208054806020026020016040519081016040528092919081815260200182805480156106a157602002820191906000526020600020905b8154600160a060020a03168152600190910190602001808311610683575b50505050509050919050565b60005433600160a060020a039081169116146106c557fe5b60088054600160a060020a031916600160a060020a038381169190911791829055166379ba50976040518163ffffffff1660e060020a028152600401600060405180830381600087803b151561071a57600080fd5b5af1151561072757600080fd5b50505050565b600160a060020a03918216600090815260066020908152604080832093909416825291909152205490565b600081600160a060020a0381166370a082313060405160e060020a63ffffffff8416028152600160a060020a039091166004820152602401602060405180830381600087803b15156107a957600080fd5b5af115156107b657600080fd5b5050506040518051949350505050565b33600160a060020a03811660009081526003602052604090205460ff1615156107ee57600080fd5b600854600160a060020a031663e1f32e4b84600460003387826040518763ffffffff1660e060020a0281526004018087600160a060020a0316600160a060020a0316815260200186600481111561084157fe5b60ff16815260200185600281111561085557fe5b60ff16815260200184600160a060020a0316600160a060020a031681526020018381526020018281526020019650505050505050600060405180830381600087803b15156108a257600080fd5b5af115156108af57600080fd5b5050507f7b2723af1ee619ec1b72fa392eed7e1f57f77f8502af17ef025d8812c8968a28333384604051600160a060020a039384168152919092166020820152604080820192909252606001905180910390a1505050565b600160a060020a039190911660009081526002602052604090205463ffffffff91821691161490565b33600160a060020a03811660009081526003602052604090205460ff16151561095857600080fd5b61096285856116d4565b600854600160a060020a031663e1f32e4b86600160008881886040518763ffffffff1660e060020a0281526004018087600160a060020a0316600160a060020a031681526020018660048111156109b557fe5b60ff1681526020018560028111156109c957fe5b60ff16815260200184600160a060020a0316600160a060020a031681526020018381526020018281526020019650505050505050600060405180830381600087803b1515610a1657600080fd5b5af11515610a2357600080fd5b5050507fdcaf29113aa8f1afa763a14349f17fef0739fa57def4f6539c2e02dd1dcf33a385858585604051600160a060020a0394851681529290931660208301526040808301919091526060820192909252608001905180910390a15050505050565b63ffffffff811660008111610a9a57600080fd5b33600160a060020a03811660009081526002602052604090819020805463ffffffff191663ffffffff86161790557f521af0a0249f35bba732c43f3da0a51cac168a51b339f7db9d24ddcab5082aa59190849051600160a060020a03909216825263ffffffff1660208201526040908101905180910390a15050565b60015433600160a060020a03908116911614610b3157600080fd5b600154600054600160a060020a0391821691167f343765429aea5a34b3ff6a3785a98a5abb2597aca87bfbb58632c173d585373a60405160405180910390a36001805460008054600160a060020a0319908116600160a060020a03841617909155169055565b600160a060020a031660009081526007602052604090206002015490565b600160a060020a0384166000908152600360205260408120548190869060ff161515610be057600080fd5b600160a060020a038616600090815260036020526040902054869060ff161515610c0957600080fd5b60008611610c1657600080fd5b60008511610c2357600080fd5b87935083600160a060020a031663525564216040518163ffffffff1660e060020a028152600401602060405180830381600087803b1515610c6357600080fd5b5af11515610c7057600080fd5b50505060405180519050600160a060020a031633600160a060020a03161480610ca7575060005433600160a060020a039081169116145b1515610cb257600080fd5b87925082600160a060020a03166323b872dd33308960405160e060020a63ffffffff8616028152600160a060020a0393841660048201529190921660248201526044810191909152606401602060405180830381600087803b1515610d1657600080fd5b5af11515610d2357600080fd5b505050604051805190501515610d3557fe5b60606040519081016040528085600160a060020a031663525564216040518163ffffffff1660e060020a028152600401602060405180830381600087803b1515610d7e57600080fd5b5af11515610d8b57600080fd5b50505060405180519050600160a060020a0316815260200188600160a060020a0316815260200186815250600760008a600160a060020a0316600160a060020a0316815260200190815260200160002060008201518154600160a060020a031916600160a060020a03919091161781556020820151600182018054600160a060020a031916600160a060020a03929092169190911790556040820151600290910155507f3d66a0e1ad04a8bb3d5889531834ed5f9ffec357833e1606da8335f55262ca2f33600160a060020a03861663525564216040518163ffffffff1660e060020a028152600401602060405180830381600087803b1515610e8d57600080fd5b5af11515610e9a57600080fd5b505050604051805190508a8a8a8a604051600160a060020a0396871681529486166020860152928516604080860191909152919094166060840152608083019390935260a082015260c001905180910390a15050505050505050565b81600160a060020a0381161515610f0c57600080fd5b50600160a060020a03919091166000908152600360205260409020805460ff1916911515919091179055565b33600160a060020a03811660009081526003602052604090205460ff161515610f6057600080fd5b600160a060020a038316600090815260036020526040902054839060ff161515610f8957600080fd5b600854600160a060020a031663e1f32e4b86600060028888836040518763ffffffff1660e060020a0281526004018087600160a060020a0316600160a060020a03168152602001866004811115610fdc57fe5b60ff168152602001856002811115610ff057fe5b60ff16815260200184600160a060020a0316600160a060020a031681526020018381526020018281526020019650505050505050600060405180830381600087803b151561103d57600080fd5b5af1151561104a57600080fd5b5050507fc886a3a2d2ea072b87ccf7950a659fed5abbf41d8da895c6019581c7212a2082858585604051600160a060020a039384168152919092166020820152604080820192909252606001905180910390a15050505050565b600054600160a060020a031681565b600160a060020a0380821660009081526007602052604080822060018101546002820154919416929182919084906370a082319033905160e060020a63ffffffff8416028152600160a060020a039091166004820152602401602060405180830381600087803b151561112557600080fd5b5af1151561113257600080fd5b505050604051805190501015151561114957600080fd5b60018401546002850154600160a060020a03909116925082906379cc679090339060405160e060020a63ffffffff8516028152600160a060020a0390921660048301526024820152604401600060405180830381600087803b15156111ad57600080fd5b5af115156111ba57600080fd5b505050600160a060020a03331660009081526005602052604090208054600181016111e583826117c7565b5060009182526020909120018054600160a060020a031916600160a060020a0387169081179091558591506001906370a082313060405160e060020a63ffffffff8416028152600160a060020a039091166004820152602401602060405180830381600087803b151561125757600080fd5b5af1151561126457600080fd5b505050604051805190501015151561127b57600080fd5b80600160a060020a031663a9059cbb33600160405160e060020a63ffffffff8516028152600160a060020a0390921660048301526024820152604401602060405180830381600087803b15156112d057600080fd5b5af115156112dd57600080fd5b50505060405180519050507f907ae0dff3c31be1a4d1c061a00f29ec5fa2a50b7798c65f05345699c640f99a3383600160a060020a031663525564216040518163ffffffff1660e060020a028152600401602060405180830381600087803b151561134757600080fd5b5af1151561135457600080fd5b505050604051805190508760018860020154604051600160a060020a0395861681529385166020850152919093166040808401919091526060830193909352608082015260a001905180910390a15050505050565b600a54600160a060020a038481169116141561148757600854600160a060020a031663e1f32e4b866002808887876040518763ffffffff1660e060020a0281526004018087600160a060020a0316600160a060020a0316815260200186600481111561141157fe5b60ff16815260200185600281111561142557fe5b60ff16815260200184600160a060020a0316600160a060020a031681526020018381526020018281526020019650505050505050600060405180830381600087803b151561147257600080fd5b5af1151561147f57600080fd5b50505061154c565b600854600160a060020a031663e1f32e4b86600360028787876040518763ffffffff1660e060020a0281526004018087600160a060020a0316600160a060020a031681526020018660048111156114da57fe5b60ff1681526020018560028111156114ee57fe5b60ff16815260200184600160a060020a0316600160a060020a031681526020018381526020018281526020019650505050505050600060405180830381600087803b151561153b57600080fd5b5af1151561154857600080fd5b5050505b7f1c83535ec90fbbbbe403ebcda51015819d82e4a98c41ebaa001c6f1b9a8be12f8585858585604051600160a060020a0395861681529385166020850152919093166040808401919091526060830193909352608082015260a001905180910390a15050505050565b6115bd6117b5565b6005600083600160a060020a0316600160a060020a031681526020019081526020016000208054806020026020016040519081016040528092919081815260200182805480156106a157602002820191906000526020600020908154600160a060020a031681526001909101906020018083116106835750505050509050919050565b600154600160a060020a031681565b60005433600160a060020a0390811691161461166757fe5b600054600160a060020a038281169116141561168257600080fd5b60018054600160a060020a031916600160a060020a0392909216919091179055565b600160a060020a039081166000908152600760205260409020600101541690565b60008282018381101561054057fe5b6000805b600160a060020a03841660009081526004602052604090205463ffffffff8216101561175957600160a060020a03848116600090815260046020526040902080549185169163ffffffff841690811061172d57fe5b600091825260209091200154600160a060020a031614156117515760019150611759565b6001016116d8565b81151561072757600160a060020a038416600090815260046020526040902080546001810161178883826117c7565b5060009182526020909120018054600160a060020a038516600160a060020a031990911617905550505050565b60206040519081016040526000815290565b8154818355818115116117eb576000838152602090206117eb9181019083016117f0565b505050565b61180e91905b8082111561180a57600081556001016117f6565b5090565b905600a165627a7a723058204af16e681af6ea37c534a74b72d1ab06cca017ae452afaab2256c3861f68fff10029",
  "source": "pragma solidity ^0.4.18;\nimport '../interfaces/IFinancieCore.sol';\nimport '../interfaces/IFinancieIssuerToken.sol';\nimport '../interfaces/IERC20Token.sol';\nimport '../interfaces/IFinancieLog.sol';\nimport '../Utils.sol';\nimport '../Owned.sol';\n\ncontract FinancieCore is IFinancieCore, Owned, Utils {\n\n    mapping (address => uint32) userIds;\n    mapping (address => bool) targetContracts;\n    mapping (address => address[]) ownedCardList;\n    mapping (address => address[]) ownedTicketList;\n    mapping (address => mapping (address => uint256)) paidTicketList;\n\n    struct TicketSale {\n        address issuer;\n        address card;\n        uint256 price;\n    }\n\n    mapping (address => TicketSale) ticketSales;\n    IFinancieLog log;\n\n    IERC20Token platformToken;\n    IERC20Token etherToken;\n\n    event ActivateUser(address _sender, uint32 _userId);\n    event ConvertCards(address _sender, address _from, address _to, uint256 _amountFrom, uint256 _amountTo);\n    event BidCards(address _sender, address _to, uint256 _amount);\n    event WithdrawalCards(address _sender, address _to, uint256 _bids, uint256 _amount);\n    event BurnCards(address _sender, address _card, uint256 _amount);\n    event BurnTickets(address _sender, address _ticket, uint256 _amount);\n    event DepositTickets(address _sender, address _issuer, address _ticket, address _card, uint256 _amount, uint256 _price);\n    event BuyTicket(address _sender, address _issuer, address _ticket, uint256 _amount, uint256 _price);\n\n    function FinancieCore(address _pf_token, address _ether_token) public {\n        platformToken = IERC20Token(_pf_token);\n        etherToken = IERC20Token(_ether_token);\n    }\n\n    function setFinancieLog(address _log) public ownerOnly {\n        log = IFinancieLog(_log);\n        log.acceptOwnership();\n    }\n\n    modifier validTargetContract(address _contract) {\n        require(targetContracts[_contract]);\n        _;\n    }\n\n    function() payable public {\n        uint256 value = safeMul(safeMul(100000, 10 ** 18), msg.value / 1 ether);\n        platformToken.transfer(msg.sender, value);\n        owner.transfer(msg.value);\n    }\n\n    function activateUser(uint32 _userId)\n        public\n        greaterThanZero(_userId)\n    {\n        // set new account\n        userIds[msg.sender] = _userId;\n\n        ActivateUser(msg.sender, _userId);\n    }\n\n    function activateTargetContract(address _contract, bool _enabled)\n        public\n        validAddress(_contract)\n    {\n        targetContracts[_contract] = _enabled;\n    }\n\n    function notifyConvertCards(\n        address _sender,\n        address _from,\n        address _to,\n        uint256 _amountFrom,\n        uint256 _amountTo)\n        public\n    {\n        if ( _to == address(etherToken) ) {\n            log.recordLog(\n              _sender,\n              IFinancieLog.EventType.SellCards,\n              IFinancieLog.CurrencyType.Ethereum,\n              _from,\n              _amountFrom,\n              _amountTo);\n        } else {\n            log.recordLog(\n              _sender,\n              IFinancieLog.EventType.BuyCards,\n              IFinancieLog.CurrencyType.Ethereum,\n              _to,\n              _amountFrom,\n              _amountTo);\n        }\n        ConvertCards(_sender, _from, _to, _amountFrom, _amountTo);\n    }\n\n    /**\n    *\n    */\n    function addOwnedCardList(address _sender, address _address) private {\n        bool exist = false;\n        for (uint32 i = 0; i < ownedCardList[_sender].length; i++) {\n            if ( ownedCardList[_sender][i] == _address ) {\n                exist = true;\n                break;\n            }\n        }\n        if ( !exist ) {\n            ownedCardList[_sender].push(_address);\n        }\n    }\n\n    /**\n    * log the bid of cards for sales contract\n    */\n    function notifyBidCards(address _sender, address _to, uint256 _amount)\n        public\n        validTargetContract(msg.sender)\n        validTargetContract(_to)\n    {\n        log.recordLog(\n          _sender,\n          IFinancieLog.EventType.BidCards,\n          IFinancieLog.CurrencyType.Ethereum,\n          _to,\n          _amount,\n          0);\n\n        BidCards(_sender, _to, _amount);\n    }\n\n    /**\n    * log the withdrawal of cards from sales contract\n    */\n    function notifyWithdrawalCards(address _sender, address _to, uint256 _bids, uint256 _amount)\n        public\n        validTargetContract(msg.sender)\n    {\n        addOwnedCardList(_sender, _to);\n        log.recordLog(\n          _sender,\n          IFinancieLog.EventType.WithdrawCards,\n          IFinancieLog.CurrencyType.None,\n          _to,\n          0,\n          _amount);\n\n        WithdrawalCards(_sender, _to, _bids, _amount);\n    }\n\n    /**\n    * log the burn of cards\n    */\n    function notifyBurnCards(address _sender, uint256 _amount)\n        public\n        validTargetContract(msg.sender)\n    {\n        log.recordLog(\n          _sender,\n          IFinancieLog.EventType.BurnCards,\n          IFinancieLog.CurrencyType.None,\n          msg.sender,\n          _amount,\n          0);\n\n        BurnCards(msg.sender, msg.sender, _amount);\n    }\n\n    /**\n    * log the burn of tickets\n    */\n    function notifyBurnTickets(address _sender, uint256 _amount)\n        public\n        validTargetContract(msg.sender)\n    {\n        paidTicketList[msg.sender][_sender] = safeAdd(paidTicketList[msg.sender][_sender], _amount);\n\n        BurnTickets(_sender, msg.sender, _amount);\n    }\n\n    /**\n    * issuer deposits tickets into this contract and register it as a sales item\n    */\n    function depositTickets(address _ticket, address _card, uint256 _amount, uint256 _price)\n        public\n        validTargetContract(_ticket)\n        validTargetContract(_card)\n    {\n        require(_amount > 0);\n        require(_price > 0);\n\n        /**\n        * check ticket issuer and deposit tickets into this contract\n        */\n        IFinancieIssuerToken ticket = IFinancieIssuerToken(_ticket);\n        require(msg.sender == ticket.getIssuer() || msg.sender == owner );\n\n        IERC20Token tokenTicket = IERC20Token(_ticket);\n        assert(tokenTicket.transferFrom(msg.sender, this, _amount));\n\n        /**\n        * register it as a sales item\n        */\n        ticketSales[_ticket] = TicketSale(ticket.getIssuer(), _card, _price);\n\n        DepositTickets(msg.sender, ticket.getIssuer(), _ticket, _card, _amount, _price);\n    }\n\n    function getTicketPrice(address _ticket) public returns(uint256) {\n        return ticketSales[_ticket].price;\n    }\n\n    function getTicketStock(address _ticket) public returns(uint256) {\n        IERC20Token tokenTicket = IERC20Token(_ticket);\n        return tokenTicket.balanceOf(this);\n    }\n\n    function getTicketCurrency(address _ticket) public returns(address) {\n        return ticketSales[_ticket].card;\n    }\n\n    function buyTicket(address _ticket) public {\n        TicketSale ticketSale = ticketSales[_ticket];\n\n        /**\n        * check currency balance and burn the number of price from the buyer\n        */\n        IERC20Token cardToken = IERC20Token(ticketSale.card);\n        require(cardToken.balanceOf(msg.sender) >= ticketSale.price);\n\n        IFinancieIssuerToken card = IFinancieIssuerToken(ticketSale.card);\n        card.burnFrom(msg.sender, ticketSale.price);\n\n        ownedTicketList[msg.sender].push(_ticket);\n\n        /**\n        * check tickets in stock and transfer a ticket to the buyer\n        */\n        IERC20Token ticket = IERC20Token(_ticket);\n        require(ticket.balanceOf(address(this)) >= 1);\n        ticket.transfer(msg.sender, 1);\n\n        BuyTicket(msg.sender, card.getIssuer(), _ticket, 1, ticketSale.price);\n    }\n\n    function checkUserActivation(address _sender, uint32 _userId) public returns(bool) {\n        return userIds[_sender] == _userId;\n    }\n\n    function getCardList(address _sender) public returns(address[]) {\n        return ownedCardList[_sender];\n    }\n\n    function getTicketList(address _sender) public returns(address[]) {\n        return ownedTicketList[_sender];\n    }\n\n    function getPaidTicketCounts(address _sender, address _ticket) public returns(uint256) {\n        return paidTicketList[_sender][_ticket];\n    }\n}\n",
  "sourcePath": "/Users/rudo/Documents/ichiba/submodules/contracts/solidity/contracts/Financie/FinancieCore.sol",
  "compiler": {
    "name": "solc",
    "version": "0.4.21+commit.dfe3193c.Emscripten.clang"
  },
  "schemaVersion": "2.0.0",
  "updatedAt": "2018-07-30T08:33:16.308Z"
}