{
  "contractName": "FinancieBancorConverter",
  "abi": [
    {
      "constant": false,
      "inputs": [
        {
          "name": "_connectorToken",
          "type": "address"
        },
        {
          "name": "_weight",
          "type": "uint32"
        },
        {
          "name": "_enableVirtualBalance",
          "type": "bool"
        },
        {
          "name": "_virtualBalance",
          "type": "uint256"
        }
      ],
      "name": "updateConnector",
      "outputs": [],
      "payable": false,
      "stateMutability": "nonpayable",
      "type": "function"
    },
    {
      "constant": true,
      "inputs": [
        {
          "name": "",
          "type": "address"
        }
      ],
      "name": "connectors",
      "outputs": [
        {
          "name": "virtualBalance",
          "type": "uint256"
        },
        {
          "name": "weight",
          "type": "uint32"
        },
        {
          "name": "isVirtualBalanceEnabled",
          "type": "bool"
        },
        {
          "name": "isPurchaseEnabled",
          "type": "bool"
        },
        {
          "name": "isSet",
          "type": "bool"
        }
      ],
      "payable": false,
      "stateMutability": "view",
      "type": "function"
    },
    {
      "constant": true,
      "inputs": [
        {
          "name": "",
          "type": "uint256"
        }
      ],
      "name": "connectorTokens",
      "outputs": [
        {
          "name": "",
          "type": "address"
        }
      ],
      "payable": false,
      "stateMutability": "view",
      "type": "function"
    },
    {
      "constant": true,
      "inputs": [
        {
          "name": "",
          "type": "uint256"
        }
      ],
      "name": "quickSellPath",
      "outputs": [
        {
          "name": "",
          "type": "address"
        }
      ],
      "payable": false,
      "stateMutability": "view",
      "type": "function"
    },
    {
      "constant": false,
      "inputs": [
        {
          "name": "_newOwner",
          "type": "address"
        }
      ],
      "name": "transferTokenOwnership",
      "outputs": [],
      "payable": false,
      "stateMutability": "nonpayable",
      "type": "function"
    },
    {
      "constant": false,
      "inputs": [
        {
          "name": "_disable",
          "type": "bool"
        }
      ],
      "name": "disableConversions",
      "outputs": [],
      "payable": false,
      "stateMutability": "nonpayable",
      "type": "function"
    },
    {
      "constant": false,
      "inputs": [
        {
          "name": "_extensions",
          "type": "address"
        }
      ],
      "name": "setExtensions",
      "outputs": [],
      "payable": false,
      "stateMutability": "nonpayable",
      "type": "function"
    },
    {
      "constant": true,
      "inputs": [],
      "name": "extensions",
      "outputs": [
        {
          "name": "",
          "type": "address"
        }
      ],
      "payable": false,
      "stateMutability": "view",
      "type": "function"
    },
    {
      "constant": true,
      "inputs": [
        {
          "name": "_amount",
          "type": "uint256"
        }
      ],
      "name": "getConversionFeeAmount",
      "outputs": [
        {
          "name": "",
          "type": "uint256"
        }
      ],
      "payable": false,
      "stateMutability": "view",
      "type": "function"
    },
    {
      "constant": false,
      "inputs": [],
      "name": "acceptTokenOwnership",
      "outputs": [],
      "payable": false,
      "stateMutability": "nonpayable",
      "type": "function"
    },
    {
      "constant": true,
      "inputs": [],
      "name": "converterType",
      "outputs": [
        {
          "name": "",
          "type": "string"
        }
      ],
      "payable": false,
      "stateMutability": "view",
      "type": "function"
    },
    {
      "constant": false,
      "inputs": [
        {
          "name": "_token",
          "type": "address"
        },
        {
          "name": "_weight",
          "type": "uint32"
        },
        {
          "name": "_enableVirtualBalance",
          "type": "bool"
        }
      ],
      "name": "addConnector",
      "outputs": [],
      "payable": false,
      "stateMutability": "nonpayable",
      "type": "function"
    },
    {
      "constant": false,
      "inputs": [
        {
          "name": "_token",
          "type": "address"
        },
        {
          "name": "_to",
          "type": "address"
        },
        {
          "name": "_amount",
          "type": "uint256"
        }
      ],
      "name": "withdrawFromToken",
      "outputs": [],
      "payable": false,
      "stateMutability": "nonpayable",
      "type": "function"
    },
    {
      "constant": true,
      "inputs": [],
      "name": "newManager",
      "outputs": [
        {
          "name": "",
          "type": "address"
        }
      ],
      "payable": false,
      "stateMutability": "view",
      "type": "function"
    },
    {
      "constant": true,
      "inputs": [],
      "name": "manager",
      "outputs": [
        {
          "name": "",
          "type": "address"
        }
      ],
      "payable": false,
      "stateMutability": "view",
      "type": "function"
    },
    {
      "constant": false,
      "inputs": [],
      "name": "clearQuickBuyPath",
      "outputs": [],
      "payable": false,
      "stateMutability": "nonpayable",
      "type": "function"
    },
    {
      "constant": false,
      "inputs": [
        {
          "name": "_connectorToken",
          "type": "address"
        },
        {
          "name": "_disable",
          "type": "bool"
        }
      ],
      "name": "disableConnectorPurchases",
      "outputs": [],
      "payable": false,
      "stateMutability": "nonpayable",
      "type": "function"
    },
    {
      "constant": true,
      "inputs": [],
      "name": "version",
      "outputs": [
        {
          "name": "",
          "type": "string"
        }
      ],
      "payable": false,
      "stateMutability": "view",
      "type": "function"
    },
    {
      "constant": true,
      "inputs": [],
      "name": "conversionFee",
      "outputs": [
        {
          "name": "",
          "type": "uint32"
        }
      ],
      "payable": false,
      "stateMutability": "view",
      "type": "function"
    },
    {
      "constant": false,
      "inputs": [
        {
          "name": "_token",
          "type": "address"
        },
        {
          "name": "_to",
          "type": "address"
        },
        {
          "name": "_amount",
          "type": "uint256"
        }
      ],
      "name": "withdrawTokens",
      "outputs": [],
      "payable": false,
      "stateMutability": "nonpayable",
      "type": "function"
    },
    {
      "constant": false,
      "inputs": [
        {
          "name": "_fromToken",
          "type": "address"
        },
        {
          "name": "_toToken",
          "type": "address"
        },
        {
          "name": "_amount",
          "type": "uint256"
        },
        {
          "name": "_minReturn",
          "type": "uint256"
        }
      ],
      "name": "change",
      "outputs": [
        {
          "name": "",
          "type": "uint256"
        }
      ],
      "payable": false,
      "stateMutability": "nonpayable",
      "type": "function"
    },
    {
      "constant": true,
      "inputs": [],
      "name": "connectorTokenCount",
      "outputs": [
        {
          "name": "",
          "type": "uint16"
        }
      ],
      "payable": false,
      "stateMutability": "view",
      "type": "function"
    },
    {
      "constant": true,
      "inputs": [
        {
          "name": "_connectorToken",
          "type": "address"
        },
        {
          "name": "_sellAmount",
          "type": "uint256"
        }
      ],
      "name": "getSaleReturn",
      "outputs": [
        {
          "name": "",
          "type": "uint256"
        }
      ],
      "payable": false,
      "stateMutability": "view",
      "type": "function"
    },
    {
      "constant": false,
      "inputs": [],
      "name": "acceptOwnership",
      "outputs": [],
      "payable": false,
      "stateMutability": "nonpayable",
      "type": "function"
    },
    {
      "constant": false,
      "inputs": [
        {
          "name": "_disable",
          "type": "bool"
        }
      ],
      "name": "disableTokenTransfers",
      "outputs": [],
      "payable": false,
      "stateMutability": "nonpayable",
      "type": "function"
    },
    {
      "constant": true,
      "inputs": [],
      "name": "owner",
      "outputs": [
        {
          "name": "",
          "type": "address"
        }
      ],
      "payable": false,
      "stateMutability": "view",
      "type": "function"
    },
    {
      "constant": true,
      "inputs": [],
      "name": "getQuickBuyPathLength",
      "outputs": [
        {
          "name": "",
          "type": "uint256"
        }
      ],
      "payable": false,
      "stateMutability": "view",
      "type": "function"
    },
    {
      "constant": true,
      "inputs": [],
      "name": "maxConversionFee",
      "outputs": [
        {
          "name": "",
          "type": "uint32"
        }
      ],
      "payable": false,
      "stateMutability": "view",
      "type": "function"
    },
    {
      "constant": true,
      "inputs": [
        {
          "name": "_connectorToken",
          "type": "address"
        },
        {
          "name": "_depositAmount",
          "type": "uint256"
        }
      ],
      "name": "getPurchaseReturn",
      "outputs": [
        {
          "name": "",
          "type": "uint256"
        }
      ],
      "payable": false,
      "stateMutability": "view",
      "type": "function"
    },
    {
      "constant": true,
      "inputs": [],
      "name": "convertibleTokenCount",
      "outputs": [
        {
          "name": "",
          "type": "uint16"
        }
      ],
      "payable": false,
      "stateMutability": "view",
      "type": "function"
    },
    {
      "constant": true,
      "inputs": [],
      "name": "conversionsEnabled",
      "outputs": [
        {
          "name": "",
          "type": "bool"
        }
      ],
      "payable": false,
      "stateMutability": "view",
      "type": "function"
    },
    {
      "constant": false,
      "inputs": [],
      "name": "acceptManagement",
      "outputs": [],
      "payable": false,
      "stateMutability": "nonpayable",
      "type": "function"
    },
    {
      "constant": false,
      "inputs": [
        {
          "name": "_path",
          "type": "address[]"
        }
      ],
      "name": "setQuickBuyPath",
      "outputs": [],
      "payable": false,
      "stateMutability": "nonpayable",
      "type": "function"
    },
    {
      "constant": true,
      "inputs": [],
      "name": "newOwner",
      "outputs": [
        {
          "name": "",
          "type": "address"
        }
      ],
      "payable": false,
      "stateMutability": "view",
      "type": "function"
    },
    {
      "constant": true,
      "inputs": [
        {
          "name": "_connectorToken",
          "type": "address"
        }
      ],
      "name": "getConnectorBalance",
      "outputs": [
        {
          "name": "",
          "type": "uint256"
        }
      ],
      "payable": false,
      "stateMutability": "view",
      "type": "function"
    },
    {
      "constant": false,
      "inputs": [
        {
          "name": "_newManager",
          "type": "address"
        }
      ],
      "name": "transferManagement",
      "outputs": [],
      "payable": false,
      "stateMutability": "nonpayable",
      "type": "function"
    },
    {
      "constant": true,
      "inputs": [
        {
          "name": "",
          "type": "uint256"
        }
      ],
      "name": "quickBuyPath",
      "outputs": [
        {
          "name": "",
          "type": "address"
        }
      ],
      "payable": false,
      "stateMutability": "view",
      "type": "function"
    },
    {
      "constant": false,
      "inputs": [
        {
          "name": "_conversionFee",
          "type": "uint32"
        }
      ],
      "name": "setConversionFee",
      "outputs": [],
      "payable": false,
      "stateMutability": "nonpayable",
      "type": "function"
    },
    {
      "constant": true,
      "inputs": [
        {
          "name": "_tokenIndex",
          "type": "uint16"
        }
      ],
      "name": "convertibleToken",
      "outputs": [
        {
          "name": "",
          "type": "address"
        }
      ],
      "payable": false,
      "stateMutability": "view",
      "type": "function"
    },
    {
      "constant": false,
      "inputs": [
        {
          "name": "_newOwner",
          "type": "address"
        }
      ],
      "name": "transferOwnership",
      "outputs": [],
      "payable": false,
      "stateMutability": "nonpayable",
      "type": "function"
    },
    {
      "constant": true,
      "inputs": [],
      "name": "token",
      "outputs": [
        {
          "name": "",
          "type": "address"
        }
      ],
      "payable": false,
      "stateMutability": "view",
      "type": "function"
    },
    {
      "inputs": [
        {
          "name": "_token",
          "type": "address"
        },
        {
          "name": "_etherToken",
          "type": "address"
        },
        {
          "name": "_connectorToken",
          "type": "address"
        },
        {
          "name": "_hero_wallet",
          "type": "address"
        },
        {
          "name": "_extensions",
          "type": "address"
        },
        {
          "name": "_core_address",
          "type": "address"
        },
        {
          "name": "_financieFee",
          "type": "uint32"
        },
        {
          "name": "_connectorWeight",
          "type": "uint32"
        }
      ],
      "payable": false,
      "stateMutability": "nonpayable",
      "type": "constructor"
    },
    {
      "payable": true,
      "stateMutability": "payable",
      "type": "fallback"
    },
    {
      "anonymous": false,
      "inputs": [
        {
          "indexed": true,
          "name": "_fromToken",
          "type": "address"
        },
        {
          "indexed": true,
          "name": "_toToken",
          "type": "address"
        },
        {
          "indexed": true,
          "name": "_trader",
          "type": "address"
        },
        {
          "indexed": false,
          "name": "_amount",
          "type": "uint256"
        },
        {
          "indexed": false,
          "name": "_return",
          "type": "uint256"
        },
        {
          "indexed": false,
          "name": "_conversionFee",
          "type": "int256"
        },
        {
          "indexed": false,
          "name": "_currentPriceN",
          "type": "uint256"
        },
        {
          "indexed": false,
          "name": "_currentPriceD",
          "type": "uint256"
        }
      ],
      "name": "Conversion",
      "type": "event"
    },
    {
      "anonymous": false,
      "inputs": [
        {
          "indexed": false,
          "name": "_prevFee",
          "type": "uint32"
        },
        {
          "indexed": false,
          "name": "_newFee",
          "type": "uint32"
        }
      ],
      "name": "ConversionFeeUpdate",
      "type": "event"
    },
    {
      "anonymous": false,
      "inputs": [
        {
          "indexed": true,
          "name": "_prevManager",
          "type": "address"
        },
        {
          "indexed": true,
          "name": "_newManager",
          "type": "address"
        }
      ],
      "name": "ManagerUpdate",
      "type": "event"
    },
    {
      "anonymous": false,
      "inputs": [
        {
          "indexed": true,
          "name": "_prevOwner",
          "type": "address"
        },
        {
          "indexed": true,
          "name": "_newOwner",
          "type": "address"
        }
      ],
      "name": "OwnerUpdate",
      "type": "event"
    },
    {
      "constant": false,
      "inputs": [
        {
          "name": "_path",
          "type": "address[]"
        },
        {
          "name": "_amount",
          "type": "uint256"
        },
        {
          "name": "_minReturn",
          "type": "uint256"
        }
      ],
      "name": "quickConvert",
      "outputs": [
        {
          "name": "",
          "type": "uint256"
        }
      ],
      "payable": true,
      "stateMutability": "payable",
      "type": "function"
    },
    {
      "constant": false,
      "inputs": [
        {
          "name": "_fromToken",
          "type": "address"
        },
        {
          "name": "_toToken",
          "type": "address"
        },
        {
          "name": "_amount",
          "type": "uint256"
        },
        {
          "name": "_minReturn",
          "type": "uint256"
        }
      ],
      "name": "convert",
      "outputs": [
        {
          "name": "",
          "type": "uint256"
        }
      ],
      "payable": false,
      "stateMutability": "nonpayable",
      "type": "function"
    },
    {
      "constant": true,
      "inputs": [
        {
          "name": "_fromToken",
          "type": "address"
        },
        {
          "name": "_toToken",
          "type": "address"
        },
        {
          "name": "_amount",
          "type": "uint256"
        }
      ],
      "name": "getReturn",
      "outputs": [
        {
          "name": "",
          "type": "uint256"
        }
      ],
      "payable": false,
      "stateMutability": "view",
      "type": "function"
    }
  ],
  "bytecode": "0x606060405260408051908101604052600381527f302e370000000000000000000000000000000000000000000000000000000000602082015260059080516200004d92916020019062000632565b506040805190810160405260068082527f62616e636f72000000000000000000000000000000000000000000000000000060208301529080516200009692916020019062000632565b50600b80546001606860020a0319166c010000000000000000000000001790553415620000c257600080fd5b6040516101008062003238833981016040528080519190602001805191906020018051919060200180519190602001805191906020018051919060200180519190602001805160008054600160a060020a03191633600160a060020a039081169190911782559193508a925086918990859085908190811615156200014657600080fd5b5060028054600160a060020a0319908116600160a060020a0393841617909155600380549091163383161790558490811615156200018357600080fd5b8360008163ffffffff1610158015620001a55750620f424063ffffffff821611155b1515620001b157600080fd5b60078054600160a060020a031916600160a060020a0388811691909117909155600b805467ffffffff00000000191664010000000063ffffffff8916021790558416156200021557620002158484600064010000000062001017620003e582021704565b5050600c8054600160a060020a03808b16600160a060020a031992831617909255600d805463ffffffff8b16740100000000000000000000000000000000000000000260a060020a63ffffffff0219948f16919093161792909216179055505060098054909350915050600181016200028f8382620006b7565b5060009182526020909120018054600160a060020a031916600160a060020a0389161790556009805460018101620002c88382620006b7565b5060009182526020909120018054600160a060020a031916600160a060020a038a161790556009805460018101620003018382620006b7565b5060009182526020909120018054600160a060020a031916600160a060020a038816179055600e8054600181016200033a8382620006b7565b5060009182526020909120018054600160a060020a031916600160a060020a038816179055600e805460018101620003738382620006b7565b5060009182526020909120018054600160a060020a031916600160a060020a038a16179055600e805460018101620003ac8382620006b7565b5060009182526020909120018054600160a060020a031916600160a060020a039890981697909717909655506200070395505050505050565b60005433600160a060020a03908116911614620003fe57fe5b600254600160a060020a033081169116638da5cb5b6040518163ffffffff167c0100000000000000000000000000000000000000000000000000000000028152600401602060405180830381600087803b15156200045b57600080fd5b5af115156200046957600080fd5b50505060405180519050600160a060020a0316141515156200048757fe5b82600160a060020a03811615156200049e57600080fd5b8330600160a060020a031681600160a060020a031614151515620004c157600080fd5b8360008163ffffffff16118015620004e25750620f424063ffffffff821611155b1515620004ee57600080fd5b600254600160a060020a03878116911614801590620005335750600160a060020a0386166000908152600a60205260409020600101546601000000000000900460ff16155b8015620005525750600b54620f424063ffffffff918216870190911611155b15156200055e57600080fd5b600160a060020a0386166000908152600a602052604081209081556001908101805466010000000000006501000000000063ffffffff1990921663ffffffff8a161764ff000000001916640100000000891515021765ff000000000019169190911766ff00000000000019161790556008805490918101620005e18382620006b7565b5060009182526020909120018054600160a060020a031916600160a060020a0397909716969096179095555050600b805463ffffffff19811663ffffffff9182169490940116929092179091555050565b828054600181600116156101000203166002900490600052602060002090601f016020900481019282601f106200067557805160ff1916838001178555620006a5565b82800160010185558215620006a5579182015b82811115620006a557825182559160200191906001019062000688565b50620006b3929150620006e3565b5090565b815481835581811511620006de57600083815260209020620006de918101908301620006e3565b505050565b6200070091905b80821115620006b35760008155600101620006ea565b90565b612b2580620007136000396000f3006060604052600436106102005763ffffffff60e060020a6000350416630ca7892381146102695780630e53aae91461029b57806319b64015146102f65780631a4c298f146103285780631e1401f81461033e57806321e6b53d14610378578063228d2820146103975780632314aad6146103af57806324f159c2146103ce5780632a3c2c56146103e157806338a5e016146103f75780633e8ff43f1461040a5780633f4d2fc21461049457806341a5b33d146104c157806342906029146104e9578063481c6a75146104fc5780634e2280c41461050f578063514385be1461052257806354fd4d5014610546578063579cd3ca146105595780635e35359e146105855780635e5144eb146105ad57806371f52bf3146105d857806372b44b2c1461060257806375892cf11461062457806379ba50971461064f57806385d5e631146106625780638da5cb5b1461067a5780639396a7f01461068d57806394c275ad146106a0578063a2c4c336146106b3578063ba9a8b37146106d5578063bf754558146106e8578063c8c2fe6c1461070f578063d395ee0f14610722578063d4ee1d9014610771578063d895951214610784578063e4edf852146107a3578063e7ee85a5146107c2578063ecbca55d146107d8578063f0843ba9146107f4578063f2c8d2471461083f578063f2fde38b14610859578063fc0c546a14610878575b610266600980548060200260200160405190810160405280929190818152602001828054801561025957602002820191906000526020600020905b8154600160a060020a0316815260019091019060200180831161023b575b505050505034600161088b565b50005b341561027457600080fd5b610299600160a060020a036004351663ffffffff602435166044351515606435610aa6565b005b34156102a657600080fd5b6102ba600160a060020a0360043516610bba565b60405194855263ffffffff90931660208501529015156040808501919091529015156060840152901515608083015260a0909101905180910390f35b341561030157600080fd5b61030c600435610c00565b604051600160a060020a03909116815260200160405180910390f35b341561033357600080fd5b61030c600435610c28565b341561034957600080fd5b610366600160a060020a0360043581169060243516604435610c36565b60405190815260200160405180910390f35b341561038357600080fd5b610299600160a060020a0360043516610d75565b34156103a257600080fd5b6102996004351515610df0565b34156103ba57600080fd5b610299600160a060020a0360043516610e53565b34156103d957600080fd5b61030c610ec7565b34156103ec57600080fd5b610366600435610ed6565b341561040257600080fd5b610299610f10565b341561041557600080fd5b61041d610f79565b60405160208082528190810183818151815260200191508051906020019080838360005b83811015610459578082015183820152602001610441565b50505050905090810190601f1680156104865780820380516001836020036101000a031916815260200191505b509250505060405180910390f35b341561049f57600080fd5b610299600160a060020a036004351663ffffffff602435166044351515611017565b34156104cc57600080fd5b610299600160a060020a036004358116906024351660443561123e565b34156104f457600080fd5b61030c6112ce565b341561050757600080fd5b61030c6112dd565b341561051a57600080fd5b6102996112ec565b341561052d57600080fd5b610299600160a060020a03600435166024351515611314565b341561055157600080fd5b61041d61139d565b341561056457600080fd5b61056c611408565b60405163ffffffff909116815260200160405180910390f35b341561059057600080fd5b610299600160a060020a0360043581169060243516604435611420565b34156105b857600080fd5b610366600160a060020a03600435811690602435166044356064356114f9565b34156105e357600080fd5b6105eb611510565b60405161ffff909116815260200160405180910390f35b341561060d57600080fd5b610366600160a060020a0360043516602435611517565b341561062f57600080fd5b610366600160a060020a0360043581169060243516604435606435611584565b341561065a57600080fd5b610299611641565b341561066d57600080fd5b61029960043515156116c2565b341561068557600080fd5b61030c611722565b341561069857600080fd5b610366611731565b34156106ab57600080fd5b61056c611737565b34156106be57600080fd5b610366600160a060020a036004351660243561174b565b34156106e057600080fd5b6105eb6119a0565b34156106f357600080fd5b6106fb6119b2565b604051901515815260200160405180910390f35b341561071a57600080fd5b6102996119cb565b341561072d57600080fd5b6102996004602481358181019083013580602081810201604051908101604052809392919081815260200183836020028082843750949650611a4c95505050505050565b341561077c57600080fd5b61030c611aaf565b341561078f57600080fd5b610366600160a060020a0360043516611abe565b34156107ae57600080fd5b610299600160a060020a0360043516611b9a565b34156107cd57600080fd5b61030c600435611bef565b34156107e357600080fd5b61029963ffffffff60043516611bfd565b61036660046024813581810190830135806020818102016040519081016040528093929190818152602001838360200280828437509496505084359460200135935061088b92505050565b341561084a57600080fd5b61030c61ffff60043516611cf3565b341561086457600080fd5b610299600160a060020a0360043516611d43565b341561088357600080fd5b61030c611d98565b600080600085600281511180156108a457506015815111155b80156108bd5750600281518115156108b857fe5b066001145b15156108c857600080fd5b600754600160a060020a031663c31e05476040518163ffffffff1660e060020a028152600401602060405180830381600087803b151561090757600080fd5b5af1151561091457600080fd5b5050506040518051935050600160a060020a03831663c98fefed87898189336040518663ffffffff1660e060020a028152600401808060200185815260200184815260200183600160a060020a0316600160a060020a03168152602001828103825286818151815260200191508051906020019060200280838360005b838110156109a9578082015183820152602001610991565b50505050905001955050505050506020604051808303818588803b15156109cf57600080fd5b5af115156109dc57600080fd5b505050506040518051600c54909350600160a060020a0316905063c2999e1c3389600081518110610a0957fe5b906020019060200201518a600281518110610a2057fe5b906020019060200201518a8760405160e060020a63ffffffff8816028152600160a060020a03958616600482015293851660248501529190931660448301526064820192909252608481019190915260a401600060405180830381600087803b1515610a8b57600080fd5b5af11515610a9857600080fd5b509298975050505050505050565b6000805433600160a060020a03908116911614610abf57fe5b600160a060020a0385166000908152600a602052604090206001015485906601000000000000900460ff161515610af557600080fd5b8460008163ffffffff16118015610b155750620f424063ffffffff821611155b1515610b2057600080fd5b600160a060020a0387166000908152600a602052604090206001810154600b54919450620f424063ffffffff918216928216929092038801161115610b6457600080fd5b5050600181018054600b805463ffffffff928316818416038801831663ffffffff199182161790915582549515156401000000000264ff0000000019929097169516949094179390931693909317909155905550565b600a602052600090815260409020805460019091015463ffffffff81169060ff640100000000820481169165010000000000810482169166010000000000009091041685565b6008805482908110610c0e57fe5b600091825260209091200154600160a060020a0316905081565b600e805482908110610c0e57fe5b600080600e6000815481101515610c4957fe5b600091825260209091200154600160a060020a0386811691161480610c935750600980546000908110610c7857fe5b600091825260209091200154600160a060020a038681169116145b1515610c9e57600080fd5b600e80546002908110610cad57fe5b600091825260209091200154600160a060020a0385811691161480610cf75750600980546002908110610cdc57fe5b600091825260209091200154600160a060020a038581169116145b1515610d0257600080fd5b600e80546000908110610d1157fe5b600091825260209091200154600160a060020a0386811691161415610d5657610d3b858585611da7565b9050610d4f81610d4a83611e7d565b611eb1565b9150610d6d565b610d4f8585610d6886610d4a88611e7d565b611da7565b509392505050565b60005433600160a060020a03908116911614610d8d57fe5b600254600160a060020a031663f2fde38b8260405160e060020a63ffffffff8416028152600160a060020a039091166004820152602401600060405180830381600087803b1515610ddd57600080fd5b5af11515610dea57600080fd5b50505050565b60005433600160a060020a0390811691161480610e1b575060035433600160a060020a039081169116145b1515610e2657600080fd5b600b80546cff000000000000000000000000191691156c0100000000000000000000000002919091179055565b60005433600160a060020a03908116911614610e6b57fe5b80600160a060020a0381161515610e8157600080fd5b8130600160a060020a031681600160a060020a031614151515610ea357600080fd5b505060078054600160a060020a031916600160a060020a0392909216919091179055565b600754600160a060020a031681565b600b54600090620f424090610efe90849068010000000000000000900463ffffffff16611ec3565b811515610f0757fe5b0490505b919050565b60005433600160a060020a03908116911614610f2857fe5b600254600160a060020a03166379ba50976040518163ffffffff1660e060020a028152600401600060405180830381600087803b1515610f6757600080fd5b5af11515610f7457600080fd5b505050565b60068054600181600116156101000203166002900480601f01602080910402602001604051908101604052809291908181526020018280546001816001161561010002031660029004801561100f5780601f10610fe45761010080835404028352916020019161100f565b820191906000526020600020905b815481529060010190602001808311610ff257829003601f168201915b505050505081565b60005433600160a060020a0390811691161461102f57fe5b600254600160a060020a033081169116638da5cb5b6040518163ffffffff1660e060020a028152600401602060405180830381600087803b151561107257600080fd5b5af1151561107f57600080fd5b50505060405180519050600160a060020a03161415151561109c57fe5b82600160a060020a03811615156110b257600080fd5b8330600160a060020a031681600160a060020a0316141515156110d457600080fd5b8360008163ffffffff161180156110f45750620f424063ffffffff821611155b15156110ff57600080fd5b600254600160a060020a038781169116148015906111435750600160a060020a0386166000908152600a60205260409020600101546601000000000000900460ff16155b80156111615750600b54620f424063ffffffff918216870190911611155b151561116c57600080fd5b600160a060020a0386166000908152600a602052604081209081556001908101805466010000000000006501000000000063ffffffff1990921663ffffffff8a161764ff000000001916640100000000891515021765ff000000000019169190911766ff000000000000191617905560088054909181016111ed8382612a30565b5060009182526020909120018054600160a060020a031916600160a060020a0397909716969096179095555050600b805463ffffffff19811663ffffffff9182169490940116929092179091555050565b60005433600160a060020a0390811691161461125657fe5b600254600160a060020a0316635e35359e84848460405160e060020a63ffffffff8616028152600160a060020a0393841660048201529190921660248201526044810191909152606401600060405180830381600087803b15156112b957600080fd5b5af115156112c657600080fd5b505050505050565b600454600160a060020a031681565b600354600160a060020a031681565b60005433600160a060020a0390811691161461130457fe5b6000611311600982612a30565b50565b60005433600160a060020a0390811691161461132c57fe5b600160a060020a0382166000908152600a602052604090206001015482906601000000000000900460ff16151561136257600080fd5b50600160a060020a03919091166000908152600a60205260409020600101805465ff0000000000191691156501000000000002919091179055565b60058054600181600116156101000203166002900480601f01602080910402602001604051908101604052809291908181526020018280546001816001161561010002031660029004801561100f5780601f10610fe45761010080835404028352916020019161100f565b600b5468010000000000000000900463ffffffff1681565b60005433600160a060020a0390811691161461143857fe5b82600160a060020a038116151561144e57600080fd5b82600160a060020a038116151561146457600080fd5b8330600160a060020a031681600160a060020a03161415151561148657600080fd5b85600160a060020a031663a9059cbb868660405160e060020a63ffffffff8516028152600160a060020a0390921660048301526024820152604401602060405180830381600087803b15156114da57600080fd5b5af115156114e757600080fd5b5050506040518051905015156112c657fe5b600061150785858585611584565b95945050505050565b6008545b90565b60025460009061157d9084908490600160a060020a03166318160ddd6040518163ffffffff1660e060020a028152600401602060405180830381600087803b151561156157600080fd5b5af1151561156e57600080fd5b50505060405180519050611ee7565b9392505050565b600080600160a060020a0386811690861614156115a057600080fd5b6115ac868686866120d4565b600c54909150600160a060020a031663c2999e1c338888888660405160e060020a63ffffffff8816028152600160a060020a03958616600482015293851660248501529190931660448301526064820192909252608481019190915260a401600060405180830381600087803b151561162457600080fd5b5af1151561163157600080fd5b5050508091505b50949350505050565b60015433600160a060020a0390811691161461165c57600080fd5b600154600054600160a060020a0391821691167f343765429aea5a34b3ff6a3785a98a5abb2597aca87bfbb58632c173d585373a60405160405180910390a36001805460008054600160a060020a0319908116600160a060020a03841617909155169055565b60005433600160a060020a039081169116146116da57fe5b600254600160a060020a0316631608f18f8260405160e060020a63ffffffff84160281529015156004820152602401600060405180830381600087803b1515610ddd57600080fd5b600054600160a060020a031681565b60095490565b600b54640100000000900463ffffffff1681565b60025460009081908190819081908190600160a060020a033081169116638da5cb5b6040518163ffffffff1660e060020a028152600401602060405180830381600087803b151561179b57600080fd5b5af115156117a857600080fd5b50505060405180519050600160a060020a03161415156117c457fe5b600160a060020a0388166000908152600a602052604090206001015488906601000000000000900460ff1615156117fa57600080fd5b600160a060020a0389166000908152600a60205260409020600181015490965065010000000000900460ff16151561183157600080fd5b600254600160a060020a03166318160ddd6040518163ffffffff1660e060020a028152600401602060405180830381600087803b151561187057600080fd5b5af1151561187d57600080fd5b50505060405180519050945061189289611abe565b600754909450600160a060020a0316634b75f54f6040518163ffffffff1660e060020a028152600401602060405180830381600087803b15156118d457600080fd5b5af115156118e157600080fd5b50505060405180516001880154600160a060020a0390911691506329a00e7c908790879063ffffffff168c6040518563ffffffff1660e060020a028152600401808581526020018481526020018363ffffffff1663ffffffff168152602001828152602001945050505050602060405180830381600087803b151561196557600080fd5b5af1151561197257600080fd5b50505060405180519050925061198783610ed6565b91506119938383611eb1565b9998505050505050505050565b60006119aa611510565b600101905090565b600b546c01000000000000000000000000900460ff1681565b60045433600160a060020a039081169116146119e657600080fd5b600454600354600160a060020a0391821691167fbe4cc281795971a471c980e842627a7f1ea3892ddfce8c5b6357cd2611c1973260405160405180910390a36004805460038054600160a060020a0319908116600160a060020a03841617909155169055565b60005433600160a060020a03908116911614611a6457fe5b8060028151118015611a7857506015815111155b8015611a91575060028151811515611a8c57fe5b066001145b1515611a9c57600080fd5b6009828051610f74929160200190612a54565b600154600160a060020a031681565b600160a060020a0381166000908152600a6020526040812060010154819083906601000000000000900460ff161515611af657600080fd5b600160a060020a0384166000908152600a602052604090206001810154909250640100000000900460ff16611b8f5783600160a060020a03166370a082313060405160e060020a63ffffffff8416028152600160a060020a039091166004820152602401602060405180830381600087803b1515611b7357600080fd5b5af11515611b8057600080fd5b50505060405180519050611b92565b81545b949350505050565b60035433600160a060020a03908116911614611bb257fe5b600354600160a060020a0382811691161415611bcd57600080fd5b60048054600160a060020a031916600160a060020a0392909216919091179055565b6009805482908110610c0e57fe5b60005433600160a060020a0390811691161480611c28575060035433600160a060020a039081169116145b1515611c3357600080fd5b8060008163ffffffff1610158015611c5f5750600b5463ffffffff640100000000909104811690821611155b1515611c6a57600080fd5b600b547f81cd2ffb37dd237c0e4e2a3de5265fcf9deb43d3e7801e80db9f1ccfba7ee6009068010000000000000000900463ffffffff168360405163ffffffff9283168152911660208201526040908101905180910390a150600b805463ffffffff90921668010000000000000000026bffffffff000000000000000019909216919091179055565b600061ffff82161515611d125750600254600160a060020a0316610f0b565b6008805461ffff600019850116908110611d2857fe5b600091825260209091200154600160a060020a031692915050565b60005433600160a060020a03908116911614611d5b57fe5b600054600160a060020a0382811691161415611d7657600080fd5b60018054600160a060020a031916600160a060020a0392909216919091179055565b600254600160a060020a031681565b600080600160a060020a038581169085161415611dc357600080fd5b600254600160a060020a0385811691161415611de357610d4f858461174b565b600254600160a060020a0386811691161415611e0357610d4f8484611517565b611e0d858461174b565b6002549091506115079085908390611e7890600160a060020a03166318160ddd6040518163ffffffff1660e060020a028152600401602060405180830381600087803b1515611e5b57600080fd5b5af11515611e6857600080fd5b505050604051805190508561215c565b611ee7565b600d54600090620f424090610efe90849074010000000000000000000000000000000000000000900463ffffffff16611ec3565b600081831015611ebd57fe5b50900390565b6000828202831580611edf5750828482811515611edc57fe5b04145b151561157d57fe5b6002546000908190819081908190600160a060020a033081169116638da5cb5b6040518163ffffffff1660e060020a028152600401602060405180830381600087803b1515611f3557600080fd5b5af11515611f4257600080fd5b50505060405180519050600160a060020a0316141515611f5e57fe5b600160a060020a0388166000908152600a602052604090206001015488906601000000000000900460ff161515611f9457600080fd5b8660008111611fa257600080fd5b600160a060020a038a166000908152600a602052604090209550611fc58a611abe565b600754909550600160a060020a0316634b75f54f6040518163ffffffff1660e060020a028152600401602060405180830381600087803b151561200757600080fd5b5af1151561201457600080fd5b50505060405180516001880154600160a060020a0390911691506349f9b0f7908a90889063ffffffff168d6040518563ffffffff1660e060020a028152600401808581526020018481526020018363ffffffff1663ffffffff168152602001828152602001945050505050602060405180830381600087803b151561209857600080fd5b5af115156120a557600080fd5b5050506040518051905093506120ba84610ed6565b92506120c68484611eb1565b9a9950505050505050505050565b600080600160a060020a0386811690861614156120f057600080fd5b600254600160a060020a03868116911614156121185761211186858561216b565b9150611638565b600254600160a060020a0387811691161415612139576121118585856123ab565b6121458685600161216b565b90506121528582856123ab565b9695505050505050565b60008282018381101561157d57fe5b6000806000600b600c9054906101000a900460ff16151561218857fe5b600754600160a060020a031663961a929c6040518163ffffffff1660e060020a028152600401602060405180830381600087803b15156121c757600080fd5b5af115156121d457600080fd5b50505060405180519050600160a060020a031663fe173b976040518163ffffffff1660e060020a028152600401602060405180830381600087803b151561221a57600080fd5b5af1151561222757600080fd5b50505060405180513a1115905061223a57fe5b836000811161224857600080fd5b612252878761174b565b925082158015906122635750848310155b151561226e57600080fd5b600160a060020a0387166000908152600a602052604090206001810154909250640100000000900460ff16156122ad5781546122aa908761215c565b82555b86600160a060020a03166323b872dd33308960405160e060020a63ffffffff8616028152600160a060020a0393841660048201529190921660248201526044810191909152606401602060405180830381600087803b151561230e57600080fd5b5af1151561231b57600080fd5b50505060405180519050151561232d57fe5b600254600160a060020a031663867904b4338560405160e060020a63ffffffff8516028152600160a060020a0390921660048301526024820152604401600060405180830381600087803b151561238357600080fd5b5af1151561239057600080fd5b5050506123a08787856001612775565b509095945050505050565b600080600080600080600b600c9054906101000a900460ff1615156123cc57fe5b600754600160a060020a031663961a929c6040518163ffffffff1660e060020a028152600401602060405180830381600087803b151561240b57600080fd5b5af1151561241857600080fd5b50505060405180519050600160a060020a031663fe173b976040518163ffffffff1660e060020a028152600401602060405180830381600087803b151561245e57600080fd5b5af1151561246b57600080fd5b50505060405180513a1115905061247e57fe5b866000811161248c57600080fd5b600254600160a060020a03166370a082313360405160e060020a63ffffffff8416028152600160a060020a039091166004820152602401602060405180830381600087803b15156124dc57600080fd5b5af115156124e957600080fd5b50505060405180518a111590506124ff57600080fd5b6125098a8a611517565b9550851580159061251a5750878610155b151561252557600080fd5b600254600160a060020a03166318160ddd6040518163ffffffff1660e060020a028152600401602060405180830381600087803b151561256457600080fd5b5af1151561257157600080fd5b5050506040518051905094506125868a611abe565b93508386108061259f5750838614801561259f57508489145b15156125a757fe5b600160a060020a038a166000908152600a602052604090206001810154909350640100000000900460ff16156125e65782546125e39087611eb1565b83555b600254600160a060020a031663a24835d1338b60405160e060020a63ffffffff8516028152600160a060020a0390921660048301526024820152604401600060405180830381600087803b151561263c57600080fd5b5af1151561264957600080fd5b5050506009600081548110151561265c57fe5b600091825260209091200154600160a060020a038b8116911614156126e75789915081600160a060020a031663205c2878338860405160e060020a63ffffffff8516028152600160a060020a0390921660048301526024820152604401600060405180830381600087803b15156126d257600080fd5b5af115156126df57600080fd5b50505061275a565b89600160a060020a031663a9059cbb338860405160e060020a63ffffffff8516028152600160a060020a0390921660048301526024820152604401602060405180830381600087803b151561273b57600080fd5b5af1151561274857600080fd5b50505060405180519050151561275a57fe5b6127678a8a886000612775565b509398975050505050505050565b600160a060020a0384166000908152600a6020526040812090808080806127a761279e8b611abe565b620f4240611ec3565b60025490955061281590600160a060020a03166318160ddd6040518163ffffffff1660e060020a028152600401602060405180830381600087803b15156127ed57600080fd5b5af115156127fa57600080fd5b5050506040518051600189015490915063ffffffff16611ec3565b600254909450600160a060020a031663313ce5676040518163ffffffff1660e060020a028152600401602060405180830381600087803b151561285757600080fd5b5af1151561286457600080fd5b5050506040518051935050600160a060020a038a1663313ce5676040518163ffffffff1660e060020a028152600401602060405180830381600087803b15156128ac57600080fd5b5af115156128b957600080fd5b505050604051805192505060ff8381169083161461290d578160ff168360ff1611156128f8576128f18583850360ff16600a0a611ec3565b945061290d565b61290a8484840360ff16600a0a611ec3565b93505b61291688610ed6565b90507f800000000000000000000000000000000000000000000000000000000000000081111561294257fe5b86156129b857600254600160a060020a03338116918116908c167fcee13e282037fd063de72c4cf7955988112510b046cda38c12c47862c1785e7b8c8c868b8b604051808681526020018581526020018481526020018381526020018281526020019550505050505060405180910390a4612a24565b600254600160a060020a03338116918c821691167fcee13e282037fd063de72c4cf7955988112510b046cda38c12c47862c1785e7b8c8c868a8c604051808681526020018581526020018481526020018381526020018281526020019550505050505060405180910390a45b50505050505050505050565b815481835581811511610f7457600083815260209020610f74918101908301612abb565b828054828255906000526020600020908101928215612aab579160200282015b82811115612aab5782518254600160a060020a031916600160a060020a039190911617825560209290920191600190910190612a74565b50612ab7929150612ad5565b5090565b61151491905b80821115612ab75760008155600101612ac1565b61151491905b80821115612ab7578054600160a060020a0319168155600101612adb5600a165627a7a723058208b6eb700a97090c215261672c74253bc135194c47c75b3460fb3a240dc1c31f70029",
  "source": "pragma solidity ^0.4.18;\nimport '../BancorConverter.sol';\nimport '../interfaces/IFinancieCore.sol';\nimport '../interfaces/IEtherToken.sol';\n\ncontract FinancieBancorConverter is BancorConverter {\n\n    uint32 private constant MAX_FINANCIE_FEE = 1000000;\n\n    IFinancieCore core;\n    address hero_wallet;\n    uint32 financieFee;\n    IERC20Token[] public quickSellPath;\n\n    /**\n        @dev constructor\n\n        @param  _token              smart token governed by the converter\n        @param  _extensions         address of a bancor converter extensions contract\n        @param  _financieFee        maximum conversion fee for financie platform, represented in ppm\n        @param  _connectorToken     optional, initial connector, allows defining the first connector at deployment time\n        @param  _connectorWeight    optional, weight for the initial connector\n    */\n    function FinancieBancorConverter(\n        ISmartToken _token,\n        IEtherToken _etherToken,\n        IERC20Token _connectorToken,\n        address _hero_wallet,\n        IBancorConverterExtensions _extensions,\n        address _core_address,\n        uint32 _financieFee,\n        uint32 _connectorWeight)\n        public\n        BancorConverter(_token, _extensions, 0, _connectorToken, _connectorWeight)\n    {\n        core = IFinancieCore(_core_address);\n        hero_wallet = _hero_wallet;\n        financieFee = _financieFee;\n\n        // when receiving ether, then deposit to ether token -> change to smart token -> change to connector token\n        quickBuyPath.push(_etherToken);\n        quickBuyPath.push(_token);\n        quickBuyPath.push(_connectorToken);\n\n        quickSellPath.push(_connectorToken);\n        quickSellPath.push(_token);\n        quickSellPath.push(_etherToken);\n    }\n\n    function distributeFees(uint256 _feeAmount) private {\n        uint256 feeAmountForTeam = _feeAmount / 2;\n        uint256 feeAmountForHero = safeSub(_feeAmount, feeAmountForTeam);\n        IEtherToken etherToken = IEtherToken(quickBuyPath[0]);\n        etherToken.deposit.value(feeAmountForTeam)();\n        hero_wallet.transfer(feeAmountForHero);\n    }\n\n    function getFinancieFee(uint256 _amount) private view returns (uint256) {\n        return safeMul(_amount, financieFee) / MAX_FINANCIE_FEE;\n    }\n\n    /**\n        @dev overridden\n    */\n    function quickConvert(IERC20Token[] _path, uint256 _amount, uint256 _minReturn)\n        public\n        payable\n        validConversionPath(_path)\n        returns (uint256)\n    {\n        IBancorQuickConverter quickConverter = extensions.quickConverter();\n        uint256 result = quickConverter.convertFor.value(_amount)(_path, _amount, _minReturn, msg.sender);\n\n        core.notifyConvertCards(msg.sender, address(_path[0]), address(_path[2]), _amount, result);\n\n        return result;\n    }\n\n    /**\n        @dev overridden\n    */\n    function convert(IERC20Token _fromToken, IERC20Token _toToken, uint256 _amount, uint256 _minReturn) public returns (uint256) {\n        require(_fromToken != _toToken); // validate input\n\n        uint256 result = super.convert(_fromToken, _toToken, _amount, _minReturn);\n\n        core.notifyConvertCards(msg.sender, address(_fromToken), address(_toToken), _amount, result);\n\n        return result;\n    }\n\n    /**\n        @dev overridden\n    */\n    function getReturn(IERC20Token _fromToken, IERC20Token _toToken, uint256 _amount) public view returns (uint256) {\n        require(_fromToken == quickSellPath[0] || _fromToken == quickBuyPath[0]);\n        require(_toToken == quickSellPath[2] || _toToken == quickBuyPath[2]);\n\n        if ( _fromToken == quickSellPath[0] ) {\n            uint256 grossSell = super.getReturn(_fromToken, _toToken, _amount);\n            return safeSub(grossSell, getFinancieFee(grossSell));\n        } else {\n            return super.getReturn(_fromToken, _toToken, safeSub(_amount, getFinancieFee(_amount)));\n        }\n\n    }\n\n}\n",
  "sourcePath": "/Users/rudo/contracts/solidity/contracts/Financie/FinancieBancorConverter.sol",
  "compiler": {
    "name": "solc",
    "version": "0.4.21+commit.dfe3193c.Emscripten.clang"
  },
  "schemaVersion": "2.0.0",
  "updatedAt": "2018-07-17T04:57:20.042Z"
}