{
  "contractName": "FinancieLog",
  "abi": [
    {
      "constant": false,
      "inputs": [],
      "name": "acceptOwnership",
      "outputs": [],
      "payable": false,
      "stateMutability": "nonpayable",
      "type": "function"
    },
    {
      "constant": true,
      "inputs": [],
      "name": "owner",
      "outputs": [
        {
          "name": "",
          "type": "address"
        }
      ],
      "payable": false,
      "stateMutability": "view",
      "type": "function"
    },
    {
      "constant": true,
      "inputs": [],
      "name": "newOwner",
      "outputs": [
        {
          "name": "",
          "type": "address"
        }
      ],
      "payable": false,
      "stateMutability": "view",
      "type": "function"
    },
    {
      "constant": false,
      "inputs": [
        {
          "name": "_newOwner",
          "type": "address"
        }
      ],
      "name": "transferOwnership",
      "outputs": [],
      "payable": false,
      "stateMutability": "nonpayable",
      "type": "function"
    },
    {
      "inputs": [],
      "payable": false,
      "stateMutability": "nonpayable",
      "type": "constructor"
    },
    {
      "payable": true,
      "stateMutability": "payable",
      "type": "fallback"
    },
    {
      "anonymous": false,
      "inputs": [
        {
          "indexed": true,
          "name": "_prevOwner",
          "type": "address"
        },
        {
          "indexed": true,
          "name": "_newOwner",
          "type": "address"
        }
      ],
      "name": "OwnerUpdate",
      "type": "event"
    },
    {
      "constant": false,
      "inputs": [
        {
          "name": "_sender",
          "type": "address"
        },
        {
          "name": "_target",
          "type": "address"
        },
        {
          "name": "_eventType",
          "type": "uint8"
        },
        {
          "name": "_from",
          "type": "address"
        },
        {
          "name": "_to",
          "type": "address"
        },
        {
          "name": "_paidAmount",
          "type": "uint256"
        },
        {
          "name": "_receivedAmount",
          "type": "uint256"
        }
      ],
      "name": "recordLog",
      "outputs": [],
      "payable": false,
      "stateMutability": "nonpayable",
      "type": "function"
    },
    {
      "constant": true,
      "inputs": [
        {
          "name": "_target",
          "type": "address"
        }
      ],
      "name": "getTargetLogs",
      "outputs": [
        {
          "name": "",
          "type": "uint256[]"
        },
        {
          "name": "",
          "type": "address[]"
        },
        {
          "name": "",
          "type": "uint8[]"
        },
        {
          "name": "",
          "type": "address[]"
        },
        {
          "name": "",
          "type": "address[]"
        },
        {
          "name": "",
          "type": "uint256[]"
        },
        {
          "name": "",
          "type": "uint256[]"
        }
      ],
      "payable": false,
      "stateMutability": "view",
      "type": "function"
    },
    {
      "constant": true,
      "inputs": [
        {
          "name": "_sender",
          "type": "address"
        }
      ],
      "name": "getSenderLogs",
      "outputs": [
        {
          "name": "",
          "type": "uint256[]"
        },
        {
          "name": "",
          "type": "address[]"
        },
        {
          "name": "",
          "type": "uint8[]"
        },
        {
          "name": "",
          "type": "address[]"
        },
        {
          "name": "",
          "type": "address[]"
        },
        {
          "name": "",
          "type": "uint256[]"
        },
        {
          "name": "",
          "type": "uint256[]"
        }
      ],
      "payable": false,
      "stateMutability": "view",
      "type": "function"
    },
    {
      "constant": true,
      "inputs": [
        {
          "name": "_from",
          "type": "address"
        }
      ],
      "name": "getFromLogs",
      "outputs": [
        {
          "name": "",
          "type": "uint256[]"
        },
        {
          "name": "",
          "type": "address[]"
        },
        {
          "name": "",
          "type": "address[]"
        },
        {
          "name": "",
          "type": "uint8[]"
        },
        {
          "name": "",
          "type": "address[]"
        },
        {
          "name": "",
          "type": "uint256[]"
        },
        {
          "name": "",
          "type": "uint256[]"
        }
      ],
      "payable": false,
      "stateMutability": "view",
      "type": "function"
    },
    {
      "constant": true,
      "inputs": [
        {
          "name": "_to",
          "type": "address"
        }
      ],
      "name": "getToLogs",
      "outputs": [
        {
          "name": "",
          "type": "uint256[]"
        },
        {
          "name": "",
          "type": "address[]"
        },
        {
          "name": "",
          "type": "address[]"
        },
        {
          "name": "",
          "type": "uint8[]"
        },
        {
          "name": "",
          "type": "address[]"
        },
        {
          "name": "",
          "type": "uint256[]"
        },
        {
          "name": "",
          "type": "uint256[]"
        }
      ],
      "payable": false,
      "stateMutability": "view",
      "type": "function"
    }
  ],
  "bytecode": "0x6060604052341561000f57600080fd5b60008054600160a060020a033316600160a060020a03199091161790556124198061003b6000396000f3006060604052600436106100985763ffffffff7c01000000000000000000000000000000000000000000000000000000006000350416633562ebec811461009d57806379ba5097146102ae57806385d5ad7c146102c35780638da5cb5b146102e257806390d7ded314610311578063c122478f1461034f578063d2a796dd1461036e578063d4ee1d901461038d578063f2fde38b146103a0575b600080fd5b34156100a857600080fd5b6100bc600160a060020a03600435166103bf565b604051808060200180602001806020018060200180602001806020018060200188810388528f818151815260200191508051906020019060200280838360005b838110156101145780820151838201526020016100fc565b5050505090500188810387528e818151815260200191508051906020019060200280838360005b8381101561015357808201518382015260200161013b565b5050505090500188810386528d818151815260200191508051906020019060200280838360005b8381101561019257808201518382015260200161017a565b5050505090500188810385528c818151815260200191508051906020019060200280838360005b838110156101d15780820151838201526020016101b9565b5050505090500188810384528b818151815260200191508051906020019060200280838360005b838110156102105780820151838201526020016101f8565b5050505090500188810383528a818151815260200191508051906020019060200280838360005b8381101561024f578082015183820152602001610237565b50505050905001888103825289818151815260200191508051906020019060200280838360005b8381101561028e578082015183820152602001610276565b505050509050019e50505050505050505050505050505060405180910390f35b34156102b957600080fd5b6102c16106d5565b005b34156102ce57600080fd5b6100bc600160a060020a0360043516610756565b34156102ed57600080fd5b6102f5610a67565b604051600160a060020a03909116815260200160405180910390f35b341561031c57600080fd5b6102c1600160a060020a0360043581169060243581169060ff60443516906064358116906084351660a43560c435610a76565b341561035a57600080fd5b6100bc600160a060020a0360043516611b4b565b341561037957600080fd5b6100bc600160a060020a0360043516611e58565b341561039857600080fd5b6102f5612167565b34156103ab57600080fd5b6102c1600160a060020a0360043516612176565b6103c76121cb565b6103cf6121cb565b6103d76121cb565b6103df6121cb565b6103e76121cb565b6103ef6121cb565b6103f76121cb565b600160a060020a03881660009081526004602081815260409283902060018101805490946002830194600384019490840193600681019360078201936008909201928992828202909101905190810160405280929190818152602001828054801561048157602002820191906000526020600020905b81548152602001906001019080831161046d575b50505050509650858054806020026020016040519081016040528092919081815260200182805480156104dd57602002820191906000526020600020905b8154600160a060020a031681526001909101906020018083116104bf575b505050505095508480548060200260200160405190810160405280929190818152602001828054801561053957602002820191906000526020600020905b8154600160a060020a0316815260019091019060200180831161051b575b50505050509450838054806020026020016040519081016040528092919081815260200182805480156105b557602002820191906000526020600020906000905b82829054906101000a900460ff16600681111561059357fe5b81526020600192830181810494850194909303909202910180841161057a5790505b505050505093508280548060200260200160405190810160405280929190818152602001828054801561061157602002820191906000526020600020905b8154600160a060020a031681526001909101906020018083116105f3575b505050505092508180548060200260200160405190810160405280929190818152602001828054801561066357602002820191906000526020600020905b81548152602001906001019080831161064f575b50505050509150808054806020026020016040519081016040528092919081815260200182805480156106b557602002820191906000526020600020905b8154815260200190600101908083116106a1575b505050505090509650965096509650965096509650919395979092949650565b60015433600160a060020a039081169116146106f057600080fd5b600154600054600160a060020a0391821691167f343765429aea5a34b3ff6a3785a98a5abb2597aca87bfbb58632c173d585373a60405160405180910390a36001805460008054600160a060020a0319908116600160a060020a03841617909155169055565b61075e6121cb565b6107666121cb565b61076e6121cb565b6107766121cb565b61077e6121cb565b6107866121cb565b61078e6121cb565b600160a060020a038816600090815260026020908152604091829020600181018054909360038301936004840193600581019360068201936007830193600890930192899291828202909101905190810160405280929190818152602001828054801561081a57602002820191906000526020600020905b815481526020019060010190808311610806575b505050505096508580548060200260200160405190810160405280929190818152602001828054801561087657602002820191906000526020600020905b8154600160a060020a03168152600190910190602001808311610858575b50505050509550848054806020026020016040519081016040528092919081815260200182805480156108f257602002820191906000526020600020906000905b82829054906101000a900460ff1660068111156108d057fe5b8152602060019283018181049485019490930390920291018084116108b75790505b50505050509450838054806020026020016040519081016040528092919081815260200182805480156105b557602002820191906000526020600020905b8154600160a060020a0316815260019091019060200180831161093057505050505093508280548060200260200160405190810160405280929190818152602001828054801561061157602002820191906000526020600020908154600160a060020a031681526001909101906020018083116105f3575050505050925081805480602002602001604051908101604052809291908181526020018280548015610663576020028201919060005260206000209081548152602001906001019080831161064f5750505050509150808054806020026020016040519081016040528092919081815260200182805480156106b557602002820191906000526020600020908154815260200190600101908083116106a157505050505090509650965096509650965096509650919395979092949650565b600054600160a060020a031681565b60005433600160a060020a03908116911614610a8e57fe5b600160a060020a03871660009081526002602052604090205460ff161515610ced57610120604051908101604052806001151581526020016000604051805910610ad55750595b908082528060200260200182016040525081526020016000604051805910610afa5750595b908082528060200260200182016040525081526020016000604051805910610b1f5750595b908082528060200260200182016040525081526020016000604051805910610b445750595b908082528060200260200182016040525081526020016000604051805910610b695750595b908082528060200260200182016040525081526020016000604051805910610b8e5750595b908082528060200260200182016040525081526020016000604051805910610bb35750595b908082528060200260200182016040525081526020016000604051805910610bd85750595b90808252806020026020018201604052509052600160a060020a03881660009081526002602052604090208151815460ff1916901515178155602082015181600101908051610c2b9291602001906121dd565b50604082015181600201908051610c46929160200190612228565b50606082015181600301908051610c61929160200190612228565b50608082015181600401908051610c7c92916020019061228b565b5060a082015181600501908051610c97929160200190612228565b5060c082015181600601908051610cb2929160200190612228565b5060e082015181600701908051610ccd9291602001906121dd565b5061010082015181600801908051610ce99291602001906121dd565b5050505b600160a060020a03861660009081526003602052604090205460ff161515610f4c57610120604051908101604052806001151581526020016000604051805910610d345750595b908082528060200260200182016040525081526020016000604051805910610d595750595b908082528060200260200182016040525081526020016000604051805910610d7e5750595b908082528060200260200182016040525081526020016000604051805910610da35750595b908082528060200260200182016040525081526020016000604051805910610dc85750595b908082528060200260200182016040525081526020016000604051805910610ded5750595b908082528060200260200182016040525081526020016000604051805910610e125750595b908082528060200260200182016040525081526020016000604051805910610e375750595b90808252806020026020018201604052509052600160a060020a03871660009081526003602052604090208151815460ff1916901515178155602082015181600101908051610e8a9291602001906121dd565b50604082015181600201908051610ea5929160200190612228565b50606082015181600301908051610ec0929160200190612228565b50608082015181600401908051610edb92916020019061228b565b5060a082015181600501908051610ef6929160200190612228565b5060c082015181600601908051610f11929160200190612228565b5060e082015181600701908051610f2c9291602001906121dd565b5061010082015181600801908051610f489291602001906121dd565b5050505b600160a060020a03841660009081526004602052604090205460ff1615156111ab57610120604051908101604052806001151581526020016000604051805910610f935750595b908082528060200260200182016040525081526020016000604051805910610fb85750595b908082528060200260200182016040525081526020016000604051805910610fdd5750595b9080825280602002602001820160405250815260200160006040518059106110025750595b9080825280602002602001820160405250815260200160006040518059106110275750595b90808252806020026020018201604052508152602001600060405180591061104c5750595b9080825280602002602001820160405250815260200160006040518059106110715750595b9080825280602002602001820160405250815260200160006040518059106110965750595b90808252806020026020018201604052509052600160a060020a03851660009081526004602052604090208151815460ff19169015151781556020820151816001019080516110e99291602001906121dd565b50604082015181600201908051611104929160200190612228565b5060608201518160030190805161111f929160200190612228565b5060808201518160040190805161113a92916020019061228b565b5060a082015181600501908051611155929160200190612228565b5060c082015181600601908051611170929160200190612228565b5060e08201518160070190805161118b9291602001906121dd565b50610100820151816008019080516111a79291602001906121dd565b5050505b600160a060020a03831660009081526005602052604090205460ff16151561140a576101206040519081016040528060011515815260200160006040518059106111f25750595b9080825280602002602001820160405250815260200160006040518059106112175750595b90808252806020026020018201604052508152602001600060405180591061123c5750595b9080825280602002602001820160405250815260200160006040518059106112615750595b9080825280602002602001820160405250815260200160006040518059106112865750595b9080825280602002602001820160405250815260200160006040518059106112ab5750595b9080825280602002602001820160405250815260200160006040518059106112d05750595b9080825280602002602001820160405250815260200160006040518059106112f55750595b90808252806020026020018201604052509052600160a060020a03841660009081526005602052604090208151815460ff19169015151781556020820151816001019080516113489291602001906121dd565b50604082015181600201908051611363929160200190612228565b5060608201518160030190805161137e929160200190612228565b5060808201518160040190805161139992916020019061228b565b5060a0820151816005019080516113b4929160200190612228565b5060c0820151816006019080516113cf929160200190612228565b5060e0820151816007019080516113ea9291602001906121dd565b50610100820151816008019080516114069291602001906121dd565b5050505b600160a060020a038716600090815260026020526040902060019081018054909181016114378382612335565b506000918252602080832042920191909155600160a060020a038916825260029052604090206003018054600181016114708382612335565b5060009182526020808320919091018054600160a060020a031916600160a060020a038a8116919091179091558916825260029052604090206004018054600181016114bc838261235e565b916000526020600020906020918282040191900687909190916101000a81548160ff021916908360068111156114ee57fe5b021790555050600160a060020a038716600090815260026020526040902060050180546001810161151f8382612335565b5060009182526020808320919091018054600160a060020a031916600160a060020a038881169190911790915589168252600290526040902060060180546001810161156b8382612335565b5060009182526020808320919091018054600160a060020a031916600160a060020a03878116919091179091558916825260029052604090206007018054600181016115b78382612335565b506000918252602080832091909101849055600160a060020a038916825260029052604090206008018054600181016115f08382612335565b506000918252602080832091909101839055600160a060020a03881682526003905260409020600190810180549091810161162b8382612335565b506000918252602080832042920191909155600160a060020a038816825260039052604090206002018054600181016116648382612335565b5060009182526020808320919091018054600160a060020a031916600160a060020a038b8116919091179091558816825260039052604090206004018054600181016116b0838261235e565b916000526020600020906020918282040191900687909190916101000a81548160ff021916908360068111156116e257fe5b021790555050600160a060020a03861660009081526003602052604090206005018054600181016117138382612335565b5060009182526020808320919091018054600160a060020a031916600160a060020a038881169190911790915588168252600390526040902060060180546001810161175f8382612335565b5060009182526020808320919091018054600160a060020a031916600160a060020a03878116919091179091558816825260039052604090206007018054600181016117ab8382612335565b506000918252602080832091909101849055600160a060020a038816825260039052604090206008018054600181016117e48382612335565b506000918252602080832091909101839055600160a060020a03861682526004905260409020600190810180549091810161181f8382612335565b506000918252602080832042920191909155600160a060020a038616825260049052604090206002018054600181016118588382612335565b5060009182526020808320919091018054600160a060020a031916600160a060020a038b811691909117909155861682526004908190526040909120018054600181016118a5838261235e565b916000526020600020906020918282040191900687909190916101000a81548160ff021916908360068111156118d757fe5b021790555050600160a060020a03841660009081526004602052604090206006018054600181016119088382612335565b5060009182526020808320919091018054600160a060020a031916600160a060020a03878116919091179091558616825260049052604090206007018054600181016119548382612335565b506000918252602080832091909101849055600160a060020a0386168252600490526040902060080180546001810161198d8382612335565b506000918252602080832091909101839055600160a060020a0385168252600590526040902060019081018054909181016119c88382612335565b506000918252602080832042920191909155600160a060020a03851682526005905260409020600201805460018101611a018382612335565b5060009182526020808320919091018054600160a060020a031916600160a060020a038b811691909117909155851682526005905260409020600401805460018101611a4d838261235e565b916000526020600020906020918282040191900687909190916101000a81548160ff02191690836006811115611a7f57fe5b021790555050600160a060020a038316600090815260056020819052604090912001805460018101611ab18382612335565b5060009182526020808320919091018054600160a060020a031916600160a060020a0388811691909117909155851682526005905260409020600701805460018101611afd8382612335565b506000918252602080832091909101849055600160a060020a03851682526005905260409020600801805460018101611b368382612335565b50600091825260209091200155505050505050565b611b536121cb565b611b5b6121cb565b611b636121cb565b611b6b6121cb565b611b736121cb565b611b7b6121cb565b611b836121cb565b600160a060020a03881660009081526005602081815260409283902060018101805490946002830194600384019460048501949182019360078301936008909301928992828102019051908101604052809291908181526020018280548015611c0b57602002820191906000526020600020905b815481526020019060010190808311611bf7575b5050505050965085805480602002602001604051908101604052809291908181526020018280548015611c6757602002820191906000526020600020905b8154600160a060020a03168152600190910190602001808311611c49575b5050505050955084805480602002602001604051908101604052809291908181526020018280548015611cc357602002820191906000526020600020905b8154600160a060020a03168152600190910190602001808311611ca5575b50505050509450838054806020026020016040519081016040528092919081815260200182805480156105b557602002820191906000526020600020906000905b82829054906101000a900460ff166006811115611d1d57fe5b815260206001928301818104948501949093039092029101808411611d04579050505050505093508280548060200260200160405190810160405280929190818152602001828054801561061157602002820191906000526020600020908154600160a060020a031681526001909101906020018083116105f3575050505050925081805480602002602001604051908101604052809291908181526020018280548015610663576020028201919060005260206000209081548152602001906001019080831161064f5750505050509150808054806020026020016040519081016040528092919081815260200182805480156106b557602002820191906000526020600020908154815260200190600101908083116106a157505050505090509650965096509650965096509650919395979092949650565b611e606121cb565b611e686121cb565b611e706121cb565b611e786121cb565b611e806121cb565b611e886121cb565b611e906121cb565b600160a060020a0388166000908152600360209081526040918290206001810180549093600283019360048401936005810193600682019360078301936008909301928992918282029091019051908101604052809291908181526020018280548015611f1c57602002820191906000526020600020905b815481526020019060010190808311611f08575b5050505050965085805480602002602001604051908101604052809291908181526020018280548015611f7857602002820191906000526020600020905b8154600160a060020a03168152600190910190602001808311611f5a575b50505050509550848054806020026020016040519081016040528092919081815260200182805480156108f257602002820191906000526020600020906000905b82829054906101000a900460ff166006811115611fd257fe5b815260206001928301818104948501949093039092029101808411611fb957905050505050509450838054806020026020016040519081016040528092919081815260200182805480156105b557602002820191906000526020600020908154600160a060020a0316815260019091019060200180831161093057505050505093508280548060200260200160405190810160405280929190818152602001828054801561061157602002820191906000526020600020908154600160a060020a031681526001909101906020018083116105f3575050505050925081805480602002602001604051908101604052809291908181526020018280548015610663576020028201919060005260206000209081548152602001906001019080831161064f5750505050509150808054806020026020016040519081016040528092919081815260200182805480156106b557602002820191906000526020600020908154815260200190600101908083116106a157505050505090509650965096509650965096509650919395979092949650565b600154600160a060020a031681565b60005433600160a060020a0390811691161461218e57fe5b600054600160a060020a03828116911614156121a957600080fd5b60018054600160a060020a031916600160a060020a0392909216919091179055565b60206040519081016040526000815290565b828054828255906000526020600020908101928215612218579160200282015b828111156122185782518255916020019190600101906121fd565b5061222492915061238e565b5090565b82805482825590600052602060002090810192821561227f579160200282015b8281111561227f5782518254600160a060020a031916600160a060020a039190911617825560209290920191600190910190612248565b506122249291506123ab565b82805482825590600052602060002090601f016020900481019282156123295791602002820160005b838211156122fa57835183826101000a81548160ff021916908360068111156122d957fe5b021790555092602001926001016020816000010492830192600103026122b4565b80156123275782816101000a81549060ff02191690556001016020816000010492830192600103026122fa565b505b506122249291506123cf565b8154818355818115116123595760008381526020902061235991810190830161238e565b505050565b81548183558181151161235957601f016020900481601f0160209004836000526020600020918201910161235991905b6123a891905b808211156122245760008155600101612394565b90565b6123a891905b80821115612224578054600160a060020a03191681556001016123b1565b6123a891905b8082111561222457805460ff191681556001016123d55600a165627a7a72305820fa98912ea179b4d7e87b47753eed567f5f629dd09959a23fd28f53aca303f8930029",
  "source": "pragma solidity ^0.4.18;\nimport '../interfaces/IFinancieLog.sol';\nimport '../Owned.sol';\n\ncontract FinancieLog is Owned, IFinancieLog {\n\n    struct Log {\n        bool isSet;\n        uint[] timestamp;\n        address[] sender;\n        address[] target;\n        EventType[] eventType;\n        address[] from;\n        address[] to;\n        uint256[] amountFrom;\n        uint256[] amountTo;\n    }\n\n    mapping (address => Log) senderLogs;\n    mapping (address => Log) targetLogs;\n    mapping (address => Log) fromLogs;\n    mapping (address => Log) toLogs;\n\n    function FinancieLog() public {\n\n    }\n\n    function() payable public {\n        revert();\n    }\n\n    function recordLog(\n        address _sender,\n        address _target,\n        EventType _eventType,\n        address _from,\n        address _to,\n        uint256 _paidAmount,\n        uint256 _receivedAmount)\n        public\n        ownerOnly\n    {\n        if ( !senderLogs[_sender].isSet ) {\n            senderLogs[_sender] = Log(\n                true,\n                new uint[](0),\n                new address[](0),\n                new address[](0),\n                new EventType[](0),\n                new address[](0),\n                new address[](0),\n                new uint256[](0),\n                new uint256[](0)\n            );\n        }\n        if ( !targetLogs[_target].isSet ) {\n            targetLogs[_target] = Log(\n                true,\n                new uint[](0),\n                new address[](0),\n                new address[](0),\n                new EventType[](0),\n                new address[](0),\n                new address[](0),\n                new uint256[](0),\n                new uint256[](0)\n            );\n        }\n        if ( !fromLogs[_from].isSet ) {\n            fromLogs[_from] = Log(\n                true,\n                new uint[](0),\n                new address[](0),\n                new address[](0),\n                new EventType[](0),\n                new address[](0),\n                new address[](0),\n                new uint256[](0),\n                new uint256[](0)\n            );\n        }\n        if ( !toLogs[_to].isSet ) {\n            toLogs[_to] = Log(\n                true,\n                new uint[](0),\n                new address[](0),\n                new address[](0),\n                new EventType[](0),\n                new address[](0),\n                new address[](0),\n                new uint256[](0),\n                new uint256[](0)\n            );\n        }\n\n        // Record sender log\n        senderLogs[_sender].timestamp.push(now);\n        //senderLogs[_sender].sender.push(_sender);\n        senderLogs[_sender].target.push(_target);\n        senderLogs[_sender].eventType.push(_eventType);\n        senderLogs[_sender].from.push(_from);\n        senderLogs[_sender].to.push(_to);\n        senderLogs[_sender].amountFrom.push(_paidAmount);\n        senderLogs[_sender].amountTo.push(_receivedAmount);\n\n        // Record target log\n        targetLogs[_target].timestamp.push(now);\n        targetLogs[_target].sender.push(_sender);\n        //targetLogs[_target].target.push(_target);\n        targetLogs[_target].eventType.push(_eventType);\n        targetLogs[_target].from.push(_from);\n        targetLogs[_target].to.push(_to);\n        targetLogs[_target].amountFrom.push(_paidAmount);\n        targetLogs[_target].amountTo.push(_receivedAmount);\n\n        // Record from log\n        fromLogs[_from].timestamp.push(now);\n        fromLogs[_from].sender.push(_sender);\n        fromLogs[_from].eventType.push(_eventType);\n        //fromLogs[_from].from.push(_from);\n        fromLogs[_from].to.push(_to);\n        fromLogs[_from].amountFrom.push(_paidAmount);\n        fromLogs[_from].amountTo.push(_receivedAmount);\n\n        // Record to log\n        toLogs[_to].timestamp.push(now);\n        toLogs[_to].sender.push(_sender);\n        toLogs[_to].eventType.push(_eventType);\n        toLogs[_to].from.push(_from);\n        //toLogs[_to].to.push(_to);\n        toLogs[_to].amountFrom.push(_paidAmount);\n        toLogs[_to].amountTo.push(_receivedAmount);\n    }\n\n    function getTargetLogs(address _target)\n        public view returns(uint[], address[], EventType[], address[], address[], uint256[], uint256[])\n    {\n        return (\n            targetLogs[_target].timestamp,\n            targetLogs[_target].sender,\n            targetLogs[_target].eventType,\n            targetLogs[_target].from,\n            targetLogs[_target].to,\n            targetLogs[_target].amountFrom,\n            targetLogs[_target].amountTo\n        );\n    }\n\n    function getSenderLogs(address _sender)\n        public view returns(uint[], address[], EventType[], address[], address[], uint256[], uint256[])\n    {\n        return (\n            senderLogs[_sender].timestamp,\n            senderLogs[_sender].target,\n            senderLogs[_sender].eventType,\n            senderLogs[_sender].from,\n            senderLogs[_sender].to,\n            senderLogs[_sender].amountFrom,\n            senderLogs[_sender].amountTo\n        );\n    }\n\n    function getFromLogs(address _from)\n        public view returns(uint[], address[], address[], EventType[], address[], uint256[], uint256[])\n    {\n        return (\n            fromLogs[_from].timestamp,\n            fromLogs[_from].sender,\n            fromLogs[_from].target,\n            fromLogs[_from].eventType,\n            fromLogs[_from].to,\n            fromLogs[_from].amountFrom,\n            fromLogs[_from].amountTo\n        );\n    }\n\n    function getToLogs(address _to)\n        public view returns(uint[], address[], address[], EventType[], address[], uint256[], uint256[])\n    {\n        return (\n            toLogs[_to].timestamp,\n            toLogs[_to].sender,\n            toLogs[_to].target,\n            toLogs[_to].eventType,\n            toLogs[_to].from,\n            toLogs[_to].amountFrom,\n            toLogs[_to].amountTo\n        );\n    }\n\n\n}\n",
  "sourcePath": "/Users/rudo/Documents/ichiba/submodules/contracts/solidity/contracts/Financie/FinancieLog.sol",
  "compiler": {
    "name": "solc",
    "version": "0.4.21+commit.dfe3193c.Emscripten.clang"
  },
  "schemaVersion": "2.0.0",
  "updatedAt": "2018-07-31T08:20:33.640Z"
}