{
  "contractName": "FinancieLog",
  "abi": [
    {
      "constant": false,
      "inputs": [],
      "name": "acceptOwnership",
      "outputs": [],
      "payable": false,
      "stateMutability": "nonpayable",
      "type": "function"
    },
    {
      "constant": true,
      "inputs": [],
      "name": "owner",
      "outputs": [
        {
          "name": "",
          "type": "address"
        }
      ],
      "payable": false,
      "stateMutability": "view",
      "type": "function"
    },
    {
      "constant": true,
      "inputs": [],
      "name": "newOwner",
      "outputs": [
        {
          "name": "",
          "type": "address"
        }
      ],
      "payable": false,
      "stateMutability": "view",
      "type": "function"
    },
    {
      "constant": false,
      "inputs": [
        {
          "name": "_newOwner",
          "type": "address"
        }
      ],
      "name": "transferOwnership",
      "outputs": [],
      "payable": false,
      "stateMutability": "nonpayable",
      "type": "function"
    },
    {
      "inputs": [],
      "payable": false,
      "stateMutability": "nonpayable",
      "type": "constructor"
    },
    {
      "payable": true,
      "stateMutability": "payable",
      "type": "fallback"
    },
    {
      "anonymous": false,
      "inputs": [
        {
          "indexed": true,
          "name": "_prevOwner",
          "type": "address"
        },
        {
          "indexed": true,
          "name": "_newOwner",
          "type": "address"
        }
      ],
      "name": "OwnerUpdate",
      "type": "event"
    },
    {
      "constant": false,
      "inputs": [
        {
          "name": "_sender",
          "type": "address"
        },
        {
          "name": "_eventType",
          "type": "uint8"
        },
        {
          "name": "_currencyType",
          "type": "uint8"
        },
        {
          "name": "_target",
          "type": "address"
        },
        {
          "name": "_paidAmount",
          "type": "uint256"
        },
        {
          "name": "_receivedAmount",
          "type": "uint256"
        }
      ],
      "name": "recordLog",
      "outputs": [],
      "payable": false,
      "stateMutability": "nonpayable",
      "type": "function"
    },
    {
      "constant": true,
      "inputs": [
        {
          "name": "_target",
          "type": "address"
        }
      ],
      "name": "getTargetLogs",
      "outputs": [
        {
          "name": "",
          "type": "uint8[]"
        },
        {
          "name": "",
          "type": "uint8[]"
        },
        {
          "name": "",
          "type": "address[]"
        },
        {
          "name": "",
          "type": "uint256[]"
        },
        {
          "name": "",
          "type": "uint256[]"
        }
      ],
      "payable": false,
      "stateMutability": "view",
      "type": "function"
    },
    {
      "constant": true,
      "inputs": [
        {
          "name": "_sender",
          "type": "address"
        }
      ],
      "name": "getUserLogs",
      "outputs": [
        {
          "name": "",
          "type": "uint8[]"
        },
        {
          "name": "",
          "type": "uint8[]"
        },
        {
          "name": "",
          "type": "address[]"
        },
        {
          "name": "",
          "type": "uint256[]"
        },
        {
          "name": "",
          "type": "uint256[]"
        }
      ],
      "payable": false,
      "stateMutability": "view",
      "type": "function"
    }
  ],
  "bytecode": "0x6060604052341561000f57600080fd5b60008054600160a060020a033316600160a060020a031990911617905561120a8061003b6000396000f3006060604052600436106100825763ffffffff7c01000000000000000000000000000000000000000000000000000000006000350416635de0f6f6811461008757806379ba50971461020e5780638da5cb5b14610223578063d2a796dd14610252578063d4ee1d9014610271578063e1f32e4b14610284578063f2fde38b146102be575b600080fd5b341561009257600080fd5b6100a6600160a060020a03600435166102dd565b60405180806020018060200180602001806020018060200186810386528b818151815260200191508051906020019060200280838360005b838110156100f65780820151838201526020016100de565b5050505090500186810385528a818151815260200191508051906020019060200280838360005b8381101561013557808201518382015260200161011d565b50505050905001868103845289818151815260200191508051906020019060200280838360005b8381101561017457808201518382015260200161015c565b50505050905001868103835288818151815260200191508051906020019060200280838360005b838110156101b357808201518382015260200161019b565b50505050905001868103825287818151815260200191508051906020019060200280838360005b838110156101f25780820151838201526020016101da565b505050509050019a505050505050505050505060405180910390f35b341561021957600080fd5b610221610543565b005b341561022e57600080fd5b6102366105d1565b604051600160a060020a03909116815260200160405180910390f35b341561025d57600080fd5b6100a6600160a060020a03600435166105e0565b341561027c57600080fd5b61023661083e565b341561028f57600080fd5b610221600160a060020a0360043581169060ff602435811691604435909116906064351660843560a43561084d565b34156102c957600080fd5b610221600160a060020a0360043516610ecd565b6102e5610f2f565b6102ed610f2f565b6102f5610f2f565b6102fd610f2f565b610305610f2f565b600160a060020a0386166000908152600260208181526040928390206001810180549094938201936003830193600484019360050192879290918281020190519081016040528092919081815260200182805480156103ad57602002820191906000526020600020906000905b82829054906101000a900460ff16600481111561038b57fe5b8152602060019283018181049485019490930390920291018084116103725790505b505050505094508380548060200260200160405190810160405280929190818152602001828054801561042957602002820191906000526020600020906000905b82829054906101000a900460ff16600281111561040757fe5b8152602060019283018181049485019490930390920291018084116103ee5790505b505050505093508280548060200260200160405190810160405280929190818152602001828054801561048557602002820191906000526020600020905b8154600160a060020a03168152600190910190602001808311610467575b50505050509250818054806020026020016040519081016040528092919081815260200182805480156104d757602002820191906000526020600020905b8154815260200190600101908083116104c3575b505050505091508080548060200260200160405190810160405280929190818152602001828054801561052957602002820191906000526020600020905b815481526020019060010190808311610515575b505050505090509450945094509450945091939590929450565b60015433600160a060020a0390811691161461055e57600080fd5b600154600054600160a060020a0391821691167f343765429aea5a34b3ff6a3785a98a5abb2597aca87bfbb58632c173d585373a60405160405180910390a3600180546000805473ffffffffffffffffffffffffffffffffffffffff19908116600160a060020a03841617909155169055565b600054600160a060020a031681565b6105e8610f2f565b6105f0610f2f565b6105f8610f2f565b610600610f2f565b610608610f2f565b600160a060020a03861660009081526003602081815260409283902060018101805490946002830194830193600484019360050192879290918281020190519081016040528092919081815260200182805480156106af57602002820191906000526020600020906000905b82829054906101000a900460ff16600481111561068d57fe5b8152602060019283018181049485019490930390920291018084116106745790505b505050505094508380548060200260200160405190810160405280929190818152602001828054801561042957602002820191906000526020600020906000905b82829054906101000a900460ff16600281111561070957fe5b8152602060019283018181049485019490930390920291018084116106f0579050505050505093508280548060200260200160405190810160405280929190818152602001828054801561048557602002820191906000526020600020908154600160a060020a031681526001909101906020018083116104675750505050509250818054806020026020016040519081016040528092919081815260200182805480156104d757602002820191906000526020600020908154815260200190600101908083116104c3575050505050915080805480602002602001604051908101604052809291908181526020018280548015610529576020028201919060005260206000209081548152602001906001019080831161051557505050505090509450945094509450945091939590929450565b600154600160a060020a031681565b60005433600160a060020a0390811691161461086557fe5b600160a060020a03861660009081526002602052604090205460ff161515610a025760c06040519081016040528060011515815260200160006040518059106108ab5750595b9080825280602002602001820160405250815260200160006040518059106108d05750595b9080825280602002602001820160405250815260200160006040518059106108f55750595b90808252806020026020018201604052508152602001600060405180591061091a5750595b90808252806020026020018201604052508152602001600060405180591061093f5750595b90808252806020026020018201604052509052600160a060020a03871660009081526002602052604090208151815460ff1916901515178155602082015181600101908051610992929160200190610f41565b506040820151816002019080516109ad929160200190610fef565b506060820151816003019080516109c892916020019061105e565b506080820151816004019080516109e39291602001906110ce565b5060a0820151816005019080516109fe9291602001906110ce565b5050505b600160a060020a03831660009081526003602052604090205460ff161515610b9f5760c0604051908101604052806001151581526020016000604051805910610a485750595b908082528060200260200182016040525081526020016000604051805910610a6d5750595b908082528060200260200182016040525081526020016000604051805910610a925750595b908082528060200260200182016040525081526020016000604051805910610ab75750595b908082528060200260200182016040525081526020016000604051805910610adc5750595b90808252806020026020018201604052509052600160a060020a03841660009081526003602052604090208151815460ff1916901515178155602082015181600101908051610b2f929160200190610f41565b50604082015181600201908051610b4a929160200190610fef565b50606082015181600301908051610b6592916020019061105e565b50608082015181600401908051610b809291602001906110ce565b5060a082015181600501908051610b9b9291602001906110ce565b5050505b600160a060020a03861660009081526002602052604090206001908101805490918101610bcc8382611115565b916000526020600020906020918282040191900687909190916101000a81548160ff02191690836004811115610bfe57fe5b021790555050600160a060020a038616600090815260026020819052604090912001805460018101610c308382611115565b916000526020600020906020918282040191900686909190916101000a81548160ff02191690836002811115610c6257fe5b021790555050600160a060020a0386166000908152600260205260409020600301805460018101610c93838261114e565b506000918252602080832091909101805473ffffffffffffffffffffffffffffffffffffffff1916600160a060020a0387811691909117909155881682526002905260409020600401805460018101610cec838261114e565b506000918252602080832091909101849055600160a060020a03881682526002905260409020600501805460018101610d25838261114e565b506000918252602080832091909101839055600160a060020a038516825260039052604090206001908101805490918101610d608382611115565b916000526020600020906020918282040191900687909190916101000a81548160ff02191690836004811115610d9257fe5b021790555050600160a060020a0383166000908152600360205260409020600201805460018101610dc38382611115565b916000526020600020906020918282040191900686909190916101000a81548160ff02191690836002811115610df557fe5b021790555050600160a060020a038316600090815260036020819052604090912001805460018101610e27838261114e565b506000918252602080832091909101805473ffffffffffffffffffffffffffffffffffffffff1916600160a060020a038a811691909117909155851682526003905260409020600401805460018101610e80838261114e565b506000918252602080832091909101849055600160a060020a03851682526003905260409020600501805460018101610eb9838261114e565b506000918252602090912001555050505050565b60005433600160a060020a03908116911614610ee557fe5b600054600160a060020a0382811691161415610f0057600080fd5b6001805473ffffffffffffffffffffffffffffffffffffffff1916600160a060020a0392909216919091179055565b60206040519081016040526000815290565b82805482825590600052602060002090601f01602090048101928215610fdf5791602002820160005b83821115610fb057835183826101000a81548160ff02191690836004811115610f8f57fe5b02179055509260200192600101602081600001049283019260010302610f6a565b8015610fdd5782816101000a81549060ff0219169055600101602081600001049283019260010302610fb0565b505b50610feb929150611172565b5090565b82805482825590600052602060002090601f01602090048101928215610fdf5791602002820160005b83821115610fb057835183826101000a81548160ff0219169083600281111561103d57fe5b02179055509260200192600101602081600001049283019260010302611018565b8280548282559060005260206000209081019282156110c2579160200282015b828111156110c2578251825473ffffffffffffffffffffffffffffffffffffffff1916600160a060020a03919091161782556020929092019160019091019061107e565b50610feb929150611193565b828054828255906000526020600020908101928215611109579160200282015b828111156111095782518255916020019190600101906110ee565b50610feb9291506111c4565b81548183558181151161114957601f016020900481601f0160209004836000526020600020918201910161114991906111c4565b505050565b815481835581811511611149576000838152602090206111499181019083016111c4565b61119091905b80821115610feb57805460ff19168155600101611178565b90565b61119091905b80821115610feb57805473ffffffffffffffffffffffffffffffffffffffff19168155600101611199565b61119091905b80821115610feb57600081556001016111ca5600a165627a7a72305820874102832a730c03ec3bef3c0fdf19c21c24ee03f362755b2787608b172db9c60029",
  "source": "pragma solidity ^0.4.18;\nimport '../interfaces/IFinancieLog.sol';\nimport '../Owned.sol';\n\ncontract FinancieLog is Owned, IFinancieLog {\n\n    struct UserLogs {\n        bool isSet;\n        EventType[] eventType;\n        CurrencyType[] currencyType;\n        address[] target;\n        uint256[] amountFrom;\n        uint256[] amountTo;\n    }\n\n    struct TargetLogs {\n        bool isSet;\n        EventType[] eventType;\n        CurrencyType[] currencyType;\n        address[] sender;\n        uint256[] amountFrom;\n        uint256[] amountTo;\n    }\n\n    mapping (address => UserLogs) userLogs;\n    mapping (address => TargetLogs) targetLogs;\n\n    function FinancieLog() public {\n\n    }\n\n    function() payable public {\n        revert();\n    }\n\n    function recordLog(address _sender,\n        EventType _eventType,\n        CurrencyType _currencyType,\n        address _target,\n        uint256 _paidAmount,\n        uint256 _receivedAmount)\n        public\n        ownerOnly\n    {\n        if ( !userLogs[_sender].isSet ) {\n            userLogs[_sender] = UserLogs(\n                true,\n                new EventType[](0),\n                new CurrencyType[](0),\n                new address[](0),\n                new uint256[](0),\n                new uint256[](0)\n            );\n        }\n        if ( !targetLogs[_target].isSet ) {\n            targetLogs[_target] = TargetLogs(\n                true,\n                new EventType[](0),\n                new CurrencyType[](0),\n                new address[](0),\n                new uint256[](0),\n                new uint256[](0)\n            );\n        }\n\n        // Record user log\n        userLogs[_sender].eventType.push(_eventType);\n        userLogs[_sender].currencyType.push(_currencyType);\n        userLogs[_sender].target.push(_target);\n        userLogs[_sender].amountFrom.push(_paidAmount);\n        userLogs[_sender].amountTo.push(_receivedAmount);\n\n        // Record target log\n        targetLogs[_target].eventType.push(_eventType);\n        targetLogs[_target].currencyType.push(_currencyType);\n        targetLogs[_target].sender.push(_sender);\n        targetLogs[_target].amountFrom.push(_paidAmount);\n        targetLogs[_target].amountTo.push(_receivedAmount);\n    }\n\n    function getTargetLogs(address _target)\n        public view returns(EventType[], CurrencyType[], address[], uint256[], uint256[])\n    {\n        return (\n            targetLogs[_target].eventType,\n            targetLogs[_target].currencyType,\n            targetLogs[_target].sender,\n            targetLogs[_target].amountFrom,\n            targetLogs[_target].amountTo\n        );\n    }\n\n    function getUserLogs(address _sender)\n        public view returns(EventType[], CurrencyType[], address[], uint256[], uint256[])\n    {\n        return (\n            userLogs[_sender].eventType,\n            userLogs[_sender].currencyType,\n            userLogs[_sender].target,\n            userLogs[_sender].amountFrom,\n            userLogs[_sender].amountTo\n        );\n    }\n\n}\n",
  "sourcePath": "/Users/rudo/Documents/ichiba/submodules/contracts/solidity/contracts/Financie/FinancieLog.sol",
  "compiler": {
    "name": "solc",
    "version": "0.4.21+commit.dfe3193c.Emscripten.clang"
  },
  "schemaVersion": "2.0.0",
  "updatedAt": "2018-07-24T06:51:21.724Z"
}