{
  "contractName": "FinancieHeroesDutchAuction",
  "abi": [
    {
      "constant": true,
      "inputs": [],
      "name": "num_tokens_auctioned",
      "outputs": [
        {
          "name": "",
          "type": "uint256"
        }
      ],
      "payable": false,
      "stateMutability": "view",
      "type": "function"
    },
    {
      "constant": true,
      "inputs": [],
      "name": "final_price",
      "outputs": [
        {
          "name": "",
          "type": "uint256"
        }
      ],
      "payable": false,
      "stateMutability": "view",
      "type": "function"
    },
    {
      "constant": true,
      "inputs": [],
      "name": "price_exponent",
      "outputs": [
        {
          "name": "",
          "type": "uint32"
        }
      ],
      "payable": false,
      "stateMutability": "view",
      "type": "function"
    },
    {
      "constant": true,
      "inputs": [],
      "name": "end_time",
      "outputs": [
        {
          "name": "",
          "type": "uint256"
        }
      ],
      "payable": false,
      "stateMutability": "view",
      "type": "function"
    },
    {
      "constant": true,
      "inputs": [],
      "name": "token_multiplier",
      "outputs": [
        {
          "name": "",
          "type": "uint256"
        }
      ],
      "payable": false,
      "stateMutability": "view",
      "type": "function"
    },
    {
      "constant": true,
      "inputs": [],
      "name": "price_start",
      "outputs": [
        {
          "name": "",
          "type": "uint256"
        }
      ],
      "payable": false,
      "stateMutability": "view",
      "type": "function"
    },
    {
      "constant": true,
      "inputs": [],
      "name": "bid_threshold",
      "outputs": [
        {
          "name": "",
          "type": "uint256"
        }
      ],
      "payable": false,
      "stateMutability": "view",
      "type": "function"
    },
    {
      "constant": true,
      "inputs": [],
      "name": "funds_claimed",
      "outputs": [
        {
          "name": "",
          "type": "uint256"
        }
      ],
      "payable": false,
      "stateMutability": "view",
      "type": "function"
    },
    {
      "constant": false,
      "inputs": [],
      "name": "claimTokens",
      "outputs": [
        {
          "name": "",
          "type": "bool"
        }
      ],
      "payable": false,
      "stateMutability": "nonpayable",
      "type": "function"
    },
    {
      "constant": true,
      "inputs": [],
      "name": "token_claim_waiting_period",
      "outputs": [
        {
          "name": "",
          "type": "uint256"
        }
      ],
      "payable": false,
      "stateMutability": "view",
      "type": "function"
    },
    {
      "constant": true,
      "inputs": [],
      "name": "whitelister_address",
      "outputs": [
        {
          "name": "",
          "type": "address"
        }
      ],
      "payable": false,
      "stateMutability": "view",
      "type": "function"
    },
    {
      "constant": false,
      "inputs": [
        {
          "name": "_bidder_addresses",
          "type": "address[]"
        }
      ],
      "name": "removeFromWhitelist",
      "outputs": [],
      "payable": false,
      "stateMutability": "nonpayable",
      "type": "function"
    },
    {
      "constant": true,
      "inputs": [
        {
          "name": "",
          "type": "address"
        }
      ],
      "name": "bids",
      "outputs": [
        {
          "name": "",
          "type": "uint256"
        }
      ],
      "payable": false,
      "stateMutability": "view",
      "type": "function"
    },
    {
      "constant": false,
      "inputs": [],
      "name": "startAuction",
      "outputs": [],
      "payable": false,
      "stateMutability": "nonpayable",
      "type": "function"
    },
    {
      "constant": true,
      "inputs": [],
      "name": "received_wei",
      "outputs": [
        {
          "name": "",
          "type": "uint256"
        }
      ],
      "payable": false,
      "stateMutability": "view",
      "type": "function"
    },
    {
      "constant": false,
      "inputs": [
        {
          "name": "_bidder_addresses",
          "type": "address[]"
        }
      ],
      "name": "addToWhitelist",
      "outputs": [],
      "payable": false,
      "stateMutability": "nonpayable",
      "type": "function"
    },
    {
      "constant": true,
      "inputs": [],
      "name": "owner_address",
      "outputs": [
        {
          "name": "",
          "type": "address"
        }
      ],
      "payable": false,
      "stateMutability": "view",
      "type": "function"
    },
    {
      "constant": true,
      "inputs": [],
      "name": "start_time",
      "outputs": [
        {
          "name": "",
          "type": "uint256"
        }
      ],
      "payable": false,
      "stateMutability": "view",
      "type": "function"
    },
    {
      "constant": true,
      "inputs": [
        {
          "name": "",
          "type": "address"
        }
      ],
      "name": "whitelist",
      "outputs": [
        {
          "name": "",
          "type": "bool"
        }
      ],
      "payable": false,
      "stateMutability": "view",
      "type": "function"
    },
    {
      "constant": true,
      "inputs": [],
      "name": "price_constant",
      "outputs": [
        {
          "name": "",
          "type": "uint256"
        }
      ],
      "payable": false,
      "stateMutability": "view",
      "type": "function"
    },
    {
      "constant": true,
      "inputs": [],
      "name": "price",
      "outputs": [
        {
          "name": "",
          "type": "uint256"
        }
      ],
      "payable": false,
      "stateMutability": "view",
      "type": "function"
    },
    {
      "constant": true,
      "inputs": [],
      "name": "start_block",
      "outputs": [
        {
          "name": "",
          "type": "uint256"
        }
      ],
      "payable": false,
      "stateMutability": "view",
      "type": "function"
    },
    {
      "constant": true,
      "inputs": [],
      "name": "stage",
      "outputs": [
        {
          "name": "",
          "type": "uint8"
        }
      ],
      "payable": false,
      "stateMutability": "view",
      "type": "function"
    },
    {
      "constant": true,
      "inputs": [],
      "name": "missingFundsToEndAuction",
      "outputs": [
        {
          "name": "",
          "type": "uint256"
        }
      ],
      "payable": false,
      "stateMutability": "view",
      "type": "function"
    },
    {
      "constant": true,
      "inputs": [],
      "name": "wallet_address",
      "outputs": [
        {
          "name": "",
          "type": "address"
        }
      ],
      "payable": false,
      "stateMutability": "view",
      "type": "function"
    },
    {
      "constant": false,
      "inputs": [],
      "name": "finalizeAuction",
      "outputs": [],
      "payable": false,
      "stateMutability": "nonpayable",
      "type": "function"
    },
    {
      "constant": true,
      "inputs": [],
      "name": "token",
      "outputs": [
        {
          "name": "",
          "type": "address"
        }
      ],
      "payable": false,
      "stateMutability": "view",
      "type": "function"
    },
    {
      "inputs": [
        {
          "name": "_wallet_address",
          "type": "address"
        },
        {
          "name": "_whitelister_address",
          "type": "address"
        },
        {
          "name": "_price_start",
          "type": "uint256"
        },
        {
          "name": "_price_constant",
          "type": "uint256"
        },
        {
          "name": "_price_exponent",
          "type": "uint32"
        }
      ],
      "payable": false,
      "stateMutability": "nonpayable",
      "type": "constructor"
    },
    {
      "payable": true,
      "stateMutability": "payable",
      "type": "fallback"
    },
    {
      "anonymous": false,
      "inputs": [
        {
          "indexed": true,
          "name": "_price_start",
          "type": "uint256"
        },
        {
          "indexed": true,
          "name": "_price_constant",
          "type": "uint256"
        },
        {
          "indexed": true,
          "name": "_price_exponent",
          "type": "uint32"
        }
      ],
      "name": "Deployed",
      "type": "event"
    },
    {
      "anonymous": false,
      "inputs": [],
      "name": "Setup",
      "type": "event"
    },
    {
      "anonymous": false,
      "inputs": [
        {
          "indexed": true,
          "name": "_start_time",
          "type": "uint256"
        },
        {
          "indexed": true,
          "name": "_block_number",
          "type": "uint256"
        }
      ],
      "name": "AuctionStarted",
      "type": "event"
    },
    {
      "anonymous": false,
      "inputs": [
        {
          "indexed": true,
          "name": "_sender",
          "type": "address"
        },
        {
          "indexed": false,
          "name": "_amount",
          "type": "uint256"
        },
        {
          "indexed": false,
          "name": "_missing_funds",
          "type": "uint256"
        }
      ],
      "name": "BidSubmission",
      "type": "event"
    },
    {
      "anonymous": false,
      "inputs": [
        {
          "indexed": true,
          "name": "_recipient",
          "type": "address"
        },
        {
          "indexed": false,
          "name": "_sent_amount",
          "type": "uint256"
        }
      ],
      "name": "ClaimedTokens",
      "type": "event"
    },
    {
      "anonymous": false,
      "inputs": [
        {
          "indexed": false,
          "name": "_final_price",
          "type": "uint256"
        }
      ],
      "name": "AuctionEnded",
      "type": "event"
    },
    {
      "anonymous": false,
      "inputs": [],
      "name": "TokensDistributed",
      "type": "event"
    },
    {
      "constant": false,
      "inputs": [
        {
          "name": "_core_address",
          "type": "address"
        },
        {
          "name": "_token_address",
          "type": "address"
        }
      ],
      "name": "setup",
      "outputs": [],
      "payable": false,
      "stateMutability": "nonpayable",
      "type": "function"
    },
    {
      "constant": false,
      "inputs": [
        {
          "name": "_token_address",
          "type": "address"
        }
      ],
      "name": "setup",
      "outputs": [],
      "payable": false,
      "stateMutability": "nonpayable",
      "type": "function"
    },
    {
      "constant": false,
      "inputs": [],
      "name": "bid",
      "outputs": [],
      "payable": true,
      "stateMutability": "payable",
      "type": "function"
    },
    {
      "constant": false,
      "inputs": [
        {
          "name": "receiver_address",
          "type": "address"
        }
      ],
      "name": "proxyClaimTokens",
      "outputs": [
        {
          "name": "",
          "type": "bool"
        }
      ],
      "payable": false,
      "stateMutability": "nonpayable",
      "type": "function"
    },
    {
      "constant": false,
      "inputs": [
        {
          "name": "receiver_address",
          "type": "address"
        }
      ],
      "name": "estimateClaimTokens",
      "outputs": [
        {
          "name": "",
          "type": "uint256"
        }
      ],
      "payable": false,
      "stateMutability": "nonpayable",
      "type": "function"
    },
    {
      "constant": false,
      "inputs": [
        {
          "name": "receiver_address",
          "type": "address"
        }
      ],
      "name": "canClaimTokens",
      "outputs": [
        {
          "name": "",
          "type": "bool"
        }
      ],
      "payable": false,
      "stateMutability": "nonpayable",
      "type": "function"
    }
  ],
  "bytecode": "0x606060405234156200001057600080fd5b60405160a080620014f28339810160405280805191906020018051919060200180519190602001805191906020018051915085905084848484600160a060020a03851615156200005f57600080fd5b600160a060020a03841615156200007557600080fd5b60028054600160a060020a03878116600160a060020a031992831617909255600380548784169083161790556001805433909316929091169190911790556011805460ff19169055620000d8838383640100000000620012a36200011d82021704565b8063ffffffff1682847f386f36f3306fb418dd13e11a0f5b005c8b23a70fb5da6c18ab5123e5fe68598560405160405180910390a4505050505050505050506200019b565b600060115460ff1660048111156200013157fe5b14806200014f5750600160115460ff1660048111156200014d57fe5b145b15156200015b57600080fd5b600083116200016957600080fd5b600082116200017757600080fd5b6004929092556005556006805463ffffffff191663ffffffff909216919091179055565b61134780620001ab6000396000f3006060604052600436106101875763ffffffff60e060020a60003504166303cc7b8581146101b057806308b309e3146101d55780630c64a739146101e857806316243356146102145780631998aeef146102275780631e3359621461023157806329b4d111146102445780632a887299146102575780632aefb7c51461026a5780632d34ba791461027d57806348c54b9d146102a25780634b7829f1146102c95780634e012918146102dc578063548db1741461030b57806362ea82db1461035a57806366d38203146103795780636b64c769146103985780636f764c53146103ab5780637b10e717146103ca5780637f649783146103dd57806380edef8e1461042c578063834ee4171461043f57806384d504bc146104525780639b19251a146104715780639dbf054314610490578063a035b1fe146104a3578063aeaaaa08146104b6578063b87fb3db146104d5578063c040e6b8146104e8578063c5cd88db1461051f578063e776a5b514610532578063f77282ab14610545578063fc0c546a14610558575b60028060115460ff16600481111561019b57fe5b146101a557600080fd5b6101ad61056b565b50005b34156101bb57600080fd5b6101c3610614565b60405190815260200160405180910390f35b34156101e057600080fd5b6101c361061a565b34156101f357600080fd5b6101fb610620565b60405163ffffffff909116815260200160405180910390f35b341561021f57600080fd5b6101c361062c565b61022f61056b565b005b341561023c57600080fd5b6101c3610632565b341561024f57600080fd5b6101c3610638565b341561026257600080fd5b6101c361063e565b341561027557600080fd5b6101c361064b565b341561028857600080fd5b61022f600160a060020a0360043581169060243516610651565b34156102ad57600080fd5b6102b56106ca565b604051901515815260200160405180910390f35b34156102d457600080fd5b6101c36106fa565b34156102e757600080fd5b6102ef6106ff565b604051600160a060020a03909116815260200160405180910390f35b341561031657600080fd5b61022f600460248135818101908301358060208181020160405190810160405280939291908181526020018383602002808284375094965061070e95505050505050565b341561036557600080fd5b6101c3600160a060020a0360043516610795565b341561038457600080fd5b61022f600160a060020a03600435166107a7565b34156103a357600080fd5b61022f61091c565b34156103b657600080fd5b6101c3600160a060020a036004351661099e565b34156103d557600080fd5b6101c3610a15565b34156103e857600080fd5b61022f6004602481358181019083013580602081810201604051908101604052809392919081815260200183836020028082843750949650610a1b95505050505050565b341561043757600080fd5b6102ef610a9e565b341561044a57600080fd5b6101c3610aad565b341561045d57600080fd5b6102b5600160a060020a0360043516610ab3565b341561047c57600080fd5b6102b5600160a060020a0360043516610b04565b341561049b57600080fd5b6101c3610b19565b34156104ae57600080fd5b6101c3610b1f565b34156104c157600080fd5b6102b5600160a060020a0360043516610b6b565b34156104e057600080fd5b6101c3610d05565b34156104f357600080fd5b6104fb610d0b565b6040518082600481111561050b57fe5b60ff16815260200191505060405180910390f35b341561052a57600080fd5b6101c3610d14565b341561053d57600080fd5b6102ef610d50565b341561055057600080fd5b61022f610d5f565b341561056357600080fd5b6102ef610dfe565b60028060115460ff16600481111561057f57fe5b1461058957600080fd5b610591610e0d565b601154600054600160a060020a036101009092048216916383505556913391163460405160e060020a63ffffffff8616028152600160a060020a0393841660048201529190921660248201526044810191909152606401600060405180830381600087803b151561060157600080fd5b5af1151561060e57600080fd5b50505050565b600d5481565b600e5481565b60065463ffffffff1681565b60085481565b600c5481565b60045481565b683635c9adc5dea0000081565b600b5481565b60015433600160a060020a0390811691161461066c57600080fd5b60008060115460ff16600481111561068057fe5b1461068a57600080fd5b610693826107a7565b505060118054600160a060020a039092166101000274ffffffffffffffffffffffffffffffffffffffff0019909216919091179055565b600060038060115460ff1660048111156106e057fe5b146106ea57600080fd5b6106f333610b6b565b91505b5090565b603c81565b600354600160a060020a031681565b60035460009033600160a060020a0390811691161461072c57600080fd5b5060005b81518163ffffffff16101561079157600060106000848463ffffffff168151811061075757fe5b90602001906020020151600160a060020a031681526020810191909152604001600020805460ff1916911515919091179055600101610730565b5050565b600f6020526000908152604090205481565b60015433600160a060020a039081169116146107c257600080fd5b60008060115460ff1660048111156107d657fe5b146107e057600080fd5b600160a060020a03821615156107f557600080fd5b6000805473ffffffffffffffffffffffffffffffffffffffff1916600160a060020a038481169190911791829055166370a082313060405160e060020a63ffffffff8416028152600160a060020a039091166004820152602401602060405180830381600087803b151561086857600080fd5b5af1151561087557600080fd5b5050506040518051600d5550600054600160a060020a031663313ce5676040518163ffffffff1660e060020a028152600401602060405180830381600087803b15156108c057600080fd5b5af115156108cd57600080fd5b505050604051805160ff16600a0a600c55506011805460ff191660011790557f587930504fa5b1062f394d90f9dac9ecadd354ed23a97af9ea4e44dff4870a8460405160405180910390a15050565b60015433600160a060020a0390811691161461093757600080fd5b60018060115460ff16600481111561094b57fe5b1461095557600080fd5b6011805460ff19166002179055426007819055436009819055907ff8910119ddbef5440c54532457dfe8250a10ed39e583292818f44724b9e1344c60405160405180910390a350565b600160a060020a0381166000908152600f6020526040812054819081901115610a0a57600d54600a54600c54028115156109d457fe5b600160a060020a0385166000908152600f6020526040902054600c54929091049250829102811515610a0257fe5b049150610a0f565b600091505b50919050565b600a5481565b60035460009033600160a060020a03908116911614610a3957600080fd5b5060005b81518163ffffffff16101561079157600160106000848463ffffffff1681518110610a6457fe5b90602001906020020151600160a060020a031681526020810191909152604001600020805460ff1916911515919091179055600101610a3d565b600154600160a060020a031681565b60075481565b6000600360115460ff166004811115610ac857fe5b1415610afb57600160a060020a0382166000908152600f60205260408120541115610afb5750600854603c014211610aff565b5060005b919050565b60106020526000908152604090205460ff1681565b60055481565b6000600360115460ff166004811115610b3457fe5b1480610b505750600460115460ff166004811115610b4e57fe5b145b15610b5d57506000610b68565b610b65610f77565b90505b90565b6000808060038060115460ff166004811115610b8357fe5b14610b8d57600080fd5b600054600160a060020a03166370a082318660405160e060020a63ffffffff8416028152600160a060020a039091166004820152602401602060405180830381600087803b1515610bdd57600080fd5b5af11515610bea57600080fd5b505050604051805190509250610bff85610fd5565b15610cf857600054600160a060020a03166370a082318660405160e060020a63ffffffff8416028152600160a060020a039091166004820152602401602060405180830381600087803b1515610c5457600080fd5b5af11515610c6157600080fd5b5050506040518051601154600054919450600160a060020a0361010090910481169250635856406f9133911686860360405160e060020a63ffffffff8616028152600160a060020a0393841660048201529190921660248201526044810191909152606401600060405180830381600087803b1515610cdf57600080fd5b5af11515610cec57600080fd5b50505060019350610cfd565b600093505b505050919050565b60095481565b60115460ff1681565b600080600c54610d22610b1f565b600d5402811515610d2f57fe5b049050600a5481111515610d4657600091506106f6565b600a549003919050565b600254600160a060020a031681565b600060028060115460ff166004811115610d7557fe5b14610d7f57600080fd5b610d87610d14565b91508115610d9457600080fd5b600d54600a54600c5402811515610da757fe5b04600e819055426008556011805460ff191660031790557f45806e512b1f4f10e33e8b3cb64d1d11d998d8c554a95e0841fc1c701278bd5d9060405190815260200160405180910390a1600e546000901161079157fe5b600054600160a060020a031681565b600060028060115460ff166004811115610e2357fe5b14610e2d57600080fd5b60003411610e3a57600080fd5b33600160a060020a03166000908152600f6020526040902054683635c9adc5dea0000034909101111580610e865750600160a060020a03331660009081526010602052604090205460ff165b1515610e9157600080fd5b600160a060020a0333166000908152600f6020526040902054349081011015610eb657fe5b610ebe610d14565b91503482901115610ece57600080fd5b600160a060020a033381166000908152600f602052604090819020805434908101909155600a8054820190556002549092169180156108fc029151600060405180830381858888f193505050501515610f2657600080fd5b33600160a060020a03167fc9c6176cbf7c0a8c29655fe8ccbe5e28382ca11459d145223308723bfc697545348460405191825260208201526040908101905180910390a2600a543490101561079157fe5b60008080600260115460ff166004811115610f8e57fe5b1415610f9c57600754420391505b60055460065463ffffffff16830a811515610fb357fe5b0490508082600101018260010160045402811515610fcd57fe5b049250505090565b6000808060038060115460ff166004811115610fed57fe5b14610ff757600080fd5b600854603c01421161100857600080fd5b600160a060020a038516151561101d57600080fd5b600160a060020a0385166000908152600f602052604090205415156110455760009350610cfd565b600e54600160a060020a0386166000908152600f6020526040902054600c540281151561106e57fe5b6000549190049350600160a060020a03166370a082313060405160e060020a63ffffffff8416028152600160a060020a039091166004820152602401602060405180830381600087803b15156110c357600080fd5b5af115156110d057600080fd5b5050506040518051925050818311156110e7578192505b600160a060020a038086166000908152600f60205260408082208054600b8054909101905582905590549091169063a9059cbb90879086905160e060020a63ffffffff8516028152600160a060020a0390921660048301526024820152604401602060405180830381600087803b151561116057600080fd5b5af1151561116d57600080fd5b50505060405180519050151561118257600080fd5b84600160a060020a03167fe9aa550fd75d0d28e07fa9dd67d3ae705678776f6c4a75abd09534f93e7d79078460405190815260200160405180910390a2600a54600b541415611205576011805460ff191660041790557fcea85459abe456c560868e61c476933dcee35a72aba5f546e93715929a69618660405160405180910390a15b6000548390600160a060020a03166370a082318760405160e060020a63ffffffff8416028152600160a060020a039091166004820152602401602060405180830381600087803b151561125757600080fd5b5af1151561126457600080fd5b505050604051805190501015151561127857fe5b600160a060020a0385166000908152600f60205260409020541561129857fe5b506001949350505050565b600060115460ff1660048111156112b657fe5b14806112d25750600160115460ff1660048111156112d057fe5b145b15156112dd57600080fd5b600083116112ea57600080fd5b600082116112f757600080fd5b6004929092556005556006805463ffffffff191663ffffffff9092169190911790555600a165627a7a72305820f5f8b847beaaaae725c8768ef6a656824515326429eb89ccf66a1c1ef3e3567d0029",
  "source": "pragma solidity ^0.4.17;\n\nimport './DutchAuction.sol';\nimport './interfaces/IFinancieCore.sol';\n\n/// @title overrided from DutchAuction.\ncontract FinancieHeroesDutchAuction is DutchAuction {\n\n    IFinancieCore core;\n\n    /*\n     * Public functions\n     */\n\n    /// @dev Contract constructor function sets the starting price, divisor constant and\n    /// divisor exponent for calculating the Dutch Auction price.\n    /// @param _wallet_address Wallet address to which all contributed ETH will be forwarded.\n    /// @param _price_start High price in WEI at which the auction starts.\n    /// @param _price_constant Auction price divisor constant.\n    /// @param _price_exponent Auction price divisor exponent.\n    function FinancieHeroesDutchAuction(\n        address _wallet_address,\n        address _whitelister_address,\n        uint _price_start,\n        uint _price_constant,\n        uint32 _price_exponent)\n        public\n        DutchAuction(\n          _wallet_address,\n          _whitelister_address,\n          _price_start,\n          _price_constant,\n          _price_exponent\n        )\n    {\n    }\n\n    /// @notice overrided from DutchAuction.\n    /// @param _core_address Financie Core address.\n    function setup(address _core_address, address _token_address) public isOwner atStage(Stages.AuctionDeployed) {\n        super.setup(_token_address);\n        core = IFinancieCore(_core_address);\n    }\n\n    /// --------------------------------- Auction Functions ------------------\n\n    /// @notice overrided from DutchAuction.\n    function bid()\n        public\n        payable\n        atStage(Stages.AuctionStarted)\n    {\n        super.bid();\n        core.notifyBidCards(msg.sender, address(token), msg.value);\n    }\n\n    /// @notice overrided from DutchAuction.\n    function proxyClaimTokens(address receiver_address)\n        public\n        atStage(Stages.AuctionEnded)\n        returns (bool)\n    {\n        uint256 balanceBefore = token.balanceOf(receiver_address);\n        if ( super.proxyClaimTokens(receiver_address) ) {\n            uint256 balanceAfter = token.balanceOf(receiver_address);\n            core.notifyWithdrawalCards(msg.sender, address(token), balanceAfter - balanceBefore);\n            return true;\n        }\n        return false;\n    }\n\n    function estimateClaimTokens(address receiver_address)\n        public\n        returns (uint256)\n    {\n        if ( bids[receiver_address] > 0 ) {\n          uint current_price = token_multiplier * received_wei / num_tokens_auctioned;\n          return (token_multiplier * bids[receiver_address]) / current_price;\n        }\n        return 0;\n    }\n\n    function canClaimTokens(address receiver_address)\n        public\n        returns (bool)\n    {\n        if ( stage == Stages.AuctionEnded ) {\n          if ( bids[receiver_address] > 0 ) {\n            return (now > end_time + token_claim_waiting_period);\n          }\n        }\n        return false;\n    }\n\n}\n",
  "sourcePath": "/Users/rudo/contracts/solidity/contracts/FinancieHeroesDutchAuction.sol",
  "compiler": {
    "name": "solc",
    "version": "0.4.21+commit.dfe3193c.Emscripten.clang"
  },
  "schemaVersion": "2.0.0",
  "updatedAt": "2018-07-11T15:15:48.814Z"
}