{
  "contractName": "FinancieHeroesDutchAuction",
  "abi": [
    {
      "constant": true,
      "inputs": [],
      "name": "num_tokens_auctioned",
      "outputs": [
        {
          "name": "",
          "type": "uint256"
        }
      ],
      "payable": false,
      "stateMutability": "view",
      "type": "function"
    },
    {
      "constant": true,
      "inputs": [],
      "name": "final_price",
      "outputs": [
        {
          "name": "",
          "type": "uint256"
        }
      ],
      "payable": false,
      "stateMutability": "view",
      "type": "function"
    },
    {
      "constant": true,
      "inputs": [],
      "name": "price_exponent",
      "outputs": [
        {
          "name": "",
          "type": "uint32"
        }
      ],
      "payable": false,
      "stateMutability": "view",
      "type": "function"
    },
    {
      "constant": true,
      "inputs": [],
      "name": "end_time",
      "outputs": [
        {
          "name": "",
          "type": "uint256"
        }
      ],
      "payable": false,
      "stateMutability": "view",
      "type": "function"
    },
    {
      "constant": true,
      "inputs": [],
      "name": "token_multiplier",
      "outputs": [
        {
          "name": "",
          "type": "uint256"
        }
      ],
      "payable": false,
      "stateMutability": "view",
      "type": "function"
    },
    {
      "constant": true,
      "inputs": [],
      "name": "price_start",
      "outputs": [
        {
          "name": "",
          "type": "uint256"
        }
      ],
      "payable": false,
      "stateMutability": "view",
      "type": "function"
    },
    {
      "constant": true,
      "inputs": [],
      "name": "bid_threshold",
      "outputs": [
        {
          "name": "",
          "type": "uint256"
        }
      ],
      "payable": false,
      "stateMutability": "view",
      "type": "function"
    },
    {
      "constant": true,
      "inputs": [],
      "name": "funds_claimed",
      "outputs": [
        {
          "name": "",
          "type": "uint256"
        }
      ],
      "payable": false,
      "stateMutability": "view",
      "type": "function"
    },
    {
      "constant": false,
      "inputs": [],
      "name": "claimTokens",
      "outputs": [
        {
          "name": "",
          "type": "bool"
        }
      ],
      "payable": false,
      "stateMutability": "nonpayable",
      "type": "function"
    },
    {
      "constant": true,
      "inputs": [],
      "name": "token_claim_waiting_period",
      "outputs": [
        {
          "name": "",
          "type": "uint256"
        }
      ],
      "payable": false,
      "stateMutability": "view",
      "type": "function"
    },
    {
      "constant": true,
      "inputs": [],
      "name": "whitelister_address",
      "outputs": [
        {
          "name": "",
          "type": "address"
        }
      ],
      "payable": false,
      "stateMutability": "view",
      "type": "function"
    },
    {
      "constant": false,
      "inputs": [
        {
          "name": "_bidder_addresses",
          "type": "address[]"
        }
      ],
      "name": "removeFromWhitelist",
      "outputs": [],
      "payable": false,
      "stateMutability": "nonpayable",
      "type": "function"
    },
    {
      "constant": true,
      "inputs": [
        {
          "name": "",
          "type": "address"
        }
      ],
      "name": "bids",
      "outputs": [
        {
          "name": "",
          "type": "uint256"
        }
      ],
      "payable": false,
      "stateMutability": "view",
      "type": "function"
    },
    {
      "constant": false,
      "inputs": [],
      "name": "startAuction",
      "outputs": [],
      "payable": false,
      "stateMutability": "nonpayable",
      "type": "function"
    },
    {
      "constant": true,
      "inputs": [],
      "name": "received_wei",
      "outputs": [
        {
          "name": "",
          "type": "uint256"
        }
      ],
      "payable": false,
      "stateMutability": "view",
      "type": "function"
    },
    {
      "constant": false,
      "inputs": [
        {
          "name": "_bidder_addresses",
          "type": "address[]"
        }
      ],
      "name": "addToWhitelist",
      "outputs": [],
      "payable": false,
      "stateMutability": "nonpayable",
      "type": "function"
    },
    {
      "constant": true,
      "inputs": [],
      "name": "owner_address",
      "outputs": [
        {
          "name": "",
          "type": "address"
        }
      ],
      "payable": false,
      "stateMutability": "view",
      "type": "function"
    },
    {
      "constant": true,
      "inputs": [],
      "name": "start_time",
      "outputs": [
        {
          "name": "",
          "type": "uint256"
        }
      ],
      "payable": false,
      "stateMutability": "view",
      "type": "function"
    },
    {
      "constant": true,
      "inputs": [
        {
          "name": "",
          "type": "address"
        }
      ],
      "name": "whitelist",
      "outputs": [
        {
          "name": "",
          "type": "bool"
        }
      ],
      "payable": false,
      "stateMutability": "view",
      "type": "function"
    },
    {
      "constant": true,
      "inputs": [],
      "name": "price_constant",
      "outputs": [
        {
          "name": "",
          "type": "uint256"
        }
      ],
      "payable": false,
      "stateMutability": "view",
      "type": "function"
    },
    {
      "constant": true,
      "inputs": [],
      "name": "price",
      "outputs": [
        {
          "name": "",
          "type": "uint256"
        }
      ],
      "payable": false,
      "stateMutability": "view",
      "type": "function"
    },
    {
      "constant": true,
      "inputs": [],
      "name": "start_block",
      "outputs": [
        {
          "name": "",
          "type": "uint256"
        }
      ],
      "payable": false,
      "stateMutability": "view",
      "type": "function"
    },
    {
      "constant": true,
      "inputs": [],
      "name": "stage",
      "outputs": [
        {
          "name": "",
          "type": "uint8"
        }
      ],
      "payable": false,
      "stateMutability": "view",
      "type": "function"
    },
    {
      "constant": true,
      "inputs": [],
      "name": "missingFundsToEndAuction",
      "outputs": [
        {
          "name": "",
          "type": "uint256"
        }
      ],
      "payable": false,
      "stateMutability": "view",
      "type": "function"
    },
    {
      "constant": true,
      "inputs": [],
      "name": "wallet_address",
      "outputs": [
        {
          "name": "",
          "type": "address"
        }
      ],
      "payable": false,
      "stateMutability": "view",
      "type": "function"
    },
    {
      "constant": false,
      "inputs": [],
      "name": "finalizeAuction",
      "outputs": [],
      "payable": false,
      "stateMutability": "nonpayable",
      "type": "function"
    },
    {
      "constant": true,
      "inputs": [],
      "name": "token",
      "outputs": [
        {
          "name": "",
          "type": "address"
        }
      ],
      "payable": false,
      "stateMutability": "view",
      "type": "function"
    },
    {
      "inputs": [
        {
          "name": "_wallet_address",
          "type": "address"
        },
        {
          "name": "_whitelister_address",
          "type": "address"
        },
        {
          "name": "_price_start",
          "type": "uint256"
        },
        {
          "name": "_price_constant",
          "type": "uint256"
        },
        {
          "name": "_price_exponent",
          "type": "uint32"
        }
      ],
      "payable": false,
      "stateMutability": "nonpayable",
      "type": "constructor"
    },
    {
      "payable": true,
      "stateMutability": "payable",
      "type": "fallback"
    },
    {
      "anonymous": false,
      "inputs": [
        {
          "indexed": true,
          "name": "_price_start",
          "type": "uint256"
        },
        {
          "indexed": true,
          "name": "_price_constant",
          "type": "uint256"
        },
        {
          "indexed": true,
          "name": "_price_exponent",
          "type": "uint32"
        }
      ],
      "name": "Deployed",
      "type": "event"
    },
    {
      "anonymous": false,
      "inputs": [],
      "name": "Setup",
      "type": "event"
    },
    {
      "anonymous": false,
      "inputs": [
        {
          "indexed": true,
          "name": "_start_time",
          "type": "uint256"
        },
        {
          "indexed": true,
          "name": "_block_number",
          "type": "uint256"
        }
      ],
      "name": "AuctionStarted",
      "type": "event"
    },
    {
      "anonymous": false,
      "inputs": [
        {
          "indexed": true,
          "name": "_sender",
          "type": "address"
        },
        {
          "indexed": false,
          "name": "_amount",
          "type": "uint256"
        },
        {
          "indexed": false,
          "name": "_missing_funds",
          "type": "uint256"
        }
      ],
      "name": "BidSubmission",
      "type": "event"
    },
    {
      "anonymous": false,
      "inputs": [
        {
          "indexed": true,
          "name": "_recipient",
          "type": "address"
        },
        {
          "indexed": false,
          "name": "_sent_amount",
          "type": "uint256"
        }
      ],
      "name": "ClaimedTokens",
      "type": "event"
    },
    {
      "anonymous": false,
      "inputs": [
        {
          "indexed": false,
          "name": "_final_price",
          "type": "uint256"
        }
      ],
      "name": "AuctionEnded",
      "type": "event"
    },
    {
      "anonymous": false,
      "inputs": [],
      "name": "TokensDistributed",
      "type": "event"
    },
    {
      "constant": false,
      "inputs": [
        {
          "name": "_core_address",
          "type": "address"
        },
        {
          "name": "_token_address",
          "type": "address"
        }
      ],
      "name": "setup",
      "outputs": [],
      "payable": false,
      "stateMutability": "nonpayable",
      "type": "function"
    },
    {
      "constant": false,
      "inputs": [
        {
          "name": "_token_address",
          "type": "address"
        }
      ],
      "name": "setup",
      "outputs": [],
      "payable": false,
      "stateMutability": "nonpayable",
      "type": "function"
    },
    {
      "constant": false,
      "inputs": [],
      "name": "bid",
      "outputs": [],
      "payable": true,
      "stateMutability": "payable",
      "type": "function"
    },
    {
      "constant": false,
      "inputs": [
        {
          "name": "receiver_address",
          "type": "address"
        }
      ],
      "name": "proxyClaimTokens",
      "outputs": [
        {
          "name": "",
          "type": "bool"
        }
      ],
      "payable": false,
      "stateMutability": "nonpayable",
      "type": "function"
    }
  ],
  "bytecode": "0x6060604052341561000f57600080fd5b60405160a080620013e78339810160405280805191906020018051919060200180519190602001805191906020018051915085905084848484600160a060020a038516151561005d57600080fd5b600160a060020a038416151561007257600080fd5b60028054600160a060020a03878116600160a060020a031992831617909255600380548784169083161790556001805433909316929091169190911790556011805460ff191690556100d28383836401000000006111a561011682021704565b8063ffffffff1682847f386f36f3306fb418dd13e11a0f5b005c8b23a70fb5da6c18ab5123e5fe68598560405160405180910390a45050505050505050505061018e565b600060115460ff16600481111561012957fe5b14806101455750600160115460ff16600481111561014357fe5b145b151561015057600080fd5b6000831161015d57600080fd5b6000821161016a57600080fd5b6004929092556005556006805463ffffffff191663ffffffff909216919091179055565b611249806200019e6000396000f3006060604052600436106101715763ffffffff60e060020a60003504166303cc7b85811461019a57806308b309e3146101bf5780630c64a739146101d257806316243356146101fe5780631998aeef146102115780631e3359621461021b57806329b4d1111461022e5780632a887299146102415780632aefb7c5146102545780632d34ba791461026757806348c54b9d1461028c5780634b7829f1146102b35780634e012918146102c6578063548db174146102f557806362ea82db1461034457806366d38203146103635780636b64c769146103825780637b10e717146103955780637f649783146103a857806380edef8e146103f7578063834ee4171461040a5780639b19251a1461041d5780639dbf05431461043c578063a035b1fe1461044f578063aeaaaa0814610462578063b87fb3db14610481578063c040e6b814610494578063c5cd88db146104cb578063e776a5b5146104de578063f77282ab146104f1578063fc0c546a14610504575b60028060115460ff16600481111561018557fe5b1461018f57600080fd5b610197610517565b50005b34156101a557600080fd5b6101ad6105dc565b60405190815260200160405180910390f35b34156101ca57600080fd5b6101ad6105e2565b34156101dd57600080fd5b6101e56105e8565b60405163ffffffff909116815260200160405180910390f35b341561020957600080fd5b6101ad6105f4565b610219610517565b005b341561022657600080fd5b6101ad6105fa565b341561023957600080fd5b6101ad610600565b341561024c57600080fd5b6101ad610606565b341561025f57600080fd5b6101ad610612565b341561027257600080fd5b610219600160a060020a0360043581169060243516610618565b341561029757600080fd5b61029f610691565b604051901515815260200160405180910390f35b34156102be57600080fd5b6101ad6106c1565b34156102d157600080fd5b6102d96106c8565b604051600160a060020a03909116815260200160405180910390f35b341561030057600080fd5b61021960046024813581810190830135806020818102016040519081016040528093929190818152602001838360200280828437509496506106d795505050505050565b341561034f57600080fd5b6101ad600160a060020a036004351661075e565b341561036e57600080fd5b610219600160a060020a0360043516610770565b341561038d57600080fd5b6102196108e5565b34156103a057600080fd5b6101ad610967565b34156103b357600080fd5b610219600460248135818101908301358060208181020160405190810160405280939291908181526020018383602002808284375094965061096d95505050505050565b341561040257600080fd5b6102d96109f0565b341561041557600080fd5b6101ad6109ff565b341561042857600080fd5b61029f600160a060020a0360043516610a05565b341561044757600080fd5b6101ad610a1a565b341561045a57600080fd5b6101ad610a20565b341561046d57600080fd5b61029f600160a060020a0360043516610a6c565b341561048c57600080fd5b6101ad610c06565b341561049f57600080fd5b6104a7610c0c565b604051808260048111156104b757fe5b60ff16815260200191505060405180910390f35b34156104d657600080fd5b6101ad610c15565b34156104e957600080fd5b6102d9610c51565b34156104fc57600080fd5b610219610c60565b341561050f57600080fd5b6102d9610cff565b60028060115460ff16600481111561052b57fe5b1461053557600080fd5b61053d610d0e565b601154600054600160a060020a0361010090920482169163f1faf1c89133911660023460405160e060020a63ffffffff8716028152600160a060020a038086166004830190815290851660248301529060440183600281111561059c57fe5b60ff168152602001828152602001945050505050600060405180830381600087803b15156105c957600080fd5b5af115156105d657600080fd5b50505050565b600d5481565b600e5481565b60065463ffffffff1681565b60085481565b600c5481565b60045481565b6722b1c8c1227a000081565b600b5481565b60015433600160a060020a0390811691161461063357600080fd5b60008060115460ff16600481111561064757fe5b1461065157600080fd5b61065a82610770565b505060118054600160a060020a039092166101000274ffffffffffffffffffffffffffffffffffffffff0019909216919091179055565b600060038060115460ff1660048111156106a757fe5b146106b157600080fd5b6106ba33610a6c565b91505b5090565b62093a8081565b600354600160a060020a031681565b60035460009033600160a060020a039081169116146106f557600080fd5b5060005b81518163ffffffff16101561075a57600060106000848463ffffffff168151811061072057fe5b90602001906020020151600160a060020a031681526020810191909152604001600020805460ff19169115159190911790556001016106f9565b5050565b600f6020526000908152604090205481565b60015433600160a060020a0390811691161461078b57600080fd5b60008060115460ff16600481111561079f57fe5b146107a957600080fd5b600160a060020a03821615156107be57600080fd5b6000805473ffffffffffffffffffffffffffffffffffffffff1916600160a060020a038481169190911791829055166370a082313060405160e060020a63ffffffff8416028152600160a060020a039091166004820152602401602060405180830381600087803b151561083157600080fd5b5af1151561083e57600080fd5b5050506040518051600d5550600054600160a060020a031663313ce5676040518163ffffffff1660e060020a028152600401602060405180830381600087803b151561088957600080fd5b5af1151561089657600080fd5b505050604051805160ff16600a0a600c55506011805460ff191660011790557f587930504fa5b1062f394d90f9dac9ecadd354ed23a97af9ea4e44dff4870a8460405160405180910390a15050565b60015433600160a060020a0390811691161461090057600080fd5b60018060115460ff16600481111561091457fe5b1461091e57600080fd5b6011805460ff19166002179055426007819055436009819055907ff8910119ddbef5440c54532457dfe8250a10ed39e583292818f44724b9e1344c60405160405180910390a350565b600a5481565b60035460009033600160a060020a0390811691161461098b57600080fd5b5060005b81518163ffffffff16101561075a57600160106000848463ffffffff16815181106109b657fe5b90602001906020020151600160a060020a031681526020810191909152604001600020805460ff191691151591909117905560010161098f565b600154600160a060020a031681565b60075481565b60106020526000908152604090205460ff1681565b60055481565b6000600360115460ff166004811115610a3557fe5b1480610a515750600460115460ff166004811115610a4f57fe5b145b15610a5e57506000610a69565b610a66610e77565b90505b90565b6000808060038060115460ff166004811115610a8457fe5b14610a8e57600080fd5b600054600160a060020a03166370a082318660405160e060020a63ffffffff8416028152600160a060020a039091166004820152602401602060405180830381600087803b1515610ade57600080fd5b5af11515610aeb57600080fd5b505050604051805190509250610b0085610ed5565b15610bf957600054600160a060020a03166370a082318660405160e060020a63ffffffff8416028152600160a060020a039091166004820152602401602060405180830381600087803b1515610b5557600080fd5b5af11515610b6257600080fd5b5050506040518051601154600054919450600160a060020a0361010090910481169250635856406f9133911686860360405160e060020a63ffffffff8616028152600160a060020a0393841660048201529190921660248201526044810191909152606401600060405180830381600087803b1515610be057600080fd5b5af11515610bed57600080fd5b50505060019350610bfe565b600093505b505050919050565b60095481565b60115460ff1681565b600080600c54610c23610a20565b600d5402811515610c3057fe5b049050600a5481111515610c4757600091506106bd565b600a549003919050565b600254600160a060020a031681565b600060028060115460ff166004811115610c7657fe5b14610c8057600080fd5b610c88610c15565b91508115610c9557600080fd5b600d54600a54600c5402811515610ca857fe5b04600e819055426008556011805460ff191660031790557f45806e512b1f4f10e33e8b3cb64d1d11d998d8c554a95e0841fc1c701278bd5d9060405190815260200160405180910390a1600e546000901161075a57fe5b600054600160a060020a031681565b600060028060115460ff166004811115610d2457fe5b14610d2e57600080fd5b60003411610d3b57600080fd5b33600160a060020a03166000908152600f60205260409020546722b1c8c1227a000034909101111580610d865750600160a060020a03331660009081526010602052604090205460ff165b1515610d9157600080fd5b600160a060020a0333166000908152600f6020526040902054349081011015610db657fe5b610dbe610c15565b91503482901115610dce57600080fd5b600160a060020a033381166000908152600f602052604090819020805434908101909155600a8054820190556002549092169180156108fc029151600060405180830381858888f193505050501515610e2657600080fd5b33600160a060020a03167fc9c6176cbf7c0a8c29655fe8ccbe5e28382ca11459d145223308723bfc697545348460405191825260208201526040908101905180910390a2600a543490101561075a57fe5b60008080600260115460ff166004811115610e8e57fe5b1415610e9c57600754420391505b60055460065463ffffffff16830a811515610eb357fe5b0490508082600101018260010160045402811515610ecd57fe5b049250505090565b6000808060038060115460ff166004811115610eed57fe5b14610ef757600080fd5b60085462093a80014211610f0a57600080fd5b600160a060020a0385161515610f1f57600080fd5b600160a060020a0385166000908152600f60205260409020541515610f475760009350610bfe565b600e54600160a060020a0386166000908152600f6020526040902054600c5402811515610f7057fe5b6000549190049350600160a060020a03166370a082313060405160e060020a63ffffffff8416028152600160a060020a039091166004820152602401602060405180830381600087803b1515610fc557600080fd5b5af11515610fd257600080fd5b505050604051805192505081831115610fe9578192505b600160a060020a038086166000908152600f60205260408082208054600b8054909101905582905590549091169063a9059cbb90879086905160e060020a63ffffffff8516028152600160a060020a0390921660048301526024820152604401602060405180830381600087803b151561106257600080fd5b5af1151561106f57600080fd5b50505060405180519050151561108457600080fd5b84600160a060020a03167fe9aa550fd75d0d28e07fa9dd67d3ae705678776f6c4a75abd09534f93e7d79078460405190815260200160405180910390a2600a54600b541415611107576011805460ff191660041790557fcea85459abe456c560868e61c476933dcee35a72aba5f546e93715929a69618660405160405180910390a15b6000548390600160a060020a03166370a082318760405160e060020a63ffffffff8416028152600160a060020a039091166004820152602401602060405180830381600087803b151561115957600080fd5b5af1151561116657600080fd5b505050604051805190501015151561117a57fe5b600160a060020a0385166000908152600f60205260409020541561119a57fe5b506001949350505050565b600060115460ff1660048111156111b857fe5b14806111d45750600160115460ff1660048111156111d257fe5b145b15156111df57600080fd5b600083116111ec57600080fd5b600082116111f957600080fd5b6004929092556005556006805463ffffffff191663ffffffff9092169190911790555600a165627a7a7230582057e871f5aa0e7c9592471b44a313d1f37ab80dd10f4109e79711eab6bc0a4f570029",
  "source": "pragma solidity ^0.4.17;\n\nimport './DutchAuction.sol';\nimport './interfaces/IFinancieCore.sol';\n\n/// @title overrided from DutchAuction.\ncontract FinancieHeroesDutchAuction is DutchAuction {\n\n    IFinancieCore core;\n\n    /*\n     * Public functions\n     */\n\n    /// @dev Contract constructor function sets the starting price, divisor constant and\n    /// divisor exponent for calculating the Dutch Auction price.\n    /// @param _wallet_address Wallet address to which all contributed ETH will be forwarded.\n    /// @param _price_start High price in WEI at which the auction starts.\n    /// @param _price_constant Auction price divisor constant.\n    /// @param _price_exponent Auction price divisor exponent.\n    function FinancieHeroesDutchAuction(\n        address _wallet_address,\n        address _whitelister_address,\n        uint _price_start,\n        uint _price_constant,\n        uint32 _price_exponent)\n        public\n        DutchAuction(\n          _wallet_address,\n          _whitelister_address,\n          _price_start,\n          _price_constant,\n          _price_exponent\n        )\n    {\n    }\n\n    /// @notice overrided from DutchAuction.\n    /// @param _core_address Financie Core address.\n    function setup(address _core_address, address _token_address) public isOwner atStage(Stages.AuctionDeployed) {\n        super.setup(_token_address);\n        core = IFinancieCore(_core_address);\n    }\n\n    /// --------------------------------- Auction Functions ------------------\n\n    /// @notice overrided from DutchAuction.\n    function bid()\n        public\n        payable\n        atStage(Stages.AuctionStarted)\n    {\n        super.bid();\n        core.notifyBidCards(msg.sender, address(token), IFinancieCore.CurrencyType.Ethereum, msg.value);\n    }\n\n    /// @notice overrided from DutchAuction.\n    function proxyClaimTokens(address receiver_address)\n        public\n        atStage(Stages.AuctionEnded)\n        returns (bool)\n    {\n        uint256 balanceBefore = token.balanceOf(receiver_address);\n        if ( super.proxyClaimTokens(receiver_address) ) {\n            uint256 balanceAfter = token.balanceOf(receiver_address);\n            core.notifyWithdrawalCards(msg.sender, address(token), balanceAfter - balanceBefore);\n            return true;\n        }\n        return false;\n    }\n\n}\n",
  "sourcePath": "/Users/rudo/contracts/solidity/contracts/FinancieHeroesDutchAuction.sol",
  "compiler": {
    "name": "solc",
    "version": "0.4.21+commit.dfe3193c.Emscripten.clang"
  },
  "schemaVersion": "2.0.0",
  "updatedAt": "2018-07-04T09:25:38.772Z"
}