{
  "contractName": "FinancieCore",
  "abi": [
    {
      "constant": true,
      "inputs": [],
      "name": "owner_address",
      "outputs": [
        {
          "name": "",
          "type": "address"
        }
      ],
      "payable": false,
      "stateMutability": "view",
      "type": "function"
    },
    {
      "inputs": [
        {
          "name": "_token",
          "type": "address"
        }
      ],
      "payable": false,
      "stateMutability": "nonpayable",
      "type": "constructor"
    },
    {
      "payable": true,
      "stateMutability": "payable",
      "type": "fallback"
    },
    {
      "constant": false,
      "inputs": [
        {
          "name": "_userId",
          "type": "uint32"
        }
      ],
      "name": "activateUser",
      "outputs": [],
      "payable": false,
      "stateMutability": "nonpayable",
      "type": "function"
    },
    {
      "constant": false,
      "inputs": [
        {
          "name": "_contract",
          "type": "address"
        },
        {
          "name": "_enabled",
          "type": "bool"
        }
      ],
      "name": "activateTargetContract",
      "outputs": [],
      "payable": false,
      "stateMutability": "nonpayable",
      "type": "function"
    },
    {
      "constant": false,
      "inputs": [
        {
          "name": "_sender",
          "type": "address"
        },
        {
          "name": "_from",
          "type": "address"
        },
        {
          "name": "_to",
          "type": "address"
        },
        {
          "name": "_amountFrom",
          "type": "uint256"
        },
        {
          "name": "_amountTo",
          "type": "uint256"
        }
      ],
      "name": "notifyConvertCards",
      "outputs": [],
      "payable": false,
      "stateMutability": "nonpayable",
      "type": "function"
    },
    {
      "constant": false,
      "inputs": [
        {
          "name": "_sender",
          "type": "address"
        },
        {
          "name": "_address",
          "type": "address"
        }
      ],
      "name": "addOwnedCardList",
      "outputs": [],
      "payable": false,
      "stateMutability": "nonpayable",
      "type": "function"
    },
    {
      "constant": false,
      "inputs": [
        {
          "name": "_sender",
          "type": "address"
        },
        {
          "name": "_to",
          "type": "address"
        },
        {
          "name": "_type",
          "type": "uint8"
        },
        {
          "name": "_amount",
          "type": "uint256"
        }
      ],
      "name": "notifyBidCards",
      "outputs": [],
      "payable": false,
      "stateMutability": "nonpayable",
      "type": "function"
    },
    {
      "constant": false,
      "inputs": [
        {
          "name": "_sender",
          "type": "address"
        },
        {
          "name": "_to",
          "type": "address"
        },
        {
          "name": "_amount",
          "type": "uint256"
        }
      ],
      "name": "notifyWithdrawalCards",
      "outputs": [],
      "payable": false,
      "stateMutability": "nonpayable",
      "type": "function"
    },
    {
      "constant": false,
      "inputs": [
        {
          "name": "_sender",
          "type": "address"
        },
        {
          "name": "_amount",
          "type": "uint256"
        }
      ],
      "name": "notifyBurnCards",
      "outputs": [],
      "payable": false,
      "stateMutability": "nonpayable",
      "type": "function"
    },
    {
      "constant": false,
      "inputs": [
        {
          "name": "_sender",
          "type": "address"
        },
        {
          "name": "_amount",
          "type": "uint256"
        }
      ],
      "name": "notifyBurnTickets",
      "outputs": [],
      "payable": false,
      "stateMutability": "nonpayable",
      "type": "function"
    },
    {
      "constant": false,
      "inputs": [
        {
          "name": "_ticket",
          "type": "address"
        },
        {
          "name": "_card",
          "type": "address"
        },
        {
          "name": "_amount",
          "type": "uint256"
        },
        {
          "name": "_price",
          "type": "uint256"
        }
      ],
      "name": "depositTickets",
      "outputs": [],
      "payable": false,
      "stateMutability": "nonpayable",
      "type": "function"
    },
    {
      "constant": false,
      "inputs": [
        {
          "name": "_ticket",
          "type": "address"
        }
      ],
      "name": "getTicketPrice",
      "outputs": [
        {
          "name": "",
          "type": "uint256"
        }
      ],
      "payable": false,
      "stateMutability": "nonpayable",
      "type": "function"
    },
    {
      "constant": false,
      "inputs": [
        {
          "name": "_ticket",
          "type": "address"
        }
      ],
      "name": "getTicketStock",
      "outputs": [
        {
          "name": "",
          "type": "uint256"
        }
      ],
      "payable": false,
      "stateMutability": "nonpayable",
      "type": "function"
    },
    {
      "constant": false,
      "inputs": [
        {
          "name": "_ticket",
          "type": "address"
        }
      ],
      "name": "getTicketCurrency",
      "outputs": [
        {
          "name": "",
          "type": "address"
        }
      ],
      "payable": false,
      "stateMutability": "nonpayable",
      "type": "function"
    },
    {
      "constant": false,
      "inputs": [
        {
          "name": "_ticket",
          "type": "address"
        }
      ],
      "name": "buyTicket",
      "outputs": [],
      "payable": false,
      "stateMutability": "nonpayable",
      "type": "function"
    },
    {
      "constant": false,
      "inputs": [
        {
          "name": "_sender",
          "type": "address"
        },
        {
          "name": "_eventType",
          "type": "uint8"
        },
        {
          "name": "_currencyType",
          "type": "uint8"
        },
        {
          "name": "_target",
          "type": "address"
        },
        {
          "name": "_paidAmount",
          "type": "uint256"
        },
        {
          "name": "_receivedAmount",
          "type": "uint256"
        }
      ],
      "name": "recordLog",
      "outputs": [],
      "payable": false,
      "stateMutability": "nonpayable",
      "type": "function"
    },
    {
      "constant": false,
      "inputs": [
        {
          "name": "_sender",
          "type": "address"
        }
      ],
      "name": "getLogs",
      "outputs": [
        {
          "name": "",
          "type": "uint8[]"
        },
        {
          "name": "",
          "type": "uint8[]"
        },
        {
          "name": "",
          "type": "address[]"
        },
        {
          "name": "",
          "type": "uint256[]"
        },
        {
          "name": "",
          "type": "uint256[]"
        }
      ],
      "payable": false,
      "stateMutability": "nonpayable",
      "type": "function"
    },
    {
      "constant": false,
      "inputs": [
        {
          "name": "_sender",
          "type": "address"
        },
        {
          "name": "_userId",
          "type": "uint32"
        }
      ],
      "name": "checkUserActivation",
      "outputs": [
        {
          "name": "",
          "type": "bool"
        }
      ],
      "payable": false,
      "stateMutability": "nonpayable",
      "type": "function"
    },
    {
      "constant": false,
      "inputs": [
        {
          "name": "_sender",
          "type": "address"
        }
      ],
      "name": "getCardList",
      "outputs": [
        {
          "name": "",
          "type": "address[]"
        }
      ],
      "payable": false,
      "stateMutability": "nonpayable",
      "type": "function"
    },
    {
      "constant": false,
      "inputs": [
        {
          "name": "_sender",
          "type": "address"
        }
      ],
      "name": "getTicketList",
      "outputs": [
        {
          "name": "",
          "type": "address[]"
        }
      ],
      "payable": false,
      "stateMutability": "nonpayable",
      "type": "function"
    },
    {
      "constant": false,
      "inputs": [
        {
          "name": "_sender",
          "type": "address"
        },
        {
          "name": "_ticket",
          "type": "address"
        }
      ],
      "name": "getPaidTicketCounts",
      "outputs": [
        {
          "name": "",
          "type": "uint256"
        }
      ],
      "payable": false,
      "stateMutability": "nonpayable",
      "type": "function"
    }
  ],
  "bytecode": "0x6060604052341561000f57600080fd5b60405160208061166c8339810160405280805160078054600160a060020a03928316600160a060020a0319918216179091556008805433909316929091169190911790555050611608806100646000396000f3006060604052600436106100f85763ffffffff60e060020a60003504166304d92e8c81146101c9578063104ce370146101ed5780631c1b60321461025f57806321749841146102965780632640bb36146102b55780632d00e244146102da57806346c88185146102fc5780635856406f146103385780636b6e11eb1461036057806380edef8e1461037c57806381b92e5d146103ab57806381de1be4146103ca5780638322ada6146103f5578063a5f8cdbb14610419578063c2999e1c14610438578063cc71e05f14610469578063e1f32e4b14610488578063f1faf1c8146104c2578063f42b53cf146104f0578063fdbafc6d14610677575b6000610122610112620186a0670de0b6b3a7640000610696565b670de0b6b3a76400003404610696565b600754909150600160a060020a031663a9059cbb338360405160e060020a63ffffffff8516028152600160a060020a0390921660048301526024820152604401602060405180830381600087803b151561017b57600080fd5b5af1151561018857600080fd5b50505060405180515050600854600160a060020a03163480156108fc0290604051600060405180830381858888f1935050505015156101c657600080fd5b50005b34156101d457600080fd5b6101eb600160a060020a03600435166024356106c1565b005b34156101f857600080fd5b61020c600160a060020a036004351661074b565b60405160208082528190810183818151815260200191508051906020019060200280838360005b8381101561024b578082015183820152602001610233565b505050509050019250505060405180910390f35b341561026a57600080fd5b610284600160a060020a03600435811690602435166107d8565b60405190815260200160405180910390f35b34156102a157600080fd5b610284600160a060020a0360043516610803565b34156102c057600080fd5b6101eb600160a060020a0360043581169060243516610871565b34156102e557600080fd5b6101eb600160a060020a036004351660243561095e565b341561030757600080fd5b610324600160a060020a036004351663ffffffff6024351661099c565b604051901515815260200160405180910390f35b341561034357600080fd5b6101eb600160a060020a03600435811690602435166044356109c5565b341561036b57600080fd5b6101eb63ffffffff60043516610a08565b341561038757600080fd5b61038f610a4f565b604051600160a060020a03909116815260200160405180910390f35b34156103b657600080fd5b610284600160a060020a0360043516610a5e565b34156103d557600080fd5b6101eb600160a060020a0360043581169060243516604435606435610a7c565b341561040057600080fd5b6101eb600160a060020a03600435166024351515610d19565b341561042457600080fd5b6101eb600160a060020a0360043516610d5b565b341561044357600080fd5b6101eb600160a060020a0360043581169060243581169060443516606435608435610fa3565b341561047457600080fd5b61020c600160a060020a0360043516611023565b341561049357600080fd5b6101eb600160a060020a0360043581169060ff602435811691604435909116906064351660843560a4356110ae565b34156104cd57600080fd5b6101eb600160a060020a036004358116906024351660ff60443516606435611288565b34156104fb57600080fd5b61050f600160a060020a03600435166112c0565b60405180806020018060200180602001806020018060200186810386528b818151815260200191508051906020019060200280838360005b8381101561055f578082015183820152602001610547565b5050505090500186810385528a818151815260200191508051906020019060200280838360005b8381101561059e578082015183820152602001610586565b50505050905001868103845289818151815260200191508051906020019060200280838360005b838110156105dd5780820151838201526020016105c5565b50505050905001868103835288818151815260200191508051906020019060200280838360005b8381101561061c578082015183820152602001610604565b50505050905001868103825287818151815260200191508051906020019060200280838360005b8381101561065b578082015183820152602001610643565b505050509050019a505050505050505050505060405180910390f35b341561068257600080fd5b61038f600160a060020a0360043516611525565b60008282028315806106b257508284828115156106af57fe5b04145b15156106ba57fe5b9392505050565b33600160a060020a03811660009081526001602052604090205460ff1615156106e957600080fd5b600160a060020a038084166000908152600460209081526040808320339094168352929052205461071a9083611546565b600160a060020a03938416600090815260046020908152604080832033909716835295905293909320929092555050565b610753611555565b6002600083600160a060020a0316600160a060020a031681526020019081526020016000208054806020026020016040519081016040528092919081815260200182805480156107cc57602002820191906000526020600020905b8154600160a060020a031681526001909101906020018083116107ae575b50505050509050919050565b600160a060020a03918216600090815260046020908152604080832093909416825291909152205490565b600081600160a060020a0381166370a082313060405160e060020a63ffffffff8416028152600160a060020a039091166004820152602401602060405180830381600087803b151561085457600080fd5b5af1151561086157600080fd5b5050506040518051949350505050565b6000805b600160a060020a03841660009081526002602052604090205463ffffffff821610156108f657600160a060020a03848116600090815260026020526040902080549185169163ffffffff84169081106108ca57fe5b600091825260209091200154600160a060020a031614156108ee57600191506108f6565b600101610875565b81151561095857600160a060020a03841660009081526002602052604090208054600181016109258382611567565b506000918252602090912001805473ffffffffffffffffffffffffffffffffffffffff1916600160a060020a0385161790555b50505050565b33600160a060020a03811660009081526001602052604090205460ff16151561098657600080fd5b6109978360046000338660006110ae565b505050565b600160a060020a039190911660009081526020819052604090205463ffffffff91821691161490565b33600160a060020a03811660009081526001602052604090205460ff1615156109ed57600080fd5b6109f78484610871565b6109588460016000866000876110ae565b63ffffffff811660008111610a1c57600080fd5b5033600160a060020a03166000908152602081905260409020805463ffffffff191663ffffffff92909216919091179055565b600854600160a060020a031681565b600160a060020a031660009081526005602052604090206002015490565b600160a060020a0384166000908152600160205260408120548190869060ff161515610aa757600080fd5b600160a060020a038616600090815260016020526040902054869060ff161515610ad057600080fd5b60008611610add57600080fd5b60008511610aea57600080fd5b87935083600160a060020a031663525564216040518163ffffffff1660e060020a028152600401602060405180830381600087803b1515610b2a57600080fd5b5af11515610b3757600080fd5b50505060405180519050600160a060020a031633600160a060020a03161480610b6e575060085433600160a060020a039081169116145b1515610b7957600080fd5b87925082600160a060020a03166323b872dd33308960405160e060020a63ffffffff8616028152600160a060020a0393841660048201529190921660248201526044810191909152606401602060405180830381600087803b1515610bdd57600080fd5b5af11515610bea57600080fd5b505050604051805190501515610bfc57fe5b60606040519081016040528085600160a060020a031663525564216040518163ffffffff1660e060020a028152600401602060405180830381600087803b1515610c4557600080fd5b5af11515610c5257600080fd5b50505060405180519050600160a060020a0316815260200188600160a060020a0316815260200186815250600560008a600160a060020a0316600160a060020a031681526020019081526020016000206000820151815473ffffffffffffffffffffffffffffffffffffffff1916600160a060020a0391909116178155602082015160018201805473ffffffffffffffffffffffffffffffffffffffff1916600160a060020a03929092169190911790556040820151600290910155505050505050505050565b81600160a060020a0381161515610d2f57600080fd5b50600160a060020a03919091166000908152600160205260409020805460ff1916911515919091179055565b600160a060020a0380821660009081526005602052604080822060018101546002820154919416929182919084906370a082319033905160e060020a63ffffffff8416028152600160a060020a039091166004820152602401602060405180830381600087803b1515610dcd57600080fd5b5af11515610dda57600080fd5b5050506040518051905010151515610df157600080fd5b60018401546002850154600160a060020a03909116925082906379cc679090339060405160e060020a63ffffffff8516028152600160a060020a0390921660048301526024820152604401600060405180830381600087803b1515610e5557600080fd5b5af11515610e6257600080fd5b505050600160a060020a0333166000908152600360205260409020805460018101610e8d8382611567565b506000918252602090912001805473ffffffffffffffffffffffffffffffffffffffff1916600160a060020a0387169081179091558591506001906370a082313060405160e060020a63ffffffff8416028152600160a060020a039091166004820152602401602060405180830381600087803b1515610f0c57600080fd5b5af11515610f1957600080fd5b5050506040518051905010151515610f3057600080fd5b80600160a060020a031663a9059cbb33600160405160e060020a63ffffffff8516028152600160a060020a0390921660048301526024820152604401602060405180830381600087803b1515610f8557600080fd5b5af11515610f9257600080fd5b505050604051805150505050505050565b600754600160a060020a0385811691161480610fcc5750600754600160a060020a038481169116145b1515610fd757600080fd5b600754600160a060020a038581169116141561100c57610ffd85600360018686866110ae565b6110078584610871565b61101c565b61101c85600260018786866110ae565b5050505050565b61102b611555565b6003600083600160a060020a0316600160a060020a031681526020019081526020016000208054806020026020016040519081016040528092919081815260200182805480156107cc57602002820191906000526020600020908154600160a060020a031681526001909101906020018083116107ae5750505050509050919050565b82600160a060020a03811615156110c457600080fd5b600160a060020a038416600090815260016020526040902054849060ff1615156110ed57600080fd5b600160a060020a0388166000908152600660205260409020805460018101611115838261158b565b916000526020600020906020918282040191900689909190916101000a81548160ff0219169083600481111561114757fe5b021790555050600160a060020a0388166000908152600660205260409020600190810180549091810161117a838261158b565b916000526020600020906020918282040191900688909190916101000a81548160ff021916908360028111156111ac57fe5b021790555050600160a060020a03881660009081526006602052604090206002018054600181016111dd8382611567565b506000918252602080832091909101805473ffffffffffffffffffffffffffffffffffffffff1916600160a060020a03898116919091179091558a16825260069052604090206003018054600181016112368382611567565b506000918252602080832091909101869055600160a060020a038a168252600690526040902060040180546001810161126f8382611567565b5060009182526020909120019290925550505050505050565b33600160a060020a03811660009081526001602052604090205460ff1615156112b057600080fd5b61101c85600085878660006110ae565b6112c8611555565b6112d0611555565b6112d8611555565b6112e0611555565b6112e8611555565b600160a060020a038616600090815260066020908152604091829020805490926001840192600285019260038601926004870192879291828202909101905190810160405280929190818152602001828054801561138f57602002820191906000526020600020906000905b82829054906101000a900460ff16600481111561136d57fe5b8152602060019283018181049485019490930390920291018084116113545790505b505050505094508380548060200260200160405190810160405280929190818152602001828054801561140b57602002820191906000526020600020906000905b82829054906101000a900460ff1660028111156113e957fe5b8152602060019283018181049485019490930390920291018084116113d05790505b505050505093508280548060200260200160405190810160405280929190818152602001828054801561146757602002820191906000526020600020905b8154600160a060020a03168152600190910190602001808311611449575b50505050509250818054806020026020016040519081016040528092919081815260200182805480156114b957602002820191906000526020600020905b8154815260200190600101908083116114a5575b505050505091508080548060200260200160405190810160405280929190818152602001828054801561150b57602002820191906000526020600020905b8154815260200190600101908083116114f7575b505050505090509450945094509450945091939590929450565b600160a060020a039081166000908152600560205260409020600101541690565b6000828201838110156106ba57fe5b60206040519081016040526000815290565b815481835581811511610997576000838152602090206109979181019083016115bb565b81548183558181151161099757601f016020900481601f0160209004836000526020600020918201910161099791905b6115d991905b808211156115d557600081556001016115c1565b5090565b905600a165627a7a72305820758349bba4624671d437efa81271df3a7a06ae79759106b11f092bc75f5698150029",
  "source": "pragma solidity ^0.4.18;\nimport './interfaces/IFinancieCore.sol';\nimport './interfaces/IFinancieIssuerToken.sol';\nimport './interfaces/IERC20Token.sol';\nimport './Utils.sol';\n\ncontract FinancieCore is IFinancieCore, Utils {\n\n    mapping (address => uint32) userIds;\n    mapping (address => bool) targetContracts;\n    mapping (address => address[]) ownedCardList;\n    mapping (address => address[]) ownedTicketList;\n    mapping (address => mapping (address => uint256)) paidTicketList;\n\n    struct TicketSale {\n        address issuer;\n        address card;\n        uint256 price;\n    }\n\n    mapping (address => TicketSale) ticketSales;\n\n    struct Logs {\n        EventType[] eventType;\n        CurrencyType[] currencyType;\n        address[] target;\n        uint256[] amountFrom;\n        uint256[] amountTo;\n    }\n\n    mapping (address => Logs) allLogs;\n\n    IERC20Token platformToken;\n    address public owner_address;\n\n    function FinancieCore(address _token) public {\n        platformToken = IERC20Token(_token);\n        owner_address = msg.sender;\n    }\n\n    modifier validTargetContract(address _contract) {\n        require(targetContracts[_contract]);\n        _;\n    }\n\n    function() payable public {\n        uint256 value = safeMul(safeMul(100000, 10 ** 18), msg.value / 1 ether);\n        platformToken.transfer(msg.sender, value);\n        owner_address.transfer(msg.value);\n    }\n\n    function activateUser(uint32 _userId)\n        public\n        greaterThanZero(_userId)\n    {\n        // set new account\n        userIds[msg.sender] = _userId;\n    }\n\n    function activateTargetContract(address _contract, bool _enabled)\n        public\n        validAddress(_contract)\n    {\n        targetContracts[_contract] = _enabled;\n    }\n\n    function notifyConvertCards(address _sender,\n        address _from,\n        address _to,\n        uint256 _amountFrom,\n        uint256 _amountTo)\n        public\n    {\n        require(_from == address(platformToken) || _to == address(platformToken));\n        if ( _from == address(platformToken) ) {\n            recordLog(_sender, EventType.BuyCards, CurrencyType.PlatformCoin, _to, _amountFrom, _amountTo);\n            addOwnedCardList(_sender, _to);\n        } else {\n            recordLog(_sender, EventType.SellCards, CurrencyType.PlatformCoin, _from, _amountFrom, _amountTo);\n        }\n    }\n\n    /**\n    *\n    */\n    function addOwnedCardList(address _sender, address _address) {\n        bool exist = false;\n        for (uint32 i = 0; i < ownedCardList[_sender].length; i++) {\n            if ( ownedCardList[_sender][i] == _address ) {\n                exist = true;\n                break;\n            }\n        }\n        if ( !exist ) {\n            ownedCardList[_sender].push(_address);\n        }\n    }\n\n    /**\n    * log the bid of cards for sales contract\n    */\n    function notifyBidCards(address _sender, address _to, CurrencyType _type, uint256 _amount)\n        public\n        validTargetContract(msg.sender)\n    {\n        recordLog(_sender, EventType.BidCards, _type, _to, _amount, 0);\n    }\n\n    /**\n    * log the withdrawal of cards from sales contract\n    */\n    function notifyWithdrawalCards(address _sender, address _to, uint256 _amount)\n        public\n        validTargetContract(msg.sender)\n    {\n        addOwnedCardList(_sender, _to);\n        recordLog(_sender, EventType.WithdrawCards, CurrencyType.None, _to, 0, _amount);\n    }\n\n    /**\n    * log the burn of cards\n    */\n    function notifyBurnCards(address _sender, uint256 _amount)\n        public\n        validTargetContract(msg.sender)\n    {\n        recordLog(_sender, EventType.BurnCards, CurrencyType.None, msg.sender, _amount, 0);\n    }\n\n    /**\n    * log the burn of tickets\n    */\n    function notifyBurnTickets(address _sender, uint256 _amount)\n        public\n        validTargetContract(msg.sender)\n    {\n        paidTicketList[_sender][msg.sender] = safeAdd(paidTicketList[_sender][msg.sender], _amount);\n    }\n\n    /**\n    * issuer deposits tickets into this contract and register it as a sales item\n    */\n    function depositTickets(address _ticket, address _card, uint256 _amount, uint256 _price)\n        public\n        validTargetContract(_ticket)\n        validTargetContract(_card)\n    {\n        require(_amount > 0);\n        require(_price > 0);\n\n        /**\n        * check ticket issuer and deposit tickets into this contract\n        */\n        IFinancieIssuerToken ticket = IFinancieIssuerToken(_ticket);\n        require(msg.sender == ticket.getIssuer() || msg.sender == owner_address );\n\n        IERC20Token tokenTicket = IERC20Token(_ticket);\n        assert(tokenTicket.transferFrom(msg.sender, this, _amount));\n\n        /**\n        * register it as a sales item\n        */\n        ticketSales[_ticket] = TicketSale(ticket.getIssuer(), _card, _price);\n    }\n\n    function getTicketPrice(address _ticket) public returns(uint256) {\n        return ticketSales[_ticket].price;\n    }\n\n    function getTicketStock(address _ticket) public returns(uint256) {\n        IERC20Token tokenTicket = IERC20Token(_ticket);\n        return tokenTicket.balanceOf(this);\n    }\n\n    function getTicketCurrency(address _ticket) public returns(address) {\n        return ticketSales[_ticket].card;\n    }\n\n    function buyTicket(address _ticket) public {\n        TicketSale ticketSale = ticketSales[_ticket];\n\n        /**\n        * check currency balance and burn the number of price from the buyer\n        */\n        IERC20Token cardToken = IERC20Token(ticketSale.card);\n        require(cardToken.balanceOf(msg.sender) >= ticketSale.price);\n\n        IFinancieIssuerToken card = IFinancieIssuerToken(ticketSale.card);\n        card.burnFrom(msg.sender, ticketSale.price);\n\n        ownedTicketList[msg.sender].push(_ticket);\n\n        /**\n        * check tickets in stock and transfer a ticket to the buyer\n        */\n        IERC20Token ticket = IERC20Token(_ticket);\n        require(ticket.balanceOf(address(this)) >= 1);\n        ticket.transfer(msg.sender, 1);\n    }\n\n    function recordLog(address _sender,\n        EventType _eventType,\n        CurrencyType _currencyType,\n        address _target,\n        uint256 _paidAmount,\n        uint256 _receivedAmount)\n        public\n        validAddress(_target)\n        validTargetContract(_target)\n    {\n        allLogs[_sender].eventType.push(_eventType);\n        allLogs[_sender].currencyType.push(_currencyType);\n        allLogs[_sender].target.push(_target);\n        allLogs[_sender].amountFrom.push(_paidAmount);\n        allLogs[_sender].amountTo.push(_receivedAmount);\n    }\n\n    function getLogs(address _sender)\n        public returns(EventType[], CurrencyType[], address[], uint256[], uint256[])\n    {\n        return (allLogs[_sender].eventType,\n          allLogs[_sender].currencyType,\n          allLogs[_sender].target,\n          allLogs[_sender].amountFrom,\n          allLogs[_sender].amountTo);\n    }\n\n    function checkUserActivation(address _sender, uint32 _userId) public returns(bool) {\n        return userIds[_sender] == _userId;\n    }\n\n    function getCardList(address _sender) public returns(address[]) {\n        return ownedCardList[_sender];\n    }\n\n    function getTicketList(address _sender) public returns(address[]) {\n        return ownedTicketList[_sender];\n    }\n\n    function getPaidTicketCounts(address _sender, address _ticket) public returns(uint256) {\n        return paidTicketList[_sender][_ticket];\n    }\n}\n",
  "sourcePath": "/Users/rudo/contracts/solidity/contracts/FinancieCore.sol",
  "compiler": {
    "name": "solc",
    "version": "0.4.21+commit.dfe3193c.Emscripten.clang"
  },
  "schemaVersion": "2.0.0",
  "updatedAt": "2018-07-05T11:12:39.340Z"
}