{
  "contractName": "FinancieBancorConverter",
  "abi": [
    {
      "constant": false,
      "inputs": [
        {
          "name": "_connectorToken",
          "type": "address"
        },
        {
          "name": "_weight",
          "type": "uint32"
        },
        {
          "name": "_enableVirtualBalance",
          "type": "bool"
        },
        {
          "name": "_virtualBalance",
          "type": "uint256"
        }
      ],
      "name": "updateConnector",
      "outputs": [],
      "payable": false,
      "stateMutability": "nonpayable",
      "type": "function"
    },
    {
      "constant": true,
      "inputs": [
        {
          "name": "",
          "type": "address"
        }
      ],
      "name": "connectors",
      "outputs": [
        {
          "name": "virtualBalance",
          "type": "uint256"
        },
        {
          "name": "weight",
          "type": "uint32"
        },
        {
          "name": "isVirtualBalanceEnabled",
          "type": "bool"
        },
        {
          "name": "isPurchaseEnabled",
          "type": "bool"
        },
        {
          "name": "isSet",
          "type": "bool"
        }
      ],
      "payable": false,
      "stateMutability": "view",
      "type": "function"
    },
    {
      "constant": true,
      "inputs": [
        {
          "name": "",
          "type": "uint256"
        }
      ],
      "name": "connectorTokens",
      "outputs": [
        {
          "name": "",
          "type": "address"
        }
      ],
      "payable": false,
      "stateMutability": "view",
      "type": "function"
    },
    {
      "constant": true,
      "inputs": [
        {
          "name": "",
          "type": "uint256"
        }
      ],
      "name": "quickSellPath",
      "outputs": [
        {
          "name": "",
          "type": "address"
        }
      ],
      "payable": false,
      "stateMutability": "view",
      "type": "function"
    },
    {
      "constant": true,
      "inputs": [
        {
          "name": "_fromToken",
          "type": "address"
        },
        {
          "name": "_toToken",
          "type": "address"
        },
        {
          "name": "_amount",
          "type": "uint256"
        }
      ],
      "name": "getReturn",
      "outputs": [
        {
          "name": "",
          "type": "uint256"
        }
      ],
      "payable": false,
      "stateMutability": "view",
      "type": "function"
    },
    {
      "constant": false,
      "inputs": [
        {
          "name": "_newOwner",
          "type": "address"
        }
      ],
      "name": "transferTokenOwnership",
      "outputs": [],
      "payable": false,
      "stateMutability": "nonpayable",
      "type": "function"
    },
    {
      "constant": false,
      "inputs": [
        {
          "name": "_disable",
          "type": "bool"
        }
      ],
      "name": "disableConversions",
      "outputs": [],
      "payable": false,
      "stateMutability": "nonpayable",
      "type": "function"
    },
    {
      "constant": false,
      "inputs": [
        {
          "name": "_extensions",
          "type": "address"
        }
      ],
      "name": "setExtensions",
      "outputs": [],
      "payable": false,
      "stateMutability": "nonpayable",
      "type": "function"
    },
    {
      "constant": true,
      "inputs": [],
      "name": "extensions",
      "outputs": [
        {
          "name": "",
          "type": "address"
        }
      ],
      "payable": false,
      "stateMutability": "view",
      "type": "function"
    },
    {
      "constant": true,
      "inputs": [
        {
          "name": "_amount",
          "type": "uint256"
        }
      ],
      "name": "getConversionFeeAmount",
      "outputs": [
        {
          "name": "",
          "type": "uint256"
        }
      ],
      "payable": false,
      "stateMutability": "view",
      "type": "function"
    },
    {
      "constant": false,
      "inputs": [],
      "name": "acceptTokenOwnership",
      "outputs": [],
      "payable": false,
      "stateMutability": "nonpayable",
      "type": "function"
    },
    {
      "constant": true,
      "inputs": [],
      "name": "converterType",
      "outputs": [
        {
          "name": "",
          "type": "string"
        }
      ],
      "payable": false,
      "stateMutability": "view",
      "type": "function"
    },
    {
      "constant": false,
      "inputs": [
        {
          "name": "_token",
          "type": "address"
        },
        {
          "name": "_weight",
          "type": "uint32"
        },
        {
          "name": "_enableVirtualBalance",
          "type": "bool"
        }
      ],
      "name": "addConnector",
      "outputs": [],
      "payable": false,
      "stateMutability": "nonpayable",
      "type": "function"
    },
    {
      "constant": false,
      "inputs": [
        {
          "name": "_token",
          "type": "address"
        },
        {
          "name": "_to",
          "type": "address"
        },
        {
          "name": "_amount",
          "type": "uint256"
        }
      ],
      "name": "withdrawFromToken",
      "outputs": [],
      "payable": false,
      "stateMutability": "nonpayable",
      "type": "function"
    },
    {
      "constant": true,
      "inputs": [],
      "name": "newManager",
      "outputs": [
        {
          "name": "",
          "type": "address"
        }
      ],
      "payable": false,
      "stateMutability": "view",
      "type": "function"
    },
    {
      "constant": true,
      "inputs": [],
      "name": "manager",
      "outputs": [
        {
          "name": "",
          "type": "address"
        }
      ],
      "payable": false,
      "stateMutability": "view",
      "type": "function"
    },
    {
      "constant": false,
      "inputs": [],
      "name": "clearQuickBuyPath",
      "outputs": [],
      "payable": false,
      "stateMutability": "nonpayable",
      "type": "function"
    },
    {
      "constant": false,
      "inputs": [
        {
          "name": "_connectorToken",
          "type": "address"
        },
        {
          "name": "_disable",
          "type": "bool"
        }
      ],
      "name": "disableConnectorPurchases",
      "outputs": [],
      "payable": false,
      "stateMutability": "nonpayable",
      "type": "function"
    },
    {
      "constant": true,
      "inputs": [],
      "name": "version",
      "outputs": [
        {
          "name": "",
          "type": "string"
        }
      ],
      "payable": false,
      "stateMutability": "view",
      "type": "function"
    },
    {
      "constant": true,
      "inputs": [],
      "name": "conversionFee",
      "outputs": [
        {
          "name": "",
          "type": "uint32"
        }
      ],
      "payable": false,
      "stateMutability": "view",
      "type": "function"
    },
    {
      "constant": false,
      "inputs": [
        {
          "name": "_token",
          "type": "address"
        },
        {
          "name": "_to",
          "type": "address"
        },
        {
          "name": "_amount",
          "type": "uint256"
        }
      ],
      "name": "withdrawTokens",
      "outputs": [],
      "payable": false,
      "stateMutability": "nonpayable",
      "type": "function"
    },
    {
      "constant": false,
      "inputs": [
        {
          "name": "_fromToken",
          "type": "address"
        },
        {
          "name": "_toToken",
          "type": "address"
        },
        {
          "name": "_amount",
          "type": "uint256"
        },
        {
          "name": "_minReturn",
          "type": "uint256"
        }
      ],
      "name": "change",
      "outputs": [
        {
          "name": "",
          "type": "uint256"
        }
      ],
      "payable": false,
      "stateMutability": "nonpayable",
      "type": "function"
    },
    {
      "constant": true,
      "inputs": [],
      "name": "connectorTokenCount",
      "outputs": [
        {
          "name": "",
          "type": "uint16"
        }
      ],
      "payable": false,
      "stateMutability": "view",
      "type": "function"
    },
    {
      "constant": true,
      "inputs": [
        {
          "name": "_connectorToken",
          "type": "address"
        },
        {
          "name": "_sellAmount",
          "type": "uint256"
        }
      ],
      "name": "getSaleReturn",
      "outputs": [
        {
          "name": "",
          "type": "uint256"
        }
      ],
      "payable": false,
      "stateMutability": "view",
      "type": "function"
    },
    {
      "constant": false,
      "inputs": [],
      "name": "acceptOwnership",
      "outputs": [],
      "payable": false,
      "stateMutability": "nonpayable",
      "type": "function"
    },
    {
      "constant": false,
      "inputs": [
        {
          "name": "_disable",
          "type": "bool"
        }
      ],
      "name": "disableTokenTransfers",
      "outputs": [],
      "payable": false,
      "stateMutability": "nonpayable",
      "type": "function"
    },
    {
      "constant": true,
      "inputs": [],
      "name": "owner",
      "outputs": [
        {
          "name": "",
          "type": "address"
        }
      ],
      "payable": false,
      "stateMutability": "view",
      "type": "function"
    },
    {
      "constant": true,
      "inputs": [],
      "name": "getQuickBuyPathLength",
      "outputs": [
        {
          "name": "",
          "type": "uint256"
        }
      ],
      "payable": false,
      "stateMutability": "view",
      "type": "function"
    },
    {
      "constant": true,
      "inputs": [],
      "name": "maxConversionFee",
      "outputs": [
        {
          "name": "",
          "type": "uint32"
        }
      ],
      "payable": false,
      "stateMutability": "view",
      "type": "function"
    },
    {
      "constant": true,
      "inputs": [
        {
          "name": "_connectorToken",
          "type": "address"
        },
        {
          "name": "_depositAmount",
          "type": "uint256"
        }
      ],
      "name": "getPurchaseReturn",
      "outputs": [
        {
          "name": "",
          "type": "uint256"
        }
      ],
      "payable": false,
      "stateMutability": "view",
      "type": "function"
    },
    {
      "constant": true,
      "inputs": [],
      "name": "convertibleTokenCount",
      "outputs": [
        {
          "name": "",
          "type": "uint16"
        }
      ],
      "payable": false,
      "stateMutability": "view",
      "type": "function"
    },
    {
      "constant": true,
      "inputs": [],
      "name": "conversionsEnabled",
      "outputs": [
        {
          "name": "",
          "type": "bool"
        }
      ],
      "payable": false,
      "stateMutability": "view",
      "type": "function"
    },
    {
      "constant": false,
      "inputs": [],
      "name": "acceptManagement",
      "outputs": [],
      "payable": false,
      "stateMutability": "nonpayable",
      "type": "function"
    },
    {
      "constant": false,
      "inputs": [
        {
          "name": "_path",
          "type": "address[]"
        }
      ],
      "name": "setQuickBuyPath",
      "outputs": [],
      "payable": false,
      "stateMutability": "nonpayable",
      "type": "function"
    },
    {
      "constant": true,
      "inputs": [],
      "name": "newOwner",
      "outputs": [
        {
          "name": "",
          "type": "address"
        }
      ],
      "payable": false,
      "stateMutability": "view",
      "type": "function"
    },
    {
      "constant": true,
      "inputs": [
        {
          "name": "_connectorToken",
          "type": "address"
        }
      ],
      "name": "getConnectorBalance",
      "outputs": [
        {
          "name": "",
          "type": "uint256"
        }
      ],
      "payable": false,
      "stateMutability": "view",
      "type": "function"
    },
    {
      "constant": false,
      "inputs": [
        {
          "name": "_newManager",
          "type": "address"
        }
      ],
      "name": "transferManagement",
      "outputs": [],
      "payable": false,
      "stateMutability": "nonpayable",
      "type": "function"
    },
    {
      "constant": true,
      "inputs": [
        {
          "name": "",
          "type": "uint256"
        }
      ],
      "name": "quickBuyPath",
      "outputs": [
        {
          "name": "",
          "type": "address"
        }
      ],
      "payable": false,
      "stateMutability": "view",
      "type": "function"
    },
    {
      "constant": false,
      "inputs": [
        {
          "name": "_conversionFee",
          "type": "uint32"
        }
      ],
      "name": "setConversionFee",
      "outputs": [],
      "payable": false,
      "stateMutability": "nonpayable",
      "type": "function"
    },
    {
      "constant": true,
      "inputs": [
        {
          "name": "_tokenIndex",
          "type": "uint16"
        }
      ],
      "name": "convertibleToken",
      "outputs": [
        {
          "name": "",
          "type": "address"
        }
      ],
      "payable": false,
      "stateMutability": "view",
      "type": "function"
    },
    {
      "constant": false,
      "inputs": [
        {
          "name": "_newOwner",
          "type": "address"
        }
      ],
      "name": "transferOwnership",
      "outputs": [],
      "payable": false,
      "stateMutability": "nonpayable",
      "type": "function"
    },
    {
      "constant": true,
      "inputs": [],
      "name": "token",
      "outputs": [
        {
          "name": "",
          "type": "address"
        }
      ],
      "payable": false,
      "stateMutability": "view",
      "type": "function"
    },
    {
      "inputs": [
        {
          "name": "_token",
          "type": "address"
        },
        {
          "name": "_etherToken",
          "type": "address"
        },
        {
          "name": "_connectorToken",
          "type": "address"
        },
        {
          "name": "_hero_wallet",
          "type": "address"
        },
        {
          "name": "_extensions",
          "type": "address"
        },
        {
          "name": "_core_address",
          "type": "address"
        },
        {
          "name": "_financieFee",
          "type": "uint32"
        },
        {
          "name": "_connectorWeight",
          "type": "uint32"
        }
      ],
      "payable": false,
      "stateMutability": "nonpayable",
      "type": "constructor"
    },
    {
      "payable": true,
      "stateMutability": "payable",
      "type": "fallback"
    },
    {
      "anonymous": false,
      "inputs": [
        {
          "indexed": true,
          "name": "_fromToken",
          "type": "address"
        },
        {
          "indexed": true,
          "name": "_toToken",
          "type": "address"
        },
        {
          "indexed": true,
          "name": "_trader",
          "type": "address"
        },
        {
          "indexed": false,
          "name": "_amount",
          "type": "uint256"
        },
        {
          "indexed": false,
          "name": "_return",
          "type": "uint256"
        },
        {
          "indexed": false,
          "name": "_conversionFee",
          "type": "int256"
        },
        {
          "indexed": false,
          "name": "_currentPriceN",
          "type": "uint256"
        },
        {
          "indexed": false,
          "name": "_currentPriceD",
          "type": "uint256"
        }
      ],
      "name": "Conversion",
      "type": "event"
    },
    {
      "anonymous": false,
      "inputs": [
        {
          "indexed": false,
          "name": "_prevFee",
          "type": "uint32"
        },
        {
          "indexed": false,
          "name": "_newFee",
          "type": "uint32"
        }
      ],
      "name": "ConversionFeeUpdate",
      "type": "event"
    },
    {
      "anonymous": false,
      "inputs": [
        {
          "indexed": true,
          "name": "_prevManager",
          "type": "address"
        },
        {
          "indexed": true,
          "name": "_newManager",
          "type": "address"
        }
      ],
      "name": "ManagerUpdate",
      "type": "event"
    },
    {
      "anonymous": false,
      "inputs": [
        {
          "indexed": true,
          "name": "_prevOwner",
          "type": "address"
        },
        {
          "indexed": true,
          "name": "_newOwner",
          "type": "address"
        }
      ],
      "name": "OwnerUpdate",
      "type": "event"
    },
    {
      "constant": false,
      "inputs": [
        {
          "name": "_fromToken",
          "type": "address"
        },
        {
          "name": "_toToken",
          "type": "address"
        },
        {
          "name": "_amount",
          "type": "uint256"
        },
        {
          "name": "_minReturn",
          "type": "uint256"
        }
      ],
      "name": "convert",
      "outputs": [
        {
          "name": "",
          "type": "uint256"
        }
      ],
      "payable": false,
      "stateMutability": "nonpayable",
      "type": "function"
    },
    {
      "constant": false,
      "inputs": [
        {
          "name": "_path",
          "type": "address[]"
        },
        {
          "name": "_amount",
          "type": "uint256"
        },
        {
          "name": "_minReturn",
          "type": "uint256"
        }
      ],
      "name": "quickConvert",
      "outputs": [
        {
          "name": "",
          "type": "uint256"
        }
      ],
      "payable": true,
      "stateMutability": "payable",
      "type": "function"
    }
  ],
  "bytecode": "0x606060405260408051908101604052600381527f302e370000000000000000000000000000000000000000000000000000000000602082015260059080516200004d92916020019062000632565b506040805190810160405260068082527f62616e636f72000000000000000000000000000000000000000000000000000060208301529080516200009692916020019062000632565b50600b80546001606860020a0319166c010000000000000000000000001790553415620000c257600080fd5b60405161010080620029d0833981016040528080519190602001805191906020018051919060200180519190602001805191906020018051919060200180519190602001805160008054600160a060020a03191633600160a060020a039081169190911782559193508a925086918990859085908190811615156200014657600080fd5b5060028054600160a060020a0319908116600160a060020a0393841617909155600380549091163383161790558490811615156200018357600080fd5b8360008163ffffffff1610158015620001a55750620f424063ffffffff821611155b1515620001b157600080fd5b60078054600160a060020a031916600160a060020a0388811691909117909155600b805467ffffffff00000000191664010000000063ffffffff8916021790558416156200021557620002158484600064010000000062000fe6620003e582021704565b5050600c8054600160a060020a03808b16600160a060020a031992831617909255600d805463ffffffff8b16740100000000000000000000000000000000000000000260a060020a63ffffffff0219948f16919093161792909216179055505060098054909350915050600181016200028f8382620006b7565b5060009182526020909120018054600160a060020a031916600160a060020a0389161790556009805460018101620002c88382620006b7565b5060009182526020909120018054600160a060020a031916600160a060020a038a161790556009805460018101620003018382620006b7565b5060009182526020909120018054600160a060020a031916600160a060020a038816179055600e8054600181016200033a8382620006b7565b5060009182526020909120018054600160a060020a031916600160a060020a038816179055600e805460018101620003738382620006b7565b5060009182526020909120018054600160a060020a031916600160a060020a038a16179055600e805460018101620003ac8382620006b7565b5060009182526020909120018054600160a060020a031916600160a060020a039890981697909717909655506200070395505050505050565b60005433600160a060020a03908116911614620003fe57fe5b600254600160a060020a033081169116638da5cb5b6040518163ffffffff167c0100000000000000000000000000000000000000000000000000000000028152600401602060405180830381600087803b15156200045b57600080fd5b5af115156200046957600080fd5b50505060405180519050600160a060020a0316141515156200048757fe5b82600160a060020a03811615156200049e57600080fd5b8330600160a060020a031681600160a060020a031614151515620004c157600080fd5b8360008163ffffffff16118015620004e25750620f424063ffffffff821611155b1515620004ee57600080fd5b600254600160a060020a03878116911614801590620005335750600160a060020a0386166000908152600a60205260409020600101546601000000000000900460ff16155b8015620005525750600b54620f424063ffffffff918216870190911611155b15156200055e57600080fd5b600160a060020a0386166000908152600a602052604081209081556001908101805466010000000000006501000000000063ffffffff1990921663ffffffff8a161764ff000000001916640100000000891515021765ff000000000019169190911766ff00000000000019161790556008805490918101620005e18382620006b7565b5060009182526020909120018054600160a060020a031916600160a060020a0397909716969096179095555050600b805463ffffffff19811663ffffffff9182169490940116929092179091555050565b828054600181600116156101000203166002900490600052602060002090601f016020900481019282601f106200067557805160ff1916838001178555620006a5565b82800160010185558215620006a5579182015b82811115620006a557825182559160200191906001019062000688565b50620006b3929150620006e3565b5090565b815481835581811511620006de57600083815260209020620006de918101908301620006e3565b505050565b6200070091905b80821115620006b35760008155600101620006ea565b90565b6122bd80620007136000396000f3006060604052600436106102005763ffffffff60e060020a6000350416630ca7892381146102695780630e53aae91461029b57806319b64015146102f65780631a4c298f146103285780631e1401f81461033e57806321e6b53d14610378578063228d2820146103975780632314aad6146103af57806324f159c2146103ce5780632a3c2c56146103e157806338a5e016146103f75780633e8ff43f1461040a5780633f4d2fc21461049457806341a5b33d146104c157806342906029146104e9578063481c6a75146104fc5780634e2280c41461050f578063514385be1461052257806354fd4d5014610546578063579cd3ca146105595780635e35359e146105855780635e5144eb146105ad57806371f52bf3146105d857806372b44b2c1461060257806375892cf11461062457806379ba50971461064f57806385d5e631146106625780638da5cb5b1461067a5780639396a7f01461068d57806394c275ad146106a0578063a2c4c336146106b3578063ba9a8b37146106d5578063bf754558146106e8578063c8c2fe6c1461070f578063d395ee0f14610722578063d4ee1d9014610771578063d895951214610784578063e4edf852146107a3578063e7ee85a5146107c2578063ecbca55d146107d8578063f0843ba9146107f4578063f2c8d2471461083f578063f2fde38b14610859578063fc0c546a14610878575b610266600980548060200260200160405190810160405280929190818152602001828054801561025957602002820191906000526020600020905b8154600160a060020a0316815260019091019060200180831161023b575b505050505034600161088b565b50005b341561027457600080fd5b610299600160a060020a036004351663ffffffff602435166044351515606435610acc565b005b34156102a657600080fd5b6102ba600160a060020a0360043516610be0565b60405194855263ffffffff90931660208501529015156040808501919091529015156060840152901515608083015260a0909101905180910390f35b341561030157600080fd5b61030c600435610c26565b604051600160a060020a03909116815260200160405180910390f35b341561033357600080fd5b61030c600435610c4e565b341561034957600080fd5b610366600160a060020a0360043581169060243516604435610c5c565b60405190815260200160405180910390f35b341561038357600080fd5b610299600160a060020a0360043516610d44565b34156103a257600080fd5b6102996004351515610dbf565b34156103ba57600080fd5b610299600160a060020a0360043516610e22565b34156103d957600080fd5b61030c610e96565b34156103ec57600080fd5b610366600435610ea5565b341561040257600080fd5b610299610edf565b341561041557600080fd5b61041d610f48565b60405160208082528190810183818151815260200191508051906020019080838360005b83811015610459578082015183820152602001610441565b50505050905090810190601f1680156104865780820380516001836020036101000a031916815260200191505b509250505060405180910390f35b341561049f57600080fd5b610299600160a060020a036004351663ffffffff602435166044351515610fe6565b34156104cc57600080fd5b610299600160a060020a036004358116906024351660443561120d565b34156104f457600080fd5b61030c61129d565b341561050757600080fd5b61030c6112ac565b341561051a57600080fd5b6102996112bb565b341561052d57600080fd5b610299600160a060020a036004351660243515156112e3565b341561055157600080fd5b61041d61136c565b341561056457600080fd5b61056c6113d7565b60405163ffffffff909116815260200160405180910390f35b341561059057600080fd5b610299600160a060020a03600435811690602435166044356113ef565b34156105b857600080fd5b610366600160a060020a03600435811690602435166044356064356114c8565b34156105e357600080fd5b6105eb6114df565b60405161ffff909116815260200160405180910390f35b341561060d57600080fd5b610366600160a060020a03600435166024356114e6565b341561062f57600080fd5b610366600160a060020a0360043581169060243516604435606435611553565b341561065a57600080fd5b610299611749565b341561066d57600080fd5b61029960043515156117ca565b341561068557600080fd5b61030c61182a565b341561069857600080fd5b610366611839565b34156106ab57600080fd5b61056c61183f565b34156106be57600080fd5b610366600160a060020a0360043516602435611853565b34156106e057600080fd5b6105eb611aa8565b34156106f357600080fd5b6106fb611aba565b604051901515815260200160405180910390f35b341561071a57600080fd5b610299611ad3565b341561072d57600080fd5b6102996004602481358181019083013580602081810201604051908101604052809392919081815260200183836020028082843750949650611b5495505050505050565b341561077c57600080fd5b61030c611bb7565b341561078f57600080fd5b610366600160a060020a0360043516611bc6565b34156107ae57600080fd5b610299600160a060020a0360043516611ca2565b34156107cd57600080fd5b61030c600435611cf7565b34156107e357600080fd5b61029963ffffffff60043516611d05565b61036660046024813581810190830135806020818102016040519081016040528093929190818152602001838360200280828437509496505084359460200135935061088b92505050565b341561084a57600080fd5b61030c61ffff60043516611dfb565b341561086457600080fd5b610299600160a060020a0360043516611e4b565b341561088357600080fd5b61030c611ea0565b600080600080600087600281511180156108a757506015815111155b80156108c05750600281518115156108bb57fe5b066001145b15156108cb57600080fd5b600754600160a060020a031663c31e05476040518163ffffffff1660e060020a028152600401602060405180830381600087803b151561090a57600080fd5b5af1151561091757600080fd5b50505060405180519050945061092c88611eaf565b93506109388885611ee3565b925061094384611ef5565b84600160a060020a031663c98fefed848b868b336040518663ffffffff1660e060020a028152600401808060200185815260200184815260200183600160a060020a0316600160a060020a03168152602001828103825286818151815260200191508051906020019060200280838360005b838110156109cd5780820151838201526020016109b5565b50505050905001955050505050506020604051808303818588803b15156109f357600080fd5b5af11515610a0057600080fd5b505050506040518051600c54909350600160a060020a0316905063c2999e1c338b600081518110610a2d57fe5b906020019060200201518c600281518110610a4457fe5b906020019060200201518c8760405160e060020a63ffffffff8816028152600160a060020a03958616600482015293851660248501529190931660448301526064820192909252608481019190915260a401600060405180830381600087803b1515610aaf57600080fd5b5af11515610abc57600080fd5b50929a9950505050505050505050565b6000805433600160a060020a03908116911614610ae557fe5b600160a060020a0385166000908152600a602052604090206001015485906601000000000000900460ff161515610b1b57600080fd5b8460008163ffffffff16118015610b3b5750620f424063ffffffff821611155b1515610b4657600080fd5b600160a060020a0387166000908152600a602052604090206001810154600b54919450620f424063ffffffff918216928216929092038801161115610b8a57600080fd5b5050600181018054600b805463ffffffff928316818416038801831663ffffffff199182161790915582549515156401000000000264ff0000000019929097169516949094179390931693909317909155905550565b600a602052600090815260409020805460019091015463ffffffff81169060ff640100000000820481169165010000000000810482169166010000000000009091041685565b6008805482908110610c3457fe5b600091825260209091200154600160a060020a0316905081565b600e805482908110610c3457fe5b600080600160a060020a038581169085161415610c7857600080fd5b600254600160a060020a0385811691161415610c9f57610c988584611853565b9150610d3c565b600254600160a060020a0386811691161415610cbf57610c9884846114e6565b610cc98584611853565b600254909150610d399085908390610d3490600160a060020a03166318160ddd6040518163ffffffff1660e060020a028152600401602060405180830381600087803b1515610d1757600080fd5b5af11515610d2457600080fd5b5050506040518051905085611fa8565b611fb7565b91505b509392505050565b60005433600160a060020a03908116911614610d5c57fe5b600254600160a060020a031663f2fde38b8260405160e060020a63ffffffff8416028152600160a060020a039091166004820152602401600060405180830381600087803b1515610dac57600080fd5b5af11515610db957600080fd5b50505050565b60005433600160a060020a0390811691161480610dea575060035433600160a060020a039081169116145b1515610df557600080fd5b600b80546cff000000000000000000000000191691156c0100000000000000000000000002919091179055565b60005433600160a060020a03908116911614610e3a57fe5b80600160a060020a0381161515610e5057600080fd5b8130600160a060020a031681600160a060020a031614151515610e7257600080fd5b505060078054600160a060020a031916600160a060020a0392909216919091179055565b600754600160a060020a031681565b600b54600090620f424090610ecd90849068010000000000000000900463ffffffff166121a4565b811515610ed657fe5b0490505b919050565b60005433600160a060020a03908116911614610ef757fe5b600254600160a060020a03166379ba50976040518163ffffffff1660e060020a028152600401600060405180830381600087803b1515610f3657600080fd5b5af11515610f4357600080fd5b505050565b60068054600181600116156101000203166002900480601f016020809104026020016040519081016040528092919081815260200182805460018160011615610100020316600290048015610fde5780601f10610fb357610100808354040283529160200191610fde565b820191906000526020600020905b815481529060010190602001808311610fc157829003601f168201915b505050505081565b60005433600160a060020a03908116911614610ffe57fe5b600254600160a060020a033081169116638da5cb5b6040518163ffffffff1660e060020a028152600401602060405180830381600087803b151561104157600080fd5b5af1151561104e57600080fd5b50505060405180519050600160a060020a03161415151561106b57fe5b82600160a060020a038116151561108157600080fd5b8330600160a060020a031681600160a060020a0316141515156110a357600080fd5b8360008163ffffffff161180156110c35750620f424063ffffffff821611155b15156110ce57600080fd5b600254600160a060020a038781169116148015906111125750600160a060020a0386166000908152600a60205260409020600101546601000000000000900460ff16155b80156111305750600b54620f424063ffffffff918216870190911611155b151561113b57600080fd5b600160a060020a0386166000908152600a602052604081209081556001908101805466010000000000006501000000000063ffffffff1990921663ffffffff8a161764ff000000001916640100000000891515021765ff000000000019169190911766ff000000000000191617905560088054909181016111bc83826121c8565b5060009182526020909120018054600160a060020a031916600160a060020a0397909716969096179095555050600b805463ffffffff19811663ffffffff9182169490940116929092179091555050565b60005433600160a060020a0390811691161461122557fe5b600254600160a060020a0316635e35359e84848460405160e060020a63ffffffff8616028152600160a060020a0393841660048201529190921660248201526044810191909152606401600060405180830381600087803b151561128857600080fd5b5af1151561129557600080fd5b505050505050565b600454600160a060020a031681565b600354600160a060020a031681565b60005433600160a060020a039081169116146112d357fe5b60006112e06009826121c8565b50565b60005433600160a060020a039081169116146112fb57fe5b600160a060020a0382166000908152600a602052604090206001015482906601000000000000900460ff16151561133157600080fd5b50600160a060020a03919091166000908152600a60205260409020600101805465ff0000000000191691156501000000000002919091179055565b60058054600181600116156101000203166002900480601f016020809104026020016040519081016040528092919081815260200182805460018160011615610100020316600290048015610fde5780601f10610fb357610100808354040283529160200191610fde565b600b5468010000000000000000900463ffffffff1681565b60005433600160a060020a0390811691161461140757fe5b82600160a060020a038116151561141d57600080fd5b82600160a060020a038116151561143357600080fd5b8330600160a060020a031681600160a060020a03161415151561145557600080fd5b85600160a060020a031663a9059cbb868660405160e060020a63ffffffff8516028152600160a060020a0390921660048301526024820152604401602060405180830381600087803b15156114a957600080fd5b5af115156114b657600080fd5b50505060405180519050151561129557fe5b60006114d685858585611553565b95945050505050565b6008545b90565b60025460009061154c9084908490600160a060020a03166318160ddd6040518163ffffffff1660e060020a028152600401602060405180830381600087803b151561153057600080fd5b5af1151561153d57600080fd5b50505060405180519050611fb7565b9392505050565b60008060008060006009600081548110151561156b57fe5b600091825260209091200154600160a060020a038a811691161461158e57600080fd5b60098054600290811061159d57fe5b600091825260209091200154600160a060020a038981169116146115c057600080fd5b600754600160a060020a031663c31e05476040518163ffffffff1660e060020a028152600401602060405180830381600087803b15156115ff57600080fd5b5af1151561160c57600080fd5b5050506040518051945050600160a060020a03841663c98fefed88600e818a306040518663ffffffff1660e060020a028152600401808060200185815260200184815260200183600160a060020a0316600160a060020a0316815260200182810382528681815481526020019150805480156116b157602002820191906000526020600020905b8154600160a060020a03168152600190910190602001808311611693575b5050955050505050506020604051808303818588803b15156116d257600080fd5b5af115156116df57600080fd5b505050506040518051905092506116f583611eaf565b91506117018383611ee3565b9050600160a060020a03331681156108fc0282604051600060405180830381858888f19350505050151561173457600080fd5b61173d82611ef5565b50979650505050505050565b60015433600160a060020a0390811691161461176457600080fd5b600154600054600160a060020a0391821691167f343765429aea5a34b3ff6a3785a98a5abb2597aca87bfbb58632c173d585373a60405160405180910390a36001805460008054600160a060020a0319908116600160a060020a03841617909155169055565b60005433600160a060020a039081169116146117e257fe5b600254600160a060020a0316631608f18f8260405160e060020a63ffffffff84160281529015156004820152602401600060405180830381600087803b1515610dac57600080fd5b600054600160a060020a031681565b60095490565b600b54640100000000900463ffffffff1681565b60025460009081908190819081908190600160a060020a033081169116638da5cb5b6040518163ffffffff1660e060020a028152600401602060405180830381600087803b15156118a357600080fd5b5af115156118b057600080fd5b50505060405180519050600160a060020a03161415156118cc57fe5b600160a060020a0388166000908152600a602052604090206001015488906601000000000000900460ff16151561190257600080fd5b600160a060020a0389166000908152600a60205260409020600181015490965065010000000000900460ff16151561193957600080fd5b600254600160a060020a03166318160ddd6040518163ffffffff1660e060020a028152600401602060405180830381600087803b151561197857600080fd5b5af1151561198557600080fd5b50505060405180519050945061199a89611bc6565b600754909450600160a060020a0316634b75f54f6040518163ffffffff1660e060020a028152600401602060405180830381600087803b15156119dc57600080fd5b5af115156119e957600080fd5b50505060405180516001880154600160a060020a0390911691506329a00e7c908790879063ffffffff168c6040518563ffffffff1660e060020a028152600401808581526020018481526020018363ffffffff1663ffffffff168152602001828152602001945050505050602060405180830381600087803b1515611a6d57600080fd5b5af11515611a7a57600080fd5b505050604051805190509250611a8f83610ea5565b9150611a9b8383611ee3565b9998505050505050505050565b6000611ab26114df565b600101905090565b600b546c01000000000000000000000000900460ff1681565b60045433600160a060020a03908116911614611aee57600080fd5b600454600354600160a060020a0391821691167fbe4cc281795971a471c980e842627a7f1ea3892ddfce8c5b6357cd2611c1973260405160405180910390a36004805460038054600160a060020a0319908116600160a060020a03841617909155169055565b60005433600160a060020a03908116911614611b6c57fe5b8060028151118015611b8057506015815111155b8015611b99575060028151811515611b9457fe5b066001145b1515611ba457600080fd5b6009828051610f439291602001906121ec565b600154600160a060020a031681565b600160a060020a0381166000908152600a6020526040812060010154819083906601000000000000900460ff161515611bfe57600080fd5b600160a060020a0384166000908152600a602052604090206001810154909250640100000000900460ff16611c975783600160a060020a03166370a082313060405160e060020a63ffffffff8416028152600160a060020a039091166004820152602401602060405180830381600087803b1515611c7b57600080fd5b5af11515611c8857600080fd5b50505060405180519050611c9a565b81545b949350505050565b60035433600160a060020a03908116911614611cba57fe5b600354600160a060020a0382811691161415611cd557600080fd5b60048054600160a060020a031916600160a060020a0392909216919091179055565b6009805482908110610c3457fe5b60005433600160a060020a0390811691161480611d30575060035433600160a060020a039081169116145b1515611d3b57600080fd5b8060008163ffffffff1610158015611d675750600b5463ffffffff640100000000909104811690821611155b1515611d7257600080fd5b600b547f81cd2ffb37dd237c0e4e2a3de5265fcf9deb43d3e7801e80db9f1ccfba7ee6009068010000000000000000900463ffffffff168360405163ffffffff9283168152911660208201526040908101905180910390a150600b805463ffffffff90921668010000000000000000026bffffffff000000000000000019909216919091179055565b600061ffff82161515611e1a5750600254600160a060020a0316610eda565b6008805461ffff600019850116908110611e3057fe5b600091825260209091200154600160a060020a031692915050565b60005433600160a060020a03908116911614611e6357fe5b600054600160a060020a0382811691161415611e7e57600080fd5b60018054600160a060020a031916600160a060020a0392909216919091179055565b600254600160a060020a031681565b600d54600090620f424090610ecd90849074010000000000000000000000000000000000000000900463ffffffff166121a4565b600081831015611eef57fe5b50900390565b60028104600080611f068484611ee3565b915060096000815481101515611f1857fe5b600091825260209091200154600160a060020a031690508063d0e30db0846040518263ffffffff1660e060020a0281526004016000604051808303818588803b1515611f6357600080fd5b5af11515611f7057600080fd5b5050600d54600160a060020a031691505082156108fc0283604051600060405180830381858888f193505050501515610db957600080fd5b60008282018381101561154c57fe5b6002546000908190819081908190600160a060020a033081169116638da5cb5b6040518163ffffffff1660e060020a028152600401602060405180830381600087803b151561200557600080fd5b5af1151561201257600080fd5b50505060405180519050600160a060020a031614151561202e57fe5b600160a060020a0388166000908152600a602052604090206001015488906601000000000000900460ff16151561206457600080fd5b866000811161207257600080fd5b600160a060020a038a166000908152600a6020526040902095506120958a611bc6565b600754909550600160a060020a0316634b75f54f6040518163ffffffff1660e060020a028152600401602060405180830381600087803b15156120d757600080fd5b5af115156120e457600080fd5b50505060405180516001880154600160a060020a0390911691506349f9b0f7908a90889063ffffffff168d6040518563ffffffff1660e060020a028152600401808581526020018481526020018363ffffffff1663ffffffff168152602001828152602001945050505050602060405180830381600087803b151561216857600080fd5b5af1151561217557600080fd5b50505060405180519050935061218a84610ea5565b92506121968484611ee3565b9a9950505050505050505050565b60008282028315806121c057508284828115156121bd57fe5b04145b151561154c57fe5b815481835581811511610f4357600083815260209020610f43918101908301612253565b828054828255906000526020600020908101928215612243579160200282015b828111156122435782518254600160a060020a031916600160a060020a03919091161782556020929092019160019091019061220c565b5061224f92915061226d565b5090565b6114e391905b8082111561224f5760008155600101612259565b6114e391905b8082111561224f578054600160a060020a03191681556001016122735600a165627a7a7230582097b5754a6f1cd6483772bdde89879ddd9f932d5c4185b23dd587cdea891ca6310029",
  "source": "pragma solidity ^0.4.18;\nimport './BancorConverter.sol';\nimport './interfaces/IFinancieCore.sol';\nimport './interfaces/IEtherToken.sol';\n\ncontract FinancieBancorConverter is BancorConverter {\n\n    uint32 private constant MAX_FINANCIE_FEE = 1000000;\n\n    IFinancieCore core;\n    address hero_wallet;\n    uint32 financieFee;\n    IERC20Token[] public quickSellPath;\n\n    /**\n        @dev constructor\n\n        @param  _token              smart token governed by the converter\n        @param  _extensions         address of a bancor converter extensions contract\n        @param  _financieFee        maximum conversion fee for financie platform, represented in ppm\n        @param  _connectorToken     optional, initial connector, allows defining the first connector at deployment time\n        @param  _connectorWeight    optional, weight for the initial connector\n    */\n    function FinancieBancorConverter(\n        ISmartToken _token,\n        IEtherToken _etherToken,\n        IERC20Token _connectorToken,\n        address _hero_wallet,\n        IBancorConverterExtensions _extensions,\n        address _core_address,\n        uint32 _financieFee,\n        uint32 _connectorWeight)\n        public\n        BancorConverter(_token, _extensions, 0, _connectorToken, _connectorWeight)\n    {\n        core = IFinancieCore(_core_address);\n        hero_wallet = _hero_wallet;\n        financieFee = _financieFee;\n\n        // when receiving ether, then deposit to ether token -> change to smart token -> change to connector token\n        quickBuyPath.push(_etherToken);\n        quickBuyPath.push(_token);\n        quickBuyPath.push(_connectorToken);\n\n        quickSellPath.push(_connectorToken);\n        quickSellPath.push(_token);\n        quickSellPath.push(_etherToken);\n    }\n\n    function distributeFees(uint256 _feeAmount) private {\n        uint256 feeAmountForTeam = _feeAmount / 2;\n        uint256 feeAmountForHero = safeSub(_feeAmount, feeAmountForTeam);\n        IEtherToken etherToken = IEtherToken(quickBuyPath[0]);\n        etherToken.deposit.value(feeAmountForTeam)();\n        hero_wallet.transfer(feeAmountForHero);\n    }\n\n    function getFinancieFee(uint256 _amount) private view returns (uint256) {\n        return safeMul(_amount, financieFee) / MAX_FINANCIE_FEE;\n    }\n\n    function convert(IERC20Token _fromToken, IERC20Token _toToken, uint256 _amount, uint256 _minReturn) public returns (uint256) {\n        require( _fromToken == quickBuyPath[0] );\n        require( _toToken == quickBuyPath[2] );\n\n        // take fee after conversion for sale\n        IBancorQuickConverter quickConverter = extensions.quickConverter();\n        uint256 result = quickConverter.convertFor.value(_amount)(quickSellPath, _amount, _minReturn, address(this));\n        uint256 feeAmount = getFinancieFee(result);\n        uint256 net = safeSub(result, feeAmount);\n        msg.sender.transfer(net);\n        distributeFees(feeAmount);\n        return feeAmount;\n    }\n\n    /**\n        @dev override\n    */\n    function quickConvert(IERC20Token[] _path, uint256 _amount, uint256 _minReturn)\n        public\n        payable\n        validConversionPath(_path)\n        returns (uint256)\n    {\n        IBancorQuickConverter quickConverter = extensions.quickConverter();\n        uint256 feeAmount = getFinancieFee(_amount);\n        uint256 net = safeSub(_amount, feeAmount);\n        distributeFees(feeAmount);\n        uint256 result = quickConverter.convertFor.value(net)(_path, net, _minReturn, msg.sender);\n\n        core.notifyConvertCards(msg.sender, _path[0], _path[2], _amount, result);\n\n        return result;\n    }\n\n}\n",
  "sourcePath": "/Users/rudo/contracts/solidity/contracts/FinancieBancorConverter.sol",
  "compiler": {
    "name": "solc",
    "version": "0.4.21+commit.dfe3193c.Emscripten.clang"
  },
  "schemaVersion": "2.0.0",
  "updatedAt": "2018-07-11T13:20:47.338Z"
}