{
  "contractName": "FinancieBancorConverter",
  "abi": [
    {
      "constant": false,
      "inputs": [
        {
          "name": "_connectorToken",
          "type": "address"
        },
        {
          "name": "_weight",
          "type": "uint32"
        },
        {
          "name": "_enableVirtualBalance",
          "type": "bool"
        },
        {
          "name": "_virtualBalance",
          "type": "uint256"
        }
      ],
      "name": "updateConnector",
      "outputs": [],
      "payable": false,
      "stateMutability": "nonpayable",
      "type": "function"
    },
    {
      "constant": true,
      "inputs": [
        {
          "name": "",
          "type": "address"
        }
      ],
      "name": "connectors",
      "outputs": [
        {
          "name": "virtualBalance",
          "type": "uint256"
        },
        {
          "name": "weight",
          "type": "uint32"
        },
        {
          "name": "isVirtualBalanceEnabled",
          "type": "bool"
        },
        {
          "name": "isPurchaseEnabled",
          "type": "bool"
        },
        {
          "name": "isSet",
          "type": "bool"
        }
      ],
      "payable": false,
      "stateMutability": "view",
      "type": "function"
    },
    {
      "constant": true,
      "inputs": [
        {
          "name": "",
          "type": "uint256"
        }
      ],
      "name": "connectorTokens",
      "outputs": [
        {
          "name": "",
          "type": "address"
        }
      ],
      "payable": false,
      "stateMutability": "view",
      "type": "function"
    },
    {
      "constant": true,
      "inputs": [
        {
          "name": "",
          "type": "uint256"
        }
      ],
      "name": "quickSellPath",
      "outputs": [
        {
          "name": "",
          "type": "address"
        }
      ],
      "payable": false,
      "stateMutability": "view",
      "type": "function"
    },
    {
      "constant": false,
      "inputs": [
        {
          "name": "_newOwner",
          "type": "address"
        }
      ],
      "name": "transferTokenOwnership",
      "outputs": [],
      "payable": false,
      "stateMutability": "nonpayable",
      "type": "function"
    },
    {
      "constant": false,
      "inputs": [
        {
          "name": "_disable",
          "type": "bool"
        }
      ],
      "name": "disableConversions",
      "outputs": [],
      "payable": false,
      "stateMutability": "nonpayable",
      "type": "function"
    },
    {
      "constant": false,
      "inputs": [
        {
          "name": "_extensions",
          "type": "address"
        }
      ],
      "name": "setExtensions",
      "outputs": [],
      "payable": false,
      "stateMutability": "nonpayable",
      "type": "function"
    },
    {
      "constant": true,
      "inputs": [],
      "name": "extensions",
      "outputs": [
        {
          "name": "",
          "type": "address"
        }
      ],
      "payable": false,
      "stateMutability": "view",
      "type": "function"
    },
    {
      "constant": true,
      "inputs": [
        {
          "name": "_amount",
          "type": "uint256"
        }
      ],
      "name": "getConversionFeeAmount",
      "outputs": [
        {
          "name": "",
          "type": "uint256"
        }
      ],
      "payable": false,
      "stateMutability": "view",
      "type": "function"
    },
    {
      "constant": false,
      "inputs": [],
      "name": "acceptTokenOwnership",
      "outputs": [],
      "payable": false,
      "stateMutability": "nonpayable",
      "type": "function"
    },
    {
      "constant": true,
      "inputs": [],
      "name": "converterType",
      "outputs": [
        {
          "name": "",
          "type": "string"
        }
      ],
      "payable": false,
      "stateMutability": "view",
      "type": "function"
    },
    {
      "constant": false,
      "inputs": [
        {
          "name": "_token",
          "type": "address"
        },
        {
          "name": "_weight",
          "type": "uint32"
        },
        {
          "name": "_enableVirtualBalance",
          "type": "bool"
        }
      ],
      "name": "addConnector",
      "outputs": [],
      "payable": false,
      "stateMutability": "nonpayable",
      "type": "function"
    },
    {
      "constant": false,
      "inputs": [
        {
          "name": "_token",
          "type": "address"
        },
        {
          "name": "_to",
          "type": "address"
        },
        {
          "name": "_amount",
          "type": "uint256"
        }
      ],
      "name": "withdrawFromToken",
      "outputs": [],
      "payable": false,
      "stateMutability": "nonpayable",
      "type": "function"
    },
    {
      "constant": true,
      "inputs": [],
      "name": "newManager",
      "outputs": [
        {
          "name": "",
          "type": "address"
        }
      ],
      "payable": false,
      "stateMutability": "view",
      "type": "function"
    },
    {
      "constant": true,
      "inputs": [],
      "name": "manager",
      "outputs": [
        {
          "name": "",
          "type": "address"
        }
      ],
      "payable": false,
      "stateMutability": "view",
      "type": "function"
    },
    {
      "constant": false,
      "inputs": [],
      "name": "clearQuickBuyPath",
      "outputs": [],
      "payable": false,
      "stateMutability": "nonpayable",
      "type": "function"
    },
    {
      "constant": false,
      "inputs": [
        {
          "name": "_connectorToken",
          "type": "address"
        },
        {
          "name": "_disable",
          "type": "bool"
        }
      ],
      "name": "disableConnectorPurchases",
      "outputs": [],
      "payable": false,
      "stateMutability": "nonpayable",
      "type": "function"
    },
    {
      "constant": true,
      "inputs": [],
      "name": "version",
      "outputs": [
        {
          "name": "",
          "type": "string"
        }
      ],
      "payable": false,
      "stateMutability": "view",
      "type": "function"
    },
    {
      "constant": true,
      "inputs": [],
      "name": "conversionFee",
      "outputs": [
        {
          "name": "",
          "type": "uint32"
        }
      ],
      "payable": false,
      "stateMutability": "view",
      "type": "function"
    },
    {
      "constant": false,
      "inputs": [
        {
          "name": "_token",
          "type": "address"
        },
        {
          "name": "_to",
          "type": "address"
        },
        {
          "name": "_amount",
          "type": "uint256"
        }
      ],
      "name": "withdrawTokens",
      "outputs": [],
      "payable": false,
      "stateMutability": "nonpayable",
      "type": "function"
    },
    {
      "constant": false,
      "inputs": [
        {
          "name": "_fromToken",
          "type": "address"
        },
        {
          "name": "_toToken",
          "type": "address"
        },
        {
          "name": "_amount",
          "type": "uint256"
        },
        {
          "name": "_minReturn",
          "type": "uint256"
        }
      ],
      "name": "change",
      "outputs": [
        {
          "name": "",
          "type": "uint256"
        }
      ],
      "payable": false,
      "stateMutability": "nonpayable",
      "type": "function"
    },
    {
      "constant": false,
      "inputs": [
        {
          "name": "_connectorToken",
          "type": "address"
        },
        {
          "name": "_sellAmount",
          "type": "uint256"
        },
        {
          "name": "_minReturn",
          "type": "uint256"
        }
      ],
      "name": "sell",
      "outputs": [
        {
          "name": "",
          "type": "uint256"
        }
      ],
      "payable": false,
      "stateMutability": "nonpayable",
      "type": "function"
    },
    {
      "constant": true,
      "inputs": [],
      "name": "connectorTokenCount",
      "outputs": [
        {
          "name": "",
          "type": "uint16"
        }
      ],
      "payable": false,
      "stateMutability": "view",
      "type": "function"
    },
    {
      "constant": true,
      "inputs": [
        {
          "name": "_connectorToken",
          "type": "address"
        },
        {
          "name": "_sellAmount",
          "type": "uint256"
        }
      ],
      "name": "getSaleReturn",
      "outputs": [
        {
          "name": "",
          "type": "uint256"
        }
      ],
      "payable": false,
      "stateMutability": "view",
      "type": "function"
    },
    {
      "constant": false,
      "inputs": [
        {
          "name": "_fromToken",
          "type": "address"
        },
        {
          "name": "_toToken",
          "type": "address"
        },
        {
          "name": "_amount",
          "type": "uint256"
        },
        {
          "name": "_minReturn",
          "type": "uint256"
        }
      ],
      "name": "convert",
      "outputs": [
        {
          "name": "",
          "type": "uint256"
        }
      ],
      "payable": false,
      "stateMutability": "nonpayable",
      "type": "function"
    },
    {
      "constant": false,
      "inputs": [],
      "name": "acceptOwnership",
      "outputs": [],
      "payable": false,
      "stateMutability": "nonpayable",
      "type": "function"
    },
    {
      "constant": false,
      "inputs": [
        {
          "name": "_disable",
          "type": "bool"
        }
      ],
      "name": "disableTokenTransfers",
      "outputs": [],
      "payable": false,
      "stateMutability": "nonpayable",
      "type": "function"
    },
    {
      "constant": true,
      "inputs": [],
      "name": "owner",
      "outputs": [
        {
          "name": "",
          "type": "address"
        }
      ],
      "payable": false,
      "stateMutability": "view",
      "type": "function"
    },
    {
      "constant": true,
      "inputs": [],
      "name": "getQuickBuyPathLength",
      "outputs": [
        {
          "name": "",
          "type": "uint256"
        }
      ],
      "payable": false,
      "stateMutability": "view",
      "type": "function"
    },
    {
      "constant": true,
      "inputs": [],
      "name": "maxConversionFee",
      "outputs": [
        {
          "name": "",
          "type": "uint32"
        }
      ],
      "payable": false,
      "stateMutability": "view",
      "type": "function"
    },
    {
      "constant": true,
      "inputs": [
        {
          "name": "_connectorToken",
          "type": "address"
        },
        {
          "name": "_depositAmount",
          "type": "uint256"
        }
      ],
      "name": "getPurchaseReturn",
      "outputs": [
        {
          "name": "",
          "type": "uint256"
        }
      ],
      "payable": false,
      "stateMutability": "view",
      "type": "function"
    },
    {
      "constant": false,
      "inputs": [
        {
          "name": "_connectorToken",
          "type": "address"
        },
        {
          "name": "_depositAmount",
          "type": "uint256"
        },
        {
          "name": "_minReturn",
          "type": "uint256"
        }
      ],
      "name": "buy",
      "outputs": [
        {
          "name": "",
          "type": "uint256"
        }
      ],
      "payable": false,
      "stateMutability": "nonpayable",
      "type": "function"
    },
    {
      "constant": true,
      "inputs": [],
      "name": "convertibleTokenCount",
      "outputs": [
        {
          "name": "",
          "type": "uint16"
        }
      ],
      "payable": false,
      "stateMutability": "view",
      "type": "function"
    },
    {
      "constant": true,
      "inputs": [],
      "name": "conversionsEnabled",
      "outputs": [
        {
          "name": "",
          "type": "bool"
        }
      ],
      "payable": false,
      "stateMutability": "view",
      "type": "function"
    },
    {
      "constant": false,
      "inputs": [],
      "name": "acceptManagement",
      "outputs": [],
      "payable": false,
      "stateMutability": "nonpayable",
      "type": "function"
    },
    {
      "constant": false,
      "inputs": [
        {
          "name": "_path",
          "type": "address[]"
        }
      ],
      "name": "setQuickBuyPath",
      "outputs": [],
      "payable": false,
      "stateMutability": "nonpayable",
      "type": "function"
    },
    {
      "constant": true,
      "inputs": [],
      "name": "newOwner",
      "outputs": [
        {
          "name": "",
          "type": "address"
        }
      ],
      "payable": false,
      "stateMutability": "view",
      "type": "function"
    },
    {
      "constant": true,
      "inputs": [
        {
          "name": "_connectorToken",
          "type": "address"
        }
      ],
      "name": "getConnectorBalance",
      "outputs": [
        {
          "name": "",
          "type": "uint256"
        }
      ],
      "payable": false,
      "stateMutability": "view",
      "type": "function"
    },
    {
      "constant": false,
      "inputs": [
        {
          "name": "_newManager",
          "type": "address"
        }
      ],
      "name": "transferManagement",
      "outputs": [],
      "payable": false,
      "stateMutability": "nonpayable",
      "type": "function"
    },
    {
      "constant": true,
      "inputs": [
        {
          "name": "",
          "type": "uint256"
        }
      ],
      "name": "quickBuyPath",
      "outputs": [
        {
          "name": "",
          "type": "address"
        }
      ],
      "payable": false,
      "stateMutability": "view",
      "type": "function"
    },
    {
      "constant": false,
      "inputs": [
        {
          "name": "_conversionFee",
          "type": "uint32"
        }
      ],
      "name": "setConversionFee",
      "outputs": [],
      "payable": false,
      "stateMutability": "nonpayable",
      "type": "function"
    },
    {
      "constant": false,
      "inputs": [
        {
          "name": "_path",
          "type": "address[]"
        },
        {
          "name": "_amount",
          "type": "uint256"
        },
        {
          "name": "_minReturn",
          "type": "uint256"
        }
      ],
      "name": "quickConvert",
      "outputs": [
        {
          "name": "",
          "type": "uint256"
        }
      ],
      "payable": true,
      "stateMutability": "payable",
      "type": "function"
    },
    {
      "constant": true,
      "inputs": [
        {
          "name": "_tokenIndex",
          "type": "uint16"
        }
      ],
      "name": "convertibleToken",
      "outputs": [
        {
          "name": "",
          "type": "address"
        }
      ],
      "payable": false,
      "stateMutability": "view",
      "type": "function"
    },
    {
      "constant": false,
      "inputs": [
        {
          "name": "_newOwner",
          "type": "address"
        }
      ],
      "name": "transferOwnership",
      "outputs": [],
      "payable": false,
      "stateMutability": "nonpayable",
      "type": "function"
    },
    {
      "constant": true,
      "inputs": [],
      "name": "token",
      "outputs": [
        {
          "name": "",
          "type": "address"
        }
      ],
      "payable": false,
      "stateMutability": "view",
      "type": "function"
    },
    {
      "inputs": [
        {
          "name": "_token",
          "type": "address"
        },
        {
          "name": "_etherToken",
          "type": "address"
        },
        {
          "name": "_connectorToken",
          "type": "address"
        },
        {
          "name": "_hero_wallet",
          "type": "address"
        },
        {
          "name": "_extensions",
          "type": "address"
        },
        {
          "name": "_core_address",
          "type": "address"
        },
        {
          "name": "_financieFee",
          "type": "uint32"
        },
        {
          "name": "_connectorWeight",
          "type": "uint32"
        }
      ],
      "payable": false,
      "stateMutability": "nonpayable",
      "type": "constructor"
    },
    {
      "payable": true,
      "stateMutability": "payable",
      "type": "fallback"
    },
    {
      "anonymous": false,
      "inputs": [
        {
          "indexed": true,
          "name": "_fromToken",
          "type": "address"
        },
        {
          "indexed": true,
          "name": "_toToken",
          "type": "address"
        },
        {
          "indexed": true,
          "name": "_trader",
          "type": "address"
        },
        {
          "indexed": false,
          "name": "_amount",
          "type": "uint256"
        },
        {
          "indexed": false,
          "name": "_return",
          "type": "uint256"
        },
        {
          "indexed": false,
          "name": "_conversionFee",
          "type": "int256"
        },
        {
          "indexed": false,
          "name": "_currentPriceN",
          "type": "uint256"
        },
        {
          "indexed": false,
          "name": "_currentPriceD",
          "type": "uint256"
        }
      ],
      "name": "Conversion",
      "type": "event"
    },
    {
      "anonymous": false,
      "inputs": [
        {
          "indexed": false,
          "name": "_prevFee",
          "type": "uint32"
        },
        {
          "indexed": false,
          "name": "_newFee",
          "type": "uint32"
        }
      ],
      "name": "ConversionFeeUpdate",
      "type": "event"
    },
    {
      "anonymous": false,
      "inputs": [
        {
          "indexed": true,
          "name": "_prevManager",
          "type": "address"
        },
        {
          "indexed": true,
          "name": "_newManager",
          "type": "address"
        }
      ],
      "name": "ManagerUpdate",
      "type": "event"
    },
    {
      "anonymous": false,
      "inputs": [
        {
          "indexed": true,
          "name": "_prevOwner",
          "type": "address"
        },
        {
          "indexed": true,
          "name": "_newOwner",
          "type": "address"
        }
      ],
      "name": "OwnerUpdate",
      "type": "event"
    },
    {
      "constant": true,
      "inputs": [],
      "name": "getVersion",
      "outputs": [
        {
          "name": "",
          "type": "uint256"
        }
      ],
      "payable": false,
      "stateMutability": "view",
      "type": "function"
    },
    {
      "constant": false,
      "inputs": [
        {
          "name": "_amount",
          "type": "uint256"
        },
        {
          "name": "_minReturn",
          "type": "uint256"
        }
      ],
      "name": "sellCards",
      "outputs": [
        {
          "name": "",
          "type": "uint256"
        }
      ],
      "payable": false,
      "stateMutability": "nonpayable",
      "type": "function"
    },
    {
      "constant": false,
      "inputs": [
        {
          "name": "_amount",
          "type": "uint256"
        },
        {
          "name": "_minReturn",
          "type": "uint256"
        }
      ],
      "name": "buyCards",
      "outputs": [
        {
          "name": "",
          "type": "uint256"
        }
      ],
      "payable": true,
      "stateMutability": "payable",
      "type": "function"
    },
    {
      "constant": true,
      "inputs": [
        {
          "name": "_fromToken",
          "type": "address"
        },
        {
          "name": "_toToken",
          "type": "address"
        },
        {
          "name": "_amount",
          "type": "uint256"
        }
      ],
      "name": "getReturn",
      "outputs": [
        {
          "name": "",
          "type": "uint256"
        }
      ],
      "payable": false,
      "stateMutability": "view",
      "type": "function"
    }
  ],
  "bytecode": "0x606060405260408051908101604052600381527f302e370000000000000000000000000000000000000000000000000000000000602082015260059080516200004d92916020019062000632565b506040805190810160405260068082527f62616e636f72000000000000000000000000000000000000000000000000000060208301529080516200009692916020019062000632565b50600b80546001606860020a0319166c010000000000000000000000001790553415620000c257600080fd5b604051610100806200386b833981016040528080519190602001805191906020018051919060200180519190602001805191906020018051919060200180519190602001805160008054600160a060020a03191633600160a060020a039081169190911782559193508a925086918990859085908190811615156200014657600080fd5b5060028054600160a060020a0319908116600160a060020a0393841617909155600380549091163383161790558490811615156200018357600080fd5b8360008163ffffffff1610158015620001a55750620f424063ffffffff821611155b1515620001b157600080fd5b60078054600160a060020a031916600160a060020a0388811691909117909155600b805467ffffffff00000000191664010000000063ffffffff8916021790558416156200021557620002158484600064010000000062000e54620003e582021704565b5050600c8054600160a060020a03808b16600160a060020a031992831617909255600d805463ffffffff8b16740100000000000000000000000000000000000000000260a060020a63ffffffff0219948f16919093161792909216179055505060098054909350915050600181016200028f8382620006b7565b5060009182526020909120018054600160a060020a031916600160a060020a0389161790556009805460018101620002c88382620006b7565b5060009182526020909120018054600160a060020a031916600160a060020a038a161790556009805460018101620003018382620006b7565b5060009182526020909120018054600160a060020a031916600160a060020a038816179055600e8054600181016200033a8382620006b7565b5060009182526020909120018054600160a060020a031916600160a060020a038816179055600e805460018101620003738382620006b7565b5060009182526020909120018054600160a060020a031916600160a060020a038a16179055600e805460018101620003ac8382620006b7565b5060009182526020909120018054600160a060020a031916600160a060020a039890981697909717909655506200070395505050505050565b60005433600160a060020a03908116911614620003fe57fe5b600254600160a060020a033081169116638da5cb5b6040518163ffffffff167c0100000000000000000000000000000000000000000000000000000000028152600401602060405180830381600087803b15156200045b57600080fd5b5af115156200046957600080fd5b50505060405180519050600160a060020a0316141515156200048757fe5b82600160a060020a03811615156200049e57600080fd5b8330600160a060020a031681600160a060020a031614151515620004c157600080fd5b8360008163ffffffff16118015620004e25750620f424063ffffffff821611155b1515620004ee57600080fd5b600254600160a060020a03878116911614801590620005335750600160a060020a0386166000908152600a60205260409020600101546601000000000000900460ff16155b8015620005525750600b54620f424063ffffffff918216870190911611155b15156200055e57600080fd5b600160a060020a0386166000908152600a602052604081209081556001908101805466010000000000006501000000000063ffffffff1990921663ffffffff8a161764ff000000001916640100000000891515021765ff000000000019169190911766ff00000000000019161790556008805490918101620005e18382620006b7565b5060009182526020909120018054600160a060020a031916600160a060020a0397909716969096179095555050600b805463ffffffff19811663ffffffff9182169490940116929092179091555050565b828054600181600116156101000203166002900490600052602060002090601f016020900481019282601f106200067557805160ff1916838001178555620006a5565b82800160010185558215620006a5579182015b82811115620006a557825182559160200191906001019062000688565b50620006b3929150620006e3565b5090565b815481835581811511620006de57600083815260209020620006de918101908301620006e3565b505050565b6200070091905b80821115620006b35760008155600101620006ea565b90565b61315880620007136000396000f3006060604052600436106102375763ffffffff60e060020a6000350416630ca7892381146102395780630d8e6e2c146102695780630e53aae91461028e57806319b64015146102e95780631a4c298f1461031b5780631e1401f81461033157806321e6b53d14610359578063228d2820146103785780632314aad61461039057806324f159c2146103af5780632a3c2c56146103c257806338a5e016146103d85780633e8ff43f146103eb5780633f4d2fc21461047557806341a5b33d146104a257806342906029146104ca578063481c6a75146104dd5780634e2280c4146104f0578063514385be1461050357806354fd4d5014610527578063579cd3ca1461053a5780635e35359e146105665780635e5144eb1461058e5780636a272462146105b957806371f52bf3146105de57806372b44b2c1461060857806375892cf11461062a57806379ba50971461065557806385d5e631146106685780638da5cb5b146106805780639396a7f01461069357806394c275ad146106a65780639a5c0abc146106b9578063a2c4c336146106d2578063a59ac6dd146106f4578063ae5fe1f214610719578063ba9a8b3714610727578063bf7545581461073a578063c8c2fe6c14610761578063d395ee0f14610774578063d4ee1d90146107c3578063d8959512146107d6578063e4edf852146107f5578063e7ee85a514610814578063ecbca55d1461082a578063f0843ba914610846578063f2c8d24714610891578063f2fde38b146108ab578063fc0c546a146108ca575b005b341561024457600080fd5b610237600160a060020a036004351663ffffffff6024351660443515156064356108dd565b341561027457600080fd5b61027c6109f1565b60405190815260200160405180910390f35b341561029957600080fd5b6102ad600160a060020a03600435166109f7565b60405194855263ffffffff90931660208501529015156040808501919091529015156060840152901515608083015260a0909101905180910390f35b34156102f457600080fd5b6102ff600435610a3d565b604051600160a060020a03909116815260200160405180910390f35b341561032657600080fd5b6102ff600435610a65565b341561033c57600080fd5b61027c600160a060020a0360043581169060243516604435610a73565b341561036457600080fd5b610237600160a060020a0360043516610bb2565b341561038357600080fd5b6102376004351515610c2d565b341561039b57600080fd5b610237600160a060020a0360043516610c90565b34156103ba57600080fd5b6102ff610d04565b34156103cd57600080fd5b61027c600435610d13565b34156103e357600080fd5b610237610d4d565b34156103f657600080fd5b6103fe610db6565b60405160208082528190810183818151815260200191508051906020019080838360005b8381101561043a578082015183820152602001610422565b50505050905090810190601f1680156104675780820380516001836020036101000a031916815260200191505b509250505060405180910390f35b341561048057600080fd5b610237600160a060020a036004351663ffffffff602435166044351515610e54565b34156104ad57600080fd5b610237600160a060020a036004358116906024351660443561107b565b34156104d557600080fd5b6102ff61110b565b34156104e857600080fd5b6102ff61111a565b34156104fb57600080fd5b610237611129565b341561050e57600080fd5b610237600160a060020a03600435166024351515611151565b341561053257600080fd5b6103fe6111da565b341561054557600080fd5b61054d611245565b60405163ffffffff909116815260200160405180910390f35b341561057157600080fd5b610237600160a060020a036004358116906024351660443561125d565b341561059957600080fd5b61027c600160a060020a0360043581169060243516604435606435611336565b34156105c457600080fd5b61027c600160a060020a036004351660243560443561134d565b34156105e957600080fd5b6105f161167a565b60405161ffff909116815260200160405180910390f35b341561061357600080fd5b61027c600160a060020a0360043516602435611680565b341561063557600080fd5b61027c600160a060020a03600435811690602435166044356064356116ed565b341561066057600080fd5b610237611777565b341561067357600080fd5b61023760043515156117f8565b341561068b57600080fd5b6102ff611858565b341561069e57600080fd5b61027c611867565b34156106b157600080fd5b61054d61186d565b34156106c457600080fd5b61027c600435602435611881565b34156106dd57600080fd5b61027c600160a060020a0360043516602435611a28565b34156106ff57600080fd5b61027c600160a060020a0360043516602435604435611c7d565b61027c600435602435611ebd565b341561073257600080fd5b6105f161202a565b341561074557600080fd5b61074d61203c565b604051901515815260200160405180910390f35b341561076c57600080fd5b610237612055565b341561077f57600080fd5b61023760046024813581810190830135806020818102016040519081016040528093929190818152602001838360200280828437509496506120d695505050505050565b34156107ce57600080fd5b6102ff612139565b34156107e157600080fd5b61027c600160a060020a0360043516612148565b341561080057600080fd5b610237600160a060020a0360043516612224565b341561081f57600080fd5b6102ff600435612279565b341561083557600080fd5b61023763ffffffff60043516612287565b61027c60046024813581810190830135806020818102016040519081016040528093929190818152602001838360200280828437509496505084359460200135935061237d92505050565b341561089c57600080fd5b6102ff61ffff6004351661266c565b34156108b657600080fd5b610237600160a060020a03600435166126bc565b34156108d557600080fd5b6102ff612711565b6000805433600160a060020a039081169116146108f657fe5b600160a060020a0385166000908152600a602052604090206001015485906601000000000000900460ff16151561092c57600080fd5b8460008163ffffffff1611801561094c5750620f424063ffffffff821611155b151561095757600080fd5b600160a060020a0387166000908152600a602052604090206001810154600b54919450620f424063ffffffff91821692821692909203880116111561099b57600080fd5b5050600181018054600b805463ffffffff928316818416038801831663ffffffff199182161790915582549515156401000000000264ff0000000019929097169516949094179390931693909317909155905550565b60045b90565b600a602052600090815260409020805460019091015463ffffffff81169060ff640100000000820481169165010000000000810482169166010000000000009091041685565b6008805482908110610a4b57fe5b600091825260209091200154600160a060020a0316905081565b600e805482908110610a4b57fe5b600080600e6000815481101515610a8657fe5b600091825260209091200154600160a060020a0386811691161480610ad05750600980546000908110610ab557fe5b600091825260209091200154600160a060020a038681169116145b1515610adb57600080fd5b600e80546002908110610aea57fe5b600091825260209091200154600160a060020a0385811691161480610b345750600980546002908110610b1957fe5b600091825260209091200154600160a060020a038581169116145b1515610b3f57600080fd5b600e80546000908110610b4e57fe5b600091825260209091200154600160a060020a0386811691161415610b9357610b78858585612720565b9050610b8c81610b87836127f6565b61282a565b9150610baa565b610b8c8585610ba586610b87886127f6565b612720565b509392505050565b60005433600160a060020a03908116911614610bca57fe5b600254600160a060020a031663f2fde38b8260405160e060020a63ffffffff8416028152600160a060020a039091166004820152602401600060405180830381600087803b1515610c1a57600080fd5b5af11515610c2757600080fd5b50505050565b60005433600160a060020a0390811691161480610c58575060035433600160a060020a039081169116145b1515610c6357600080fd5b600b80546cff000000000000000000000000191691156c0100000000000000000000000002919091179055565b60005433600160a060020a03908116911614610ca857fe5b80600160a060020a0381161515610cbe57600080fd5b8130600160a060020a031681600160a060020a031614151515610ce057600080fd5b505060078054600160a060020a031916600160a060020a0392909216919091179055565b600754600160a060020a031681565b600b54600090620f424090610d3b90849068010000000000000000900463ffffffff1661283c565b811515610d4457fe5b0490505b919050565b60005433600160a060020a03908116911614610d6557fe5b600254600160a060020a03166379ba50976040518163ffffffff1660e060020a028152600401600060405180830381600087803b1515610da457600080fd5b5af11515610db157600080fd5b505050565b60068054600181600116156101000203166002900480601f016020809104026020016040519081016040528092919081815260200182805460018160011615610100020316600290048015610e4c5780601f10610e2157610100808354040283529160200191610e4c565b820191906000526020600020905b815481529060010190602001808311610e2f57829003601f168201915b505050505081565b60005433600160a060020a03908116911614610e6c57fe5b600254600160a060020a033081169116638da5cb5b6040518163ffffffff1660e060020a028152600401602060405180830381600087803b1515610eaf57600080fd5b5af11515610ebc57600080fd5b50505060405180519050600160a060020a031614151515610ed957fe5b82600160a060020a0381161515610eef57600080fd5b8330600160a060020a031681600160a060020a031614151515610f1157600080fd5b8360008163ffffffff16118015610f315750620f424063ffffffff821611155b1515610f3c57600080fd5b600254600160a060020a03878116911614801590610f805750600160a060020a0386166000908152600a60205260409020600101546601000000000000900460ff16155b8015610f9e5750600b54620f424063ffffffff918216870190911611155b1515610fa957600080fd5b600160a060020a0386166000908152600a602052604081209081556001908101805466010000000000006501000000000063ffffffff1990921663ffffffff8a161764ff000000001916640100000000891515021765ff000000000019169190911766ff0000000000001916179055600880549091810161102a8382613063565b5060009182526020909120018054600160a060020a031916600160a060020a0397909716969096179095555050600b805463ffffffff19811663ffffffff9182169490940116929092179091555050565b60005433600160a060020a0390811691161461109357fe5b600254600160a060020a0316635e35359e84848460405160e060020a63ffffffff8616028152600160a060020a0393841660048201529190921660248201526044810191909152606401600060405180830381600087803b15156110f657600080fd5b5af1151561110357600080fd5b505050505050565b600454600160a060020a031681565b600354600160a060020a031681565b60005433600160a060020a0390811691161461114157fe5b600061114e600982613063565b50565b60005433600160a060020a0390811691161461116957fe5b600160a060020a0382166000908152600a602052604090206001015482906601000000000000900460ff16151561119f57600080fd5b50600160a060020a03919091166000908152600a60205260409020600101805465ff0000000000191691156501000000000002919091179055565b60058054600181600116156101000203166002900480601f016020809104026020016040519081016040528092919081815260200182805460018160011615610100020316600290048015610e4c5780601f10610e2157610100808354040283529160200191610e4c565b600b5468010000000000000000900463ffffffff1681565b60005433600160a060020a0390811691161461127557fe5b82600160a060020a038116151561128b57600080fd5b82600160a060020a03811615156112a157600080fd5b8330600160a060020a031681600160a060020a0316141515156112c357600080fd5b85600160a060020a031663a9059cbb868660405160e060020a63ffffffff8516028152600160a060020a0390921660048301526024820152604401602060405180830381600087803b151561131757600080fd5b5af1151561132457600080fd5b50505060405180519050151561110357fe5b6000611344858585856116ed565b95945050505050565b6000806000806000600b600c9054906101000a900460ff16151561136d57fe5b600754600160a060020a031663961a929c6040518163ffffffff1660e060020a028152600401602060405180830381600087803b15156113ac57600080fd5b5af115156113b957600080fd5b50505060405180519050600160a060020a031663fe173b976040518163ffffffff1660e060020a028152600401602060405180830381600087803b15156113ff57600080fd5b5af1151561140c57600080fd5b50505060405180513a1115905061141f57fe5b856000811161142d57600080fd5b600254600160a060020a03166370a082313360405160e060020a63ffffffff8416028152600160a060020a039091166004820152602401602060405180830381600087803b151561147d57600080fd5b5af1151561148a57600080fd5b505050604051805189111590506114a057600080fd5b6114aa8989611680565b945084158015906114bb5750868510155b15156114c657600080fd5b600254600160a060020a03166318160ddd6040518163ffffffff1660e060020a028152600401602060405180830381600087803b151561150557600080fd5b5af1151561151257600080fd5b50505060405180519050935061152789612148565b9250828510806115405750828514801561154057508388145b151561154857fe5b600160a060020a0389166000908152600a602052604090206001810154909250640100000000900460ff1615611587578154611584908661282a565b82555b600254600160a060020a031663a24835d1338a60405160e060020a63ffffffff8516028152600160a060020a0390921660048301526024820152604401600060405180830381600087803b15156115dd57600080fd5b5af115156115ea57600080fd5b50505088600160a060020a031663a9059cbb338760405160e060020a63ffffffff8516028152600160a060020a0390921660048301526024820152604401602060405180830381600087803b151561164157600080fd5b5af1151561164e57600080fd5b50505060405180519050151561166057fe5b61166d8989876000612860565b5092979650505050505050565b60085490565b6002546000906116e69084908490600160a060020a03166318160ddd6040518163ffffffff1660e060020a028152600401602060405180830381600087803b15156116ca57600080fd5b5af115156116d757600080fd5b50505060405180519050612b1b565b9392505050565b600080600160a060020a03868116908616141561170957600080fd5b600254600160a060020a03868116911614156117315761172a868585611c7d565b915061176e565b600254600160a060020a03878116911614156117525761172a85858561134d565b61175e86856001611c7d565b905061176b85828561134d565b91505b50949350505050565b60015433600160a060020a0390811691161461179257600080fd5b600154600054600160a060020a0391821691167f343765429aea5a34b3ff6a3785a98a5abb2597aca87bfbb58632c173d585373a60405160405180910390a36001805460008054600160a060020a0319908116600160a060020a03841617909155169055565b60005433600160a060020a0390811691161461181057fe5b600254600160a060020a0316631608f18f8260405160e060020a63ffffffff84160281529015156004820152602401600060405180830381600087803b1515610c1a57600080fd5b600054600160a060020a031681565b60095490565b600b54640100000000900463ffffffff1681565b6000806000806118ee600e8054806020026020016040519081016040528092919081815260200182805480156118e057602002820191906000526020600020905b8154600160a060020a031681526001909101906020018083116118c2575b505050505087600130612d08565b92506118f9836127f6565b9150611905838361282a565b905061191082612fa1565b600160a060020a03331681156108fc0282604051600060405180830381858888f19350505050151561194157600080fd5b600c54600e8054600160a060020a039092169163c2999e1c913391600090811061196757fe5b600091825260209091200154600e8054600160a060020a0390921691600290811061198e57fe5b600091825260209091200154600160a060020a03168a8660405160e060020a63ffffffff8816028152600160a060020a03958616600482015293851660248501529190931660448301526064820192909252608481019190915260a401600060405180830381600087803b1515611a0457600080fd5b5af11515611a1157600080fd5b50505084831015611a1e57fe5b5090949350505050565b60025460009081908190819081908190600160a060020a033081169116638da5cb5b6040518163ffffffff1660e060020a028152600401602060405180830381600087803b1515611a7857600080fd5b5af11515611a8557600080fd5b50505060405180519050600160a060020a0316141515611aa157fe5b600160a060020a0388166000908152600a602052604090206001015488906601000000000000900460ff161515611ad757600080fd5b600160a060020a0389166000908152600a60205260409020600181015490965065010000000000900460ff161515611b0e57600080fd5b600254600160a060020a03166318160ddd6040518163ffffffff1660e060020a028152600401602060405180830381600087803b1515611b4d57600080fd5b5af11515611b5a57600080fd5b505050604051805190509450611b6f89612148565b600754909450600160a060020a0316634b75f54f6040518163ffffffff1660e060020a028152600401602060405180830381600087803b1515611bb157600080fd5b5af11515611bbe57600080fd5b50505060405180516001880154600160a060020a0390911691506329a00e7c908790879063ffffffff168c6040518563ffffffff1660e060020a028152600401808581526020018481526020018363ffffffff1663ffffffff168152602001828152602001945050505050602060405180830381600087803b1515611c4257600080fd5b5af11515611c4f57600080fd5b505050604051805190509250611c6483610d13565b9150611c70838361282a565b9998505050505050505050565b6000806000600b600c9054906101000a900460ff161515611c9a57fe5b600754600160a060020a031663961a929c6040518163ffffffff1660e060020a028152600401602060405180830381600087803b1515611cd957600080fd5b5af11515611ce657600080fd5b50505060405180519050600160a060020a031663fe173b976040518163ffffffff1660e060020a028152600401602060405180830381600087803b1515611d2c57600080fd5b5af11515611d3957600080fd5b50505060405180513a11159050611d4c57fe5b8360008111611d5a57600080fd5b611d648787611a28565b92508215801590611d755750848310155b1515611d8057600080fd5b600160a060020a0387166000908152600a602052604090206001810154909250640100000000900460ff1615611dbf578154611dbc9087613054565b82555b86600160a060020a03166323b872dd33308960405160e060020a63ffffffff8616028152600160a060020a0393841660048201529190921660248201526044810191909152606401602060405180830381600087803b1515611e2057600080fd5b5af11515611e2d57600080fd5b505050604051805190501515611e3f57fe5b600254600160a060020a031663867904b4338560405160e060020a63ffffffff8516028152600160a060020a0390921660048301526024820152604401600060405180830381600087803b1515611e9557600080fd5b5af11515611ea257600080fd5b505050611eb28787856001612860565b509095945050505050565b600080600080611ecc866127f6565b9250611ed8868461282a565b9150611ee383612fa1565b611f4a6009805480602002602001604051908101604052809291908181526020018280548015611f3c57602002820191906000526020600020905b8154600160a060020a03168152600190910190602001808311611f1e575b505050505083600133612d08565b600c5460098054929350600160a060020a039091169163c2999e1c9133916000908110611f7357fe5b60009182526020909120015460098054600160a060020a03909216916002908110611f9a57fe5b600091825260209091200154600160a060020a03168a8660405160e060020a63ffffffff8816028152600160a060020a03958616600482015293851660248501529190931660448301526064820192909252608481019190915260a401600060405180830381600087803b151561201057600080fd5b5af1151561201d57600080fd5b5050508481101561134457fe5b600061203461167a565b600101905090565b600b546c01000000000000000000000000900460ff1681565b60045433600160a060020a0390811691161461207057600080fd5b600454600354600160a060020a0391821691167fbe4cc281795971a471c980e842627a7f1ea3892ddfce8c5b6357cd2611c1973260405160405180910390a36004805460038054600160a060020a0319908116600160a060020a03841617909155169055565b60005433600160a060020a039081169116146120ee57fe5b806002815111801561210257506015815111155b801561211b57506002815181151561211657fe5b066001145b151561212657600080fd5b6009828051610db1929160200190613087565b600154600160a060020a031681565b600160a060020a0381166000908152600a6020526040812060010154819083906601000000000000900460ff16151561218057600080fd5b600160a060020a0384166000908152600a602052604090206001810154909250640100000000900460ff166122195783600160a060020a03166370a082313060405160e060020a63ffffffff8416028152600160a060020a039091166004820152602401602060405180830381600087803b15156121fd57600080fd5b5af1151561220a57600080fd5b5050506040518051905061221c565b81545b949350505050565b60035433600160a060020a0390811691161461223c57fe5b600354600160a060020a038281169116141561225757600080fd5b60048054600160a060020a031916600160a060020a0392909216919091179055565b6009805482908110610a4b57fe5b60005433600160a060020a03908116911614806122b2575060035433600160a060020a039081169116145b15156122bd57600080fd5b8060008163ffffffff16101580156122e95750600b5463ffffffff640100000000909104811690821611155b15156122f457600080fd5b600b547f81cd2ffb37dd237c0e4e2a3de5265fcf9deb43d3e7801e80db9f1ccfba7ee6009068010000000000000000900463ffffffff168360405163ffffffff9283168152911660208201526040908101905180910390a150600b805463ffffffff90921668010000000000000000026bffffffff000000000000000019909216919091179055565b6000806000856002815111801561239657506015815111155b80156123af5750600281518115156123aa57fe5b066001145b15156123ba57600080fd5b866000815181106123c757fe5b90602001906020020151600754909350600160a060020a031663c31e05476040518163ffffffff1660e060020a028152600401602060405180830381600087803b151561241357600080fd5b5af1151561242057600080fd5b505050604051805192505034151561259a57600254600160a060020a038481169116141561251a57600254600160a060020a031663a24835d1338860405160e060020a63ffffffff8516028152600160a060020a0390921660048301526024820152604401600060405180830381600087803b151561249e57600080fd5b5af115156124ab57600080fd5b5050600254600160a060020a0316905063867904b4838860405160e060020a63ffffffff8516028152600160a060020a0390921660048301526024820152604401600060405180830381600087803b151561250557600080fd5b5af1151561251257600080fd5b50505061259a565b82600160a060020a03166323b872dd33848960405160e060020a63ffffffff8616028152600160a060020a0393841660048201529190921660248201526044810191909152606401602060405180830381600087803b151561257b57600080fd5b5af1151561258857600080fd5b50505060405180519050151561259a57fe5b81600160a060020a031663c98fefed34898989336040518663ffffffff1660e060020a028152600401808060200185815260200184815260200183600160a060020a0316600160a060020a03168152602001828103825286818151815260200191508051906020019060200280838360005b8381101561262457808201518382015260200161260c565b50505050905001955050505050506020604051808303818588803b151561264a57600080fd5b5af1151561265757600080fd5b50505050604051805198975050505050505050565b600061ffff8216151561268b5750600254600160a060020a0316610d48565b6008805461ffff6000198501169081106126a157fe5b600091825260209091200154600160a060020a031692915050565b60005433600160a060020a039081169116146126d457fe5b600054600160a060020a03828116911614156126ef57600080fd5b60018054600160a060020a031916600160a060020a0392909216919091179055565b600254600160a060020a031681565b600080600160a060020a03858116908516141561273c57600080fd5b600254600160a060020a038581169116141561275c57610b8c8584611a28565b600254600160a060020a038681169116141561277c57610b8c8484611680565b6127868584611a28565b60025490915061134490859083906127f190600160a060020a03166318160ddd6040518163ffffffff1660e060020a028152600401602060405180830381600087803b15156127d457600080fd5b5af115156127e157600080fd5b5050506040518051905085613054565b612b1b565b600d54600090620f424090610d3b90849074010000000000000000000000000000000000000000900463ffffffff1661283c565b60008183101561283657fe5b50900390565b6000828202831580612858575082848281151561285557fe5b04145b15156116e657fe5b600160a060020a0384166000908152600a6020526040812090808080806128926128898b612148565b620f424061283c565b60025490955061290090600160a060020a03166318160ddd6040518163ffffffff1660e060020a028152600401602060405180830381600087803b15156128d857600080fd5b5af115156128e557600080fd5b5050506040518051600189015490915063ffffffff1661283c565b600254909450600160a060020a031663313ce5676040518163ffffffff1660e060020a028152600401602060405180830381600087803b151561294257600080fd5b5af1151561294f57600080fd5b5050506040518051935050600160a060020a038a1663313ce5676040518163ffffffff1660e060020a028152600401602060405180830381600087803b151561299757600080fd5b5af115156129a457600080fd5b505050604051805192505060ff838116908316146129f8578160ff168360ff1611156129e3576129dc8583850360ff16600a0a61283c565b94506129f8565b6129f58484840360ff16600a0a61283c565b93505b612a0188610d13565b90507f8000000000000000000000000000000000000000000000000000000000000000811115612a2d57fe5b8615612aa357600254600160a060020a03338116918116908c167fcee13e282037fd063de72c4cf7955988112510b046cda38c12c47862c1785e7b8c8c868b8b604051808681526020018581526020018481526020018381526020018281526020019550505050505060405180910390a4612b0f565b600254600160a060020a03338116918c821691167fcee13e282037fd063de72c4cf7955988112510b046cda38c12c47862c1785e7b8c8c868a8c604051808681526020018581526020018481526020018381526020018281526020019550505050505060405180910390a45b50505050505050505050565b6002546000908190819081908190600160a060020a033081169116638da5cb5b6040518163ffffffff1660e060020a028152600401602060405180830381600087803b1515612b6957600080fd5b5af11515612b7657600080fd5b50505060405180519050600160a060020a0316141515612b9257fe5b600160a060020a0388166000908152600a602052604090206001015488906601000000000000900460ff161515612bc857600080fd5b8660008111612bd657600080fd5b600160a060020a038a166000908152600a602052604090209550612bf98a612148565b600754909550600160a060020a0316634b75f54f6040518163ffffffff1660e060020a028152600401602060405180830381600087803b1515612c3b57600080fd5b5af11515612c4857600080fd5b50505060405180516001880154600160a060020a0390911691506349f9b0f7908a90889063ffffffff168d6040518563ffffffff1660e060020a028152600401808581526020018481526020018363ffffffff1663ffffffff168152602001828152602001945050505050602060405180830381600087803b1515612ccc57600080fd5b5af11515612cd957600080fd5b505050604051805190509350612cee84610d13565b9250612cfa848461282a565b9a9950505050505050505050565b60008060008660028151118015612d2157506015815111155b8015612d3a575060028151811515612d3557fe5b066001145b1515612d4557600080fd5b87600081518110612d5257fe5b90602001906020020151600754909350600160a060020a031663c31e05476040518163ffffffff1660e060020a028152600401602060405180830381600087803b1515612d9e57600080fd5b5af11515612dab57600080fd5b5050506040518051925050341515612f0d5782600160a060020a03166323b872dd33848a60405160e060020a63ffffffff8616028152600160a060020a0393841660048201529190921660248201526044810191909152606401602060405180830381600087803b1515612e1e57600080fd5b5af11515612e2b57600080fd5b505050604051805190501515612e3d57fe5b81600160a060020a031663c98fefed60008a8a8a8a6040518663ffffffff1660e060020a028152600401808060200185815260200184815260200183600160a060020a0316600160a060020a03168152602001828103825286818151815260200191508051906020019060200280838360005b83811015612ec8578082015183820152602001612eb0565b50505050905001955050505050506020604051808303818588803b1515612eee57600080fd5b5af11515612efb57600080fd5b50505050604051805190509350612f96565b81600160a060020a031663c98fefed888a8a8a8a6040518663ffffffff1660e060020a028152600401808060200185815260200184815260200183600160a060020a0316600160a060020a031681526020018281038252868181518152602001915080519060200190602002808383600083811015612ec8578082015183820152602001612eb0565b505050949350505050565b60028104600080612fb2848461282a565b915060096000815481101515612fc457fe5b600091825260209091200154600160a060020a031690508063d0e30db0846040518263ffffffff1660e060020a0281526004016000604051808303818588803b151561300f57600080fd5b5af1151561301c57600080fd5b5050600d54600160a060020a031691505082156108fc0283604051600060405180830381858888f193505050501515610c2757600080fd5b6000828201838110156116e657fe5b815481835581811511610db157600083815260209020610db19181019083016130ee565b8280548282559060005260206000209081019282156130de579160200282015b828111156130de5782518254600160a060020a031916600160a060020a0391909116178255602092909201916001909101906130a7565b506130ea929150613108565b5090565b6109f491905b808211156130ea57600081556001016130f4565b6109f491905b808211156130ea578054600160a060020a031916815560010161310e5600a165627a7a72305820d3124b1c576427dac8a81e5051b235383cbcb23a2e2e6b17c96e33f3d3d580a20029",
  "source": "pragma solidity ^0.4.18;\nimport '../BancorConverter.sol';\nimport '../interfaces/IFinancieCore.sol';\nimport '../interfaces/IEtherToken.sol';\n\ncontract FinancieBancorConverter is BancorConverter {\n\n    uint32 private constant MAX_FINANCIE_FEE = 1000000;\n\n    IFinancieCore core;\n    address hero_wallet;\n    uint32 financieFee;\n    IERC20Token[] public quickSellPath;\n\n    /**\n        @dev constructor\n\n        @param  _token              smart token governed by the converter\n        @param  _extensions         address of a bancor converter extensions contract\n        @param  _financieFee        maximum conversion fee for financie platform, represented in ppm\n        @param  _connectorToken     optional, initial connector, allows defining the first connector at deployment time\n        @param  _connectorWeight    optional, weight for the initial connector\n    */\n    function FinancieBancorConverter(\n        ISmartToken _token,\n        IEtherToken _etherToken,\n        IERC20Token _connectorToken,\n        address _hero_wallet,\n        IBancorConverterExtensions _extensions,\n        address _core_address,\n        uint32 _financieFee,\n        uint32 _connectorWeight)\n        public\n        BancorConverter(_token, _extensions, 0, _connectorToken, _connectorWeight)\n    {\n        core = IFinancieCore(_core_address);\n        hero_wallet = _hero_wallet;\n        financieFee = _financieFee;\n\n        // when receiving ether, then deposit to ether token -> change to smart token -> change to connector token\n        quickBuyPath.push(_etherToken);\n        quickBuyPath.push(_token);\n        quickBuyPath.push(_connectorToken);\n\n        quickSellPath.push(_connectorToken);\n        quickSellPath.push(_token);\n        quickSellPath.push(_etherToken);\n    }\n\n    function distributeFees(uint256 _feeAmount) private {\n        uint256 feeAmountForTeam = _feeAmount / 2;\n        uint256 feeAmountForHero = safeSub(_feeAmount, feeAmountForTeam);\n        IEtherToken etherToken = IEtherToken(quickBuyPath[0]);\n        etherToken.deposit.value(feeAmountForTeam)();\n        hero_wallet.transfer(feeAmountForHero);\n    }\n\n    function getFinancieFee(uint256 _amount) private view returns (uint256) {\n        return safeMul(_amount, financieFee) / MAX_FINANCIE_FEE;\n    }\n\n    function getVersion() public view returns (uint256) {\n        return 4;\n    }\n\n    /**\n\n    */\n    function sellCards(uint256 _amount, uint256 _minReturn) public returns (uint256) {\n        uint256 result = quickConvertInternal(quickSellPath, _amount, 1, this);\n\n        uint256 feeAmount = getFinancieFee(result);\n        uint256 net = safeSub(result, feeAmount);\n        distributeFees(feeAmount);\n\n        msg.sender.transfer(net);\n\n        core.notifyConvertCards(msg.sender, address(quickSellPath[0]), address(quickSellPath[2]), _amount, net);\n        assert(result >= _minReturn);\n\n        return result;\n    }\n\n    /**\n\n    */\n    function buyCards(uint256 _amount, uint256 _minReturn) payable public returns (uint256) {\n        uint256 feeAmount = getFinancieFee(_amount);\n        uint256 net = safeSub(_amount, feeAmount);\n        distributeFees(feeAmount);\n\n        uint256 result = quickConvertInternal(quickBuyPath, net, 1, msg.sender);\n\n        core.notifyConvertCards(msg.sender, address(quickBuyPath[0]), address(quickBuyPath[2]), _amount, result);\n        assert(result >= _minReturn);\n\n        return result;\n    }\n\n    function quickConvertInternal(IERC20Token[] _path, uint256 _amount, uint256 _minReturn, address _spender)\n        private\n        validConversionPath(_path)\n        returns (uint256)\n    {\n        IERC20Token fromToken = _path[0];\n        IBancorQuickConverter quickConverter = extensions.quickConverter();\n        if ( msg.value == 0 ) {\n            assert(fromToken.transferFrom(msg.sender, quickConverter, _amount));\n            return quickConverter.convertFor.value(0)(_path, _amount, _minReturn, _spender);\n        } else {\n            return quickConverter.convertFor.value(_amount)(_path, _amount, _minReturn, _spender);\n        }\n    }\n\n    /**\n        @dev overridden\n    */\n    function() payable public {\n    }\n\n    /**\n        @dev overridden\n    */\n    function getReturn(IERC20Token _fromToken, IERC20Token _toToken, uint256 _amount) public view returns (uint256) {\n        require(_fromToken == quickSellPath[0] || _fromToken == quickBuyPath[0]);\n        require(_toToken == quickSellPath[2] || _toToken == quickBuyPath[2]);\n\n        if ( _fromToken == quickSellPath[0] ) {\n            uint256 grossSell = super.getReturn(_fromToken, _toToken, _amount);\n            return safeSub(grossSell, getFinancieFee(grossSell));\n        } else {\n            return super.getReturn(_fromToken, _toToken, safeSub(_amount, getFinancieFee(_amount)));\n        }\n\n    }\n\n}\n",
  "sourcePath": "/Users/rudo/Documents/ichiba/submodules/contracts/solidity/contracts/Financie/FinancieBancorConverter.sol",
  "compiler": {
    "name": "solc",
    "version": "0.4.21+commit.dfe3193c.Emscripten.clang"
  },
  "schemaVersion": "2.0.0",
  "updatedAt": "2018-07-20T05:52:38.315Z"
}