{
  "contractName": "FinanciePlatformToken",
  "abi": [
    {
      "constant": true,
      "inputs": [],
      "name": "name",
      "outputs": [
        {
          "name": "",
          "type": "string"
        }
      ],
      "payable": false,
      "stateMutability": "view",
      "type": "function"
    },
    {
      "constant": false,
      "inputs": [
        {
          "name": "_spender",
          "type": "address"
        },
        {
          "name": "_value",
          "type": "uint256"
        }
      ],
      "name": "approve",
      "outputs": [
        {
          "name": "success",
          "type": "bool"
        }
      ],
      "payable": false,
      "stateMutability": "nonpayable",
      "type": "function"
    },
    {
      "constant": true,
      "inputs": [],
      "name": "totalSupply",
      "outputs": [
        {
          "name": "",
          "type": "uint256"
        }
      ],
      "payable": false,
      "stateMutability": "view",
      "type": "function"
    },
    {
      "constant": false,
      "inputs": [
        {
          "name": "_from",
          "type": "address"
        },
        {
          "name": "_to",
          "type": "address"
        },
        {
          "name": "_value",
          "type": "uint256"
        }
      ],
      "name": "transferFrom",
      "outputs": [
        {
          "name": "success",
          "type": "bool"
        }
      ],
      "payable": false,
      "stateMutability": "nonpayable",
      "type": "function"
    },
    {
      "constant": true,
      "inputs": [],
      "name": "decimals",
      "outputs": [
        {
          "name": "",
          "type": "uint8"
        }
      ],
      "payable": false,
      "stateMutability": "view",
      "type": "function"
    },
    {
      "constant": true,
      "inputs": [],
      "name": "standard",
      "outputs": [
        {
          "name": "",
          "type": "string"
        }
      ],
      "payable": false,
      "stateMutability": "view",
      "type": "function"
    },
    {
      "constant": true,
      "inputs": [
        {
          "name": "",
          "type": "address"
        }
      ],
      "name": "balanceOf",
      "outputs": [
        {
          "name": "",
          "type": "uint256"
        }
      ],
      "payable": false,
      "stateMutability": "view",
      "type": "function"
    },
    {
      "constant": true,
      "inputs": [],
      "name": "symbol",
      "outputs": [
        {
          "name": "",
          "type": "string"
        }
      ],
      "payable": false,
      "stateMutability": "view",
      "type": "function"
    },
    {
      "constant": false,
      "inputs": [
        {
          "name": "_to",
          "type": "address"
        },
        {
          "name": "_value",
          "type": "uint256"
        }
      ],
      "name": "transfer",
      "outputs": [
        {
          "name": "success",
          "type": "bool"
        }
      ],
      "payable": false,
      "stateMutability": "nonpayable",
      "type": "function"
    },
    {
      "constant": true,
      "inputs": [
        {
          "name": "",
          "type": "address"
        },
        {
          "name": "",
          "type": "address"
        }
      ],
      "name": "allowance",
      "outputs": [
        {
          "name": "",
          "type": "uint256"
        }
      ],
      "payable": false,
      "stateMutability": "view",
      "type": "function"
    },
    {
      "inputs": [
        {
          "name": "_name",
          "type": "string"
        },
        {
          "name": "_symbol",
          "type": "string"
        },
        {
          "name": "_supply",
          "type": "uint256"
        }
      ],
      "payable": false,
      "stateMutability": "nonpayable",
      "type": "constructor"
    },
    {
      "anonymous": false,
      "inputs": [
        {
          "indexed": true,
          "name": "_from",
          "type": "address"
        },
        {
          "indexed": true,
          "name": "_to",
          "type": "address"
        },
        {
          "indexed": false,
          "name": "_value",
          "type": "uint256"
        }
      ],
      "name": "Transfer",
      "type": "event"
    },
    {
      "anonymous": false,
      "inputs": [
        {
          "indexed": true,
          "name": "_owner",
          "type": "address"
        },
        {
          "indexed": true,
          "name": "_spender",
          "type": "address"
        },
        {
          "indexed": false,
          "name": "_value",
          "type": "uint256"
        }
      ],
      "name": "Approval",
      "type": "event"
    }
  ],
  "bytecode": "0x606060405260408051908101604052600981527f546f6b656e20302e3100000000000000000000000000000000000000000000006020820152600090805161004b92916020019061015d565b50602060405190810160405260008152600190805161006e92916020019061015d565b50602060405190810160405260008152600290805161009192916020019061015d565b506003805460ff19169055600060045534156100ac57600080fd5b604051610932380380610932833981016040528080518201919060200180518201919060200180519150839050826012600083511180156100ee575060008251115b15156100f957600080fd5b600183805161010c92916020019061015d565b50600282805161012092916020019061015d565b506003805460ff191660ff929092169190911790555050600481905533600160a060020a0316600090815260056020526040902055506101f89050565b828054600181600116156101000203166002900490600052602060002090601f016020900481019282601f1061019e57805160ff19168380011785556101cb565b828001600101855582156101cb579182015b828111156101cb5782518255916020019190600101906101b0565b506101d79291506101db565b5090565b6101f591905b808211156101d757600081556001016101e1565b90565b61072b806102076000396000f3006060604052600436106100a35763ffffffff7c010000000000000000000000000000000000000000000000000000000060003504166306fdde0381146100a8578063095ea7b31461013257806318160ddd1461016857806323b872dd1461018d578063313ce567146101b55780635a3b7e42146101de57806370a08231146101f157806395d89b4114610210578063a9059cbb14610223578063dd62ed3e14610245575b600080fd5b34156100b357600080fd5b6100bb61026a565b60405160208082528190810183818151815260200191508051906020019080838360005b838110156100f75780820151838201526020016100df565b50505050905090810190601f1680156101245780820380516001836020036101000a031916815260200191505b509250505060405180910390f35b341561013d57600080fd5b610154600160a060020a0360043516602435610308565b604051901515815260200160405180910390f35b341561017357600080fd5b61017b6103c5565b60405190815260200160405180910390f35b341561019857600080fd5b610154600160a060020a03600435811690602435166044356103cb565b34156101c057600080fd5b6101c86104fd565b60405160ff909116815260200160405180910390f35b34156101e957600080fd5b6100bb610506565b34156101fc57600080fd5b61017b600160a060020a0360043516610571565b341561021b57600080fd5b6100bb610583565b341561022e57600080fd5b610154600160a060020a03600435166024356105ee565b341561025057600080fd5b61017b600160a060020a03600435811690602435166106ba565b60018054600181600116156101000203166002900480601f0160208091040260200160405190810160405280929190818152602001828054600181600116156101000203166002900480156103005780601f106102d557610100808354040283529160200191610300565b820191906000526020600020905b8154815290600101906020018083116102e357829003601f168201915b505050505081565b600082600160a060020a038116151561032057600080fd5b8215806103505750600160a060020a03338116600090815260066020908152604080832093881683529290522054155b151561035b57600080fd5b600160a060020a03338116600081815260066020908152604080832094891680845294909152908190208690557f8c5be1e5ebec7d5bd14f71427d1e84f3dd0314c0f7b2291e5b200ac8c7c3b9259086905190815260200160405180910390a35060019392505050565b60045481565b600083600160a060020a03811615156103e357600080fd5b83600160a060020a03811615156103f957600080fd5b600160a060020a038087166000908152600660209081526040808320339094168352929052205461042a90856106d7565b600160a060020a03808816600081815260066020908152604080832033909516835293815283822094909455908152600590925290205461046b90856106d7565b600160a060020a03808816600090815260056020526040808220939093559087168152205461049a90856106e9565b600160a060020a03808716600081815260056020526040908190209390935591908816907fddf252ad1be2c89b69c2b068fc378daa952ba7f163c4a11628f55a4df523b3ef9087905190815260200160405180910390a350600195945050505050565b60035460ff1681565b60008054600181600116156101000203166002900480601f0160208091040260200160405190810160405280929190818152602001828054600181600116156101000203166002900480156103005780601f106102d557610100808354040283529160200191610300565b60056020526000908152604090205481565b60028054600181600116156101000203166002900480601f0160208091040260200160405190810160405280929190818152602001828054600181600116156101000203166002900480156103005780601f106102d557610100808354040283529160200191610300565b600082600160a060020a038116151561060657600080fd5b600160a060020a03331660009081526005602052604090205461062990846106d7565b600160a060020a03338116600090815260056020526040808220939093559086168152205461065890846106e9565b600160a060020a0380861660008181526005602052604090819020939093559133909116907fddf252ad1be2c89b69c2b068fc378daa952ba7f163c4a11628f55a4df523b3ef9086905190815260200160405180910390a35060019392505050565b600660209081526000928352604080842090915290825290205481565b6000818310156106e357fe5b50900390565b6000828201838110156106f857fe5b93925050505600a165627a7a723058203529096ca3479002ebf812c84aa2cb4e3c51687cd41f52dd91572e466c78c0ac0029",
  "source": "pragma solidity ^0.4.11;\nimport '../ERC20Token.sol';\n\n/*\n    Test token with predefined supply\n*/\ncontract FinanciePlatformToken is ERC20Token {\n    function FinanciePlatformToken(string _name, string _symbol, uint256 _supply)\n        public\n        ERC20Token(_name, _symbol, 18)\n    {\n        totalSupply = _supply;\n        balanceOf[msg.sender] = _supply;\n    }\n}\n",
  "sourcePath": "/Users/rudo/Documents/ichiba/submodules/contracts/solidity/contracts/Financie/FinanciePlatformToken.sol",
  "compiler": {
    "name": "solc",
    "version": "0.4.21+commit.dfe3193c.Emscripten.clang"
  },
  "schemaVersion": "2.0.0",
  "updatedAt": "2018-07-30T07:57:04.898Z"
}