{
  "contractName": "FinancieTicketToken",
  "abi": [
    {
      "constant": true,
      "inputs": [],
      "name": "name",
      "outputs": [
        {
          "name": "",
          "type": "string"
        }
      ],
      "payable": false,
      "stateMutability": "view",
      "type": "function"
    },
    {
      "constant": false,
      "inputs": [
        {
          "name": "_spender",
          "type": "address"
        },
        {
          "name": "_value",
          "type": "uint256"
        }
      ],
      "name": "approve",
      "outputs": [
        {
          "name": "success",
          "type": "bool"
        }
      ],
      "payable": false,
      "stateMutability": "nonpayable",
      "type": "function"
    },
    {
      "constant": true,
      "inputs": [],
      "name": "totalSupply",
      "outputs": [
        {
          "name": "",
          "type": "uint256"
        }
      ],
      "payable": false,
      "stateMutability": "view",
      "type": "function"
    },
    {
      "constant": false,
      "inputs": [
        {
          "name": "_from",
          "type": "address"
        },
        {
          "name": "_to",
          "type": "address"
        },
        {
          "name": "_value",
          "type": "uint256"
        }
      ],
      "name": "transferFrom",
      "outputs": [
        {
          "name": "success",
          "type": "bool"
        }
      ],
      "payable": false,
      "stateMutability": "nonpayable",
      "type": "function"
    },
    {
      "constant": true,
      "inputs": [],
      "name": "decimals",
      "outputs": [
        {
          "name": "",
          "type": "uint8"
        }
      ],
      "payable": false,
      "stateMutability": "view",
      "type": "function"
    },
    {
      "constant": true,
      "inputs": [],
      "name": "standard",
      "outputs": [
        {
          "name": "",
          "type": "string"
        }
      ],
      "payable": false,
      "stateMutability": "view",
      "type": "function"
    },
    {
      "constant": true,
      "inputs": [
        {
          "name": "",
          "type": "address"
        }
      ],
      "name": "balanceOf",
      "outputs": [
        {
          "name": "",
          "type": "uint256"
        }
      ],
      "payable": false,
      "stateMutability": "view",
      "type": "function"
    },
    {
      "constant": true,
      "inputs": [],
      "name": "symbol",
      "outputs": [
        {
          "name": "",
          "type": "string"
        }
      ],
      "payable": false,
      "stateMutability": "view",
      "type": "function"
    },
    {
      "constant": false,
      "inputs": [
        {
          "name": "_to",
          "type": "address"
        },
        {
          "name": "_value",
          "type": "uint256"
        }
      ],
      "name": "transfer",
      "outputs": [
        {
          "name": "success",
          "type": "bool"
        }
      ],
      "payable": false,
      "stateMutability": "nonpayable",
      "type": "function"
    },
    {
      "constant": true,
      "inputs": [
        {
          "name": "",
          "type": "address"
        },
        {
          "name": "",
          "type": "address"
        }
      ],
      "name": "allowance",
      "outputs": [
        {
          "name": "",
          "type": "uint256"
        }
      ],
      "payable": false,
      "stateMutability": "view",
      "type": "function"
    },
    {
      "inputs": [
        {
          "name": "_name",
          "type": "string"
        },
        {
          "name": "_symbol",
          "type": "string"
        },
        {
          "name": "_issuer",
          "type": "address"
        },
        {
          "name": "_supply",
          "type": "uint32"
        },
        {
          "name": "_core",
          "type": "address"
        }
      ],
      "payable": false,
      "stateMutability": "nonpayable",
      "type": "constructor"
    },
    {
      "anonymous": false,
      "inputs": [
        {
          "indexed": true,
          "name": "_from",
          "type": "address"
        },
        {
          "indexed": true,
          "name": "_to",
          "type": "address"
        },
        {
          "indexed": false,
          "name": "_value",
          "type": "uint256"
        }
      ],
      "name": "Transfer",
      "type": "event"
    },
    {
      "anonymous": false,
      "inputs": [
        {
          "indexed": true,
          "name": "_owner",
          "type": "address"
        },
        {
          "indexed": true,
          "name": "_spender",
          "type": "address"
        },
        {
          "indexed": false,
          "name": "_value",
          "type": "uint256"
        }
      ],
      "name": "Approval",
      "type": "event"
    },
    {
      "constant": false,
      "inputs": [
        {
          "name": "_from",
          "type": "address"
        },
        {
          "name": "_amount",
          "type": "uint256"
        }
      ],
      "name": "burnFrom",
      "outputs": [],
      "payable": false,
      "stateMutability": "nonpayable",
      "type": "function"
    },
    {
      "constant": false,
      "inputs": [
        {
          "name": "_amount",
          "type": "uint256"
        }
      ],
      "name": "burn",
      "outputs": [],
      "payable": false,
      "stateMutability": "nonpayable",
      "type": "function"
    },
    {
      "constant": false,
      "inputs": [],
      "name": "getIssuer",
      "outputs": [
        {
          "name": "",
          "type": "address"
        }
      ],
      "payable": false,
      "stateMutability": "nonpayable",
      "type": "function"
    }
  ],
  "bytecode": "0x606060405260408051908101604052600981527f546f6b656e20302e3100000000000000000000000000000000000000000000006020820152600090805161004b92916020019061019c565b50602060405190810160405260008152600190805161006e92916020019061019c565b50602060405190810160405260008152600290805161009192916020019061019c565b506003805460ff19169055600060045534156100ac57600080fd5b604051610bbb380380610bbb83398101604052808051820191906020018051820191906020018051919060200180519190602001805191508590508460008083511180156100fb575060008251115b151561010657600080fd5b600183805161011992916020019061019c565b50600282805161012d92916020019061019c565b506003805460ff90921660ff19909216919091179055505063ffffffff9091166004819055600160a060020a0333811660009081526005602052604090209190915560088054938216600160a060020a0319948516179055600780549290911691909216179055506102379050565b828054600181600116156101000203166002900490600052602060002090601f016020900481019282601f106101dd57805160ff191683800117855561020a565b8280016001018555821561020a579182015b8281111561020a5782518255916020019190600101906101ef565b5061021692915061021a565b5090565b61023491905b808211156102165760008155600101610220565b90565b610975806102466000396000f3006060604052600436106100ab5763ffffffff60e060020a60003504166306fdde0381146100b0578063095ea7b31461013a57806318160ddd1461017057806323b872dd14610195578063313ce567146101bd57806342966c68146101e657806352556421146101fe5780635a3b7e421461022d57806370a082311461024057806379cc67901461025f57806395d89b4114610281578063a9059cbb14610294578063dd62ed3e146102b6575b600080fd5b34156100bb57600080fd5b6100c36102db565b60405160208082528190810183818151815260200191508051906020019080838360005b838110156100ff5780820151838201526020016100e7565b50505050905090810190601f16801561012c5780820380516001836020036101000a031916815260200191505b509250505060405180910390f35b341561014557600080fd5b61015c600160a060020a0360043516602435610379565b604051901515815260200160405180910390f35b341561017b57600080fd5b610183610436565b60405190815260200160405180910390f35b34156101a057600080fd5b61015c600160a060020a036004358116906024351660443561043c565b34156101c857600080fd5b6101d061056e565b60405160ff909116815260200160405180910390f35b34156101f157600080fd5b6101fc600435610577565b005b341561020957600080fd5b610211610652565b604051600160a060020a03909116815260200160405180910390f35b341561023857600080fd5b6100c3610661565b341561024b57600080fd5b610183600160a060020a03600435166106cc565b341561026a57600080fd5b6101fc600160a060020a03600435166024356106de565b341561028c57600080fd5b6100c36107cd565b341561029f57600080fd5b61015c600160a060020a0360043516602435610838565b34156102c157600080fd5b610183600160a060020a0360043581169060243516610904565b60018054600181600116156101000203166002900480601f0160208091040260200160405190810160405280929190818152602001828054600181600116156101000203166002900480156103715780601f1061034657610100808354040283529160200191610371565b820191906000526020600020905b81548152906001019060200180831161035457829003601f168201915b505050505081565b600082600160a060020a038116151561039157600080fd5b8215806103c15750600160a060020a03338116600090815260066020908152604080832093881683529290522054155b15156103cc57600080fd5b600160a060020a03338116600081815260066020908152604080832094891680845294909152908190208690557f8c5be1e5ebec7d5bd14f71427d1e84f3dd0314c0f7b2291e5b200ac8c7c3b9259086905190815260200160405180910390a35060019392505050565b60045481565b600083600160a060020a038116151561045457600080fd5b83600160a060020a038116151561046a57600080fd5b600160a060020a038087166000908152600660209081526040808320339094168352929052205461049b9085610921565b600160a060020a0380881660008181526006602090815260408083203390951683529381528382209490945590815260059092529020546104dc9085610921565b600160a060020a03808816600090815260056020526040808220939093559087168152205461050b9085610933565b600160a060020a03808716600081815260056020526040908190209390935591908816907fddf252ad1be2c89b69c2b068fc378daa952ba7f163c4a11628f55a4df523b3ef9087905190815260200160405180910390a350600195945050505050565b60035460ff1681565b600160a060020a0333166000908152600560205260409020548190101561059d57600080fd5b600160a060020a0333166000908152600560205260409020546105c09082610921565b600160a060020a0333166000908152600560205260409020556004546105e69082610921565b600455600754600160a060020a03166304d92e8c338360405160e060020a63ffffffff8516028152600160a060020a0390921660048301526024820152604401600060405180830381600087803b151561063f57600080fd5b5af1151561064c57600080fd5b50505050565b600854600160a060020a031690565b60008054600181600116156101000203166002900480601f0160208091040260200160405190810160405280929190818152602001828054600181600116156101000203166002900480156103715780601f1061034657610100808354040283529160200191610371565b60056020526000908152604090205481565b6106e982338361043c565b15156106f157fe5b600160a060020a0333166000908152600560205260409020548190101561071757600080fd5b600160a060020a03331660009081526005602052604090205461073a9082610921565b600160a060020a0333166000908152600560205260409020556004546107609082610921565b600455600754600160a060020a03166304d92e8c838360405160e060020a63ffffffff8516028152600160a060020a0390921660048301526024820152604401600060405180830381600087803b15156107b957600080fd5b5af115156107c657600080fd5b5050505050565b60028054600181600116156101000203166002900480601f0160208091040260200160405190810160405280929190818152602001828054600181600116156101000203166002900480156103715780601f1061034657610100808354040283529160200191610371565b600082600160a060020a038116151561085057600080fd5b600160a060020a0333166000908152600560205260409020546108739084610921565b600160a060020a0333811660009081526005602052604080822093909355908616815220546108a29084610933565b600160a060020a0380861660008181526005602052604090819020939093559133909116907fddf252ad1be2c89b69c2b068fc378daa952ba7f163c4a11628f55a4df523b3ef9086905190815260200160405180910390a35060019392505050565b600660209081526000928352604080842090915290825290205481565b60008183101561092d57fe5b50900390565b60008282018381101561094257fe5b93925050505600a165627a7a7230582091c52e7b0ae25ac3f1800277293ee22495ffdc8c6ab9836a14e1bb16405fbcc70029",
  "source": "pragma solidity ^0.4.18;\nimport '../Utils.sol';\nimport '../ERC20Token.sol';\nimport '../interfaces/IFinancieCore.sol';\nimport '../interfaces/IFinancieIssuerToken.sol';\n\n/**\n* Financie Ticket Token implementation\n*/\ncontract FinancieTicketToken is ERC20Token, IFinancieIssuerToken {\n    IFinancieCore core;\n    address issuer;\n\n    /**\n        @dev constructor\n        @param _name        token name\n        @param _symbol      token symbol\n    */\n    function FinancieTicketToken(string _name, string _symbol, address _issuer, uint32 _supply, address _core)\n        public\n        ERC20Token(_name, _symbol, 0) {\n        totalSupply = _supply;\n        balanceOf[msg.sender] = _supply;\n\n        issuer = _issuer;\n\n        core = IFinancieCore(_core);\n    }\n\n    function burnFrom(address _from, uint256 _amount) public {\n        assert(transferFrom(_from, msg.sender, _amount));\n        require(balanceOf[msg.sender] >= _amount);\n        balanceOf[msg.sender] = safeSub(balanceOf[msg.sender], _amount);\n        totalSupply = safeSub(totalSupply, _amount);\n\n        core.notifyBurnTickets(_from, _amount);\n    }\n\n    function burn(uint256 _amount) public {\n        require(balanceOf[msg.sender] >= _amount);\n        balanceOf[msg.sender] = safeSub(balanceOf[msg.sender], _amount);\n        totalSupply = safeSub(totalSupply, _amount);\n\n        core.notifyBurnTickets(msg.sender, _amount);\n    }\n\n    function getIssuer() public returns(address) {\n        return issuer;\n    }\n\n}\n",
  "sourcePath": "/Users/rudo/Documents/ichiba/submodules/contracts/solidity/contracts/Financie/FinancieTicketToken.sol",
  "compiler": {
    "name": "solc",
    "version": "0.4.21+commit.dfe3193c.Emscripten.clang"
  },
  "schemaVersion": "2.0.0",
  "updatedAt": "2018-07-30T07:57:04.898Z"
}