{
  "contractName": "FinancieLog",
  "abi": [
    {
      "constant": false,
      "inputs": [],
      "name": "acceptOwnership",
      "outputs": [],
      "payable": false,
      "stateMutability": "nonpayable",
      "type": "function"
    },
    {
      "constant": true,
      "inputs": [],
      "name": "owner",
      "outputs": [
        {
          "name": "",
          "type": "address"
        }
      ],
      "payable": false,
      "stateMutability": "view",
      "type": "function"
    },
    {
      "constant": true,
      "inputs": [],
      "name": "newOwner",
      "outputs": [
        {
          "name": "",
          "type": "address"
        }
      ],
      "payable": false,
      "stateMutability": "view",
      "type": "function"
    },
    {
      "constant": false,
      "inputs": [
        {
          "name": "_newOwner",
          "type": "address"
        }
      ],
      "name": "transferOwnership",
      "outputs": [],
      "payable": false,
      "stateMutability": "nonpayable",
      "type": "function"
    },
    {
      "inputs": [],
      "payable": false,
      "stateMutability": "nonpayable",
      "type": "constructor"
    },
    {
      "payable": true,
      "stateMutability": "payable",
      "type": "fallback"
    },
    {
      "anonymous": false,
      "inputs": [
        {
          "indexed": true,
          "name": "_prevOwner",
          "type": "address"
        },
        {
          "indexed": true,
          "name": "_newOwner",
          "type": "address"
        }
      ],
      "name": "OwnerUpdate",
      "type": "event"
    },
    {
      "constant": false,
      "inputs": [
        {
          "name": "_sender",
          "type": "address"
        },
        {
          "name": "_eventType",
          "type": "uint8"
        },
        {
          "name": "_currencyType",
          "type": "uint8"
        },
        {
          "name": "_target",
          "type": "address"
        },
        {
          "name": "_paidAmount",
          "type": "uint256"
        },
        {
          "name": "_receivedAmount",
          "type": "uint256"
        }
      ],
      "name": "recordLog",
      "outputs": [],
      "payable": false,
      "stateMutability": "nonpayable",
      "type": "function"
    },
    {
      "constant": true,
      "inputs": [
        {
          "name": "_target",
          "type": "address"
        }
      ],
      "name": "getTargetLogs",
      "outputs": [
        {
          "name": "",
          "type": "uint256[]"
        },
        {
          "name": "",
          "type": "uint8[]"
        },
        {
          "name": "",
          "type": "uint8[]"
        },
        {
          "name": "",
          "type": "address[]"
        },
        {
          "name": "",
          "type": "uint256[]"
        },
        {
          "name": "",
          "type": "uint256[]"
        }
      ],
      "payable": false,
      "stateMutability": "view",
      "type": "function"
    },
    {
      "constant": true,
      "inputs": [
        {
          "name": "_sender",
          "type": "address"
        }
      ],
      "name": "getUserLogs",
      "outputs": [
        {
          "name": "",
          "type": "uint256[]"
        },
        {
          "name": "",
          "type": "uint8[]"
        },
        {
          "name": "",
          "type": "uint8[]"
        },
        {
          "name": "",
          "type": "address[]"
        },
        {
          "name": "",
          "type": "uint256[]"
        },
        {
          "name": "",
          "type": "uint256[]"
        }
      ],
      "payable": false,
      "stateMutability": "view",
      "type": "function"
    }
  ],
  "bytecode": "0x6060604052341561000f57600080fd5b60008054600160a060020a033316600160a060020a03199091161790556113ff8061003b6000396000f3006060604052600436106100825763ffffffff7c01000000000000000000000000000000000000000000000000000000006000350416635de0f6f6811461008757806379ba5097146102535780638da5cb5b14610268578063d2a796dd14610297578063d4ee1d90146102b6578063e1f32e4b146102c9578063f2fde38b14610303575b600080fd5b341561009257600080fd5b6100a6600160a060020a0360043516610322565b6040518080602001806020018060200180602001806020018060200187810387528d818151815260200191508051906020019060200280838360005b838110156100fa5780820151838201526020016100e2565b5050505090500187810386528c818151815260200191508051906020019060200280838360005b83811015610139578082015183820152602001610121565b5050505090500187810385528b818151815260200191508051906020019060200280838360005b83811015610178578082015183820152602001610160565b5050505090500187810384528a818151815260200191508051906020019060200280838360005b838110156101b757808201518382015260200161019f565b50505050905001878103835289818151815260200191508051906020019060200280838360005b838110156101f65780820151838201526020016101de565b50505050905001878103825288818151815260200191508051906020019060200280838360005b8381101561023557808201518382015260200161021d565b505050509050019c5050505050505050505050505060405180910390f35b341561025e57600080fd5b6102666105e9565b005b341561027357600080fd5b61027b610677565b604051600160a060020a03909116815260200160405180910390f35b34156102a257600080fd5b6100a6600160a060020a0360043516610686565b34156102c157600080fd5b61027b610945565b34156102d457600080fd5b610266600160a060020a0360043581169060ff602435811691604435909116906064351660843560a435610954565b341561030e57600080fd5b610266600160a060020a03600435166110c6565b61032a611128565b610332611128565b61033a611128565b610342611128565b61034a611128565b610352611128565b600160a060020a03871660009081526002602081815260409283902060018101805490949382019360038301936004840193600581019360069091019288928281020190519081016040528092919081815260200182805480156103d557602002820191906000526020600020905b8154815260200190600101908083116103c1575b505050505095508480548060200260200160405190810160405280929190818152602001828054801561045157602002820191906000526020600020906000905b82829054906101000a900460ff16600481111561042f57fe5b8152602060019283018181049485019490930390920291018084116104165790505b50505050509450838054806020026020016040519081016040528092919081815260200182805480156104cd57602002820191906000526020600020906000905b82829054906101000a900460ff1660028111156104ab57fe5b8152602060019283018181049485019490930390920291018084116104925790505b505050505093508280548060200260200160405190810160405280929190818152602001828054801561052957602002820191906000526020600020905b8154600160a060020a0316815260019091019060200180831161050b575b505050505092508180548060200260200160405190810160405280929190818152602001828054801561057b57602002820191906000526020600020905b815481526020019060010190808311610567575b50505050509150808054806020026020016040519081016040528092919081815260200182805480156105cd57602002820191906000526020600020905b8154815260200190600101908083116105b9575b5050505050905095509550955095509550955091939550919395565b60015433600160a060020a0390811691161461060457600080fd5b600154600054600160a060020a0391821691167f343765429aea5a34b3ff6a3785a98a5abb2597aca87bfbb58632c173d585373a60405160405180910390a3600180546000805473ffffffffffffffffffffffffffffffffffffffff19908116600160a060020a03841617909155169055565b600054600160a060020a031681565b61068e611128565b610696611128565b61069e611128565b6106a6611128565b6106ae611128565b6106b6611128565b600160a060020a0387166000908152600360208181526040928390206001810180549094600283019483019360048401936005810193600690910192889282810201905190810160405280929190818152602001828054801561073857602002820191906000526020600020905b815481526020019060010190808311610724575b50505050509550848054806020026020016040519081016040528092919081815260200182805480156107b457602002820191906000526020600020906000905b82829054906101000a900460ff16600481111561079257fe5b8152602060019283018181049485019490930390920291018084116107795790505b50505050509450838054806020026020016040519081016040528092919081815260200182805480156104cd57602002820191906000526020600020906000905b82829054906101000a900460ff16600281111561080e57fe5b8152602060019283018181049485019490930390920291018084116107f5579050505050505093508280548060200260200160405190810160405280929190818152602001828054801561052957602002820191906000526020600020908154600160a060020a0316815260019091019060200180831161050b57505050505092508180548060200260200160405190810160405280929190818152602001828054801561057b57602002820191906000526020600020908154815260200190600101908083116105675750505050509150808054806020026020016040519081016040528092919081815260200182805480156105cd57602002820191906000526020600020908154815260200190600101908083116105b9575050505050905095509550955095509550955091939550919395565b600154600160a060020a031681565b60005433600160a060020a0390811691161461096c57fe5b600160a060020a03861660009081526002602052604090205460ff161515610b495760e06040519081016040528060011515815260200160006040518059106109b25750595b9080825280602002602001820160405250815260200160006040518059106109d75750595b9080825280602002602001820160405250815260200160006040518059106109fc5750595b908082528060200260200182016040525081526020016000604051805910610a215750595b908082528060200260200182016040525081526020016000604051805910610a465750595b908082528060200260200182016040525081526020016000604051805910610a6b5750595b90808252806020026020018201604052509052600160a060020a03871660009081526002602052604090208151815460ff1916901515178155602082015181600101908051610abe92916020019061113a565b50604082015181600201908051610ad9929160200190611185565b50606082015181600301908051610af492916020019061122f565b50608082015181600401908051610b0f92916020019061129e565b5060a082015181600501908051610b2a92916020019061113a565b5060c082015181600601908051610b4592916020019061113a565b5050505b600160a060020a03831660009081526003602052604090205460ff161515610d265760e0604051908101604052806001151581526020016000604051805910610b8f5750595b908082528060200260200182016040525081526020016000604051805910610bb45750595b908082528060200260200182016040525081526020016000604051805910610bd95750595b908082528060200260200182016040525081526020016000604051805910610bfe5750595b908082528060200260200182016040525081526020016000604051805910610c235750595b908082528060200260200182016040525081526020016000604051805910610c485750595b90808252806020026020018201604052509052600160a060020a03841660009081526003602052604090208151815460ff1916901515178155602082015181600101908051610c9b92916020019061113a565b50604082015181600201908051610cb6929160200190611185565b50606082015181600301908051610cd192916020019061122f565b50608082015181600401908051610cec92916020019061129e565b5060a082015181600501908051610d0792916020019061113a565b5060c082015181600601908051610d2292916020019061113a565b5050505b600160a060020a03861660009081526002602052604090206001908101805490918101610d53838261130e565b506000918252602080832042920191909155600160a060020a0388168252600290819052604090912001805460018101610d8d8382611337565b916000526020600020906020918282040191900687909190916101000a81548160ff02191690836004811115610dbf57fe5b021790555050600160a060020a0386166000908152600260205260409020600301805460018101610df08382611337565b916000526020600020906020918282040191900686909190916101000a81548160ff02191690836002811115610e2257fe5b021790555050600160a060020a0386166000908152600260205260409020600401805460018101610e53838261130e565b506000918252602080832091909101805473ffffffffffffffffffffffffffffffffffffffff1916600160a060020a0387811691909117909155881682526002905260409020600501805460018101610eac838261130e565b506000918252602080832091909101849055600160a060020a03881682526002905260409020600601805460018101610ee5838261130e565b506000918252602080832091909101839055600160a060020a038516825260039052604090206001908101805490918101610f20838261130e565b506000918252602080832042920191909155600160a060020a03851682526003905260409020600201805460018101610f598382611337565b916000526020600020906020918282040191900687909190916101000a81548160ff02191690836004811115610f8b57fe5b021790555050600160a060020a038316600090815260036020819052604090912001805460018101610fbd8382611337565b916000526020600020906020918282040191900686909190916101000a81548160ff02191690836002811115610fef57fe5b021790555050600160a060020a0383166000908152600360205260409020600401805460018101611020838261130e565b506000918252602080832091909101805473ffffffffffffffffffffffffffffffffffffffff1916600160a060020a038a811691909117909155851682526003905260409020600501805460018101611079838261130e565b506000918252602080832091909101849055600160a060020a038516825260039052604090206006018054600181016110b2838261130e565b506000918252602090912001555050505050565b60005433600160a060020a039081169116146110de57fe5b600054600160a060020a03828116911614156110f957600080fd5b6001805473ffffffffffffffffffffffffffffffffffffffff1916600160a060020a0392909216919091179055565b60206040519081016040526000815290565b828054828255906000526020600020908101928215611175579160200282015b8281111561117557825182559160200191906001019061115a565b50611181929150611367565b5090565b82805482825590600052602060002090601f016020900481019282156112235791602002820160005b838211156111f457835183826101000a81548160ff021916908360048111156111d357fe5b021790555092602001926001016020816000010492830192600103026111ae565b80156112215782816101000a81549060ff02191690556001016020816000010492830192600103026111f4565b505b50611181929150611384565b82805482825590600052602060002090601f016020900481019282156112235791602002820160005b838211156111f457835183826101000a81548160ff0219169083600281111561127d57fe5b02179055509260200192600101602081600001049283019260010302611258565b828054828255906000526020600020908101928215611302579160200282015b82811115611302578251825473ffffffffffffffffffffffffffffffffffffffff1916600160a060020a0391909116178255602092909201916001909101906112be565b506111819291506113a2565b81548183558181151161133257600083815260209020611332918101908301611367565b505050565b81548183558181151161133257601f016020900481601f0160209004836000526020600020918201910161133291905b61138191905b80821115611181576000815560010161136d565b90565b61138191905b8082111561118157805460ff1916815560010161138a565b61138191905b8082111561118157805473ffffffffffffffffffffffffffffffffffffffff191681556001016113a85600a165627a7a72305820bb4db59a7479ec4841527fa058535b92f1a89bea7a450b467c87b6fed14429d50029",
  "source": "pragma solidity ^0.4.18;\nimport '../interfaces/IFinancieLog.sol';\nimport '../Owned.sol';\n\ncontract FinancieLog is Owned, IFinancieLog {\n\n    struct UserLogs {\n        bool isSet;\n        uint[] timestamp;\n        EventType[] eventType;\n        CurrencyType[] currencyType;\n        address[] target;\n        uint256[] amountFrom;\n        uint256[] amountTo;\n    }\n\n    struct TargetLogs {\n        bool isSet;\n        uint[] timestamp;\n        EventType[] eventType;\n        CurrencyType[] currencyType;\n        address[] sender;\n        uint256[] amountFrom;\n        uint256[] amountTo;\n    }\n\n    mapping (address => UserLogs) userLogs;\n    mapping (address => TargetLogs) targetLogs;\n\n    function FinancieLog() public {\n\n    }\n\n    function() payable public {\n        revert();\n    }\n\n    function recordLog(address _sender,\n        EventType _eventType,\n        CurrencyType _currencyType,\n        address _target,\n        uint256 _paidAmount,\n        uint256 _receivedAmount)\n        public\n        ownerOnly\n    {\n        if ( !userLogs[_sender].isSet ) {\n            userLogs[_sender] = UserLogs(\n                true,\n                new uint[](0),\n                new EventType[](0),\n                new CurrencyType[](0),\n                new address[](0),\n                new uint256[](0),\n                new uint256[](0)\n            );\n        }\n        if ( !targetLogs[_target].isSet ) {\n            targetLogs[_target] = TargetLogs(\n                true,\n                new uint[](0),\n                new EventType[](0),\n                new CurrencyType[](0),\n                new address[](0),\n                new uint256[](0),\n                new uint256[](0)\n            );\n        }\n\n        // Record user log\n        userLogs[_sender].timestamp.push(now);\n        userLogs[_sender].eventType.push(_eventType);\n        userLogs[_sender].currencyType.push(_currencyType);\n        userLogs[_sender].target.push(_target);\n        userLogs[_sender].amountFrom.push(_paidAmount);\n        userLogs[_sender].amountTo.push(_receivedAmount);\n\n        // Record target log\n        targetLogs[_target].timestamp.push(now);\n        targetLogs[_target].eventType.push(_eventType);\n        targetLogs[_target].currencyType.push(_currencyType);\n        targetLogs[_target].sender.push(_sender);\n        targetLogs[_target].amountFrom.push(_paidAmount);\n        targetLogs[_target].amountTo.push(_receivedAmount);\n    }\n\n    function getTargetLogs(address _target)\n        public view returns(uint[], EventType[], CurrencyType[], address[], uint256[], uint256[])\n    {\n        return (\n            targetLogs[_target].timestamp,\n            targetLogs[_target].eventType,\n            targetLogs[_target].currencyType,\n            targetLogs[_target].sender,\n            targetLogs[_target].amountFrom,\n            targetLogs[_target].amountTo\n        );\n    }\n\n    function getUserLogs(address _sender)\n        public view returns(uint[], EventType[], CurrencyType[], address[], uint256[], uint256[])\n    {\n        return (\n            userLogs[_sender].timestamp,\n            userLogs[_sender].eventType,\n            userLogs[_sender].currencyType,\n            userLogs[_sender].target,\n            userLogs[_sender].amountFrom,\n            userLogs[_sender].amountTo\n        );\n    }\n\n}\n",
  "sourcePath": "/Users/rudo/Documents/ichiba/submodules/contracts/solidity/contracts/Financie/FinancieLog.sol",
  "compiler": {
    "name": "solc",
    "version": "0.4.21+commit.dfe3193c.Emscripten.clang"
  },
  "schemaVersion": "2.0.0",
  "updatedAt": "2018-07-30T07:57:04.895Z"
}