{
  "contractName": "FinancieCore",
  "abi": [
    {
      "constant": true,
      "inputs": [],
      "name": "owner_address",
      "outputs": [
        {
          "name": "",
          "type": "address"
        }
      ],
      "payable": false,
      "stateMutability": "view",
      "type": "function"
    },
    {
      "inputs": [
        {
          "name": "_token",
          "type": "address"
        }
      ],
      "payable": false,
      "stateMutability": "nonpayable",
      "type": "constructor"
    },
    {
      "payable": true,
      "stateMutability": "payable",
      "type": "fallback"
    },
    {
      "constant": false,
      "inputs": [
        {
          "name": "_userId",
          "type": "uint32"
        }
      ],
      "name": "activateUser",
      "outputs": [],
      "payable": false,
      "stateMutability": "nonpayable",
      "type": "function"
    },
    {
      "constant": false,
      "inputs": [
        {
          "name": "_contract",
          "type": "address"
        },
        {
          "name": "_enabled",
          "type": "bool"
        }
      ],
      "name": "activateTargetContract",
      "outputs": [],
      "payable": false,
      "stateMutability": "nonpayable",
      "type": "function"
    },
    {
      "constant": false,
      "inputs": [
        {
          "name": "_sender",
          "type": "address"
        },
        {
          "name": "_from",
          "type": "address"
        },
        {
          "name": "_to",
          "type": "address"
        },
        {
          "name": "_amountFrom",
          "type": "uint256"
        },
        {
          "name": "_amountTo",
          "type": "uint256"
        }
      ],
      "name": "notifyConvertCards",
      "outputs": [],
      "payable": false,
      "stateMutability": "nonpayable",
      "type": "function"
    },
    {
      "constant": false,
      "inputs": [
        {
          "name": "_sender",
          "type": "address"
        },
        {
          "name": "_address",
          "type": "address"
        }
      ],
      "name": "addOwnedCardList",
      "outputs": [],
      "payable": false,
      "stateMutability": "nonpayable",
      "type": "function"
    },
    {
      "constant": false,
      "inputs": [
        {
          "name": "_sender",
          "type": "address"
        },
        {
          "name": "_to",
          "type": "address"
        },
        {
          "name": "_type",
          "type": "uint8"
        },
        {
          "name": "_amount",
          "type": "uint256"
        }
      ],
      "name": "notifyBidCards",
      "outputs": [],
      "payable": false,
      "stateMutability": "nonpayable",
      "type": "function"
    },
    {
      "constant": false,
      "inputs": [
        {
          "name": "_sender",
          "type": "address"
        },
        {
          "name": "_to",
          "type": "address"
        },
        {
          "name": "_amount",
          "type": "uint256"
        }
      ],
      "name": "notifyWithdrawalCards",
      "outputs": [],
      "payable": false,
      "stateMutability": "nonpayable",
      "type": "function"
    },
    {
      "constant": false,
      "inputs": [
        {
          "name": "_sender",
          "type": "address"
        },
        {
          "name": "_amount",
          "type": "uint256"
        }
      ],
      "name": "notifyBurnCards",
      "outputs": [],
      "payable": false,
      "stateMutability": "nonpayable",
      "type": "function"
    },
    {
      "constant": false,
      "inputs": [
        {
          "name": "_sender",
          "type": "address"
        },
        {
          "name": "_amount",
          "type": "uint256"
        }
      ],
      "name": "notifyBurnTickets",
      "outputs": [],
      "payable": false,
      "stateMutability": "nonpayable",
      "type": "function"
    },
    {
      "constant": false,
      "inputs": [
        {
          "name": "_ticket",
          "type": "address"
        },
        {
          "name": "_card",
          "type": "address"
        },
        {
          "name": "_amount",
          "type": "uint256"
        },
        {
          "name": "_price",
          "type": "uint256"
        }
      ],
      "name": "depositTickets",
      "outputs": [],
      "payable": false,
      "stateMutability": "nonpayable",
      "type": "function"
    },
    {
      "constant": false,
      "inputs": [
        {
          "name": "_ticket",
          "type": "address"
        }
      ],
      "name": "getTicketPrice",
      "outputs": [
        {
          "name": "",
          "type": "uint256"
        }
      ],
      "payable": false,
      "stateMutability": "nonpayable",
      "type": "function"
    },
    {
      "constant": false,
      "inputs": [
        {
          "name": "_ticket",
          "type": "address"
        }
      ],
      "name": "getTicketStock",
      "outputs": [
        {
          "name": "",
          "type": "uint256"
        }
      ],
      "payable": false,
      "stateMutability": "nonpayable",
      "type": "function"
    },
    {
      "constant": false,
      "inputs": [
        {
          "name": "_ticket",
          "type": "address"
        }
      ],
      "name": "getTicketCurrency",
      "outputs": [
        {
          "name": "",
          "type": "address"
        }
      ],
      "payable": false,
      "stateMutability": "nonpayable",
      "type": "function"
    },
    {
      "constant": false,
      "inputs": [
        {
          "name": "_ticket",
          "type": "address"
        }
      ],
      "name": "buyTicket",
      "outputs": [],
      "payable": false,
      "stateMutability": "nonpayable",
      "type": "function"
    },
    {
      "constant": false,
      "inputs": [
        {
          "name": "_sender",
          "type": "address"
        },
        {
          "name": "_eventType",
          "type": "uint8"
        },
        {
          "name": "_currencyType",
          "type": "uint8"
        },
        {
          "name": "_target",
          "type": "address"
        },
        {
          "name": "_paidAmount",
          "type": "uint256"
        },
        {
          "name": "_receivedAmount",
          "type": "uint256"
        }
      ],
      "name": "recordLog",
      "outputs": [],
      "payable": false,
      "stateMutability": "nonpayable",
      "type": "function"
    },
    {
      "constant": false,
      "inputs": [
        {
          "name": "_sender",
          "type": "address"
        }
      ],
      "name": "getLogs",
      "outputs": [
        {
          "name": "",
          "type": "uint8[]"
        },
        {
          "name": "",
          "type": "uint8[]"
        },
        {
          "name": "",
          "type": "address[]"
        },
        {
          "name": "",
          "type": "uint256[]"
        },
        {
          "name": "",
          "type": "uint256[]"
        }
      ],
      "payable": false,
      "stateMutability": "nonpayable",
      "type": "function"
    },
    {
      "constant": false,
      "inputs": [
        {
          "name": "_userId",
          "type": "uint32"
        }
      ],
      "name": "getAddressList",
      "outputs": [
        {
          "name": "",
          "type": "address[]"
        }
      ],
      "payable": false,
      "stateMutability": "nonpayable",
      "type": "function"
    },
    {
      "constant": false,
      "inputs": [
        {
          "name": "_sender",
          "type": "address"
        }
      ],
      "name": "getCardList",
      "outputs": [
        {
          "name": "",
          "type": "address[]"
        }
      ],
      "payable": false,
      "stateMutability": "nonpayable",
      "type": "function"
    },
    {
      "constant": false,
      "inputs": [
        {
          "name": "_sender",
          "type": "address"
        },
        {
          "name": "_ticket",
          "type": "address"
        }
      ],
      "name": "getPaidTicketCounts",
      "outputs": [
        {
          "name": "",
          "type": "uint256"
        }
      ],
      "payable": false,
      "stateMutability": "nonpayable",
      "type": "function"
    }
  ],
  "bytecode": "0x6060604052341561000f57600080fd5b6040516020806117178339810160405280805160078054600160a060020a03928316600160a060020a03199182161790915560088054339093169290911691909117905550506116b3806100646000396000f3006060604052600436106100ed5763ffffffff60e060020a60003504166304d92e8c81146101be578063104ce370146101e25780631c1b603214610254578063217498411461028b5780632640bb36146102aa5780632d00e244146102cf5780633673a61f146102f15780635856406f1461030d5780636b6e11eb1461033557806380edef8e1461035157806381b92e5d1461038057806381de1be41461039f5780638322ada6146103ca578063a5f8cdbb146103ee578063c2999e1c1461040d578063e1f32e4b1461043e578063f1faf1c814610478578063f42b53cf146104a6578063fdbafc6d1461062d575b6000610117610107620186a0670de0b6b3a764000061064c565b670de0b6b3a7640000340461064c565b600754909150600160a060020a031663a9059cbb338360405160e060020a63ffffffff8516028152600160a060020a0390921660048301526024820152604401602060405180830381600087803b151561017057600080fd5b5af1151561017d57600080fd5b50505060405180515050600854600160a060020a03163480156108fc0290604051600060405180830381858888f1935050505015156101bb57600080fd5b50005b34156101c957600080fd5b6101e0600160a060020a0360043516602435610677565b005b34156101ed57600080fd5b610201600160a060020a0360043516610701565b60405160208082528190810183818151815260200191508051906020019060200280838360005b83811015610240578082015183820152602001610228565b505050509050019250505060405180910390f35b341561025f57600080fd5b610279600160a060020a036004358116906024351661078e565b60405190815260200160405180910390f35b341561029657600080fd5b610279600160a060020a03600435166107b9565b34156102b557600080fd5b6101e0600160a060020a0360043581169060243516610827565b34156102da57600080fd5b6101e0600160a060020a0360043516602435610914565b34156102fc57600080fd5b61020163ffffffff60043516610952565b341561031857600080fd5b6101e0600160a060020a03600435811690602435166044356109d7565b341561034057600080fd5b6101e063ffffffff60043516610a1a565b341561035c57600080fd5b610364610bd9565b604051600160a060020a03909116815260200160405180910390f35b341561038b57600080fd5b610279600160a060020a0360043516610be8565b34156103aa57600080fd5b6101e0600160a060020a0360043581169060243516604435606435610c06565b34156103d557600080fd5b6101e0600160a060020a03600435166024351515610ea3565b34156103f957600080fd5b6101e0600160a060020a0360043516610ee5565b341561041857600080fd5b6101e0600160a060020a03600435811690602435811690604435166064356084356110d9565b341561044957600080fd5b6101e0600160a060020a0360043581169060ff602435811691604435909116906064351660843560a435611159565b341561048357600080fd5b6101e0600160a060020a036004358116906024351660ff60443516606435611333565b34156104b157600080fd5b6104c5600160a060020a036004351661136b565b60405180806020018060200180602001806020018060200186810386528b818151815260200191508051906020019060200280838360005b838110156105155780820151838201526020016104fd565b5050505090500186810385528a818151815260200191508051906020019060200280838360005b8381101561055457808201518382015260200161053c565b50505050905001868103845289818151815260200191508051906020019060200280838360005b8381101561059357808201518382015260200161057b565b50505050905001868103835288818151815260200191508051906020019060200280838360005b838110156105d25780820151838201526020016105ba565b50505050905001868103825287818151815260200191508051906020019060200280838360005b838110156106115780820151838201526020016105f9565b505050509050019a505050505050505050505060405180910390f35b341561063857600080fd5b610364600160a060020a03600435166115d0565b6000828202831580610668575082848281151561066557fe5b04145b151561067057fe5b9392505050565b33600160a060020a03811660009081526002602052604090205460ff16151561069f57600080fd5b600160a060020a03808416600090815260046020908152604080832033909416835292905220546106d090836115f1565b600160a060020a03938416600090815260046020908152604080832033909716835295905293909320929092555050565b610709611600565b6003600083600160a060020a0316600160a060020a0316815260200190815260200160002080548060200260200160405190810160405280929190818152602001828054801561078257602002820191906000526020600020905b8154600160a060020a03168152600190910190602001808311610764575b50505050509050919050565b600160a060020a03918216600090815260046020908152604080832093909416825291909152205490565b600081600160a060020a0381166370a082313060405160e060020a63ffffffff8416028152600160a060020a039091166004820152602401602060405180830381600087803b151561080a57600080fd5b5af1151561081757600080fd5b5050506040518051949350505050565b6000805b600160a060020a03841660009081526003602052604090205463ffffffff821610156108ac57600160a060020a03848116600090815260036020526040902080549185169163ffffffff841690811061088057fe5b600091825260209091200154600160a060020a031614156108a457600191506108ac565b60010161082b565b81151561090e57600160a060020a03841660009081526003602052604090208054600181016108db8382611612565b506000918252602090912001805473ffffffffffffffffffffffffffffffffffffffff1916600160a060020a0385161790555b50505050565b33600160a060020a03811660009081526002602052604090205460ff16151561093c57600080fd5b61094d836004600033866000611159565b505050565b61095a611600565b600160008363ffffffff1663ffffffff16815260200190815260200160002080548060200260200160405190810160405280929190818152602001828054801561078257602002820191906000526020600020908154600160a060020a031681526001909101906020018083116107645750505050509050919050565b33600160a060020a03811660009081526002602052604090205460ff1615156109ff57600080fd5b610a098484610827565b61090e846001600086600087611159565b60008063ffffffff8316818111610a3057600080fd5b600160a060020a03331660009081526020819052604090205463ffffffff85811691161415610a5b57fe5b600160a060020a03331660009081526020819052604081205463ffffffff169350831115610b5757600091505b63ffffffff8084166000908152600160205260409020549083161015610b575763ffffffff8084166000908152600160205260409020805490918416908110610acd57fe5b60009182526020909120015433600160a060020a0390811691161415610b4c5763ffffffff8084166000908152600160205260408120805491929091908516908110610b1557fe5b6000918252602090912001805473ffffffffffffffffffffffffffffffffffffffff1916600160a060020a03929092169190911790555b600190910190610a88565b33600160a060020a0316600090815260208181526040808320805463ffffffff191663ffffffff89169081179091558352600191829052909120805490918101610ba18382611612565b506000918252602090912001805473ffffffffffffffffffffffffffffffffffffffff191633600160a060020a031617905550505050565b600854600160a060020a031681565b600160a060020a031660009081526005602052604090206002015490565b600160a060020a0384166000908152600260205260408120548190869060ff161515610c3157600080fd5b600160a060020a038616600090815260026020526040902054869060ff161515610c5a57600080fd5b60008611610c6757600080fd5b60008511610c7457600080fd5b87935083600160a060020a031663525564216040518163ffffffff1660e060020a028152600401602060405180830381600087803b1515610cb457600080fd5b5af11515610cc157600080fd5b50505060405180519050600160a060020a031633600160a060020a03161480610cf8575060085433600160a060020a039081169116145b1515610d0357600080fd5b87925082600160a060020a03166323b872dd33308960405160e060020a63ffffffff8616028152600160a060020a0393841660048201529190921660248201526044810191909152606401602060405180830381600087803b1515610d6757600080fd5b5af11515610d7457600080fd5b505050604051805190501515610d8657fe5b60606040519081016040528085600160a060020a031663525564216040518163ffffffff1660e060020a028152600401602060405180830381600087803b1515610dcf57600080fd5b5af11515610ddc57600080fd5b50505060405180519050600160a060020a0316815260200188600160a060020a0316815260200186815250600560008a600160a060020a0316600160a060020a031681526020019081526020016000206000820151815473ffffffffffffffffffffffffffffffffffffffff1916600160a060020a0391909116178155602082015160018201805473ffffffffffffffffffffffffffffffffffffffff1916600160a060020a03929092169190911790556040820151600290910155505050505050505050565b81600160a060020a0381161515610eb957600080fd5b50600160a060020a03919091166000908152600260205260409020805460ff1916911515919091179055565b600160a060020a0380821660009081526005602052604080822060018101546002820154919416929182919084906370a082319033905160e060020a63ffffffff8416028152600160a060020a039091166004820152602401602060405180830381600087803b1515610f5757600080fd5b5af11515610f6457600080fd5b5050506040518051905010151515610f7b57600080fd5b60018401546002850154600160a060020a03909116925082906379cc679090339060405160e060020a63ffffffff8516028152600160a060020a0390921660048301526024820152604401600060405180830381600087803b1515610fdf57600080fd5b5af11515610fec57600080fd5b505050849050600181600160a060020a03166370a082313060405160e060020a63ffffffff8416028152600160a060020a039091166004820152602401602060405180830381600087803b151561104257600080fd5b5af1151561104f57600080fd5b505050604051805190501015151561106657600080fd5b80600160a060020a031663a9059cbb33600160405160e060020a63ffffffff8516028152600160a060020a0390921660048301526024820152604401602060405180830381600087803b15156110bb57600080fd5b5af115156110c857600080fd5b505050604051805150505050505050565b600754600160a060020a03858116911614806111025750600754600160a060020a038481169116145b151561110d57600080fd5b600754600160a060020a0385811691161415611142576111338560036001868686611159565b61113d8584610827565b611152565b6111528560026001878686611159565b5050505050565b82600160a060020a038116151561116f57600080fd5b600160a060020a038416600090815260026020526040902054849060ff16151561119857600080fd5b600160a060020a03881660009081526006602052604090208054600181016111c08382611636565b916000526020600020906020918282040191900689909190916101000a81548160ff021916908360048111156111f257fe5b021790555050600160a060020a038816600090815260066020526040902060019081018054909181016112258382611636565b916000526020600020906020918282040191900688909190916101000a81548160ff0219169083600281111561125757fe5b021790555050600160a060020a03881660009081526006602052604090206002018054600181016112888382611612565b506000918252602080832091909101805473ffffffffffffffffffffffffffffffffffffffff1916600160a060020a03898116919091179091558a16825260069052604090206003018054600181016112e18382611612565b506000918252602080832091909101869055600160a060020a038a168252600690526040902060040180546001810161131a8382611612565b5060009182526020909120019290925550505050505050565b33600160a060020a03811660009081526002602052604090205460ff16151561135b57600080fd5b6111528560008587866000611159565b611373611600565b61137b611600565b611383611600565b61138b611600565b611393611600565b600160a060020a038616600090815260066020908152604091829020805490926001840192600285019260038601926004870192879291828202909101905190810160405280929190818152602001828054801561143a57602002820191906000526020600020906000905b82829054906101000a900460ff16600481111561141857fe5b8152602060019283018181049485019490930390920291018084116113ff5790505b50505050509450838054806020026020016040519081016040528092919081815260200182805480156114b657602002820191906000526020600020906000905b82829054906101000a900460ff16600281111561149457fe5b81526020600192830181810494850194909303909202910180841161147b5790505b505050505093508280548060200260200160405190810160405280929190818152602001828054801561151257602002820191906000526020600020905b8154600160a060020a031681526001909101906020018083116114f4575b505050505092508180548060200260200160405190810160405280929190818152602001828054801561156457602002820191906000526020600020905b815481526020019060010190808311611550575b50505050509150808054806020026020016040519081016040528092919081815260200182805480156115b657602002820191906000526020600020905b8154815260200190600101908083116115a2575b505050505090509450945094509450945091939590929450565b600160a060020a039081166000908152600560205260409020600101541690565b60008282018381101561067057fe5b60206040519081016040526000815290565b81548183558181151161094d5760008381526020902061094d918101908301611666565b81548183558181151161094d57601f016020900481601f0160209004836000526020600020918201910161094d91905b61168491905b80821115611680576000815560010161166c565b5090565b905600a165627a7a72305820be31be5ec68c31d5c39aa900c3eefe90142dbd0d09fe459962c2e7d39319b4870029",
  "source": "pragma solidity ^0.4.18;\nimport './interfaces/IFinancieCore.sol';\nimport './interfaces/IFinancieIssuerToken.sol';\nimport './interfaces/IERC20Token.sol';\nimport './Utils.sol';\n\ncontract FinancieCore is IFinancieCore, Utils {\n\n    mapping (address => uint32) userIds;\n    mapping (uint32 => address[]) userAddresses;\n    mapping (address => bool) targetContracts;\n    mapping (address => address[]) ownedCardList;\n    mapping (address => mapping (address => uint256)) paidTicketList;\n\n    struct TicketSale {\n        address issuer;\n        address card;\n        uint256 price;\n    }\n\n    mapping (address => TicketSale) ticketSales;\n\n    struct Logs {\n        EventType[] eventType;\n        CurrencyType[] currencyType;\n        address[] target;\n        uint256[] amountFrom;\n        uint256[] amountTo;\n    }\n\n    mapping (address => Logs) allLogs;\n\n    IERC20Token platformToken;\n    address public owner_address;\n\n    function FinancieCore(address _token) public {\n        platformToken = IERC20Token(_token);\n        owner_address = msg.sender;\n    }\n\n    modifier validTargetContract(address _contract) {\n        require(targetContracts[_contract]);\n        _;\n    }\n\n    function() payable public {\n        uint256 value = safeMul(safeMul(100000, 10 ** 18), msg.value / 1 ether);\n        platformToken.transfer(msg.sender, value);\n        owner_address.transfer(msg.value);\n    }\n\n    function activateUser(uint32 _userId)\n        public\n        greaterThanZero(_userId)\n    {\n        assert(_userId != userIds[msg.sender]);\n\n        // remove from previous account\n        uint32 prev = userIds[msg.sender];\n        if ( prev > 0 ) {\n            for (uint32 i = 0; i < userAddresses[prev].length; i++) {\n                if ( msg.sender == userAddresses[prev][i] ) {\n                    userAddresses[prev][i] = 0;\n                }\n            }\n        }\n\n        // set new account\n        userIds[msg.sender] = _userId;\n        userAddresses[_userId].push(msg.sender);\n    }\n\n    function activateTargetContract(address _contract, bool _enabled)\n        public\n        validAddress(_contract)\n    {\n        targetContracts[_contract] = _enabled;\n    }\n\n    function notifyConvertCards(address _sender,\n        address _from,\n        address _to,\n        uint256 _amountFrom,\n        uint256 _amountTo)\n        public\n    {\n        require(_from == address(platformToken) || _to == address(platformToken));\n        if ( _from == address(platformToken) ) {\n            recordLog(_sender, EventType.BuyCards, CurrencyType.PlatformCoin, _to, _amountFrom, _amountTo);\n            addOwnedCardList(_sender, _to);\n        } else {\n            recordLog(_sender, EventType.SellCards, CurrencyType.PlatformCoin, _from, _amountFrom, _amountTo);\n        }\n    }\n\n    /**\n    *\n    */\n    function addOwnedCardList(address _sender, address _address) {\n        bool exist = false;\n        for (uint32 i = 0; i < ownedCardList[_sender].length; i++) {\n            if ( ownedCardList[_sender][i] == _address ) {\n                exist = true;\n                break;\n            }\n        }\n        if ( !exist ) {\n            ownedCardList[_sender].push(_address);\n        }\n    }\n\n    /**\n    * log the bid of cards for sales contract\n    */\n    function notifyBidCards(address _sender, address _to, CurrencyType _type, uint256 _amount)\n        public\n        validTargetContract(msg.sender)\n    {\n        recordLog(_sender, EventType.BidCards, _type, _to, _amount, 0);\n    }\n\n    /**\n    * log the withdrawal of cards from sales contract\n    */\n    function notifyWithdrawalCards(address _sender, address _to, uint256 _amount)\n        public\n        validTargetContract(msg.sender)\n    {\n        addOwnedCardList(_sender, _to);\n        recordLog(_sender, EventType.WithdrawCards, CurrencyType.None, _to, 0, _amount);\n    }\n\n    /**\n    * log the burn of cards\n    */\n    function notifyBurnCards(address _sender, uint256 _amount)\n        public\n        validTargetContract(msg.sender)\n    {\n        recordLog(_sender, EventType.BurnCards, CurrencyType.None, msg.sender, _amount, 0);\n    }\n\n    /**\n    * log the burn of tickets\n    */\n    function notifyBurnTickets(address _sender, uint256 _amount)\n        public\n        validTargetContract(msg.sender)\n    {\n        paidTicketList[_sender][msg.sender] = safeAdd(paidTicketList[_sender][msg.sender], _amount);\n    }\n\n    /**\n    * issuer deposits tickets into this contract and register it as a sales item\n    */\n    function depositTickets(address _ticket, address _card, uint256 _amount, uint256 _price)\n        public\n        validTargetContract(_ticket)\n        validTargetContract(_card)\n    {\n        require(_amount > 0);\n        require(_price > 0);\n\n        /**\n        * check ticket issuer and deposit tickets into this contract\n        */\n        IFinancieIssuerToken ticket = IFinancieIssuerToken(_ticket);\n        require(msg.sender == ticket.getIssuer() || msg.sender == owner_address );\n\n        IERC20Token tokenTicket = IERC20Token(_ticket);\n        assert(tokenTicket.transferFrom(msg.sender, this, _amount));\n\n        /**\n        * register it as a sales item\n        */\n        ticketSales[_ticket] = TicketSale(ticket.getIssuer(), _card, _price);\n    }\n\n    function getTicketPrice(address _ticket) public returns(uint256) {\n        return ticketSales[_ticket].price;\n    }\n\n    function getTicketStock(address _ticket) public returns(uint256) {\n        IERC20Token tokenTicket = IERC20Token(_ticket);\n        return tokenTicket.balanceOf(this);\n    }\n\n    function getTicketCurrency(address _ticket) public returns(address) {\n        return ticketSales[_ticket].card;\n    }\n\n    function buyTicket(address _ticket) public {\n        TicketSale ticketSale = ticketSales[_ticket];\n\n        /**\n        * check currency balance and burn the number of price from the buyer\n        */\n        IERC20Token cardToken = IERC20Token(ticketSale.card);\n        require(cardToken.balanceOf(msg.sender) >= ticketSale.price);\n\n        IFinancieIssuerToken card = IFinancieIssuerToken(ticketSale.card);\n        card.burnFrom(msg.sender, ticketSale.price);\n\n        /**\n        * check tickets in stock and transfer a ticket to the buyer\n        */\n        IERC20Token ticket = IERC20Token(_ticket);\n        require(ticket.balanceOf(address(this)) >= 1);\n        ticket.transfer(msg.sender, 1);\n    }\n\n    function recordLog(address _sender,\n        EventType _eventType,\n        CurrencyType _currencyType,\n        address _target,\n        uint256 _paidAmount,\n        uint256 _receivedAmount)\n        public\n        validAddress(_target)\n        validTargetContract(_target)\n    {\n        allLogs[_sender].eventType.push(_eventType);\n        allLogs[_sender].currencyType.push(_currencyType);\n        allLogs[_sender].target.push(_target);\n        allLogs[_sender].amountFrom.push(_paidAmount);\n        allLogs[_sender].amountTo.push(_receivedAmount);\n    }\n\n    function getLogs(address _sender)\n        public returns(EventType[], CurrencyType[], address[], uint256[], uint256[])\n    {\n        return (allLogs[_sender].eventType,\n          allLogs[_sender].currencyType,\n          allLogs[_sender].target,\n          allLogs[_sender].amountFrom,\n          allLogs[_sender].amountTo);\n    }\n\n    function getAddressList(uint32 _userId) returns(address[]) {\n        return userAddresses[_userId];\n    }\n\n    function getCardList(address _sender) returns(address[]) {\n        return ownedCardList[_sender];\n    }\n\n    function getPaidTicketCounts(address _sender, address _ticket) public returns(uint256) {\n        return paidTicketList[_sender][_ticket];\n    }\n}\n",
  "sourcePath": "/Users/rudo/contracts/solidity/contracts/FinancieCore.sol",
  "compiler": {
    "name": "solc",
    "version": "0.4.21+commit.dfe3193c.Emscripten.clang"
  },
  "schemaVersion": "2.0.0",
  "updatedAt": "2018-06-27T10:13:47.511Z"
}