{
  "contractName": "IBancorConverterExtensions",
  "abi": [
    {
      "constant": true,
      "inputs": [],
      "name": "formula",
      "outputs": [
        {
          "name": "",
          "type": "address"
        }
      ],
      "payable": false,
      "stateMutability": "view",
      "type": "function"
    },
    {
      "constant": true,
      "inputs": [],
      "name": "gasPriceLimit",
      "outputs": [
        {
          "name": "",
          "type": "address"
        }
      ],
      "payable": false,
      "stateMutability": "view",
      "type": "function"
    },
    {
      "constant": true,
      "inputs": [],
      "name": "quickConverter",
      "outputs": [
        {
          "name": "",
          "type": "address"
        }
      ],
      "payable": false,
      "stateMutability": "view",
      "type": "function"
    }
  ],
  "bytecode": "0x6060604052341561000f57600080fd5b60c18061001d6000396000f30060606040526004361060525763ffffffff7c01000000000000000000000000000000000000000000000000000000006000350416634b75f54f81146057578063961a929c146057578063c31e0547146057575b600080fd5b3415606157600080fd5b60676090565b60405173ffffffffffffffffffffffffffffffffffffffff909116815260200160405180910390f35b6000905600a165627a7a7230582066949c9c075815bcc36a6fbddb88d9578c588c00928d1efee48844899ea374410029",
  "source": "pragma solidity ^0.4.18;\nimport './IBancorFormula.sol';\nimport './IBancorGasPriceLimit.sol';\nimport './IBancorQuickConverter.sol';\n\n/*\n    Bancor Converter Extensions interface\n*/\ncontract IBancorConverterExtensions {\n    function formula() public view returns (IBancorFormula) {}\n    function gasPriceLimit() public view returns (IBancorGasPriceLimit) {}\n    function quickConverter() public view returns (IBancorQuickConverter) {}\n}\n",
  "sourcePath": "/Users/rudo/Documents/ichiba/submodules/contracts/solidity/contracts/interfaces/IBancorConverterExtensions.sol",
  "compiler": {
    "name": "solc",
    "version": "0.4.21+commit.dfe3193c.Emscripten.clang"
  },
  "schemaVersion": "2.0.0",
  "updatedAt": "2018-07-23T12:54:41.612Z"
}