{
  "contractName": "IBancorGasPriceLimit",
  "abi": [
    {
      "constant": true,
      "inputs": [],
      "name": "gasPrice",
      "outputs": [
        {
          "name": "",
          "type": "uint256"
        }
      ],
      "payable": false,
      "stateMutability": "view",
      "type": "function"
    }
  ],
  "bytecode": "0x60606040523415600e57600080fd5b60968061001c6000396000f300606060405260043610603e5763ffffffff7c0100000000000000000000000000000000000000000000000000000000600035041663fe173b9781146043575b600080fd5b3415604d57600080fd5b60536065565b60405190815260200160405180910390f35b6000905600a165627a7a72305820e98fd89ea57aea81461bcc501c30d9ab0e75fe2ab84179b3e58050981af498f60029",
  "source": "pragma solidity ^0.4.18;\n\n/*\n    Bancor Gas Price Limit interface\n*/\ncontract IBancorGasPriceLimit {\n    function gasPrice() public view returns (uint256) {}\n}\n",
  "sourcePath": "/Users/rudo/contracts/solidity/contracts/interfaces/IBancorGasPriceLimit.sol",
  "compiler": {
    "name": "solc",
    "version": "0.4.21+commit.dfe3193c.Emscripten.clang"
  },
  "schemaVersion": "2.0.0",
  "updatedAt": "2018-06-27T09:04:30.230Z"
}