{
  "contractName": "Managed",
  "abi": [
    {
      "constant": true,
      "inputs": [],
      "name": "newManager",
      "outputs": [
        {
          "name": "",
          "type": "address"
        }
      ],
      "payable": false,
      "stateMutability": "view",
      "type": "function"
    },
    {
      "constant": true,
      "inputs": [],
      "name": "manager",
      "outputs": [
        {
          "name": "",
          "type": "address"
        }
      ],
      "payable": false,
      "stateMutability": "view",
      "type": "function"
    },
    {
      "inputs": [],
      "payable": false,
      "stateMutability": "nonpayable",
      "type": "constructor"
    },
    {
      "anonymous": false,
      "inputs": [
        {
          "indexed": true,
          "name": "_prevManager",
          "type": "address"
        },
        {
          "indexed": true,
          "name": "_newManager",
          "type": "address"
        }
      ],
      "name": "ManagerUpdate",
      "type": "event"
    },
    {
      "constant": false,
      "inputs": [
        {
          "name": "_newManager",
          "type": "address"
        }
      ],
      "name": "transferManagement",
      "outputs": [],
      "payable": false,
      "stateMutability": "nonpayable",
      "type": "function"
    },
    {
      "constant": false,
      "inputs": [],
      "name": "acceptManagement",
      "outputs": [],
      "payable": false,
      "stateMutability": "nonpayable",
      "type": "function"
    }
  ],
  "bytecode": "0x6060604052341561000f57600080fd5b60008054600160a060020a033316600160a060020a03199091161790556102168061003b6000396000f3006060604052600436106100615763ffffffff7c0100000000000000000000000000000000000000000000000000000000600035041663429060298114610066578063481c6a7514610095578063c8c2fe6c146100a8578063e4edf852146100bd575b600080fd5b341561007157600080fd5b6100796100dc565b604051600160a060020a03909116815260200160405180910390f35b34156100a057600080fd5b6100796100eb565b34156100b357600080fd5b6100bb6100fa565b005b34156100c857600080fd5b6100bb600160a060020a0360043516610188565b600154600160a060020a031681565b600054600160a060020a031681565b60015433600160a060020a0390811691161461011557600080fd5b600154600054600160a060020a0391821691167fbe4cc281795971a471c980e842627a7f1ea3892ddfce8c5b6357cd2611c1973260405160405180910390a3600180546000805473ffffffffffffffffffffffffffffffffffffffff19908116600160a060020a03841617909155169055565b60005433600160a060020a039081169116146101a057fe5b600054600160a060020a03828116911614156101bb57600080fd5b6001805473ffffffffffffffffffffffffffffffffffffffff1916600160a060020a03929092169190911790555600a165627a7a723058204914a95816b32cdc5bbb98f2e02eebcd2d7a2e663add6381cd49f99e420901d10029",
  "source": "pragma solidity ^0.4.18;\n\n/*\n    Provides support and utilities for contract management\n*/\ncontract Managed {\n    address public manager;\n    address public newManager;\n\n    event ManagerUpdate(address indexed _prevManager, address indexed _newManager);\n\n    /**\n        @dev constructor\n    */\n    function Managed() public {\n        manager = msg.sender;\n    }\n\n    // allows execution by the manager only\n    modifier managerOnly {\n        assert(msg.sender == manager);\n        _;\n    }\n\n    /**\n        @dev allows transferring the contract management\n        the new manager still needs to accept the transfer\n        can only be called by the contract manager\n\n        @param _newManager    new contract manager\n    */\n    function transferManagement(address _newManager) public managerOnly {\n        require(_newManager != manager);\n        newManager = _newManager;\n    }\n\n    /**\n        @dev used by a new manager to accept a management transfer\n    */\n    function acceptManagement() public {\n        require(msg.sender == newManager);\n        ManagerUpdate(manager, newManager);\n        manager = newManager;\n        newManager = address(0);\n    }\n}\n",
  "sourcePath": "/Users/rudo/Documents/ichiba/submodules/contracts/solidity/contracts/Managed.sol",
  "compiler": {
    "name": "solc",
    "version": "0.4.21+commit.dfe3193c.Emscripten.clang"
  },
  "schemaVersion": "2.0.0",
  "updatedAt": "2018-08-07T05:25:05.878Z"
}