{
  "contractName": "Owned",
  "abi": [
    {
      "constant": true,
      "inputs": [],
      "name": "owner",
      "outputs": [
        {
          "name": "",
          "type": "address"
        }
      ],
      "payable": false,
      "stateMutability": "view",
      "type": "function"
    },
    {
      "constant": true,
      "inputs": [],
      "name": "newOwner",
      "outputs": [
        {
          "name": "",
          "type": "address"
        }
      ],
      "payable": false,
      "stateMutability": "view",
      "type": "function"
    },
    {
      "inputs": [],
      "payable": false,
      "stateMutability": "nonpayable",
      "type": "constructor"
    },
    {
      "anonymous": false,
      "inputs": [
        {
          "indexed": true,
          "name": "_prevOwner",
          "type": "address"
        },
        {
          "indexed": true,
          "name": "_newOwner",
          "type": "address"
        }
      ],
      "name": "OwnerUpdate",
      "type": "event"
    },
    {
      "constant": false,
      "inputs": [
        {
          "name": "_newOwner",
          "type": "address"
        }
      ],
      "name": "transferOwnership",
      "outputs": [],
      "payable": false,
      "stateMutability": "nonpayable",
      "type": "function"
    },
    {
      "constant": false,
      "inputs": [],
      "name": "acceptOwnership",
      "outputs": [],
      "payable": false,
      "stateMutability": "nonpayable",
      "type": "function"
    }
  ],
  "bytecode": "0x6060604052341561000f57600080fd5b60008054600160a060020a033316600160a060020a03199091161790556102168061003b6000396000f3006060604052600436106100615763ffffffff7c010000000000000000000000000000000000000000000000000000000060003504166379ba509781146100665780638da5cb5b1461007b578063d4ee1d90146100aa578063f2fde38b146100bd575b600080fd5b341561007157600080fd5b6100796100dc565b005b341561008657600080fd5b61008e61016a565b604051600160a060020a03909116815260200160405180910390f35b34156100b557600080fd5b61008e610179565b34156100c857600080fd5b610079600160a060020a0360043516610188565b60015433600160a060020a039081169116146100f757600080fd5b600154600054600160a060020a0391821691167f343765429aea5a34b3ff6a3785a98a5abb2597aca87bfbb58632c173d585373a60405160405180910390a3600180546000805473ffffffffffffffffffffffffffffffffffffffff19908116600160a060020a03841617909155169055565b600054600160a060020a031681565b600154600160a060020a031681565b60005433600160a060020a039081169116146101a057fe5b600054600160a060020a03828116911614156101bb57600080fd5b6001805473ffffffffffffffffffffffffffffffffffffffff1916600160a060020a03929092169190911790555600a165627a7a72305820c7bffc080ff04feacff505e10bbc547f3a1abdfa012e4a8d203af3b3a7cfc1860029",
  "source": "pragma solidity ^0.4.18;\nimport './interfaces/IOwned.sol';\n\n/*\n    Provides support and utilities for contract ownership\n*/\ncontract Owned is IOwned {\n    address public owner;\n    address public newOwner;\n\n    event OwnerUpdate(address indexed _prevOwner, address indexed _newOwner);\n\n    /**\n        @dev constructor\n    */\n    function Owned() public {\n        owner = msg.sender;\n    }\n\n    // allows execution by the owner only\n    modifier ownerOnly {\n        assert(msg.sender == owner);\n        _;\n    }\n\n    /**\n        @dev allows transferring the contract ownership\n        the new owner still needs to accept the transfer\n        can only be called by the contract owner\n\n        @param _newOwner    new contract owner\n    */\n    function transferOwnership(address _newOwner) public ownerOnly {\n        require(_newOwner != owner);\n        newOwner = _newOwner;\n    }\n\n    /**\n        @dev used by a new owner to accept an ownership transfer\n    */\n    function acceptOwnership() public {\n        require(msg.sender == newOwner);\n        OwnerUpdate(owner, newOwner);\n        owner = newOwner;\n        newOwner = address(0);\n    }\n}\n",
  "sourcePath": "/Users/rudo/Documents/ichiba/submodules/contracts/solidity/contracts/Owned.sol",
  "compiler": {
    "name": "solc",
    "version": "0.4.21+commit.dfe3193c.Emscripten.clang"
  },
  "schemaVersion": "2.0.0",
  "updatedAt": "2018-07-20T05:52:38.386Z"
}