{
  "contractName": "SmartToken",
  "abi": [
    {
      "constant": true,
      "inputs": [],
      "name": "name",
      "outputs": [
        {
          "name": "",
          "type": "string"
        }
      ],
      "payable": false,
      "stateMutability": "view",
      "type": "function"
    },
    {
      "constant": false,
      "inputs": [
        {
          "name": "_spender",
          "type": "address"
        },
        {
          "name": "_value",
          "type": "uint256"
        }
      ],
      "name": "approve",
      "outputs": [
        {
          "name": "success",
          "type": "bool"
        }
      ],
      "payable": false,
      "stateMutability": "nonpayable",
      "type": "function"
    },
    {
      "constant": true,
      "inputs": [],
      "name": "totalSupply",
      "outputs": [
        {
          "name": "",
          "type": "uint256"
        }
      ],
      "payable": false,
      "stateMutability": "view",
      "type": "function"
    },
    {
      "constant": true,
      "inputs": [],
      "name": "decimals",
      "outputs": [
        {
          "name": "",
          "type": "uint8"
        }
      ],
      "payable": false,
      "stateMutability": "view",
      "type": "function"
    },
    {
      "constant": true,
      "inputs": [],
      "name": "version",
      "outputs": [
        {
          "name": "",
          "type": "string"
        }
      ],
      "payable": false,
      "stateMutability": "view",
      "type": "function"
    },
    {
      "constant": true,
      "inputs": [],
      "name": "standard",
      "outputs": [
        {
          "name": "",
          "type": "string"
        }
      ],
      "payable": false,
      "stateMutability": "view",
      "type": "function"
    },
    {
      "constant": false,
      "inputs": [
        {
          "name": "_token",
          "type": "address"
        },
        {
          "name": "_to",
          "type": "address"
        },
        {
          "name": "_amount",
          "type": "uint256"
        }
      ],
      "name": "withdrawTokens",
      "outputs": [],
      "payable": false,
      "stateMutability": "nonpayable",
      "type": "function"
    },
    {
      "constant": true,
      "inputs": [
        {
          "name": "",
          "type": "address"
        }
      ],
      "name": "balanceOf",
      "outputs": [
        {
          "name": "",
          "type": "uint256"
        }
      ],
      "payable": false,
      "stateMutability": "view",
      "type": "function"
    },
    {
      "constant": false,
      "inputs": [],
      "name": "acceptOwnership",
      "outputs": [],
      "payable": false,
      "stateMutability": "nonpayable",
      "type": "function"
    },
    {
      "constant": true,
      "inputs": [],
      "name": "owner",
      "outputs": [
        {
          "name": "",
          "type": "address"
        }
      ],
      "payable": false,
      "stateMutability": "view",
      "type": "function"
    },
    {
      "constant": true,
      "inputs": [],
      "name": "symbol",
      "outputs": [
        {
          "name": "",
          "type": "string"
        }
      ],
      "payable": false,
      "stateMutability": "view",
      "type": "function"
    },
    {
      "constant": true,
      "inputs": [],
      "name": "transfersEnabled",
      "outputs": [
        {
          "name": "",
          "type": "bool"
        }
      ],
      "payable": false,
      "stateMutability": "view",
      "type": "function"
    },
    {
      "constant": true,
      "inputs": [],
      "name": "newOwner",
      "outputs": [
        {
          "name": "",
          "type": "address"
        }
      ],
      "payable": false,
      "stateMutability": "view",
      "type": "function"
    },
    {
      "constant": true,
      "inputs": [
        {
          "name": "",
          "type": "address"
        },
        {
          "name": "",
          "type": "address"
        }
      ],
      "name": "allowance",
      "outputs": [
        {
          "name": "",
          "type": "uint256"
        }
      ],
      "payable": false,
      "stateMutability": "view",
      "type": "function"
    },
    {
      "constant": false,
      "inputs": [
        {
          "name": "_newOwner",
          "type": "address"
        }
      ],
      "name": "transferOwnership",
      "outputs": [],
      "payable": false,
      "stateMutability": "nonpayable",
      "type": "function"
    },
    {
      "inputs": [
        {
          "name": "_name",
          "type": "string"
        },
        {
          "name": "_symbol",
          "type": "string"
        },
        {
          "name": "_decimals",
          "type": "uint8"
        }
      ],
      "payable": false,
      "stateMutability": "nonpayable",
      "type": "constructor"
    },
    {
      "anonymous": false,
      "inputs": [
        {
          "indexed": false,
          "name": "_token",
          "type": "address"
        }
      ],
      "name": "NewSmartToken",
      "type": "event"
    },
    {
      "anonymous": false,
      "inputs": [
        {
          "indexed": false,
          "name": "_amount",
          "type": "uint256"
        }
      ],
      "name": "Issuance",
      "type": "event"
    },
    {
      "anonymous": false,
      "inputs": [
        {
          "indexed": false,
          "name": "_amount",
          "type": "uint256"
        }
      ],
      "name": "Destruction",
      "type": "event"
    },
    {
      "anonymous": false,
      "inputs": [
        {
          "indexed": true,
          "name": "_from",
          "type": "address"
        },
        {
          "indexed": true,
          "name": "_to",
          "type": "address"
        },
        {
          "indexed": false,
          "name": "_value",
          "type": "uint256"
        }
      ],
      "name": "Transfer",
      "type": "event"
    },
    {
      "anonymous": false,
      "inputs": [
        {
          "indexed": true,
          "name": "_owner",
          "type": "address"
        },
        {
          "indexed": true,
          "name": "_spender",
          "type": "address"
        },
        {
          "indexed": false,
          "name": "_value",
          "type": "uint256"
        }
      ],
      "name": "Approval",
      "type": "event"
    },
    {
      "anonymous": false,
      "inputs": [
        {
          "indexed": true,
          "name": "_prevOwner",
          "type": "address"
        },
        {
          "indexed": true,
          "name": "_newOwner",
          "type": "address"
        }
      ],
      "name": "OwnerUpdate",
      "type": "event"
    },
    {
      "constant": false,
      "inputs": [
        {
          "name": "_disable",
          "type": "bool"
        }
      ],
      "name": "disableTransfers",
      "outputs": [],
      "payable": false,
      "stateMutability": "nonpayable",
      "type": "function"
    },
    {
      "constant": false,
      "inputs": [
        {
          "name": "_to",
          "type": "address"
        },
        {
          "name": "_amount",
          "type": "uint256"
        }
      ],
      "name": "issue",
      "outputs": [],
      "payable": false,
      "stateMutability": "nonpayable",
      "type": "function"
    },
    {
      "constant": false,
      "inputs": [
        {
          "name": "_from",
          "type": "address"
        },
        {
          "name": "_amount",
          "type": "uint256"
        }
      ],
      "name": "destroy",
      "outputs": [],
      "payable": false,
      "stateMutability": "nonpayable",
      "type": "function"
    },
    {
      "constant": false,
      "inputs": [
        {
          "name": "_to",
          "type": "address"
        },
        {
          "name": "_value",
          "type": "uint256"
        }
      ],
      "name": "transfer",
      "outputs": [
        {
          "name": "success",
          "type": "bool"
        }
      ],
      "payable": false,
      "stateMutability": "nonpayable",
      "type": "function"
    },
    {
      "constant": false,
      "inputs": [
        {
          "name": "_from",
          "type": "address"
        },
        {
          "name": "_to",
          "type": "address"
        },
        {
          "name": "_value",
          "type": "uint256"
        }
      ],
      "name": "transferFrom",
      "outputs": [
        {
          "name": "success",
          "type": "bool"
        }
      ],
      "payable": false,
      "stateMutability": "nonpayable",
      "type": "function"
    }
  ],
  "bytecode": "0x606060405260408051908101604052600981527f546f6b656e20302e310000000000000000000000000000000000000000000000602082015260029080516200004d929160200190620001ff565b50602060405190810160405260008152600390805162000072929160200190620001ff565b50602060405190810160405260008152600490805162000097929160200190620001ff565b506005805460ff19169055600060065560408051908101604052600381527f302e33000000000000000000000000000000000000000000000000000000000060208201526009908051620000f0929160200190620001ff565b50600a805460ff1916600117905534156200010a57600080fd5b60405162001062380380620010628339810160405280805182019190602001805182019190602001805160008054600160a060020a03191633600160a060020a03161781559092508491508390839083511180156200016a575060008251115b15156200017657600080fd5b60038380516200018b929160200190620001ff565b506004828051620001a1929160200190620001ff565b506005805460ff191660ff92909216919091179055507ff4cd1f8571e8d9c97ffcb81558807ab73f9803d54de5da6a0420593c82a4a9f0905030604051600160a060020a03909116815260200160405180910390a1505050620002a4565b828054600181600116156101000203166002900490600052602060002090601f016020900481019282601f106200024257805160ff191683800117855562000272565b8280016001018555821562000272579182015b828111156200027257825182559160200191906001019062000255565b506200028092915062000284565b5090565b620002a191905b808211156200028057600081556001016200028b565b90565b610dae80620002b46000396000f3006060604052600436106101115763ffffffff7c010000000000000000000000000000000000000000000000000000000060003504166306fdde038114610116578063095ea7b3146101a05780631608f18f146101d657806318160ddd146101f057806323b872dd14610215578063313ce5671461023d57806354fd4d50146102665780635a3b7e42146102795780635e35359e1461028c57806370a08231146102b457806379ba5097146102d3578063867904b4146102e65780638da5cb5b1461030857806395d89b4114610337578063a24835d11461034a578063a9059cbb1461036c578063bef97c871461038e578063d4ee1d90146103a1578063dd62ed3e146103b4578063f2fde38b146103d9575b600080fd5b341561012157600080fd5b6101296103f8565b60405160208082528190810183818151815260200191508051906020019080838360005b8381101561016557808201518382015260200161014d565b50505050905090810190601f1680156101925780820380516001836020036101000a031916815260200191505b509250505060405180910390f35b34156101ab57600080fd5b6101c2600160a060020a0360043516602435610496565b604051901515815260200160405180910390f35b34156101e157600080fd5b6101ee6004351515610553565b005b34156101fb57600080fd5b61020361057d565b60405190815260200160405180910390f35b341561022057600080fd5b6101c2600160a060020a0360043581169060243516604435610583565b341561024857600080fd5b6102506105b1565b60405160ff909116815260200160405180910390f35b341561027157600080fd5b6101296105ba565b341561028457600080fd5b610129610625565b341561029757600080fd5b6101ee600160a060020a0360043581169060243516604435610690565b34156102bf57600080fd5b610203600160a060020a036004351661078a565b34156102de57600080fd5b6101ee61079c565b34156102f157600080fd5b6101ee600160a060020a036004351660243561082a565b341561031357600080fd5b61031b610938565b604051600160a060020a03909116815260200160405180910390f35b341561034257600080fd5b610129610947565b341561035557600080fd5b6101ee600160a060020a03600435166024356109b2565b341561037757600080fd5b6101c2600160a060020a0360043516602435610a9d565b341561039957600080fd5b6101c2610ac9565b34156103ac57600080fd5b61031b610ad2565b34156103bf57600080fd5b610203600160a060020a0360043581169060243516610ae1565b34156103e457600080fd5b6101ee600160a060020a0360043516610afe565b60038054600181600116156101000203166002900480601f01602080910402602001604051908101604052809291908181526020018280546001816001161561010002031660029004801561048e5780601f106104635761010080835404028352916020019161048e565b820191906000526020600020905b81548152906001019060200180831161047157829003601f168201915b505050505081565b600082600160a060020a03811615156104ae57600080fd5b8215806104de5750600160a060020a03338116600090815260086020908152604080832093881683529290522054155b15156104e957600080fd5b600160a060020a03338116600081815260086020908152604080832094891680845294909152908190208690557f8c5be1e5ebec7d5bd14f71427d1e84f3dd0314c0f7b2291e5b200ac8c7c3b9259086905190815260200160405180910390a35060019392505050565b60005433600160a060020a0390811691161461056b57fe5b600a805460ff19169115919091179055565b60065481565b600a5460009060ff16151561059457fe5b61059f848484610b60565b15156105a757fe5b5060019392505050565b60055460ff1681565b60098054600181600116156101000203166002900480601f01602080910402602001604051908101604052809291908181526020018280546001816001161561010002031660029004801561048e5780601f106104635761010080835404028352916020019161048e565b60028054600181600116156101000203166002900480601f01602080910402602001604051908101604052809291908181526020018280546001816001161561010002031660029004801561048e5780601f106104635761010080835404028352916020019161048e565b60005433600160a060020a039081169116146106a857fe5b82600160a060020a03811615156106be57600080fd5b82600160a060020a03811615156106d457600080fd5b8330600160a060020a031681600160a060020a0316141515156106f657600080fd5b85600160a060020a031663a9059cbb86866040517c010000000000000000000000000000000000000000000000000000000063ffffffff8516028152600160a060020a0390921660048301526024820152604401602060405180830381600087803b151561076357600080fd5b5af1151561077057600080fd5b50505060405180519050151561078257fe5b505050505050565b60076020526000908152604090205481565b60015433600160a060020a039081169116146107b757600080fd5b600154600054600160a060020a0391821691167f343765429aea5a34b3ff6a3785a98a5abb2597aca87bfbb58632c173d585373a60405160405180910390a3600180546000805473ffffffffffffffffffffffffffffffffffffffff19908116600160a060020a03841617909155169055565b60005433600160a060020a0390811691161461084257fe5b81600160a060020a038116151561085857600080fd5b8230600160a060020a031681600160a060020a03161415151561087a57600080fd5b61088660065484610c80565b600655600160a060020a0384166000908152600760205260409020546108ac9084610c80565b600160a060020a03851660009081526007602052604090819020919091557f9386c90217c323f58030f9dadcbc938f807a940f4ff41cd4cead9562f5da7dc39084905190815260200160405180910390a183600160a060020a031630600160a060020a0316600080516020610d638339815191528560405190815260200160405180910390a350505050565b600054600160a060020a031681565b60048054600181600116156101000203166002900480601f01602080910402602001604051908101604052809291908181526020018280546001816001161561010002031660029004801561048e5780601f106104635761010080835404028352916020019161048e565b81600160a060020a031633600160a060020a031614806109e0575060005433600160a060020a039081169116145b15156109eb57600080fd5b600160a060020a038216600090815260076020526040902054610a0e9082610c96565b600160a060020a038316600090815260076020526040902055600654610a349082610c96565b600655600160a060020a03308116908316600080516020610d638339815191528360405190815260200160405180910390a37f9a1b418bc061a5d80270261562e6986a35d995f8051145f277be16103abd34538160405190815260200160405180910390a15050565b600a5460009060ff161515610aae57fe5b610ab88383610ca8565b1515610ac057fe5b50600192915050565b600a5460ff1681565b600154600160a060020a031681565b600860209081526000928352604080842090915290825290205481565b60005433600160a060020a03908116911614610b1657fe5b600054600160a060020a0382811691161415610b3157600080fd5b6001805473ffffffffffffffffffffffffffffffffffffffff1916600160a060020a0392909216919091179055565b600083600160a060020a0381161515610b7857600080fd5b83600160a060020a0381161515610b8e57600080fd5b600160a060020a0380871660009081526008602090815260408083203390941683529290522054610bbf9085610c96565b600160a060020a038088166000818152600860209081526040808320339095168352938152838220949094559081526007909252902054610c009085610c96565b600160a060020a038088166000908152600760205260408082209390935590871681522054610c2f9085610c80565b600160a060020a0380871660008181526007602052604090819020939093559190881690600080516020610d638339815191529087905190815260200160405180910390a350600195945050505050565b600082820183811015610c8f57fe5b9392505050565b600081831015610ca257fe5b50900390565b600082600160a060020a0381161515610cc057600080fd5b600160a060020a033316600090815260076020526040902054610ce39084610c96565b600160a060020a033381166000908152600760205260408082209390935590861681522054610d129084610c80565b600160a060020a038086166000818152600760205260409081902093909355913390911690600080516020610d638339815191529086905190815260200160405180910390a350600193925050505600ddf252ad1be2c89b69c2b068fc378daa952ba7f163c4a11628f55a4df523b3efa165627a7a723058206edb4d6d6658c7119022cd629f36226095ac2c4dcb6d135e860b59cb713262eb0029",
  "source": "pragma solidity ^0.4.18;\nimport './ERC20Token.sol';\nimport './TokenHolder.sol';\nimport './Owned.sol';\nimport './interfaces/ISmartToken.sol';\n\n/*\n    Smart Token v0.3\n\n    'Owned' is specified here for readability reasons\n*/\ncontract SmartToken is ISmartToken, Owned, ERC20Token, TokenHolder {\n    string public version = '0.3';\n\n    bool public transfersEnabled = true;    // true if transfer/transferFrom are enabled, false if not\n\n    // triggered when a smart token is deployed - the _token address is defined for forward compatibility, in case we want to trigger the event from a factory\n    event NewSmartToken(address _token);\n    // triggered when the total supply is increased\n    event Issuance(uint256 _amount);\n    // triggered when the total supply is decreased\n    event Destruction(uint256 _amount);\n\n    /**\n        @dev constructor\n\n        @param _name       token name\n        @param _symbol     token short symbol, minimum 1 character\n        @param _decimals   for display purposes only\n    */\n    function SmartToken(string _name, string _symbol, uint8 _decimals)\n        public\n        ERC20Token(_name, _symbol, _decimals)\n    {\n        NewSmartToken(address(this));\n    }\n\n    // allows execution only when transfers aren't disabled\n    modifier transfersAllowed {\n        assert(transfersEnabled);\n        _;\n    }\n\n    /**\n        @dev disables/enables transfers\n        can only be called by the contract owner\n\n        @param _disable    true to disable transfers, false to enable them\n    */\n    function disableTransfers(bool _disable) public ownerOnly {\n        transfersEnabled = !_disable;\n    }\n\n    /**\n        @dev increases the token supply and sends the new tokens to an account\n        can only be called by the contract owner\n\n        @param _to         account to receive the new amount\n        @param _amount     amount to increase the supply by\n    */\n    function issue(address _to, uint256 _amount)\n        public\n        ownerOnly\n        validAddress(_to)\n        notThis(_to)\n    {\n        totalSupply = safeAdd(totalSupply, _amount);\n        balanceOf[_to] = safeAdd(balanceOf[_to], _amount);\n\n        Issuance(_amount);\n        Transfer(this, _to, _amount);\n    }\n\n    /**\n        @dev removes tokens from an account and decreases the token supply\n        can be called by the contract owner to destroy tokens from any account or by any holder to destroy tokens from his/her own account\n\n        @param _from       account to remove the amount from\n        @param _amount     amount to decrease the supply by\n    */\n    function destroy(address _from, uint256 _amount) public {\n        require(msg.sender == _from || msg.sender == owner); // validate input\n\n        balanceOf[_from] = safeSub(balanceOf[_from], _amount);\n        totalSupply = safeSub(totalSupply, _amount);\n\n        Transfer(_from, this, _amount);\n        Destruction(_amount);\n    }\n\n    // ERC20 standard method overrides with some extra functionality\n\n    /**\n        @dev send coins\n        throws on any error rather then return a false flag to minimize user errors\n        in addition to the standard checks, the function throws if transfers are disabled\n\n        @param _to      target address\n        @param _value   transfer amount\n\n        @return true if the transfer was successful, false if it wasn't\n    */\n    function transfer(address _to, uint256 _value) public transfersAllowed returns (bool success) {\n        assert(super.transfer(_to, _value));\n        return true;\n    }\n\n    /**\n        @dev an account/contract attempts to get the coins\n        throws on any error rather then return a false flag to minimize user errors\n        in addition to the standard checks, the function throws if transfers are disabled\n\n        @param _from    source address\n        @param _to      target address\n        @param _value   transfer amount\n\n        @return true if the transfer was successful, false if it wasn't\n    */\n    function transferFrom(address _from, address _to, uint256 _value) public transfersAllowed returns (bool success) {\n        assert(super.transferFrom(_from, _to, _value));\n        return true;\n    }\n}\n",
  "sourcePath": "/Users/rudo/contracts/solidity/contracts/SmartToken.sol",
  "compiler": {
    "name": "solc",
    "version": "0.4.21+commit.dfe3193c.Emscripten.clang"
  },
  "schemaVersion": "2.0.0",
  "updatedAt": "2018-06-29T04:54:49.545Z"
}