{
  "contractName": "SmartTokenController",
  "abi": [
    {
      "constant": false,
      "inputs": [
        {
          "name": "_token",
          "type": "address"
        },
        {
          "name": "_to",
          "type": "address"
        },
        {
          "name": "_amount",
          "type": "uint256"
        }
      ],
      "name": "withdrawTokens",
      "outputs": [],
      "payable": false,
      "stateMutability": "nonpayable",
      "type": "function"
    },
    {
      "constant": false,
      "inputs": [],
      "name": "acceptOwnership",
      "outputs": [],
      "payable": false,
      "stateMutability": "nonpayable",
      "type": "function"
    },
    {
      "constant": true,
      "inputs": [],
      "name": "owner",
      "outputs": [
        {
          "name": "",
          "type": "address"
        }
      ],
      "payable": false,
      "stateMutability": "view",
      "type": "function"
    },
    {
      "constant": true,
      "inputs": [],
      "name": "newOwner",
      "outputs": [
        {
          "name": "",
          "type": "address"
        }
      ],
      "payable": false,
      "stateMutability": "view",
      "type": "function"
    },
    {
      "constant": false,
      "inputs": [
        {
          "name": "_newOwner",
          "type": "address"
        }
      ],
      "name": "transferOwnership",
      "outputs": [],
      "payable": false,
      "stateMutability": "nonpayable",
      "type": "function"
    },
    {
      "constant": true,
      "inputs": [],
      "name": "token",
      "outputs": [
        {
          "name": "",
          "type": "address"
        }
      ],
      "payable": false,
      "stateMutability": "view",
      "type": "function"
    },
    {
      "inputs": [
        {
          "name": "_token",
          "type": "address"
        }
      ],
      "payable": false,
      "stateMutability": "nonpayable",
      "type": "constructor"
    },
    {
      "anonymous": false,
      "inputs": [
        {
          "indexed": true,
          "name": "_prevOwner",
          "type": "address"
        },
        {
          "indexed": true,
          "name": "_newOwner",
          "type": "address"
        }
      ],
      "name": "OwnerUpdate",
      "type": "event"
    },
    {
      "constant": false,
      "inputs": [
        {
          "name": "_newOwner",
          "type": "address"
        }
      ],
      "name": "transferTokenOwnership",
      "outputs": [],
      "payable": false,
      "stateMutability": "nonpayable",
      "type": "function"
    },
    {
      "constant": false,
      "inputs": [],
      "name": "acceptTokenOwnership",
      "outputs": [],
      "payable": false,
      "stateMutability": "nonpayable",
      "type": "function"
    },
    {
      "constant": false,
      "inputs": [
        {
          "name": "_disable",
          "type": "bool"
        }
      ],
      "name": "disableTokenTransfers",
      "outputs": [],
      "payable": false,
      "stateMutability": "nonpayable",
      "type": "function"
    },
    {
      "constant": false,
      "inputs": [
        {
          "name": "_token",
          "type": "address"
        },
        {
          "name": "_to",
          "type": "address"
        },
        {
          "name": "_amount",
          "type": "uint256"
        }
      ],
      "name": "withdrawFromToken",
      "outputs": [],
      "payable": false,
      "stateMutability": "nonpayable",
      "type": "function"
    }
  ],
  "bytecode": "0x6060604052341561000f57600080fd5b60405160208061062e8339810160405280805160008054600160a060020a03191633600160a060020a03908116919091179091559092508291508116151561005657600080fd5b5060028054600160a060020a031916600160a060020a03929092169190911790556105a8806100866000396000f30060606040526004361061008a5763ffffffff60e060020a60003504166321e6b53d811461008f57806338a5e016146100b057806341a5b33d146100c35780635e35359e146100eb57806379ba50971461011357806385d5e631146101265780638da5cb5b1461013e578063d4ee1d901461016d578063f2fde38b14610180578063fc0c546a1461019f575b600080fd5b341561009a57600080fd5b6100ae600160a060020a03600435166101b2565b005b34156100bb57600080fd5b6100ae61022d565b34156100ce57600080fd5b6100ae600160a060020a0360043581169060243516604435610296565b34156100f657600080fd5b6100ae600160a060020a0360043581169060243516604435610326565b341561011e57600080fd5b6100ae6103ff565b341561013157600080fd5b6100ae600435151561048d565b341561014957600080fd5b6101516104ed565b604051600160a060020a03909116815260200160405180910390f35b341561017857600080fd5b6101516104fc565b341561018b57600080fd5b6100ae600160a060020a036004351661050b565b34156101aa57600080fd5b61015161056d565b60005433600160a060020a039081169116146101ca57fe5b600254600160a060020a031663f2fde38b8260405160e060020a63ffffffff8416028152600160a060020a039091166004820152602401600060405180830381600087803b151561021a57600080fd5b5af1151561022757600080fd5b50505050565b60005433600160a060020a0390811691161461024557fe5b600254600160a060020a03166379ba50976040518163ffffffff1660e060020a028152600401600060405180830381600087803b151561028457600080fd5b5af1151561029157600080fd5b505050565b60005433600160a060020a039081169116146102ae57fe5b600254600160a060020a0316635e35359e84848460405160e060020a63ffffffff8616028152600160a060020a0393841660048201529190921660248201526044810191909152606401600060405180830381600087803b151561031157600080fd5b5af1151561031e57600080fd5b505050505050565b60005433600160a060020a0390811691161461033e57fe5b82600160a060020a038116151561035457600080fd5b82600160a060020a038116151561036a57600080fd5b8330600160a060020a031681600160a060020a03161415151561038c57600080fd5b85600160a060020a031663a9059cbb868660405160e060020a63ffffffff8516028152600160a060020a0390921660048301526024820152604401602060405180830381600087803b15156103e057600080fd5b5af115156103ed57600080fd5b50505060405180519050151561031e57fe5b60015433600160a060020a0390811691161461041a57600080fd5b600154600054600160a060020a0391821691167f343765429aea5a34b3ff6a3785a98a5abb2597aca87bfbb58632c173d585373a60405160405180910390a3600180546000805473ffffffffffffffffffffffffffffffffffffffff19908116600160a060020a03841617909155169055565b60005433600160a060020a039081169116146104a557fe5b600254600160a060020a0316631608f18f8260405160e060020a63ffffffff84160281529015156004820152602401600060405180830381600087803b151561021a57600080fd5b600054600160a060020a031681565b600154600160a060020a031681565b60005433600160a060020a0390811691161461052357fe5b600054600160a060020a038281169116141561053e57600080fd5b6001805473ffffffffffffffffffffffffffffffffffffffff1916600160a060020a0392909216919091179055565b600254600160a060020a0316815600a165627a7a72305820cd12760097351ed17c8804d7fa2b7892144cfe4ad9401731ad331f0bd9bca86e0029",
  "source": "pragma solidity ^0.4.18;\nimport './TokenHolder.sol';\nimport './interfaces/ISmartToken.sol';\n\n/*\n    The smart token controller is an upgradable part of the smart token that allows\n    more functionality as well as fixes for bugs/exploits.\n    Once it accepts ownership of the token, it becomes the token's sole controller\n    that can execute any of its functions.\n\n    To upgrade the controller, ownership must be transferred to a new controller, along with\n    any relevant data.\n\n    The smart token must be set on construction and cannot be changed afterwards.\n    Wrappers are provided (as opposed to a single 'execute' function) for each of the token's functions, for easier access.\n\n    Note that the controller can transfer token ownership to a new controller that\n    doesn't allow executing any function on the token, for a trustless solution.\n    Doing that will also remove the owner's ability to upgrade the controller.\n*/\ncontract SmartTokenController is TokenHolder {\n    ISmartToken public token;   // smart token\n\n    /**\n        @dev constructor\n    */\n    function SmartTokenController(ISmartToken _token)\n        public\n        validAddress(_token)\n    {\n        token = _token;\n    }\n\n    // ensures that the controller is the token's owner\n    modifier active() {\n        assert(token.owner() == address(this));\n        _;\n    }\n\n    // ensures that the controller is not the token's owner\n    modifier inactive() {\n        assert(token.owner() != address(this));\n        _;\n    }\n\n    /**\n        @dev allows transferring the token ownership\n        the new owner still need to accept the transfer\n        can only be called by the contract owner\n\n        @param _newOwner    new token owner\n    */\n    function transferTokenOwnership(address _newOwner) public ownerOnly {\n        token.transferOwnership(_newOwner);\n    }\n\n    /**\n        @dev used by a new owner to accept a token ownership transfer\n        can only be called by the contract owner\n    */\n    function acceptTokenOwnership() public ownerOnly {\n        token.acceptOwnership();\n    }\n\n    /**\n        @dev disables/enables token transfers\n        can only be called by the contract owner\n\n        @param _disable    true to disable transfers, false to enable them\n    */\n    function disableTokenTransfers(bool _disable) public ownerOnly {\n        token.disableTransfers(_disable);\n    }\n\n    /**\n        @dev withdraws tokens held by the controller and sends them to an account\n        can only be called by the owner\n\n        @param _token   ERC20 token contract address\n        @param _to      account to receive the new amount\n        @param _amount  amount to withdraw\n    */\n    function withdrawFromToken(\n        IERC20Token _token, \n        address _to, \n        uint256 _amount\n    ) \n        public\n        ownerOnly\n    {\n        ITokenHolder(token).withdrawTokens(_token, _to, _amount);\n    }\n}\n",
  "sourcePath": "/Users/rudo/contracts/solidity/contracts/SmartTokenController.sol",
  "compiler": {
    "name": "solc",
    "version": "0.4.21+commit.dfe3193c.Emscripten.clang"
  },
  "schemaVersion": "2.0.0",
  "updatedAt": "2018-07-17T04:57:20.131Z"
}