{
  "contractName": "TestUtils",
  "abi": [
    {
      "inputs": [],
      "payable": false,
      "stateMutability": "nonpayable",
      "type": "constructor"
    },
    {
      "constant": true,
      "inputs": [
        {
          "name": "_x",
          "type": "uint256"
        },
        {
          "name": "_y",
          "type": "uint256"
        }
      ],
      "name": "testSafeAdd",
      "outputs": [
        {
          "name": "",
          "type": "uint256"
        }
      ],
      "payable": false,
      "stateMutability": "pure",
      "type": "function"
    },
    {
      "constant": true,
      "inputs": [
        {
          "name": "_x",
          "type": "uint256"
        },
        {
          "name": "_y",
          "type": "uint256"
        }
      ],
      "name": "testSafeSub",
      "outputs": [
        {
          "name": "",
          "type": "uint256"
        }
      ],
      "payable": false,
      "stateMutability": "pure",
      "type": "function"
    },
    {
      "constant": true,
      "inputs": [
        {
          "name": "_x",
          "type": "uint256"
        },
        {
          "name": "_y",
          "type": "uint256"
        }
      ],
      "name": "testSafeMul",
      "outputs": [
        {
          "name": "",
          "type": "uint256"
        }
      ],
      "payable": false,
      "stateMutability": "pure",
      "type": "function"
    }
  ],
  "bytecode": "0x6060604052341561000f57600080fd5b6101ee8061001e6000396000f300606060405260043610610057576000357c0100000000000000000000000000000000000000000000000000000000900463ffffffff1680639ee6ff701461005c578063de47864c1461009c578063ec0da330146100dc575b600080fd5b341561006757600080fd5b610086600480803590602001909190803590602001909190505061011c565b6040518082815260200191505060405180910390f35b34156100a757600080fd5b6100c66004808035906020019091908035906020019091905050610130565b6040518082815260200191505060405180910390f35b34156100e757600080fd5b6101066004808035906020019091908035906020019091905050610144565b6040518082815260200191505060405180910390f35b60006101288383610158565b905092915050565b600061013c838361018b565b905092915050565b600061015083836101a9565b905092915050565b60008082840290506000841480610179575082848281151561017657fe5b04145b151561018157fe5b8091505092915050565b600080828401905083811015151561019f57fe5b8091505092915050565b60008183101515156101b757fe5b8183039050929150505600a165627a7a7230582019b186da126cf095bb4f011a192b7022b92088ddb205a3da88cf9d8a34eb80250029",
  "source": "pragma solidity ^0.4.11;\nimport '../Utils.sol';\n\n/*\n    Utils test helper that exposes the safe math functions\n*/\ncontract TestUtils is Utils {\n    function TestUtils() public {\n    }\n\n    function testSafeAdd(uint256 _x, uint256 _y) public pure returns (uint256) {\n        return super.safeAdd(_x, _y);\n    }\n\n    function testSafeSub(uint256 _x, uint256 _y) public pure returns (uint256) {\n        return super.safeSub(_x, _y);\n    }\n\n    function testSafeMul(uint256 _x, uint256 _y) public pure returns (uint256) {\n        return super.safeMul(_x, _y);\n    }\n}\n",
  "sourcePath": "/Users/rudo/contracts/solidity/contracts/helpers/TestUtils.sol",
  "compiler": {
    "name": "solc",
    "version": "0.4.21+commit.dfe3193c.Emscripten.clang"
  },
  "schemaVersion": "2.0.0",
  "updatedAt": "2018-04-23T09:13:20.966Z"
}