{
  "contractName": "TestBancorFormula",
  "abi": [
    {
      "constant": true,
      "inputs": [
        {
          "name": "_supply",
          "type": "uint256"
        },
        {
          "name": "_connectorBalance",
          "type": "uint256"
        },
        {
          "name": "_connectorWeight",
          "type": "uint32"
        },
        {
          "name": "_depositAmount",
          "type": "uint256"
        }
      ],
      "name": "calculatePurchaseReturn",
      "outputs": [
        {
          "name": "",
          "type": "uint256"
        }
      ],
      "payable": false,
      "stateMutability": "view",
      "type": "function"
    },
    {
      "constant": true,
      "inputs": [
        {
          "name": "_supply",
          "type": "uint256"
        },
        {
          "name": "_connectorBalance",
          "type": "uint256"
        },
        {
          "name": "_connectorWeight",
          "type": "uint32"
        },
        {
          "name": "_sellAmount",
          "type": "uint256"
        }
      ],
      "name": "calculateSaleReturn",
      "outputs": [
        {
          "name": "",
          "type": "uint256"
        }
      ],
      "payable": false,
      "stateMutability": "view",
      "type": "function"
    },
    {
      "constant": true,
      "inputs": [],
      "name": "version",
      "outputs": [
        {
          "name": "",
          "type": "string"
        }
      ],
      "payable": false,
      "stateMutability": "view",
      "type": "function"
    },
    {
      "inputs": [],
      "payable": false,
      "stateMutability": "nonpayable",
      "type": "constructor"
    },
    {
      "constant": true,
      "inputs": [
        {
          "name": "_baseN",
          "type": "uint256"
        },
        {
          "name": "_baseD",
          "type": "uint256"
        },
        {
          "name": "_expN",
          "type": "uint32"
        },
        {
          "name": "_expD",
          "type": "uint32"
        }
      ],
      "name": "powerTest",
      "outputs": [
        {
          "name": "",
          "type": "uint256"
        },
        {
          "name": "",
          "type": "uint8"
        }
      ],
      "payable": false,
      "stateMutability": "view",
      "type": "function"
    },
    {
      "constant": true,
      "inputs": [
        {
          "name": "_numerator",
          "type": "uint256"
        },
        {
          "name": "_denominator",
          "type": "uint256"
        }
      ],
      "name": "lnTest",
      "outputs": [
        {
          "name": "",
          "type": "uint256"
        }
      ],
      "payable": false,
      "stateMutability": "pure",
      "type": "function"
    },
    {
      "constant": true,
      "inputs": [
        {
          "name": "_x",
          "type": "uint256"
        }
      ],
      "name": "findPositionInMaxExpArrayTest",
      "outputs": [
        {
          "name": "",
          "type": "uint8"
        }
      ],
      "payable": false,
      "stateMutability": "view",
      "type": "function"
    },
    {
      "constant": true,
      "inputs": [
        {
          "name": "_x",
          "type": "uint256"
        },
        {
          "name": "_precision",
          "type": "uint8"
        }
      ],
      "name": "fixedExpTest",
      "outputs": [
        {
          "name": "",
          "type": "uint256"
        }
      ],
      "payable": false,
      "stateMutability": "pure",
      "type": "function"
    },
    {
      "constant": true,
      "inputs": [
        {
          "name": "_n",
          "type": "uint256"
        }
      ],
      "name": "floorLog2Test",
      "outputs": [
        {
          "name": "",
          "type": "uint8"
        }
      ],
      "payable": false,
      "stateMutability": "pure",
      "type": "function"
    }
  ],
  "bytecode": "0x606060405260408051908101604052600381527f302e3300000000000000000000000000000000000000000000000000000000006020820152600090805161004b9291602001906107fe565b50341561005757600080fd5b6001606060020a641c35fedd1502036021556001605e60020a646c3390ecc902036022556001606160020a640cf801476102036023556001605f60020a6431bdb23e1d02036024556001605b60020a6502fb1d8fe08302036025556001605a60020a6505b771955b3702036026556001605960020a650af67a93bb5102036027556001605860020a6515060c256cb302036028556001605860020a651428a2f98d7302036029556001605660020a654d51566397090203602a556001605560020a65944620b0e70f0203602b557011c592761c666fffffffffffffffffffff602c5570110a688680a757ffffffffffffffffffff602d55701056f1b5bedf77ffffffffffffffffffff602e55700faadceceeff8bffffffffffffffffffff602f55700f05dc6b27edadffffffffffffffffffff603055700e67a5a25da4107fffffffffffffffffff603155700dcff115b14eedffffffffffffffffffff603255700d3e7a392431239fffffffffffffffffff603355700cb2ff529eb71e4fffffffffffffffffff603455700c2d415c3db974afffffffffffffffffff603555700bad03e7d883f69bffffffffffffffffff603655700b320d03b2c343d5ffffffffffffffffff603755700abc25204e02828dffffffffffffffffff603855700a4b16f74ee4bb207fffffffffffffffff6039557009deaf736ac1f569ffffffffffffffffff603a55700976bd9952c7aa957fffffffffffffffff603b557009131271922eaa606fffffffffffffffff603c557008b380f3558668c46fffffffffffffffff603d55700857ddf0117efa215bffffffffffffffff603e556001608360020a03603f557007abbf6f6abb9d087fffffffffffffffff60405570075af62cbac95f7dfa7fffffffffffffff60415570070d7fb7452e187ac13fffffffffffffff6042557006c3390ecc8af379295fffffffffffffff60435570067c00a3b07ffc01fd6fffffffffffffff604455700637b647c39cbb9d3d27ffffffffffffff6045557005f63b1fc104dbd39587ffffffffffffff6046557005b771955b36e12f7235ffffffffffffff60475570057b3d49dda84556d6f6ffffffffffffff60485570054183095b2c8ececf30ffffffffffffff60495570050a28be635ca2b888f77fffffffffffff604a557004d5156639708c9db33c3fffffffffffff604b557004a23105873875bd52dfdfffffffffffff604c55700471649d87199aa990756fffffffffffff604d557004429a21a029d4c1457cfbffffffffffff604e55700415bc6d6fb7dd71af2cb3ffffffffffff604f557003eab73b3bbfe282243ce1ffffffffffff6050557003c1771ac9fb6b4c18e229ffffffffffff605155700399e96897690418f785257fffffffffff605255700373fc456c53bb779bf0ea9fffffffffff60535570034f9e8e490c48e67e6ab8bfffffffffff60545570032cbfd4a7adc790560b3337ffffffffff60555570030b50570f6e5d2acca94613ffffffffff6056557002eb40f9f620fda6b56c2861ffffffffff6057557002cc8340ecb0d0f520a6af58ffffffffff6058557002af09481380a0a35cf1ba02ffffffffff605955700292c5bdd3b92ec810287b1b3fffffffff605a55700277abdcdab07d5a77ac6d6b9fffffffff605b5570025daf6654b1eaa55fd64df5efffffffff605c55700244c49c648baa98192dce88b7ffffffff605d5570022ce03cd5619a311b2471268bffffffff605e55700215f77c045fbe885654a44a0fffffffff605f556001608160020a036060557001eaefdbdaaee7421fc4d3ede5ffffffff6061557001d6bd8b2eb257df7e8ca57b09bfffffff6062557001c35fedd14b861eb0443f7f133fffffff6063557001b0ce43b322bcde4a56e8ada5afffffff60645570019f0028ec1fff007f5a195a39dfffffff60655570018ded91f0e72ee74f49b15ba527ffffff60665570017d8ec7f04136f4e5615fd41a63ffffff60675570016ddc6556cdb84bdc8d12d22e6fffffff60685570015ecf52776a1155b5bd8395814f7fffff60695570015060c256cb23b3b3cc3754cf40ffffff606a557001428a2f98d728ae223ddab715be3fffff606b5570013545598e5c23276ccf0ede68034fffff606c557001288c4161ce1d6f54b7f61081194fffff606d5570011c592761c666aa641d5a01a40f17ffff606e55700110a688680a7530515f3e6e6cfdcdffff606f557001056f1b5bedf75c6bcb2ce8aed428ffff6070556ffaadceceeff8a0890f3875f008277fff6071556ff05dc6b27edad306388a600f6ba0bfff6072556fe67a5a25da41063de1495d5b18cdbfff6073556fdcff115b14eedde6fc3aa5353f2e4fff6074556fd3e7a3924312399f9aae2e0f868f8fff6075556fcb2ff529eb71e41582cccd5a1ee26fff6076556fc2d415c3db974ab32a51840c0b67edff6077556fbad03e7d883f69ad5b0a186184e06bff6078556fb320d03b2c343d4829abd6075f0cc5ff6079556fabc25204e02828d73c6e80bcdb1a95bf607a556fa4b16f74ee4bb2040a1ec6c15fbbf2df607b556f9deaf736ac1f569deb1b5ae3f36c130f607c556f976bd9952c7aa957f5937d790ef65037607d556f9131271922eaa6064b73a22d0bd4f2bf607e556f8b380f3558668c46c91c49a2f8e967b9607f556f857ddf0117efa215952912839f6473e6608055610899565b828054600181600116156101000203166002900490600052602060002090601f016020900481019282601f1061083f57805160ff191683800117855561086c565b8280016001018555821561086c579182015b8281111561086c578251825591602001919060010190610851565b5061087892915061087c565b5090565b61089691905b808211156108785760008155600101610882565b90565b610c0a806108a86000396000f30060606040526004361061008d5763ffffffff7c010000000000000000000000000000000000000000000000000000000060003504166329a00e7c811461009257806349f9b0f7146100c957806354fd4d50146100ee5780638c5ce82a14610178578063a25a34b1146101bb578063b3ed2081146101e7578063ce782e0814610203578063dc06d8f814610219575b600080fd5b341561009d57600080fd5b6100b760043560243563ffffffff60443516606435610232565b60405190815260200160405180910390f35b34156100d457600080fd5b6100b760043560243563ffffffff60443516606435610300565b34156100f957600080fd5b6101016103f1565b60405160208082528190810183818151815260200191508051906020019080838360005b8381101561013d578082015183820152602001610125565b50505050905090810190601f16801561016a5780820380516001836020036101000a031916815260200191505b509250505060405180910390f35b341561018357600080fd5b6101a060043560243563ffffffff6044358116906064351661048f565b60405191825260ff1660208201526040908101905180910390f35b34156101c657600080fd5b6101d16004356104ab565b60405160ff909116815260200160405180910390f35b34156101f257600080fd5b6100b760043560ff602435166104bc565b341561020e57600080fd5b6101d16004356104cf565b341561022457600080fd5b6100b76004356024356104da565b600080600080600080891180156102495750600088115b801561025b575060008763ffffffff16115b80156102705750620f424063ffffffff881611155b151561027b57600080fd5b85151561028b57600094506102f4565b63ffffffff8716620f424014156102b857876102a78a886104e6565b8115156102b057fe5b0494506102f4565b6102c2868961050a565b91506102d3828989620f4240610519565b909450925060ff83166102e68a866104e6565b9060020a9004905088810394505b50505050949350505050565b60008060008060008060008a1180156103195750600089115b801561032b575060008863ffffffff16115b80156103405750620f424063ffffffff891611155b801561034c5750898711155b151561035757600080fd5b86151561036757600095506103e4565b89871415610377578895506103e4565b63ffffffff8816620f424014156103a457896103938a896104e6565b81151561039c57fe5b0495506103e4565b868a0392506103b88a84620f42408b610519565b90955093506103c789866104e6565b91505060ff831660020a8802848183038115156103e057fe5b0495505b5050505050949350505050565b60008054600181600116156101000203166002900480601f0160208091040260200160405190810160405280929190818152602001828054600181600116156101000203166002900480156104875780601f1061045c57610100808354040283529160200191610487565b820191906000526020600020905b81548152906001019060200180831161046a57829003601f168201915b505050505081565b60008061049e86868686610519565b9150915094509492505050565b60006104b682610572565b92915050565b60006104c88383610609565b9392505050565b60006104b682610a2c565b60006104c88383610a9c565b600082820283158061050257508284828115156104ff57fe5b04145b15156104c857fe5b6000828201838110156104c857fe5b6000806000808463ffffffff168663ffffffff166105378a8a610a9c565b0281151561054157fe5b04915061054d82610572565b905061056560ff607f8390031660020a830482610609565b9890975095505050505050565b60006020607f825b8160ff168360010160ff1610156105bf57600260ff8484011604905084600160ff8316608081106105a757fe5b0154106105b6578092506105ba565b8091505b61057a565b84600160ff8416608081106105d057fe5b0154106105df57819350610601565b84600160ff8516608081106105f057fe5b0154106105ff57829350610601565bfe5b505050919050565b6000806000849150600090508360ff168583029060020a90049150816f03442c4e6074a82f1797f72ac000000002810190508360ff168583029060020a90049150816f0116b96f757c380fb287fd0e4000000002810190508360ff168583029060020a90049150816e45ae5bdd5f0e03eca1ff439000000002810190508360ff168583029060020a90049150816e0defabf91302cd95b9ffda5000000002810190508360ff168583029060020a90049150816e02529ca9832b22439efff9b800000002810190508360ff168583029060020a90049150816d54f1cf12bd04e516b6da8800000002810190508360ff168583029060020a90049150816d0a9e39e257a09ca2d6db5100000002810190508360ff168583029060020a90049150816d012e066e7b839fa050c30900000002810190508360ff168583029060020a90049150816c1e33d7d926c329a1ad1a80000002810190508360ff168583029060020a90049150816c02bee513bdb4a6b19b5f80000002810190508360ff168583029060020a90049150816b3a9316fa79b88eccf2a0000002810190508360ff168583029060020a90049150816b048177ebe1fa81237520000002810190508360ff168583029060020a90049150816a5263fe90242dcbacf0000002810190508360ff168583029060020a90049150816a057e22099c030d9410000002810190508360ff168583029060020a90049150816957e22099c030d941000002810190508360ff168583029060020a900491508169052b6b5456997631000002810190508360ff168583029060020a9004915081684985f67696bf74800002810190508360ff168583029060020a90049150816803dea12ea99e49800002810190508360ff168583029060020a90049150816731880f2214b6e00002810190508360ff168583029060020a900491508167025bcff56eb3600002810190508360ff168583029060020a9004915081661b722e10ab100002810190508360ff168583029060020a90049150816601317c7007700002810190508360ff168583029060020a9004915081650cba84aafa0002810190508360ff168583029060020a90049150816482573a0a0002810190508360ff168583029060020a90049150816405035ad90002810190508360ff168583029060020a9004915081632f881b0002810190508360ff168583029060020a90049150816301b2934002810190508360ff168583029060020a9004915081620efc4002810190508360ff168583029060020a9004915081617fe002810190508360ff168583029060020a900491508161042002810190508360ff168583029060020a9004915081602102810190508360ff168583029060020a9004915081600102810190508360ff1660019060020a02856f0688589cc0e9505e2f2fee558000000083811515610a2057fe5b04010195945050505050565b60008080610100841015610a5b575b6001841115610a565760029093049260019190910190610a3b565b610a95565b5060805b60008160ff161115610a955760ff811660020a8410610a885760ff811660020a90930492908117905b600260ff90911604610a5f565b5092915050565b6000808080807001ffffffffffffffffffffffffffffffff871115610abd57fe5b60009350856f800000000000000000000000000000008802811515610ade57fe5b0492507001000000000000000000000000000000008310610b3757610b146f800000000000000000000000000000008404610a2c565b60ff81166f800000000000000000000000000000008102955060020a9093049291505b6f80000000000000000000000000000000831115610bae5750607f5b60008160ff161115610bae576f800000000000000000000000000000008380020492507001000000000000000000000000000000008310610ba55760ff600019820116600290810a9490940193909204915b60001901610b53565b6f05b9de1d10bf4103d647b0955897ba806f03f80fe03f80fe03f80fe03f80fe03f88502049796505050505050505600a165627a7a723058203435616efcbff0ac7b7ac59459a5bcdc3c9807de58195d1c98d93aeda540757d0029",
  "source": "pragma solidity ^0.4.11;\nimport '../BancorFormula.sol';\n\n/*\n    BancorFormula test helper that exposes some BancorFormula functions\n*/\ncontract TestBancorFormula is BancorFormula {\n    function TestBancorFormula() public {\n    }\n\n    function powerTest(uint256 _baseN, uint256 _baseD, uint32 _expN, uint32 _expD) public constant returns (uint256, uint8) {\n        return super.power(_baseN, _baseD, _expN, _expD);\n    }\n\n    function lnTest(uint256 _numerator, uint256 _denominator) public pure returns (uint256) {\n        return super.ln(_numerator, _denominator);\n    }\n\n    function findPositionInMaxExpArrayTest(uint256 _x) public constant returns (uint8) {\n        return super.findPositionInMaxExpArray(_x);\n    }\n\n    function fixedExpTest(uint256 _x, uint8 _precision) public pure returns (uint256) {\n        return super.fixedExp(_x, _precision);\n    }\n\n    function floorLog2Test(uint256 _n) public pure returns (uint8) {\n        return super.floorLog2(_n);\n    }\n}\n",
  "sourcePath": "/Users/rudo/Documents/ichiba/submodules/contracts/solidity/contracts/helpers/TestBancorFormula.sol",
  "compiler": {
    "name": "solc",
    "version": "0.4.21+commit.dfe3193c.Emscripten.clang"
  },
  "schemaVersion": "2.0.0",
  "updatedAt": "2018-08-07T03:35:53.214Z"
}