{
  "contractName": "TestCrowdsaleController",
  "abi": [
    {
      "constant": true,
      "inputs": [],
      "name": "BTCS_ETHER_CAP",
      "outputs": [
        {
          "name": "",
          "type": "uint256"
        }
      ],
      "payable": false,
      "stateMutability": "view",
      "type": "function"
    },
    {
      "constant": true,
      "inputs": [],
      "name": "TOKEN_PRICE_D",
      "outputs": [
        {
          "name": "",
          "type": "uint256"
        }
      ],
      "payable": false,
      "stateMutability": "view",
      "type": "function"
    },
    {
      "constant": false,
      "inputs": [],
      "name": "contributeETH",
      "outputs": [
        {
          "name": "amount",
          "type": "uint256"
        }
      ],
      "payable": true,
      "stateMutability": "payable",
      "type": "function"
    },
    {
      "constant": true,
      "inputs": [],
      "name": "DURATION",
      "outputs": [
        {
          "name": "",
          "type": "uint256"
        }
      ],
      "payable": false,
      "stateMutability": "view",
      "type": "function"
    },
    {
      "constant": true,
      "inputs": [
        {
          "name": "_contribution",
          "type": "uint256"
        }
      ],
      "name": "computeReturn",
      "outputs": [
        {
          "name": "",
          "type": "uint256"
        }
      ],
      "payable": false,
      "stateMutability": "pure",
      "type": "function"
    },
    {
      "constant": false,
      "inputs": [
        {
          "name": "_newOwner",
          "type": "address"
        }
      ],
      "name": "transferTokenOwnership",
      "outputs": [],
      "payable": false,
      "stateMutability": "nonpayable",
      "type": "function"
    },
    {
      "constant": true,
      "inputs": [],
      "name": "endTime",
      "outputs": [
        {
          "name": "",
          "type": "uint256"
        }
      ],
      "payable": false,
      "stateMutability": "view",
      "type": "function"
    },
    {
      "constant": true,
      "inputs": [],
      "name": "totalEtherCap",
      "outputs": [
        {
          "name": "",
          "type": "uint256"
        }
      ],
      "payable": false,
      "stateMutability": "view",
      "type": "function"
    },
    {
      "constant": false,
      "inputs": [],
      "name": "acceptTokenOwnership",
      "outputs": [],
      "payable": false,
      "stateMutability": "nonpayable",
      "type": "function"
    },
    {
      "constant": true,
      "inputs": [],
      "name": "beneficiary",
      "outputs": [
        {
          "name": "",
          "type": "address"
        }
      ],
      "payable": false,
      "stateMutability": "view",
      "type": "function"
    },
    {
      "constant": false,
      "inputs": [
        {
          "name": "_token",
          "type": "address"
        },
        {
          "name": "_to",
          "type": "address"
        },
        {
          "name": "_amount",
          "type": "uint256"
        }
      ],
      "name": "withdrawFromToken",
      "outputs": [],
      "payable": false,
      "stateMutability": "nonpayable",
      "type": "function"
    },
    {
      "constant": true,
      "inputs": [],
      "name": "TOKEN_PRICE_N",
      "outputs": [
        {
          "name": "",
          "type": "uint256"
        }
      ],
      "payable": false,
      "stateMutability": "view",
      "type": "function"
    },
    {
      "constant": true,
      "inputs": [],
      "name": "version",
      "outputs": [
        {
          "name": "",
          "type": "string"
        }
      ],
      "payable": false,
      "stateMutability": "view",
      "type": "function"
    },
    {
      "constant": false,
      "inputs": [
        {
          "name": "_token",
          "type": "address"
        },
        {
          "name": "_to",
          "type": "address"
        },
        {
          "name": "_amount",
          "type": "uint256"
        }
      ],
      "name": "withdrawTokens",
      "outputs": [],
      "payable": false,
      "stateMutability": "nonpayable",
      "type": "function"
    },
    {
      "constant": true,
      "inputs": [],
      "name": "startTime",
      "outputs": [
        {
          "name": "",
          "type": "uint256"
        }
      ],
      "payable": false,
      "stateMutability": "view",
      "type": "function"
    },
    {
      "constant": false,
      "inputs": [],
      "name": "acceptOwnership",
      "outputs": [],
      "payable": false,
      "stateMutability": "nonpayable",
      "type": "function"
    },
    {
      "constant": false,
      "inputs": [
        {
          "name": "_disable",
          "type": "bool"
        }
      ],
      "name": "disableTokenTransfers",
      "outputs": [],
      "payable": false,
      "stateMutability": "nonpayable",
      "type": "function"
    },
    {
      "constant": true,
      "inputs": [],
      "name": "owner",
      "outputs": [
        {
          "name": "",
          "type": "address"
        }
      ],
      "payable": false,
      "stateMutability": "view",
      "type": "function"
    },
    {
      "constant": true,
      "inputs": [],
      "name": "realEtherCapHash",
      "outputs": [
        {
          "name": "",
          "type": "bytes32"
        }
      ],
      "payable": false,
      "stateMutability": "view",
      "type": "function"
    },
    {
      "constant": false,
      "inputs": [
        {
          "name": "_cap",
          "type": "uint256"
        },
        {
          "name": "_key",
          "type": "uint256"
        }
      ],
      "name": "enableRealCap",
      "outputs": [],
      "payable": false,
      "stateMutability": "nonpayable",
      "type": "function"
    },
    {
      "constant": false,
      "inputs": [],
      "name": "contributeBTCs",
      "outputs": [
        {
          "name": "amount",
          "type": "uint256"
        }
      ],
      "payable": true,
      "stateMutability": "payable",
      "type": "function"
    },
    {
      "constant": true,
      "inputs": [],
      "name": "totalEtherContributed",
      "outputs": [
        {
          "name": "",
          "type": "uint256"
        }
      ],
      "payable": false,
      "stateMutability": "view",
      "type": "function"
    },
    {
      "constant": true,
      "inputs": [],
      "name": "btcs",
      "outputs": [
        {
          "name": "",
          "type": "address"
        }
      ],
      "payable": false,
      "stateMutability": "view",
      "type": "function"
    },
    {
      "constant": true,
      "inputs": [],
      "name": "newOwner",
      "outputs": [
        {
          "name": "",
          "type": "address"
        }
      ],
      "payable": false,
      "stateMutability": "view",
      "type": "function"
    },
    {
      "constant": true,
      "inputs": [
        {
          "name": "_cap",
          "type": "uint256"
        },
        {
          "name": "_key",
          "type": "uint256"
        }
      ],
      "name": "computeRealCap",
      "outputs": [
        {
          "name": "",
          "type": "bytes32"
        }
      ],
      "payable": false,
      "stateMutability": "pure",
      "type": "function"
    },
    {
      "constant": true,
      "inputs": [],
      "name": "MAX_GAS_PRICE",
      "outputs": [
        {
          "name": "",
          "type": "uint256"
        }
      ],
      "payable": false,
      "stateMutability": "view",
      "type": "function"
    },
    {
      "constant": false,
      "inputs": [
        {
          "name": "_newOwner",
          "type": "address"
        }
      ],
      "name": "transferOwnership",
      "outputs": [],
      "payable": false,
      "stateMutability": "nonpayable",
      "type": "function"
    },
    {
      "constant": true,
      "inputs": [],
      "name": "token",
      "outputs": [
        {
          "name": "",
          "type": "address"
        }
      ],
      "payable": false,
      "stateMutability": "view",
      "type": "function"
    },
    {
      "inputs": [
        {
          "name": "_token",
          "type": "address"
        },
        {
          "name": "_startTime",
          "type": "uint256"
        },
        {
          "name": "_beneficiary",
          "type": "address"
        },
        {
          "name": "_btcs",
          "type": "address"
        },
        {
          "name": "_realEtherCapHash",
          "type": "bytes32"
        },
        {
          "name": "_startTimeOverride",
          "type": "uint256"
        }
      ],
      "payable": false,
      "stateMutability": "nonpayable",
      "type": "constructor"
    },
    {
      "payable": true,
      "stateMutability": "payable",
      "type": "fallback"
    },
    {
      "anonymous": false,
      "inputs": [
        {
          "indexed": true,
          "name": "_contributor",
          "type": "address"
        },
        {
          "indexed": false,
          "name": "_amount",
          "type": "uint256"
        },
        {
          "indexed": false,
          "name": "_return",
          "type": "uint256"
        }
      ],
      "name": "Contribution",
      "type": "event"
    },
    {
      "anonymous": false,
      "inputs": [
        {
          "indexed": true,
          "name": "_prevOwner",
          "type": "address"
        },
        {
          "indexed": true,
          "name": "_newOwner",
          "type": "address"
        }
      ],
      "name": "OwnerUpdate",
      "type": "event"
    }
  ],
  "bytecode": "0x60606040526040805190810160405260038082527f302e31000000000000000000000000000000000000000000000000000000000060208301529080516200004c929160200190620001bb565b5060006004819055600581905569d3c21bcecceda100000060065560075560098054600160a060020a0319908116909155600a8054909116905534156200009257600080fd5b60405160c08062000f8b83398101604052808051919060200180519190602001805191906020018051919060200180519190602001805160008054600160a060020a03191633600160a060020a0390811691909117909155909250879150869086908690869085908190811615156200010a57600080fd5b5060028054600160a060020a031916600160a060020a039283161790558390811615156200013757600080fd5b82600160a060020a03811615156200014e57600080fd5b85428190106200015a57fe5b83600081116200016957600080fd5b505060098054600160a060020a03968716600160a060020a031991821617909155600a805495909616941693909317909355600855505050600482905550621275000160055550620002609350505050565b828054600181600116156101000203166002900490600052602060002090601f016020900481019282601f10620001fe57805160ff19168380011785556200022e565b828001600101855582156200022e579182015b828111156200022e57825182559160200191906001019062000211565b506200023c92915062000240565b5090565b6200025d91905b808211156200023c576000815560010162000247565b90565b610d1b80620002706000396000f3006060604052600436106101505763ffffffff60e060020a60003504166301d1c7fd811461015b5780630d2806ad14610180578063175323a8146101935780631be052891461019b5780631fc3a519146101ae57806321e6b53d146101c45780633197cbb6146101e557806334971dd6146101f857806338a5e0161461020b57806338af3eed1461021e57806341a5b33d1461024d57806345cfad3e1461027557806354fd4d50146102885780635e35359e1461031257806378e979251461033a57806379ba50971461034d57806385d5e631146103605780638da5cb5b14610378578063aa4bdd3b1461038b578063ad03abc51461039e578063b3cffc6e146103b7578063b591fc69146103bf578063bb632244146103d2578063d4ee1d90146103e5578063e2119c80146103f8578063e3bbb4f114610411578063f2fde38b14610424578063fc0c546a14610443575b610158610456565b50005b341561016657600080fd5b61016e610484565b60405190815260200160405180910390f35b341561018b57600080fd5b61016e610492565b61016e610456565b34156101a657600080fd5b61016e610497565b34156101b957600080fd5b61016e60043561049e565b34156101cf57600080fd5b6101e3600160a060020a03600435166104bd565b005b34156101f057600080fd5b61016e610538565b341561020357600080fd5b61016e61053e565b341561021657600080fd5b6101e3610544565b341561022957600080fd5b6102316105ad565b604051600160a060020a03909116815260200160405180910390f35b341561025857600080fd5b6101e3600160a060020a03600435811690602435166044356105bc565b341561028057600080fd5b61016e61064c565b341561029357600080fd5b61029b610651565b60405160208082528190810183818151815260200191508051906020019080838360005b838110156102d75780820151838201526020016102bf565b50505050905090810190601f1680156103045780820380516001836020036101000a031916815260200191505b509250505060405180910390f35b341561031d57600080fd5b6101e3600160a060020a03600435811690602435166044356106ef565b341561034557600080fd5b61016e6107c8565b341561035857600080fd5b6101e36107ce565b341561036b57600080fd5b6101e3600435151561085c565b341561038357600080fd5b6102316108bc565b341561039657600080fd5b61016e6108cb565b34156103a957600080fd5b6101e36004356024356108d1565b61016e6109a8565b34156103ca57600080fd5b61016e6109f0565b34156103dd57600080fd5b6102316109f6565b34156103f057600080fd5b610231610a05565b341561040357600080fd5b61016e600435602435610a14565b341561041c57600080fd5b61016e610a37565b341561042f57600080fd5b6101e3600160a060020a0360043516610a40565b341561044e57600080fd5b610231610aa2565b600060045460055481421015801561046d57508042105b151561047557fe5b61047d610ab1565b9250505090565b690a968163f0a57b40000081565b606481565b6212750081565b600060016104ad836064610cb5565b8115156104b657fe5b0492915050565b60005433600160a060020a039081169116146104d557fe5b600254600160a060020a031663f2fde38b8260405160e060020a63ffffffff8416028152600160a060020a039091166004820152602401600060405180830381600087803b151561052557600080fd5b5af1151561053257600080fd5b50505050565b60055481565b60065481565b60005433600160a060020a0390811691161461055c57fe5b600254600160a060020a03166379ba50976040518163ffffffff1660e060020a028152600401600060405180830381600087803b151561059b57600080fd5b5af115156105a857600080fd5b505050565b600954600160a060020a031681565b60005433600160a060020a039081169116146105d457fe5b600254600160a060020a0316635e35359e84848460405160e060020a63ffffffff8616028152600160a060020a0393841660048201529190921660248201526044810191909152606401600060405180830381600087803b151561063757600080fd5b5af1151561064457600080fd5b505050505050565b600181565b60038054600181600116156101000203166002900480601f0160208091040260200160405190810160405280929190818152602001828054600181600116156101000203166002900480156106e75780601f106106bc576101008083540402835291602001916106e7565b820191906000526020600020905b8154815290600101906020018083116106ca57829003601f168201915b505050505081565b60005433600160a060020a0390811691161461070757fe5b82600160a060020a038116151561071d57600080fd5b82600160a060020a038116151561073357600080fd5b8330600160a060020a031681600160a060020a03161415151561075557600080fd5b85600160a060020a031663a9059cbb868660405160e060020a63ffffffff8516028152600160a060020a0390921660048301526024820152604401602060405180830381600087803b15156107a957600080fd5b5af115156107b657600080fd5b50505060405180519050151561064457fe5b60045481565b60015433600160a060020a039081169116146107e957600080fd5b600154600054600160a060020a0391821691167f343765429aea5a34b3ff6a3785a98a5abb2597aca87bfbb58632c173d585373a60405160405180910390a3600180546000805473ffffffffffffffffffffffffffffffffffffffff19908116600160a060020a03841617909155169055565b60005433600160a060020a0390811691161461087457fe5b600254600160a060020a0316631608f18f8260405160e060020a63ffffffff84160281529015156004820152602401600060405180830381600087803b151561052557600080fd5b600054600160a060020a031681565b60085481565b60005433600160a060020a039081169116146108e957fe5b600254600160a060020a033081169116638da5cb5b6040518163ffffffff1660e060020a028152600401602060405180830381600087803b151561092c57600080fd5b5af1151561093957600080fd5b50505060405180519050600160a060020a031614151561095557fe5b60045460055481421015801561096a57508042105b151561097257fe5b600854849084906109838383610a14565b1461098d57600080fd5b600654861061099b57600080fd5b5050506006929092555050565b600a5460009033600160a060020a039081169116146109c357fe5b34690a968163f0a57b4000006109db60075483610ce0565b11156109e357fe5b6004544281901061047557fe5b60075481565b600a54600160a060020a031681565b600154600160a060020a031681565b600082826040519182526020820152604090810190518091039020905092915050565b640ba43b740081565b60005433600160a060020a03908116911614610a5857fe5b600054600160a060020a0382811691161415610a7357600080fd5b6001805473ffffffffffffffffffffffffffffffffffffffff1916600160a060020a0392909216919091179055565b600254600160a060020a031681565b6002546000908190600160a060020a033081169116638da5cb5b6040518163ffffffff1660e060020a028152600401602060405180830381600087803b1515610af957600080fd5b5af11515610b0657600080fd5b50505060405180519050600160a060020a0316141515610b2257fe5b34600654610b3260075483610ce0565b1115610b3a57fe5b640ba43b74003a1115610b4957fe5b610b523461049e565b600954909250600160a060020a03163480156108fc0290604051600060405180830381858888f193505050501515610b8957600080fd5b610b9560075434610ce0565b600755600254600160a060020a031663867904b4338460405160e060020a63ffffffff8516028152600160a060020a0390921660048301526024820152604401600060405180830381600087803b1515610bee57600080fd5b5af11515610bfb57600080fd5b5050600254600954600160a060020a03918216925063867904b491168460405160e060020a63ffffffff8516028152600160a060020a0390921660048301526024820152604401600060405180830381600087803b1515610c5b57600080fd5b5af11515610c6857600080fd5b50505033600160a060020a03167f5f7675b09617d2c9fa4fd13058ee5877a9538f626b0308816736e83748a45040348460405191825260208201526040908101905180910390a250919050565b6000828202831580610cd15750828482811515610cce57fe5b04145b1515610cd957fe5b9392505050565b600082820183811015610cd957fe00a165627a7a723058204a2e6978f0a6c5d127581fcbfba7b2c2c395e609852b8ee8697e7c883a0f653a0029",
  "source": "pragma solidity ^0.4.11;\nimport '../CrowdsaleController.sol';\n\n/*\n    Test crowdsale controller with start time < now < end time\n*/\ncontract TestCrowdsaleController is CrowdsaleController {\n    function TestCrowdsaleController(\n        ISmartToken _token,\n        uint256 _startTime,\n        address _beneficiary,\n        address _btcs,\n        bytes32 _realEtherCapHash,\n        uint256 _startTimeOverride)\n        public\n        CrowdsaleController(_token, _startTime, _beneficiary, _btcs, _realEtherCapHash)\n    {\n        startTime = _startTimeOverride;\n        endTime = startTime + DURATION;\n    }\n}\n",
  "sourcePath": "/Users/rudo/Documents/ichiba/submodules/contracts/solidity/contracts/helpers/TestCrowdsaleController.sol",
  "compiler": {
    "name": "solc",
    "version": "0.4.21+commit.dfe3193c.Emscripten.clang"
  },
  "schemaVersion": "2.0.0",
  "updatedAt": "2018-08-06T11:00:36.478Z"
}