{
  "contractName": "TokenHolder",
  "abi": [
    {
      "constant": false,
      "inputs": [],
      "name": "acceptOwnership",
      "outputs": [],
      "payable": false,
      "stateMutability": "nonpayable",
      "type": "function"
    },
    {
      "constant": true,
      "inputs": [],
      "name": "owner",
      "outputs": [
        {
          "name": "",
          "type": "address"
        }
      ],
      "payable": false,
      "stateMutability": "view",
      "type": "function"
    },
    {
      "constant": true,
      "inputs": [],
      "name": "newOwner",
      "outputs": [
        {
          "name": "",
          "type": "address"
        }
      ],
      "payable": false,
      "stateMutability": "view",
      "type": "function"
    },
    {
      "constant": false,
      "inputs": [
        {
          "name": "_newOwner",
          "type": "address"
        }
      ],
      "name": "transferOwnership",
      "outputs": [],
      "payable": false,
      "stateMutability": "nonpayable",
      "type": "function"
    },
    {
      "inputs": [],
      "payable": false,
      "stateMutability": "nonpayable",
      "type": "constructor"
    },
    {
      "anonymous": false,
      "inputs": [
        {
          "indexed": true,
          "name": "_prevOwner",
          "type": "address"
        },
        {
          "indexed": true,
          "name": "_newOwner",
          "type": "address"
        }
      ],
      "name": "OwnerUpdate",
      "type": "event"
    },
    {
      "constant": false,
      "inputs": [
        {
          "name": "_token",
          "type": "address"
        },
        {
          "name": "_to",
          "type": "address"
        },
        {
          "name": "_amount",
          "type": "uint256"
        }
      ],
      "name": "withdrawTokens",
      "outputs": [],
      "payable": false,
      "stateMutability": "nonpayable",
      "type": "function"
    }
  ],
  "bytecode": "0x608060405234801561001057600080fd5b5060008054600160a060020a03191633179055610458806100326000396000f30060806040526004361061006c5763ffffffff7c01000000000000000000000000000000000000000000000000000000006000350416635e35359e811461007157806379ba5097146100aa5780638da5cb5b146100bf578063d4ee1d90146100fd578063f2fde38b14610112575b600080fd5b34801561007d57600080fd5b506100a873ffffffffffffffffffffffffffffffffffffffff60043581169060243516604435610140565b005b3480156100b657600080fd5b506100a86102aa565b3480156100cb57600080fd5b506100d4610364565b6040805173ffffffffffffffffffffffffffffffffffffffff9092168252519081900360200190f35b34801561010957600080fd5b506100d4610380565b34801561011e57600080fd5b506100a873ffffffffffffffffffffffffffffffffffffffff6004351661039c565b60005473ffffffffffffffffffffffffffffffffffffffff16331461016157fe5b8273ffffffffffffffffffffffffffffffffffffffff8116151561018457600080fd5b8273ffffffffffffffffffffffffffffffffffffffff811615156101a757600080fd5b8373ffffffffffffffffffffffffffffffffffffffff81163014156101cb57600080fd5b8573ffffffffffffffffffffffffffffffffffffffff1663a9059cbb86866040518363ffffffff167c0100000000000000000000000000000000000000000000000000000000028152600401808373ffffffffffffffffffffffffffffffffffffffff1673ffffffffffffffffffffffffffffffffffffffff16815260200182815260200192505050602060405180830381600087803b15801561026e57600080fd5b505af1158015610282573d6000803e3d6000fd5b505050506040513d602081101561029857600080fd5b505115156102a257fe5b505050505050565b60015473ffffffffffffffffffffffffffffffffffffffff1633146102ce57600080fd5b6001546000805460405173ffffffffffffffffffffffffffffffffffffffff93841693909116917f343765429aea5a34b3ff6a3785a98a5abb2597aca87bfbb58632c173d585373a91a360018054600080547fffffffffffffffffffffffff000000000000000000000000000000000000000090811673ffffffffffffffffffffffffffffffffffffffff841617909155169055565b60005473ffffffffffffffffffffffffffffffffffffffff1681565b60015473ffffffffffffffffffffffffffffffffffffffff1681565b60005473ffffffffffffffffffffffffffffffffffffffff1633146103bd57fe5b60005473ffffffffffffffffffffffffffffffffffffffff828116911614156103e557600080fd5b600180547fffffffffffffffffffffffff00000000000000000000000000000000000000001673ffffffffffffffffffffffffffffffffffffffff929092169190911790555600a165627a7a72305820abac579fa2367ef1b526e15e5a115f3decd06f715394519b37b30b488c3180350029",
  "source": "pragma solidity ^0.4.23;\nimport './Owned.sol';\nimport './Utils.sol';\nimport './interfaces/ITokenHolder.sol';\nimport '../token/interfaces/IERC20Token.sol';\n\n/*\n    We consider every contract to be a 'token holder' since it's currently not possible\n    for a contract to deny receiving tokens.\n\n    The TokenHolder's contract sole purpose is to provide a safety mechanism that allows\n    the owner to send tokens that were sent to the contract by mistake back to their sender.\n*/\ncontract TokenHolder is ITokenHolder, Owned, Utils {\n    /**\n        @dev constructor\n    */\n    constructor() public {\n    }\n\n    /**\n        @dev withdraws tokens held by the contract and sends them to an account\n        can only be called by the owner\n\n        @param _token   ERC20 token contract address\n        @param _to      account to receive the new amount\n        @param _amount  amount to withdraw\n    */\n    function withdrawTokens(IERC20Token _token, address _to, uint256 _amount)\n        public\n        ownerOnly\n        validAddress(_token)\n        validAddress(_to)\n        notThis(_to)\n    {\n        assert(_token.transfer(_to, _amount));\n    }\n}\n",
  "sourcePath": "/Users/denny/github.com/evolutionlandorg/bancor-contracts/solidity/contracts/utility/TokenHolder.sol",
  "compiler": {
    "name": "solc",
    "version": "0.4.24+commit.e67f0147.Emscripten.clang"
  },
  "schemaVersion": "2.0.0",
  "updatedAt": "2018-09-06T07:32:58.271Z"
}